:020000040800F2
:10000000581D0020A1020008D3310008E12B000890
:10001000D1310008CD090008853D0008000000002E
:100020000000000000000000000000004136000851
:10003000B50A00080000000041330008D936000866
:10004000A93E0008BB020008BB020008BB02000872
:10005000BB020008BB020008E50A0008BB0200085A
:10006000690B0008A10B0008BB020008BB020008D6
:10007000BB020008BB020008BB020008BB0200086C
:10008000BB020008BB020008BB020008BB0200085C
:10009000D1090008BB020008BB020008BB0200082F
:1000A000BB020008BB020008BB020008BB0200083C
:1000B000BB0200088D37000899370008BB02000812
:1000C000BB020008BB020008BB020008BB0200081C
:1000D000BB020008BB020008BB020008BB0200080C
:1000E0002D0B0008BB020008BB020008BB02000881
:1000F000BB020008BB020008BB020008BB020008EC
:10010000BB020008BB020008BB020008BB020008DB
:10011000BB020008BB020008BB020008BB020008CB
:10012000BB020008BB020008BB020008BB020008BB
:10013000BB020008BB020008BB020008BB020008AB
:10014000DD090008BB020008BB020008BB02000872
:10015000BB020008BB020008BB020008393D0008D2
:10016000BB020008BB020008BB020008BB0200087B
:10017000BB020008BB020008BB0200080000000030
:10018000BB020008BB020008BB020008BB0200085B
:10019000BB020008BB020008BB020008BB0200084B
:1001A000BB020008BB020008BB02000800F002F816
:1001B00000F067F80AA090E8000C82448344AAF19A
:1001C0000107DA4501D100F05CF8AFF2090EBAE898
:1001D0000F0013F0010F18BFFB1A43F0010318477B
:1001E0002C7400004C7400000A444FF0000C10F80E
:1001F000013B13F0070408BF10F8014B1D1108BFA5
:1002000010F8015B641E05D010F8016B641E01F844
:10021000016BF9D113F0080F1EBF10F8014BAD1C94
:100220000C1B09D16D1E58BF01F801CBFAD505E0B2
:1002300014F8016B01F8016B6D1EF9D59142D6D30C
:10024000704700000023002400250026103A28BF34
:1002500078C1FBD8520728BF30C148BF0B60704738
:10026000642900F01181782900F04A81732900F097
:100270004883002070471FB507F0C7F81FBD10B5B1
:1002800010BD00F075FB1146FFF7F5FF04F044FBCD
:1002900000F093FB03B4FFF7F2FF03BC03F0B8FFD9
:1002A0000948804709480047FEE7FEE7FEE7FEE70A
:1002B000FEE7FEE7FEE7FEE7FEE7FEE70448054946
:1002C000054A064B704700007D370008AD01000865
:1002D00058170020581D00205819002058190020D8
:1002E000704753EA020C00F069802DE9F04B4FF0A3
:1002F0000006002B1FBFB3FA83F503FA05F424FAB6
:1003000005F65E4012BF1643B2FA82F502FA05F412
:10031000C5F120051EBF22FA05FC44EA0C04203575
:1003200056EA044C4FEA144418BF641C4FF000080E
:100330004FF00009904271EB030C39D3002919BF2B
:10034000B1FA81F701FA07F6B0FA80F700FA07F67A
:10035000C7F120071EBF20FA07FC46EA0C0620372B
:10036000B6FBF4FCA7EB0507103F07F01F0BCBF122
:1003700020060CFA0BFB2CFA06F644BFB346002607
:10038000202FA4BF5E464FF0000B5BEA060C08BFAF
:100390004FF0010B19EB0B09ABFB027C48EB060895
:1003A000C01B06FB02CC0BFB03CC71EB0C01C1E7BD
:1003B0000B46024641464846BDE8F08B13B54FF068
:1003C00000004FF00001AFF30080BDE81C40704713
:1003D0000FB4044910B503AA029800F097FA10BCB4
:1003E0005DF814FB8000002070B504468569006844
:1003F000C10601D5302600E02026C00707D070BD19
:10040000D4E9012130469047206A401C20626D1ECD
:10041000F6D570BD70B5044685690078C00707D170
:1004200070BDD4E9012120209047206A401C206241
:100430006D1EF6D570BD70B50C460546012A05D077
:100440002878800600D5EA69002302E0012305E050
:100450005B1C934202D2E05C0028F9D1A869E6183F
:10046000C01AA861286A184428622846FFF7BCFF12
:1004700004E0D5E9012114F8010B9047B442F8D308
:100480002846FFF7C7FF70BD2DE9F041064600245E
:1004900010687529314616A510D0AFF300800028EA
:1004A00002DA404213A507E031688A0701D512A598
:1004B00002E0490704D511A5012401E0AFF3008053
:1004C00000210A2206F1240709E0B0FBF2FCB0FB90
:1004D000F2F302FB1C00303078541846491C002807
:1004E000F3D123462A463046BDE8F04100F09EB9DC
:1004F000000000002D0000002B0000002000000084
:1005000070B504460D4621461068AFF3008021887F
:10051000090502D50F4A7A4402E00E4A7A440E32A7
:10052000002104F1240305E000F00F060009965DA8
:100530005E54491C0028F7D120780023000704D519
:10054000702D02D009B1022311322046BDE870405F
:1005500000F06CB9B87000002DE9F05F89460446E0
:100560004FF0000ADFF824B1FB44C0F820A0204679
:10057000E168884700287DD0252806D0D4E90121EC
:100580009047206A401C2062F1E700255F46204624
:10059000E16888472028064607DB312E05D2B819C6
:1005A00010F8200C08B10543F1E7A80701D525F0A4
:1005B0000405C4F81CA00027C4F818A02A2E09D0EE
:1005C000304603F007FD38B304EB8708303EC8F827
:1005D000186019E059F8041B204604EB870291616A
:1005E000E1688847012F064618D1E069002820DA23
:1005F00025F020051DE0D8F8180000EB800006EB80
:1006000040003038C8F818002046E16888470646A0
:1006100003F0E0FC0028EED1012F0AD02E2E08D1E5
:100620002046E16888477F1C0646022F45F02005DA
:10063000C4DBA069002803DA404245F00105A0614F
:10064000E80701D025F01005A6B1A6F14100192850
:1006500002D8203645F400654A46314620462560DA
:100660004D46FFF7FDFD60B1012807D0ED1D25F0D7
:10067000070000E007E000F1080978E705F1040948
:1006800075E730467AE7206ABDE8F09F8E7000007B
:1006900040EA010310B59B070FD1042A0DD310C8FF
:1006A00008C9121F9C42F8D020BA19BA884201D951
:1006B000012010BD4FF0FF3010BD1AB1D30703D099
:1006C000521C07E0002010BD10F8013B11F8014B4F
:1006D0001B1B07D110F8013B11F8014B1B1B01D16B
:1006E000921EF1D1184610BD032A40F2308010F05E
:1006F000030C00F0158011F8013BBCF1020F6244BD
:1007000098BF11F801CB00F8013B38BF11F8013B4D
:10071000A2F1040298BF00F801CB38BF00F8013BFA
:1007200011F0030300F02580083AC0F0088051F86A
:10073000043B083A51F804CBA0E80810F5E7121D75
:100740005CBF51F8043B40F8043BAFF30080D20794
:1007500024BF11F8013B11F801CB48BF11F8012B60
:1007600024BF00F8013B00F801CB48BF00F8012B83
:10077000704710B5203AC0F00B80B1E81850203A0D
:10078000A0E81850B1E81850A0E81850BFF4F5AF31
:100790005FEA027C24BFB1E81850A0E8185044BFBB
:1007A00018C918C0BDE810405FEA827C24BF51F828
:1007B000043B40F8043B08BF7047D20728BF31F81C
:1007C000023B48BF11F8012B28BF20F8023B48BF6D
:1007D00000F8012B70474FF0000200B51346944615
:1007E0009646203922BFA0E80C50A0E80C50B1F189
:1007F0002001BFF4F7AF090728BFA0E80C5048BF9D
:100800000CC05DF804EB890028BF40F8042B08BF3A
:10081000704748BF20F8022B11F0804F18BF00F836
:10082000012B704770477047704770472DE9F047BC
:100830000D4699469246044600F124080168880650
:1008400004D5E06921F01001216000E00120A842F8
:1008500001DD471B00E00027A1697A1902EB0900BE
:10086000081AA0612078C00602D42046FFF7BCFD1C
:10087000002608E0D4E901211AF806009047206A12
:10088000401C761C20624E45F4DB2078C0060AD559
:100890002046FFF7A9FD06E0D4E90121302090476A
:1008A000206A401C2062381EA7F10107F4DC07E033
:1008B000D4E9012118F805009047206A401C206205
:1008C000281EA5F10105F3DC2046FFF7A3FD2078E3
:1008D000000602D50220BDE8F0870120FBE710B535
:1008E000436913B1AFF3008001E0FFF7A4FD0120DD
:1008F00010BD127800F124010A7000224A70012212
:10090000EDE711684FF0FF32E9E70000074B70B5E3
:100910000D467B4400F015F80446284600F024F804
:1009200010B14FF0FF3070BD204670BD173D000084
:1009300000487047F816002001694A1C02610878D7
:10094000704700B58FB0CDE901310021059105490F
:100950007944CDE9031011466846FFF7FDFD0FB05D
:1009600000BD0000E5FFFFFF007B00F08000704746
:100970007546FFF7DDFFAE4605006946534620F099
:100980000700854618B020B5FFF798FCBDE8204069
:100990004FF000064FF000074FF000084FF0000B3B
:1009A00021F00701AC46ACE8C009ACE8C009ACE8EE
:1009B000C009ACE8C0098D46704710B50446AFF3D6
:1009C00000802046BDE81040FFF764BCFEE7000051
:1009D000014800F01DBA000030130020014800F06B
:1009E00017BA00005813002030B4D0F89C20D0F87B
:1009F000A0404FF0FF3352F8212024F81130C2F309
:100A000007420121831883F8B010D0F8AC3030BC15
:100A1000114618472DE9F04F9946DDE90A5A4FF083
:100A2000FF3BDDF824C041E0AB1A5BB20C78002B31
:100A300003DD00BF04FA03F403E0C3F1000324FA6A
:100A400003F4E6B202DDC5F1080301E0C2F10803D8
:100A5000DCB2844200D9044605EB0408FF2707FAFC
:100A600008F3C5F10805EF403B439CF800509E4356
:100A70001D4035432244D2B28CF80050072A07D9D2
:100A80000022B9F1000F01D05B4600E001231944B8
:100A900008F0FF05072D07D90025BAF1000F01D096
:100AA0005B4600E001239C44001BC0B20028BBD180
:100AB000BDE8F08F70470000411C0CD00749B1F928
:100AC0000020904201D1521E0A80054A00EB4000EE
:100AD000002102F830104FF0FF30704784000020F2
:100AE0003816002010B50A2000F046FB0C48D0F85C
:100AF000000201280CD10B48D0F8801261B100210E
:100B0000C0F88012D0F8801241B10021C0F88412E0
:100B100005490120086010BD0121F1E70121F5E739
:100B20000000404200804042143C014010B50A20C1
:100B300000F022FB0948D0F8340238B90848D0F850
:100B4000841241B15FF00001C0F8841205494FF4EE
:100B50000050086010BD0121F6E70000000041428E
:100B600000804042143C014010B50A2000F004FB14
:100B70000848D0F8080238B90748D0F8801239B1CF
:100B80005FF00001C0F8801204490420086010BD25
:100B90000121F7E70080434200804042143C0140BD
:100BA00010B50A2000F0E8FA0C48D0F80C0268B939
:100BB0000B48D0F8841269B15FF00001C0F88412CC
:100BC000D0F8801241B10021C0F8801205490820F8
:100BD000086010BD0121F1E70121F5E700804342E3
:100BE00000804042143C014070B50546D0F8380101
:100BF000008818B300242E1996F8B0000F2818D0DA
:100C000028680078A04214D096F8400140B9D5F881
:100C1000342112B1214628469047012086F8B000C1
:100C200096F840012146401E86F84001284603F010
:100C30004DFF641CE4B2802CDDD370BDB5F93001EA
:100C4000FFF73AFFA5F8300170BDF0B590F82050DD
:100C50000468A468012D05D0022D03D0416A41F437
:100C6000802157E014F0406F01D1E5004FD5C4F367
:100C700001640125A5401D608D684FF4C0739DB1CE
:100C8000CE6835434E6845EAC605066803EB04178F
:100C9000F5514FF4C275076805EB04150E697E51D6
:100CA000097D012905D009E00E88CD6845EA465541
:100CB000EBE701684E5946F480764E511179D579AB
:100CC000567941EA056195792D0445EA06252943BF
:100CD0004FF4C676056806EB0416A9511178D5784D
:100CE00041EA0561957852782D0445EA02221143C4
:100CF0004FF4C475026805EB04155151006803EB0D
:100D00000411425842F0010242500020F0BD416AF5
:100D100041F4001141620120F0BD704770B590F8B8
:100D20002040012C05D0022C03D0416A41F48021DF
:100D300028E0046809B32469A40720D04FF4D874CC
:100D4000056804EB01142D5915F00405956005683C
:100D50002D591AD0ED08556005682C5904F002048D
:100D6000D4604FF4DA74056804EB01142E5906F0D0
:100D70000F06082E0CD308250DE0E468DCE7416A75
:100D800041F400114162012070BD6D0D1560E3E773
:100D90002D5905F00F05156105682D59C5F3072577
:100DA000956105682C59240C54614FF4DC72046879
:100DB00002EB0112A4581C700468A458240A5C7049
:100DC0000468A458240C9C700468A258120EDA70AF
:100DD0004FF4DE72046802EB0112A4581C7104681F
:100DE000A458240A5C710468A458240C9C710468FB
:100DF000A258120EDA71006829B1016941F0200190
:100E00000161002070BDC16841F02001C160F8E7B8
:100E10002DE9F05F0546006800244669D0F804908B
:100E20008768D0F80CB0D0F810A0D0F81880F1077F
:100E300048D0F90714D001218160B80703D52846AE
:100E400000F094F90CE0780702D54FF4006407E055
:100E5000380702D54FF4805402E0284600F085F9A7
:100E6000F80516D529684FF480708860B80503D559
:100E7000284600F07DF90CE0780502D544F40054D2
:100E800007E0380502D544F4804402E0284600F02B
:100E90006EF9F80316D529684FF480308860B803DE
:100EA00003D5284600F066F90CE0780302D544F437
:100EB000004407E0380302D544F4803402E02846B9
:100EC00000F057F9300707D55FEACB6004D52968F1
:100ED000102044F40074C86070074FF0080707D56D
:100EE0005FEA0B7004D52868C760284600F08EF8CA
:100EF000B00706D52868C068800702D0284600F0F1
:100F000087F8700607D55FEACA6004D52968102003
:100F100044F480640861B00607D55FEA0A7004D51E
:100F200028680761284600F01DF9F00606D52868F4
:100F30000069800702D0284600F015F9B00308D5F3
:100F40005FEAC96005D5296810204860284600F08E
:100F50000BF9F00307D55FEA097004D528684760EC
:100F6000284600F008F9300446D55FEA497040D5BC
:100F7000F00504D55FEAC87001D044F00104B00563
:100F800004D55FEA887001D544F00204700504D5E9
:100F90005FEA487001D544F00404300529D518F003
:100FA000700F26D008F07000402815D006DC1028FD
:100FB00009D020280AD0302816D10AE050280ED0B7
:100FC000602811D10EE044F008040DE044F0100454
:100FD0000AE044F0200407E044F0400404E044F058
:100FE000800401E044F480742868816921F0700174
:100FF0008161296804204860002C05D0686A20437C
:1010000068622846FFF789FEBDE8F09F7047000040
:10101000F0B58DB000262D4D009601966968074603
:1010200034462BA0FFF7D4F9A5F50870874228D1E4
:101030006B4602AA00213846FFF770FE2C48039940
:101040002C4A016001881278C1F3841105F10C0764
:10105000914214D10078C10711D0274A69460B5D2F
:101060001355641CE4B2082CF9D36968C0F3440238
:1010700022A0FFF7ADF9012038710DB0F0BD3E712F
:10108000FBE7284887421BD16B4602AA002138465D
:10109000FFF744FE0298ADF8240006988DF827006B
:1010A000024669460AA8FFF764FB09A91E4803F037
:1010B0001BF91048401E8168491C81601BA001E09B
:1010C000696821A0FFF784F9D7E7000050150020D8
:1010D0002564206D73204341533A20726563762066
:1010E0004E6577204672616D65200A0D0000000094
:1010F00044000020010000203C0000202564206DF9
:1011000073204341533A2072656376204E65772001
:101110004672616D6520547970652069732025647D
:101120000A0D000058130020F00800202564204319
:10113000414E322052656376204E657720467261BB
:101140006D6521200A0D00002564207265637620FC
:101150006572726F722063616E206672616D6520C8
:101160000A0D00007047704770477047704770471E
:10117000704770477047704770B5044600F02EF90D
:101180000546601C02D004480078044400F026F9AB
:10119000401BA042FAD370BD2C0000202DE9F84F6F
:1011A000DFF8F8A10022012403254FF00F090AF10E
:1011B000040BAAF1040E00BF0B6804FA02F63340D8
:1011C000B34270D10F7907F00307012F01D0022F2E
:1011D00016D187684FEA420805FA08FC27EA0C078F
:1011E000D1F80CC00CFA08FC4CEA070CC0F808C097
:1011F0004768B7430E79C6F3001696403E434660F3
:101200000E79F643B6070AD0C7684FEA420C05FAD2
:101210000CF6B7438E6806FA0CF63E43C6600E79AC
:1012200006F00306022E10D1D60800EB8608D8F887
:10123000206057074FEAD76C09FA0CF7BE430F69D5
:1012400007FA0CF73743C8F8207006684FEA420CDB
:1012500005FA0CF7BE430F7907F0030707FA0CF7FE
:10126000374307604E6816F4403F1CD04C4E376839
:1012700047F480473760366822F0030706F480465B
:101280000096484E07EB060CDCF8086897073F0FFE
:1012900009FA07F826EA0806DFF80C81404503D171
:1012A0004FF0000841E072E0DFF80081404502D1D4
:1012B0004FF0010839E0DFF8F880404502D14FF0E7
:1012C000020832E0DFF8EC80404502D14FF003081D
:1012D0002BE0DFF8E480404502D14FF0040824E021
:1012E000DFF8D880404502D14FF005081DE0DFF857
:1012F000D080404502D14FF0060816E0DFF8C480E8
:10130000404502D14FF007080FE0DFF8BC804045B0
:1013100002D14FF0080808E0DFF8B080404502D164
:101320004FF0090801E04FF00A0808FA07F848EA08
:101330000608CCF80888DAF800605746D1F804C0EF
:101340009E435FEACC2C00D51E433E60DBF8006074
:101350005F46D1F804C09E435FEA8C2C00D51E4343
:101360003E60DEF800607746D1F804C09E435FEA35
:101370008C3C00D51E433E60084F083F3E68D1F8C4
:1013800004C09E435FEACC3C00D51E433E60521C25
:10139000102AFFF411AFBDE8F88F0000083C0140AF
:1013A0004438024000300140000002400004024086
:1013B00000080240000C02400010024000140240ED
:1013C00000180240001C024000200240002402409D
:1013D0000AB1816170470904FBE700000148806899
:1013E000704700002C0000200248816802781144F8
:1013F000816070472C0000200B4810B5016841F453
:1014000000710160016841F480610160016841F48C
:1014100080710160032000F06FF80F2000F006F8E3
:1014200000F024F8002010BD003C024070B50D4DC6
:1014300004464FF47A712878B1FBF0F00A49096844
:10144000B1FBF0F000F0EBFE48B9102C07D20022FF
:101450002146501E00F030F800206C6070BD012065
:1014600070BD00002C000020380000200A4808B59C
:10147000016841F480410160006800F48040009000
:101480000548001F016841F080510160006800F0CC
:101490008050009008BD000044380240002809DB5D
:1014A00000F01F02012191404009800000F1E0207E
:1014B000C0F8001170470000F0B40E4B1B680C46DA
:1014C000C3F30223C3F10705042D00D90425191D18
:1014D000072901D2002300E0DB1E012606FA05F1F0
:1014E000491E214099409E40761E16403143F0BC73
:1014F00002F0F7BC0CED00E0064900F007020868B6
:101500004FF6FF03184040EA0220034A10430860E8
:10151000704700000CED00E00000FA052DE9F843EB
:101520001748016841F0805101600068154F00F0D4
:101530008050012600903E64FFF750FF05464FF4AF
:101540007A78114C05E000BFFFF748FF401B40458B
:101550000DD86068C003F7D57E64FFF73FFF0546EE
:10156000464607E0FFF73AFF401BB04202D903208E
:10157000BDE8F88360688003F4D50020F8E7000038
:101580004038024000000E42007000402DE9F04754
:101590000E46050065D0DFF81481D8F80000F7B2D8
:1015A00000F00F00B04207D288F80070D8F80000B1
:1015B00000F00F00B04254D128683D4C810712D58D
:1015C000400703D5206840F4E050206028780007E9
:1015D00003D5206840F4604020602068A96820F0AE
:1015E000F000084320602878C0072DD03049686893
:1015F0000839012812D0022813D0032811D0096815
:10160000890700292DDA216821F0030101432160B7
:10161000FFF7E4FE814641F2883A0EE0096889034B
:10162000EFE709688901ECE7FFF7D8FEA0EB0901B5
:10163000514502D90320BDE8F0872068696800F0B1
:101640000C00B0EB810FEFD1D8F80010404601F04C
:101650000F01B14207D90770006800F00F00B042D7
:1016600001D00120E7E72878400705D52068E96820
:1016700020F4E050084320602878000706D5206851
:10168000296920F4604040EAC100206000F038F889
:101690002168084AC1F30311515CC840064908603B
:1016A00006480068FFF7C2FE0020C4E7003C024085
:1016B0000838024024740008380000203000002060
:1016C0000448054900680968044AC1F38221515C55
:1016D000C8407047380000200838024034740008C1
:1016E0000448054900680968044AC1F34231515C65
:1016F000C8407047380000200838024034740008A1
:10170000154810B5006810F00C02144813D01449A5
:10171000042A0FD0082A0ED10F4C241F22682368F8
:1017200002F03F025B0207D52068C0F38810A0FBDF
:10173000010106E0084610BD2168C1F38811A1FB34
:1017400000010023FEF7CDFD2168C1F30141491CD2
:101750004900B0FBF1F010BD083802400024F4004D
:1017600040787D012DE9F84F04006ED02078DFF835
:101770004C93C007A9F104054AD009F1040001689F
:10178000C1F38101012908D00068C0F3810002285B
:101790000AD1D9F80000400206D52868800337D561
:1017A00060680028E1D033E06068B0F5803F10D079
:1017B000B0F5A02F286810D020F480302860286869
:1017C00020F4802028606068A8B1FFF707FE064675
:1017D0000DE0286840F48030F4E740F48020286071
:1017E000F7E700BFFFF7FAFD801B642873D828686D
:1017F0008003F7D50CE0FFF7F1FD064605E000BFDA
:10180000FFF7ECFD801B6428F0D828688003F7D42C
:101810002078DFF8AC8280074FF0000A3ED5A74859
:10182000001D016811F00C0F08D00068C0F38100A2
:1018300002280BD1D9F80000400207D4286880079D
:1018400016D5E068012800D112E033E1E068B8B1B4
:101850000120C8F80000FFF7C1FD064605E000BF03
:10186000FFF7BCFD801B0228C0D828688007F7D589
:101870002868216920F0F80040EAC10028600DE0E6
:10188000C8F800A0FFF7AAFD064604E0FFF7A6FD92
:10189000801B02281FD828688007F7D4207800070B
:1018A00022D5864F87486169703771B10121016087
:1018B000FFF794FD064604E0FFF790FD801B022829
:1018C00009D838688007F7D50EE0C0F800A0FFF708
:1018D00085FD064605E082E0FFF780FD801B0228BB
:1018E0007DD838688007F7D42078400768D5DFF8BE
:1018F000CCB100270BF13C0BDBF80000C0000BD48F
:10190000DBF8001041F08051CBF80010DBF800004C
:10191000012700F0805000906B4E3068C00510D455
:10192000306840F480703060FFF758FD009005E0AB
:10193000FFF754FD0099401A022850D83068C005BE
:10194000F6D55E4EA0686C3601280FD005283068A9
:1019500010D020F001003060306820F004003060CA
:10196000A068B8B1FFF73AFD00900FE0306840F092
:101970000100F4E740F004003060F7E7FFF72EFDC8
:101980000099411A41F28830814266D83068800758
:10199000F4D50EE0FFF722FD009007E0FFF71EFDF3
:1019A0000099411A41F28830814256D83068800748
:1019B000F4D42FB1DBF8001021F08051CBF80010E7
:1019C000A069C8B33D49091D0968C1F38101022915
:1019D0004AD00228504607D0C8F8600000E03CE03A
:1019E000FFF7FCFC04463BE04746C8F86000FFF701
:1019F000F5FC064605E000BFFFF7F0FC801B02285F
:101A00002BD828688001F7D4D4E907010843A16ADC
:101A10002E4A490802EB0141626A41EA82110843F9
:101A200094F82C1040EA0161C9F8001001203866D2
:101A3000FFF7D4FC044606E03EE000BFFFF7CEFC13
:101A4000001B022809D828688001F7D534E000BFC0
:101A5000FFF7C4FC001B022802D90320BDE8F88F61
:101A600028688001F4D427E00128F7D0D9F80000D5
:101A7000E26900F4800191421CD1226A00F03F012A
:101A8000914217D147F6C071626A0140B1EB821FE3
:101A900010D1A26A4FF0FF3300F4403103EB520241
:101AA000B1EB024F06D194F82C1000F07060B0EB4F
:101AB000016F01D00120D1E70020CFE704380240B8
:101AC00000004742800E4742007000400000FFFFC8
:101AD00008B5FF208DF80000322301226946034833
:101AE00000F044F99DF8000008BD0000D813002064
:101AF00001B5322301226946044800F0E2F90028CA
:101B000002D003A0FEF764FC08BD0000D81300203B
:101B100020535049342053656E64204661696C65DA
:101B20006421200A0D00000070B5040009D0606A2D
:101B3000002540B125616561A56294F8510040B16E
:101B40000CE0012070BD6068B0F5827FF4D0E561E3
:101B5000F2E784F85050204600F044F8022084F860
:101B600051002068016821F040010160A0882189AE
:101B700000F4827001F404410843A18901F400617A
:101B80000843217C01F002010843217D01F001019D
:101B90000843218B01F400710843217F01F03801D3
:101BA000084394F8201001F080010843218D01F4CE
:101BB0000051084321680860A069042101EA10402F
:101BC00094F8241001F0100108432168486020684F
:101BD000C16921F40061C1616565012084F851008B
:101BE000002070BD2DE9F04186B0044614216846FE
:101BF000FEF7F1FD5348524B226800245149143836
:101C00000225032605279A4215D10A6842F480521C
:101C10000A60096801F480510591016841F00101F1
:101C200001600068694600F001000590E020CDE900
:101C3000000545481AE0434BDFF810C11B1FDFF8D1
:101C4000108162451AD1196841F480411960196800
:101C500001F480410591016841F0020101600068D2
:101C600000F0020005904FF4604030E002AA82E8E4
:101C7000D000FFF793FA06B0BDE8F081DFF8D4C0DA
:101C8000624529D1196841F400411960196801F4CD
:101C900000410591016841F004010160016801F013
:101CA00004010591016841F002010160006802AA87
:101CB00000F0020005904FF48050CDE900050627A2
:101CC00082E8D00069462448FFF768FA1820CDE979
:101CD000000569464046C9E7204B9A4215D10A687B
:101CE00042F400520A60096801F40051059101684C
:101CF00041F0100101600068694600F01000059095
:101D00006420CDE900051648B0E7164B9A42B2D1DF
:101D10000A6842F480120A60096801F48011059192
:101D2000016841F0200101600068694600F0200070
:101D300005904FF46070CDE900050B4896E7000070
:101D400000300140443802400000024000380040AA
:101D500000040240003C0040000802400034014002
:101D60000010024000500140001402402DE9F84FDD
:101D7000044690F85100984616460F460025012863
:101D800001D0022598E060684FF0040BB0F5827F27
:101D900001D1A068F8B194F85000012826D04FF086
:101DA000010984F85090FFF719FB8246002F7FD07D
:101DB000002E7DD084F851B000206065A763A6870F
:101DC000E6872063A086E08620646064A068B0F5A2
:101DD000004F0DD016E084F851B013460A46204655
:101DE000CDF8008000F024F9BDE8F88F0220FBE771
:101DF0002068016821F0400101602068016821F439
:101E00008041016020680168490603D4016841F0FF
:101E100040010160E068D8B13BE020688168C907F3
:101E200009D0007BA16B0870A06B401CA063E08F01
:101E3000401EE0870CE0FFF7D1FAA0EB0A01414514
:101E400003D3B8F1FF3F03D006E0B8F1000F03D091
:101E5000E08F0028E1D11FE003252BE02068816896
:101E6000C90709D0C068A16B0880A06B801CA06363
:101E7000E08F401EE0870CE0FFF7B0FAA0EB0A010C
:101E8000414503D3B8F1FF3F03D0E5E7B8F1000FB8
:101E9000E2D0E08F0028E1D152464146204601F0D1
:101EA0000FFB08B120206065606D00E000E008B124
:101EB000012501E084F85190002084F85000284664
:101EC00092E72DE9F84F044690F850000026984616
:101ED00015468A4601280CD0012784F85070FFF778
:101EE0007DFA814694F85100B346012804D00226B9
:101EF0009AE00220BDE8F88FBAF1000F6FD0002DF4
:101F00006DD0032084F85100C4F854B0C4F830A058
:101F1000A586E586C4F838B0A4F83CB0A4F83EB075
:101F2000C4F844B0C4F840B0A068B0F5004F09D17F
:101F30002068016821F0400101602068016841F4D7
:101F40008041016020680168490603D4016841F0BE
:101F500040010160E068B0F5006F606803D058B3DD
:101F6000012D29D049E008B1012D1FD1206B216836
:101F70000088C86006E020688168890709D5216B60
:101F80000988C160206B801C2063E08E401EE086C3
:101F90000CE0FFF723FAA0EB0901414503D3B8F1A8
:101FA000FF3F03D006E0B8F1000F03D0E08E002819
:101FB000E1D125E0032635E0206B21680078087325
:101FC00006E02068816889070AD5216B09780173CA
:101FD000206B401C2063E08E401EE0860DE01FE079
:101FE000FFF7FCF9A0EB0901414503D3B8F1FF3F2E
:101FF00003D0DFE7B8F1000FDCD0E08E0028E0D19D
:102000004A464146204601F089FA08B12020606521
:10201000A06818B92068C16880680090606D08B138
:10202000012601E084F8517084F850B0304661E731
:102030002DE9FF4F81B0044690F8500000260E9F16
:102040001D4693464FF0010901280FD04FF0010AB9
:1020500084F850A0FFF7C2F9804694F851006168F7
:1020600001280DD0B1F5827F08D103E0022005B030
:10207000BDE8F08FA16809B9042801D00226C9E0A3
:102080000298002865D0BBF1000FFBD0002DF9D0DD
:1020900094F85100042802D0052084F85100002053
:1020A0006065C4F838B0E587A58702992163E586A5
:1020B000A5862064606420680168490603D401682D
:1020C00041F040010160E068B0F5006F606803D046
:1020D000F0B3012D47D081E008B1012D3CD1206B38
:1020E00021680088C860206B801C2063E08E401E41
:1020F000E08631E02068816889070FD5E18E69B1FB
:10210000B9F1010F0AD1216B0988C160206B801CD5
:102110002063E08E401EE0864FF000092068816851
:10212000C9070CD0E18F51B1C068A16B0880A06BCA
:10213000801CA063E08F401EE0874FF00109FFF78D
:102140004DF9A0EB0800B84206D3781C04D001E09A
:1021500009E05BE003265BE0E08E0028CAD1E08F57
:102160000028C7D140E0206B216800780873206BFD
:10217000401C2063E08E401EE0862FE020688168CE
:1021800089070FD5E18E69B1B9F1010F0AD1216B31
:1021900009780173206B401C2063E08E401EE086AE
:1021A0004FF0000920688168C9070CD0E18F51B158
:1021B000C068A16B0870A06B401CA063E08F401E3C
:1021C000E0874FF00109FFF709F9A0EB0800B842DA
:1021D00002D3781C02D0BAE7002FB8D0E08E0028D6
:1021E000CCD1E08F0028C9D142463946204601F0C3
:1021F00095F918B10126202060650BE0A06818B998
:102200002068C16880680090606D08B1012601E017
:1022100084F851A0002084F85000304627E710B51C
:10222000401EB0F1807F01D3012010BD4FF0E024AB
:1022300060610F21601701F054FE0020A0610720AB
:102240002061002010BD7047704710B590F83C2009
:10225000012A22D0012280F83C20CA688C6822F42E
:10226000407222434C6822F4806222430C6822F4BC
:10227000006222430C6922F4805222434C6922F40A
:1022800000522243C969002322F480420A430168B4
:102290004A6480F83C30002010BD022010BD0000D0
:1022A00070B590F83C20012A32D0012480F83C40DF
:1022B000022280F83D2003685A689D6822F070066B
:1022C0000A6832435A60134B02689A4214D0B2F142
:1022D000804F11D0104B9A420ED0104B9A420BD027
:1022E0000F4B9A4208D00F4B9A4205D00E4B9A42A0
:1022F00002D00E4B9A4204D1496825F0800319435D
:10230000916080F83D40002180F83C10084670BD87
:10231000022070BD000001400004004000080040A1
:10232000000C004000040140004001400018004043
:1023300010B5040003D094F83D0010B107E001206F
:1023400010BD002084F83C00204600F01FF8022059
:1023500084F83D00211D206801F024FA012084F852
:10236000460084F83E0084F83F0084F8400084F87A
:10237000410084F8420084F8430084F8440084F863
:10238000450084F83D00002010BD000010B586B067
:10239000044614216846FEF71EFA244922680023E9
:1023A00023488A4207D1016841F0010101600068B9
:1023B00000F001002DE01E491E4C091FA2421ED153
:1023C000086840F002000860086800F0020005900C
:1023D00017481438016841F004010160006869463B
:1023E00000F004000590501500900220CDE9010393
:1023F000CDE903301048FEF7D1FE06B010BD0F4BFB
:102400009A4208D1086840F004000860086800F0AB
:1024100004000590F1E70A498A42EED1016841F0D3
:1024200002010160006800F00200F2E700000140D4
:102430004438024000040040000802400008004008
:102440000004014090F83D10012901D0012070479F
:10245000022180F83D100168CA6842F00102CA609A
:1024600000681149884214D0B0F1804F11D00F4953
:1024700088420ED00E4988420BD00E49884208D0BF
:102480000D49884205D00D49884202D00C49884246
:1024900004D1816801F00701062903D0016841F0E9
:1024A000010101600020704700000140000400406D
:1024B00000080040000C00400004014000400140C2
:1024C0000018004070B5044690F83C000025012833
:1024D00017D0012684F83C60022084F83D00206873
:1024E000826822F0770222F47F42826008685028D6
:1024F00038D00DDC20284FD005DC90B3102811D146
:102500004AE0022070BD302846D040280AD13BE086
:1025100060282FD070280DD0B0F5805F03D0B0F5C3
:10252000005F12D0012584F83D60002084F83C0053
:10253000284670BDCB68D1E90121206801F09EF9E1
:102540002068816841F0770109E0CB68D1E9012179
:10255000206801F093F92068816841F4804181602E
:10256000E1E719E0CA684968206801F05BFA502188
:10257000206806E0CA684968206801F064FA6021B2
:10258000206801F085F9CEE7CA684968206801F043
:1025900049FA40212068F4E7226801461046F0E736
:1025A00070472DE9F04104460068C66805694FF0A0
:1025B0000007A90713D5B10711D5F91E0161012044
:1025C0002077206880698007204602D0FFF7E8FF67
:1025D00004E000F002F9204600F02EF927776807A2
:1025E00016D5700714D521686FF004000861022029
:1025F00020772068806910F4407F204602D0FFF7E2
:10260000CFFF04E000F0E9F8204600F015F9277745
:10261000280715D5300713D521686FF00800086129
:10262000042020772068C0698007204602D0FFF789
:10263000B7FF04E000F0D1F8204600F0FDF827775E
:10264000E80616D5F00614D521686FF01000086171
:10265000082020772068C06910F4407F204602D00F
:10266000FFF79EFF04E000F0B8F8204600F0E4F821
:102670002777E80708D0F00706D021686FF001003F
:102680000861204600F0DAF8280608D5300606D59D
:1026900021686FF0800008612046FFF7D4FD6806CE
:1026A00008D5700606D521686FF040000861204605
:1026B00000F03EF9A8060AD5B00608D521686FF0EB
:1026C000200008612046BDE8F041FFF7BDBDBDE830
:1026D000F081000030B587B0044614216846FEF74B
:1026E0007AF8224D23680020214902220124AB42BE
:1026F00010D10B6843F010030B60096801F0100162
:10270000059111020091CDE90120CDE9030469464C
:10271000184811E0184DAB4212D10B6843F4807396
:102720000B6009680094CDE9012001F48071CDE9C6
:102730000421039069461148FEF730FD07B030BD13
:102740000F4CA342FAD10B6843F080030B60096879
:1027500001F08001059161140091CDE90120039001
:102760000320049069460748E6E7000000000140A6
:102770003038024000100240000C004000200240AF
:1027800000040140001C024070B5044690F83C0073
:10279000002501280FD0012084F83C006AB1042AEA
:1027A0000FD0082A11D00C2A13D00125002084F85C
:1027B0003C00284670BD022070BD206801F070F812
:1027C000F4E7206801F09CF8F0E7206801F0CEF80B
:1027D000ECE7206801F0FEF8E8E7704710B5040068
:1027E00003D094F83D0010B107E0012010BD002097
:1027F00084F83C00204600F01EF8022084F83D00DA
:10280000211D206800F0CEFF012084F8460084F8E6
:102810003E0084F83F0084F8400084F8410084F8CA
:10282000420084F8430084F8440084F8450084F8AA
:102830003D00002010BD70477047000030B42E4AA4
:1028400002F1D80190424AD10A682C4C002301F1D0
:102850000C00A24203D20A68521C0A6004E00B601A
:102860004B600278521C02700A686424B2FBF4F5D3
:1028700004FB15220124BAB94A68521C4A60027B43
:10288000142A01D3447303731D4A5578012D08D1CE
:10289000D5786D1CD570D5780A2D02D3D3705370BE
:1028A0009470027B521C02734A684FF47A73B2FB35
:1028B000F3F503FB15223AB94B68124A5568AB424F
:1028C00002D044704B68536009680F4AB1FBF2F3C1
:1028D00002FB1311002900D1846030BC7047064A06
:1028E0004832904202D130BC01F0F2B8496830BCA5
:1028F00006A0FDF76DBD000078140020002A7515B4
:102900008C1500200000002040420F002564206D3F
:102910007320556E6B6E6F776E2054494D45522073
:10292000496E74657275707421200D0A00000000F4
:10293000704770B5040004D094F84100002510B130
:1029400006E0012070BD84F84050204600F024F8D5
:10295000242084F841002068C16821F40051C1603E
:10296000204601F029F92068016921F490410161B4
:102970002068416921F02A0141612068C16841F461
:102980000051C1606564202084F8410084F8420051
:102990006563002070BD00002DE9F04F87B004464C
:1029A00014216846FDF717FF5848574B226800244A
:1029B0005649103802250326DFF854B14FF4406C15
:1029C0004FF008099A4213D10A6842F400220A60C3
:1029D000096801F400210591016841F004010160DA
:1029E0000068694600F00400CDE9049058466AE0AA
:1029F000464BDFF820811B1D0727DFF81CA142454D
:102A00001BD1196841F010011960196801F010011B
:102A10000591016841F0010101600068694600F01C
:102A2000010005904FF4C060CDE9000550462FE04D
:102A3000FEF7B4FB07B0BDE8F08FDFF8E080424559
:102A40002AD10A6842F400320A60096801F40031B0
:102A50000591016841F001010160016801F0010187
:102A60000591016841F008010160006802AA00F0C8
:102A7000080005900420CDE9000582E8D0006946F1
:102A80005046FEF78BFB4020CDE9000524486946FF
:102A900002AA82E8D000CBE7DFF88880424517D150
:102AA0000A6842F480220A60096801F480210591D5
:102AB000016841F0020101600068694600F002000F
:102AC000CDE904701848CDE900C5CDE90246AFE76D
:102AD00016498A42AED1196841F02001196019687F
:102AE00001F020010591016841F0040101600068D6
:102AF00002AA00F004000590C020CDE9000582E89C
:102B000050026946584693E7004C00404038024066
:102B10000008024000100140000002400044004054
:102B2000000C024000480040000402400014014034
:102B30002DE9F84F044690F842009A4616460D4695
:102B4000202802D00220BDE8F88FB5B1AEB1002038
:102B50006064222184F842102063FEF73FFCA685C2
:102B60008146E685A0684FF480582027404501D172
:102B7000206920B12E46002529E00120E3E7002648
:102B800025E04B46002220212046CDF800A001F090
:102B900099F818B184F842700320D4E726B1A068F0
:102BA00040451AD038B108E020684068C0F30800FA
:102BB00025F8020B08E0206978B12068406800F031
:102BC0007F0000BF06F8010BE08D401EE085E08D20
:102BD0000028D6D184F84270B5E720684068F1E754
:102BE000FEE700002DE9F04F87B014216846FDF79D
:102BF000F2FD8548016841F010010160016801F0B3
:102C000010010591016841F480710160016801F4CF
:102C100080710591016841F020010160016801F0B7
:102C200020010591016841F080010160016801F017
:102C300080010591016841F004010160016801F023
:102C400004010591016841F001010160016801F092
:102C500001010591016841F002010160016801F084
:102C600002010591016841F008010160016801F06D
:102C700008010591016841F0400101600068DFF83A
:102C80008CB100F040000590012218215846FEF753
:102C90009FFB002240215E48FEF79AFB4FF48176AD
:102CA000002231465B48FEF793FB48F212070022F0
:102CB00039465948FEF78CFB002204215748FEF79D
:102CC00087FB41F20308002241465548FEF780FB8E
:102CD00000227A215348FEF77BFB4FF480690022E3
:102CE00049465148FEF774FB4FF4407A01225146A1
:102CF0004B48FEF76DFB18200124CDE900040020AD
:102D00000325CDE9020569465846FEF747FA40F625
:102D10000400009000200190029069464148FEF7AF
:102D20003DFA4020CDE900040020CDE902056946C6
:102D30003748FEF733FA002000960395CDE90140AD
:102D400069463448FEF72AFA002000970395CDE93A
:102D5000014069463048FEF721FA0420CDE900041D
:102D60000020CDE9020569462C48FEF717FA00203D
:102D7000CDF800800395CDE9014069462848FEF76B
:102D80000DFA7A20CDE900040020CDE9020569465C
:102D90002448FEF703FA0020CDF800900395CDE912
:102DA000014069462048FEF7F9F9CDE900A46946DB
:102DB0001B48CDE90245FEF7F1F9012210215846E2
:102DC000FEF706FB012211031548FEF701FB012265
:102DD00040210F48FEF7FCFA0122B91E0E48FEF70B
:102DE000F7FA002221020B48FEF7F2FA0022022134
:102DF0000848FEF7EDFA012202210748FEF7E8FA3B
:102E000007B0BDE8F08F00003038024000100240EB
:102E1000001402400008024000000240001C024072
:102E20000004024000200240001802400F4810B584
:102E30000D4901604FF48271416000218160C160E1
:102E40004FF400720161C0E905121022C0E90721A8
:102E5000416281620A21C162FEF766FE002801D04C
:102E600072B6FEE710BD0000003001408013002064
:102E70000E4810B50C4901604FF482714160002189
:102E80008160C1604FF400720161C0E90512C16147
:102E90000162416281620A21C162FEF745FE00289B
:102EA00001D072B6FEE710BD00340140D8130020F7
:102EB00010B596B000240F941094119412941394AA
:102EC0001C2108A81494FDF786FC20216846FDF714
:102ED00082FC27482549C0E900144FF6FF71C0E97C
:102EE0000241046144618461FFF722FA08B172B6BD
:102EF000FEE74FF480500F900FA91D48FFF7E2FA4C
:102F000008B172B6FEE71A48FFF768FC08B172B65E
:102F1000FEE7139413A916481494FFF7C1F908B1FA
:102F200072B6FEE7089409940A940B940C940D94DD
:102F3000002208A90E480E94FFF726FC08B172B6CD
:102F4000FEE700944FF40050CDE904400294019450
:102F50000394694606480794FFF777F908B172B6FB
:102F6000FEE70348FFF7B6FB16B010BD00000140B6
:102F70003014002010B586B0002416480094019447
:102F80000294039404941249059401605921C0E904
:102F900001140921C0E903148461FFF7C9F908B1DC
:102FA00072B6FEE74FF48050009069460948FFF77B
:102FB00089FA08B172B6FEE7049404A9054805949D
:102FC000FFF76EF9002801D072B6FEE706B010BD1B
:102FD000000400407814002041F20163C81A9942AD
:102FE00071D03EDC41F28123A1EB030099426BD00A
:102FF0001DDC41F20703A1EB0300994273D00BDC07
:10300000B1F5805F75D06FF48050081873D0042834
:1030100073D0052863D172E00D2875D0112875D0C2
:10302000122875D0A0F50070793858D172E040F2BE
:103030007F13A0F27F1198427ED008DC012873D064
:10304000022873D0032873D0042848D172E00129E4
:1030500076D0022976D0032976D0B1F5007F3ED113
:1030600074E0B0F5806F6AD01BDC40F20123A0F25F
:103070000121984279D00ADC01286BD002286ED059
:10308000A0F58070FF386CD0012828D16BE00129B1
:103090006DD002296DD003296DD0B1F5FF7F1ED10F
:1030A0006BE040F6FF13A0F6FF11984272D00CDCE3
:1030B000A0F58060013864D0012864D0022864D073
:1030C00003280CD164E043E026E0012964D0022902
:1030D00064D07839B1F5804162D0872962D0354813
:1030E0001060002070470DE003E004E005E00BE015
:1030F0000CE0002057E0012055E0022053E00320BF
:1031000051E005E004204EE005204CE006204AE0B6
:10311000072048E0082046E0092044E00CE003E0F6
:1031200004E005E00CE00DE00A203CE00B203AE072
:103130000C2038E00D2036E00E2034E004E01EE0E4
:103140000F2030E010202EE011202CE012202AE089
:10315000132028E0142026E007E000E001E015201D
:1031600021E016201FE017201DE018201BE0192089
:1031700019E01A2017E01B2015E01C2013E01D2089
:1031800011E01E200FE01F200DE020200BE001E0E9
:10319000212008E0222006E0232004E0242002E091
:1031A000252000E0262000211160034901EBC0002A
:1031B00098E7000000000206807400089F2803D1F1
:1031C000087808B1014870470020704730000906B0
:1031D000FEE7FEE710B503F0C7FD002010BD10B5F7
:1031E000044601F007FB204601F0C2FA002010BDA2
:1031F00010B5044601F0D0FD204601F08FFD0020FF
:1032000010BD0000D0F80812097869B900210A46FB
:1032100006E000BFD0F80C3243F82120491CC9B2A7
:1032200090F805328B42F5D80020704730B401EB9E
:10323000C102846802254FF0FF3305EB420563535A
:1032400000238468062505EB4202A35230BCC9B2B4
:1032500003F044BA30B401EBC102846804254FF096
:10326000FF3305EB420563538368C9B213F812407C
:1032700024F0010403F8124030BC03F02FBA000020
:103280002DE9FC41064640694FF4C0550489B069F8
:103290000789C4B1DFF83C80BC4214D801AB6A4650
:1032A0002946304603F00FFA009838B9019828B142
:1032B000C0F80880C0F80C80C0F814806D1C641C35
:1032C000ADB2A4B2E8E73046BDE8FC41002100F011
:1032D00097BE00006B3A00082DE9F04704464069AC
:1032E00000260589A069B0F8088035BBBDE8F087E5
:1032F000A16806EBC607022000EB470931F9090077
:10330000FDF7DAFBA26822F80900A168042000EBAF
:10331000470931F90900FDF7CFFBA268761CF6B228
:1033200022F80900A1680020062201F81700A16810
:1033300002EB47026D1C8852ADB24545D8D9D5E79E
:1033400070473EB50446D0F8A4000088A8B12068B4
:103350006946007800F5E060ADF8000001208DF8C6
:10336000030000208DF8020094F878008DF8040026
:10337000D4F8E00100F0F6FF3EBD34F9A80FFDF7E8
:103380009BFB20803EBD7CB51D46144601AB6A46C2
:1033900003F099F9009931B9019921B10079A0425E
:1033A00001D941F8245000987CBD00002DE9FC4172
:1033B000054640690F464088002831D007EB870159
:1033C00005EB0114A96994F8282049881044884223
:1033D00026D86968134E51F83000C06A90F8008012
:1033E0004FF0FF30A4F87200852084F82A0094F88A
:1033F0003200CDE90006238E94F82910284603F008
:1034000041FAE662626F2AB1414628469047E06A77
:10341000B04205D1F9B22846BDE8FC4103F03AB903
:10342000BDE8FC81000004051FB501EB810100EB44
:1034300001114A6B0AB98A6B4A630392012203ABFA
:10344000CDE90032029201F13C0391F83220098E5D
:1034500000F064FE04B010BD70B501EB810100EB1B
:1034600001118C6BA018202801D9FF2070BD00200D
:1034700006E026181D5C0E44401C86F83C50C0B285
:103480009042F6D3886B10448863002070BD000022
:10349000012210210148FDF79BBF000000100240EF
:1034A000002210210148FDF793BF000000100240E8
:1034B000012080F310887047002080F31088704747
:1034C000F8B5044640684FF48273984221D1A06851
:1034D0004FF48065B0F5004F01D0A8420AD12068B2
:1034E000066826F0400606606068984211D1A06820
:1034F000A8420ED000920B4600228021204600F008
:1035000043F8002804D0606D40F02000606503207F
:10351000F8BD00920B4600220121EFE7F8B51546F1
:103520000E460B46009204460122022100F02CF8C0
:10353000A0B9134813490068B0FBF1F04FF47A7159
:10354000484300906068B0F5827F0DD13346002279
:1035500080212046009500F017F870B1606D40F0B2
:10356000200060650320F8BD009830B1401E009037
:1035700020688068C0430006F6D50020F8BD000032
:103580003800002000366E012DE9F8431E469146B2
:1035900088460446089DFDF721FF401B351AFDF7BC
:1035A0001DFF074625480068C0F3CB30684338E06C
:1035B000701C37D0FDF712FFC01BA84203D215B113
:1035C000009860B32CE02068416821F0E001416080
:1035D0006068B0F5827F0BD1A068B0F5004F02D0D3
:1035E000B0F5806F04D12068016821F040010160CE
:1035F000A06AB0F5005F09D12068016821F400518C
:1036000001602068016841F400510160012084F8E4
:103610005100002084F850000320BDE8F883002505
:10362000401E00902068816838EA010004D0002123
:103630004945BDD10020F0E70121F9E7380000201D
:10364000704700002DE9F05F8B4621498246002635
:10365000B1F900001C4691461C4D401C08E000BF1B
:10366000B9F1000F01D02A7852B1761C36B2183564
:10367000864201DC082EF3DB4FF0FF30BDE8F09FFF
:103680008846864201D1A8F8000000F0DBFF07461B
:103690004FF6FF7120468C4200D30846D8F804202C
:1036A000BA4207D9D21B824204D93A18C8F804207A
:1036B00003F0BAFAE019C5E903B0C5E901A90A980F
:1036C0006861012028703046D8E7000038160020D5
:1036D0008400002003F0F2B8FDF786BE30B593B049
:1036E00030216846FDF777F814210CA8FDF773F830
:1036F00020480025016841F080510160006800F019
:10370000805011901C48016821F4404141F48041EF
:1037100001600068022400F44040119001200090F4
:10372000000401908001CDE90640192008904FF473
:10373000B470CDE9090404200B906846FEF712F836
:1037400008B172B6FEE7FDF7E9FE08B172B6FEE712
:103750000F20CDE90C0480200E904001CDE90F052B
:1037600002210CA8FDF712FF002801D072B6FEE777
:1037700013B030BD4038024000700040024801687C
:1037800041F470010160704788ED00E00148FEF7E8
:1037900008BF0000781400200148FEF702BF0000B7
:1037A000C0140020F0B50268294C2A4D2A4E2B4F38
:1037B0002B4B4FF0804CA04209D0604507D0A84267
:1037C00005D0B04203D0B84201D0984204D122F0D3
:1037D000700E4A6842EA0E02A0421BD0604519D022
:1037E000A84217D0B04215D0B84213D0984211D099
:1037F0001C4DA8420ED01C4DA8420BD01B4DA84218
:1038000008D01B4DA84205D01A4DA84202D01A4D2F
:10381000A84203D122F44075CA682A434D6922F0B8
:1038200080022A4302608A68C2620A688262A042F9
:1038300001D0984201D10969016301214161016907
:10384000C90703D0016921F001010161F0BD000049
:10385000000001400004004000080040000C00404F
:103860000004014000400140004401400048014084
:1038700000180040001C00400020004010B5846883
:1038800042EA032224F47F440A432243826010BDAB
:10389000826822F070020A4342F00701816070479B
:1038A000F0B5036A026A22F001020262426884698A
:1038B000124E24F073050C682C4323F002058B682C
:1038C0002B430D4DA84201D0B04205D123F008078B
:1038D000CB683B4323F00403A84201D0B04205D19A
:1038E0004D6922F4407215438A692A43426084611B
:1038F000496841630362F0BD0000014000040140DB
:10390000F0B5026A036A23F0100303624368846916
:103910000D6824F4E64444EA05248D6822F0200270
:1039200042EA05120F4D104EA84201D0B04206D116
:10393000CF6822F0800242EA071222F04002A84239
:1039400001D0B04207D14D6923F4406343EA8503B7
:103950008D6943EA8503436084614968816302623B
:10396000F0BD00000000014000040140F0B5026A13
:10397000036A23F4807303624368C46922F400720B
:1039800024F073050C68124E2C438D6842EA052220
:103990000E4DA84201D0B04206D1CF6822F4006299
:1039A00042EA072222F48062A84201D0B04207D145
:1039B0004D6923F4405343EA05138D6943EA051327
:1039C0004360C4614968C1630262F0BD0000014008
:1039D0000004014030B5046A026A22F48052026297
:1039E0004268C3690D6823F4E64343EA05238D6802
:1039F00024F4005444EA0534084DA84202D0084D8E
:103A0000A84204D14D6922F4804242EA8512426004
:103A1000C36149680164046230BD000000000140D8
:103A20000004014010B5036A046A24F00104046232
:103A3000846924F0F00444EA021423F00A020A43E1
:103A40008461026210BD10B5036A046A24F0100498
:103A50000462846923F0A00324F4704444EA02322F
:103A600043EA01118261016210BD2DE9F041044673
:103A700090F87E0048B3022A03D0032A01D0052A19
:103A800023D16269A088127A00EBC200081AC0F341
:103A9000C705A16805EBC506022000EB4607C85F15
:103AA000FDF70AF8A168C853A168042000EB460797
:103AB000C85FFDF701F8A168C853A168002001F8AC
:103AC000160029462046FFF7B1FB0020BDE8F08133
:103AD0002DE9F0414FF6FF7400F0B4FD204D024691
:103AE0006868831800211F4815E00678F6070FD094
:103AF00006699E421DD84669C6B1B2FBF6F706FBC1
:103B00001727F61B032706610770A64200D234462A
:103B1000491C09B21830B5F90060B142E5DD204614
:103B20006C6003F081F800260E4C13E0022606704C
:103B3000EEE7F61A0661E8E72078810707D520F05E
:103B400002002070A26812B1E16860689047761C9C
:103B500036B21834B5F900008642EDDDBDE8F081DB
:103B6000840000203816002001680C3151E8002F35
:103B700022F4907241E80023002BF5D10168143142
:103B800051E8002F22F0010241E80023002BF5D17B
:103B9000016B012909D101680C3151E8002F22F095
:103BA000100241E80023002BF5D1202180F84210BB
:103BB000002101637047000070B504460068016988
:103BC000E26821F44051114301612169A068E26972
:103BD00008436169114308432168CA6849F20C63CC
:103BE0009A430243CA6020684169A26921F4407186
:103BF0001143416131492068884202D030498842EE
:103C000002D1FDF76DFD01E0FDF75AFDE2690023E9
:103C1000192164253226B2F5004F626828D0A0FB36
:103C20000101930F9200FCF75CFB0146B0FBF5F03D
:103C30006FF01802504301EB800006EB0010B0FB60
:103C4000F5F000F0F002B1FBF5F002EB0012B1FB71
:103C5000F5F06FF01803584301EB800006EB0010FD
:103C6000B0FBF5F000F00F0021681044886070BDD3
:103C7000A0FB010192185B41FCF733FB0146B0FB4E
:103C8000F5F00201B1FBF5F06FF01803584301EBBA
:103C9000800006EBC000B0FBF5F000F0F80002EB8E
:103CA0004002B1FBF5F0584301EB800006EBC00089
:103CB000B0FBF5F000F00700D6E70000001001406F
:103CC000001401402DE9F843984617460D46044676
:103CD000089E24E0701C22D0FDF780FBA0EB0800BA
:103CE000B0421AD8CEB12068C168490717D5802DD7
:103CF00015D0402D13D00168C94309070FD40168BE
:103D00000025406800902046FFF72EFF08206064E1
:103D100084F840500120BDE8F8830320FBE72068C9
:103D2000006835EA000004D00020B842D2D000205C
:103D3000F1E70120F9E7000038B50F480068006896
:103D4000C043800616D40D4C012060700025E5703C
:103D50000246322369460848FEF7EAFE9DF8001045
:103D60002078074A0244401C2070117020783F28B8
:103D700000D3257038BD0000A01500208C15002050
:103D8000E8150020FEE7000070B50D4C0546A06860
:103D9000804720698047E169C5F307408847E169AA
:103DA000C5F307208847E169E8B28847A0698047E2
:103DB000054660698047E0688047284670BD00007E
:103DC000600000202DE9F041114C06461746A0681E
:103DD00088460025804720698047E169C6F307408F
:103DE0008847E169C6F307208847E169F0B2884750
:103DF00005E0A069804708F805006D1CADB2BD4222
:103E0000F7D360698047E068BDE8F04100470000F3
:103E10006000002070B50E4C05460E46A068804735
:103E20002069804745F00405E169C5F307408847EC
:103E3000E169C5F307208847E169E8B28847E1698D
:103E40003046884760698047E068BDE870400047B9
:103E5000600000202DE9F041124C06461746A0688C
:103E60008846002580472069804746F00406E169BE
:103E7000C6F307408847E169C6F307208847E16930
:103E8000F0B2884706E000BFE16918F805008847EE
:103E90006D1CADB2BD42F7D360698047E068BDE8F4
:103EA000F0410047600000200A480B49007800F00C
:103EB0007F00086008490020083108600748D0F8F2
:103EC000801221B15FF00001C0F88012704701211B
:103ED000FAE7000048000020002C0040008040422B
:103EE00070470907090E002804DB00F1E02080F884
:103EF0000014704700F00F0000F1E02080F8141D5E
:103F0000704700002DE9FC411C468C46DDE908584D
:103F10001746D0F8E4310A9E01AA694660469847E0
:103F2000009911B10846BDE8FC810179B94201D878
:103F30002448F8E707EB470136B1026812F8212060
:103F4000D20701D02048EEE75CB10422066802EBFC
:103F50008102D5F800C0B358634505D91B482B60D2
:103F6000E1E74FF00060DEE7012303EB8101735CC2
:103F700088F8003000680821092B865807EB4702B3
:103F800001EB820106D0415832462046FCF7ACFBDB
:103F90002E6014E040582A68014602B932460244B5
:103FA00003E000BF04F8013B401C03780BB19042D2
:103FB000F8D3411A2960B14201D2002101700020DA
:103FC000B1E7000011000906010001060500040523
:103FD0007047704730380A2801D20120704700200E
:103FE0007047704770477047704770477047704719
:103FF000016A0978002902D1812200F078BD70475A
:104000002DE9FE4F04464069002589460689A069CE
:10401000078994F87E0000280ED0002E6AD0A846AA
:10402000CDF80080CDF80480CDF8088060E0052848
:104030006ED00B2858D0FF20BDE8FE8F606850F886
:10404000360041690968002901DA0B2024E0006A82
:10405000B9F1000F23D00178E9B3F02925D8A2687F
:1040600005EBC50112F811305B1CDBB202F8113010
:104070000278934219D1A268204602F81180CDF847
:104080000080CDF804806A462946CDF8088000F00B
:10409000C0F80028D9D10520BE42C8D92AE000784E
:1040A000FF2829D0FE2827D01CE00078FC2818D152
:1040B00005EBC50A0622A16802EB4A000A18294648
:1040C000204600F0A6F80028A06810F81A1003D0C7
:1040D00021F0010202E016E041F0010200F81A208E
:1040E000B3E780B1BE4205D86D1C761CEDB2B6B206
:1040F000BE42A3D900209FE7A06805EBC50110F8D8
:104100001100C007EDE72946204602F0E7FA9CE7D8
:104110006A462946204602F065FB96E72DE9FF4FE7
:1041200083B09146DDE910758246D0F8E43101AAEA
:1041300069460498984704460098002803D12179DD
:10414000494503D82E4807B0BDE8F08F09EB490672
:1041500025B1206810F82600022811D0012120681E
:1041600001EB860110F80180042101EB860145581E
:10417000386848B1A84207D0B8F1090F02D03BE037
:104180002048E0E7A84237D2DAF8242040460699D2
:10419000904700900028D6D10820216800EB860BBC
:1041A0003A6851F80B000699FCF79EFAB8F1090F2E
:1041B00007D13868A84204D22368002253F80B10B4
:1041C0000A543D60019850B150F82930494633B146
:1041D0000A4621465046984700900028B3D12068EF
:1041E00010F82600400705D5DAF8E83150464A466F
:1041F000049998470020A6E703483D60A3E7000024
:1042000011000906020001061000070670477047FA
:1042100070472DE9F04F4369834691461889DBF8D2
:104220000420C00000EBC1045B89A058DB0003EB55
:10423000C1018F184069396889B00088D1F808A099
:104240000026C0F30A01A9F80010354689F802607B
:1042500000200490059006EB46021423396803EB16
:1042600082028A581368190C13F0FF042ED02B1900
:104270000793402B2AD8A4F1010C012303EBDC0C9B
:10428000CDF818C01288CDE902030DF1200C0DF114
:104290001808CDE9008CC2F3072204AB5846FFF79B
:1042A00031FE18B1FF2009B0BDE8F08F09EBD5024F
:1042B000121D0092002005F00701CDE90110002336
:1042C00020461A4604A9FCF7A5FB079D761C9AF820
:1042D0000000F6B2B042BBD801206D1E00EBD50045
:1042E00089F803000020DEE730B40A88D3090F2BD9
:1042F00035D2DFE803F02D083418181818181818EC
:10430000181F1F342600802A06D090F87B20002A30
:1043100025D030BC00F067BD90F87C1000291ED07D
:1043200030BC02F07BB890F87E20002A17D030BC59
:1043300000F034BE90F87A20002A10D030BC00F093
:1043400041BF90F87D20002A09D030BC00F0A8BD04
:10435000026A1278002A02D030BC00F055BD30BC91
:104360007047000070B58AB00D4600210091EC78CE
:10437000079405912888CDE90301A8780E4600B17D
:104380000220069019E0082C01D9082000E0204600
:10439000AA1907906B4603A90948121DFCF755FCA2
:1043A00028B108A0FCF714F801200AB070BD0798E6
:1043B0003044C6B20798201AC4B2002CE3D1F4E707
:1043C000581300202043414E322053656E6420462E
:1043D00061696C656421200A0D00000070B5044617
:1043E000082802D94FF0FF3070BD4FF4847000EB05
:1043F000441005461021FFF70DFD2846FFF7C4FCC9
:104400000028FAD14FF4027000EB44101F21FFF78F
:1044100001FD0C480121A14082888A430A4982801B
:10442000002021F814000749891D08554FF44270F7
:1044300000EB44142046FFF7A7FC0028FAD1012026
:1044400070BD00004A0000202816002010B50C4660
:1044500006281ED2DFE800F003070B1014182046D0
:1044600002F0A6FE13E0204602F014FE0FE02078D2
:10447000BDE8104002F0C8BE02F038FE207006E031
:10448000204602F0D3FE02E0204602F032FE002079
:1044900010BD4FF0FF3010BD2DE9F0410C4600215A
:1044A00002464F1E08464FF498554FF4A056102A66
:1044B00061D2DFE802F0080B17131A1E222C3643D4
:1044C000464A574E535A02F0C8FE4BE014B12046FC
:1044D00004F10801BDE8F04102F01FBE208802F09F
:1044E000A8FD3FE002F0B8FD05E0208802F052FE92
:1044F00038E002F0C0FD208034E02088010A284620
:10450000FFF788FC21783046FFF784FC2AE030462C
:10451000FFF73AFC06462846FFF736FC06EB00207C
:10452000E9E7164882782270C27862700279A27038
:104530004279E27080792071617113E002F003FF2B
:1045400010E0204602F014FF0CE0204602F0BFFE0F
:1045500008E02078BDE8F04102F02FBF02F0E7FE4E
:1045600005E020700020BDE8F08102F0D7FEC0B267
:1045700041B2491CF5D13846F5E700006000002043
:1045800010B50446054B002241F20301FEF7FBFE85
:10459000D4F808120020087010BD00000532000891
:1045A00070472DE9FE439946DDE90A7615468846AF
:1045B000044602AB00F067F850BB012D04D19DF812
:1045C0000810204602F066F8022D21D19DF808005F
:1045D00000EB800004EB0010B0F97200FCF76CFAFD
:1045E0009DF8081001EB810104EB0111A1F87200A4
:1045F0009DF80810852001EB810104EB011181F881
:104600002A009DF8080000EB800004EB0010C66251
:10461000CDE900764B4642462946204602F032F963
:10462000002800D0FF20BDE8FE83000004490A688E
:104630005206FCD5024AC1B2121D1160704700003B
:10464000004C004001480068C06A7047C014002058
:1046500000680078704710B5002303EB830400EB7B
:10466000041494F82A402CB15B1C13F0FF03F4D01F
:10467000FF2010BD137003EB830200EB021080F8E3
:104680002910002010BD70B5002404EB840500EB58
:10469000051595F82A606EB1852E0BD095F8286027
:1046A0008E4207D195F82950954203D103B11C7071
:1046B000002070BD641C14F0FF04E6D0FF2070BD24
:1046C00001EB810100EB0111486B08B1896B401AC5
:1046D0001060002070472DE9F04142F2086101EBC3
:1046E000401542F20871002601EB40142846FFF7FE
:1046F0004BFB07462046FFF747FB00EB072007046C
:104700003F0C09D02846FFF73FFB06462046FFF73F
:104710003BFB00EB062086B2BE42E7D13046BDE847
:10472000F0812DE9F04142F2080101EB401542F21F
:104730000811002601EB40142846FFF725FB074629
:104740002046FFF721FB00EB072007043F0C09D0B0
:104750002846FFF719FB06462046FFF715FB00EB3E
:10476000062086B2BE42E7D13046BDE8F0810000A7
:10477000F8B505461C4B002241F21701FEF703FE77
:10478000002685F8DC61344617E000BFD5F89C00B0
:1047900030F824000004000C0DD000EB4001C1EB08
:1047A000C013124A214628460096FEF74BFFD5F863
:1047B000A01021F81400641CE4B2D5F89800007829
:1047C000A042E3D8D5F8A400008800280BD000EB65
:1047D0004001C1EBC013064A002128460093FEF7B2
:1047E00031FFA5F8A800F8BDDF310008E90900088D
:1047F0004333000870B5054600240BE0D5F8A0004F
:1048000030F91400FCF758F9D5F8A01021F814007D
:10481000641CE4B2D5F898000078A042EED835F9CF
:10482000A80FFCF749F9288070BD00002DE9F84376
:104830001746DDE90896002501EB8102984600EB5A
:104840000214022E2DD0032E2BD0042E29D0052E9B
:1048500027D0B4F97200FCF72FF900BFA4F872005A
:1048600084F82870A4F8308084F8329084F82A60A4
:1048700084F82B506563A56384F85C5084F85D5020
:1048800084F85E50256684F8645084F8655084F896
:10489000665084F8675084F8705000206567BDE862
:1048A000F883034B034A0095FEF7CCFED6E70000E1
:1048B000D8B80500AD33000810B50446FFF758FF1F
:1048C0002046BDE8104000F029BA10B50446FFF7B5
:1048D00091FF2046BDE8104000F05EBA30B501EB14
:1048E000810100EB01118C6BA018202802D84D6BC0
:1048F000A84201D9FF2030BD002006E025180D4454
:1049000095F83C501D54401CC0B29042F6D3886BC1
:1049100010448863002030BD08B50024FCF76CFD0E
:10492000FEF7DCFEFEF75EF9FEF780FAFEF7A0FA6E
:10493000FEF7BEFAFEF71EFB4E484D4901604E4998
:10494000C0E901140C21C460C0E904418461C46160
:10495000FDF7EFFF08B172B6FEE701221146142001
:10496000FCF7AAFD1420FCF799FD022203211D206B
:10497000FCF7A2FD1D20FCF791FD012203211E2062
:10498000FCF79AFD1E20FCF789FD03220121472038
:10499000FCF792FD4720FCF781FD02220121402017
:1049A000FCF78AFD4020FCF779FD02F099FA3148C6
:1049B0009038FDF747FD2F484838FDF743FD00F0DC
:1049C0004DF900F0A7F82B4F483779682BA0FBF77B
:1049D000FFFC07F10C084FF4427A4FF4027907F11B
:1049E000300598F801004646012804D179682DA0C9
:1049F000FBF7EEFC74705046FFF7C6F978B3222837
:104A0000EFD16420FCF7B8FB4E464846FFF7BCF9EF
:104A1000400703D504213046FFF7FCF90020FFF7DB
:104A20005AFE10F0FF06DCD0711C2448FBF7D3FEC1
:104A30001048AB1D8230009032462049002001F022
:104A400001FD79681D4A1EA0FBF7C2FC6889009031
:104A5000AB1D32461949002001F04CFFC1E7FFE7CA
:104A60000023AA880221184602F0FCF8B9E70000EA
:104A7000004C00400815002020A107002564206D8F
:104A80007320416C6C2046756E6374696F6E2049AB
:104A90006E697469616C2046696E6973686564212A
:104AA000200A0D002564206D7320486561727442F0
:104AB000656174204D7367200A0D0000300B0020E3
:104AC000202564206D732025730D0A000EB541F476
:104AD000E061ADF8001001218DF8021000218DF881
:104AE0000310D0F8E0016946FFF73CFC0EBD0EB59F
:104AF0000023ADF800308DF802308DF80420022339
:104B00008DF805108DF80330D0F8E0016946FFF705
:104B100029FC0EBD10B586B021490020FFF796FC98
:104B20001F490120FFF792FC03A90820FFF7B4FCFE
:104B30001C48416803AA1CA0FBF74AFC184CE0780B
:104B4000627921798DE80700A378627821781EA028
:104B5000FBF73EFC607A0090237AE279A17924A0E9
:104B6000FBF736FC607C0090237CE27BA17B25A0D8
:104B7000FBF72EFC607B0090237BE27AA17A26A0D3
:104B8000FBF726FC607D0090237DE27CA17C27A0C2
:104B9000FBF71EFC2AA0FBF71BFC06B010BD0000B3
:104BA00014000020501500200D0A203D3D3D202519
:104BB00064206D73202573204E455420434F4E468C
:104BC000203D3D3D0D0A00004D41433A2025303245
:104BD000583A253032583A253032583A2530325832
:104BE0003A253032583A253032580D0A000000007C
:104BF0005349503A2025642E25642E25642E2564C1
:104C00000D0A00004741523A2025642E25642E25C6
:104C1000642E25640D0A00005355423A2025642E67
:104C200025642E25642E25640D0A0000444E533A57
:104C30002025642E25642E25642E25640D0A00008F
:104C40003D3D3D3D3D3D3D3D3D3D3D3D3D3D3D3D94
:104C50003D3D3D3D3D3D0D0A0000000000B5174BB8
:104C600085B00DF1040C0FCB8CE80F0014491548EA
:104C700001F0CAFC1449154801F0D8FC1449154844
:104C800001F0E6FC01A90120FFF706FC401C05D15C
:104C90001148416811A0FBF79BFBFEE769460F2016
:104CA000FFF7FAFB401C02D115A0FBF791FB9DF822
:104CB00000000028F2D005B000BD00001474000808
:104CC000B9340008B134000891340008A134000858
:104CD000F11A0008D11A0008501500202564206D33
:104CE000732057495A4348495020496E6974696195
:104CF0006C697A6564206661696C2E0D0A0000009B
:104D0000556E6B6E6F776E20504859204C696E6BF4
:104D1000207374617574732E0D0A000038B5044653
:104D20001B4B002241F20C01FEF72DFB184B002219
:104D300041F20D012046FEF726FBD4F83801008829
:104D4000002823D0D4F83C11097800291ED000EBAC
:104D50004001C1EBC0130F4A002120460093FEF72B
:104D600071FCA4F830010020211891F8B0200F2A1E
:104D700008D022681278824204D0D4F83C211278FC
:104D800081F84021401CC0B28028EDD338BD00001E
:104D9000F1310008E90B000810B50446B0F9300104
:104DA000FBF78AFEA4F8300110BD10B586B02022B2
:104DB00004AC04920094012205ABCDE9013201EB71
:104DC000810100EB0114039204F13C0394F83220BA
:104DD000218EFFF797F8002803D104986063002024
:104DE000A06306B010BD30B4CA78082A0AD10A7888
:104DF000D0F8384202F07F058A888B792946A4468C
:104E000030BC604730BC704770B5044690F87800FD
:104E10007F2803D0052801D004283FD14A791AB150
:104E200023681B789A4239D10979802925D009DC79
:104E300001291CD0022931D17F2801D005282DD18C
:104E4000042126E081291ED0822927D12046FFF7A0
:104E5000FFFBD4F89410054609B120468847216825
:104E6000FF2008702946204601F0E6FD10E07F286B
:104E700001D0042812D105210BE0052801D0042817
:104E80000CD17F2105E0D4F8901009B12046884765
:104E900000212046BDE8704001F074BE70BD0000E6
:104EA0002DE9FE43044608784FF0000800F07F0625
:104EB0008878012818D00879A51900F07F07D4F860
:104EC0003C01007885F8400195F8B000B84207D061
:104ED000D4F8D8313A4631462046984785F8B07024
:104EE00095F8B00038B32BE020680078B04220D1AC
:104EF00020680122007800F5E060ADF800008DF830
:104F000003208DF8028094F878108DF8041094F83E
:104F1000DC31404633B141F080018DF8041084F853
:104F2000DC0101E084F8DC216946D4F8E001FFF7F8
:104F300019FABDE8FE83D4F8D421314620469047C3
:104F400095F8B0000F28F4D000251FE0D4F89C009D
:104F500050F82500C0F307418E4215D187B2D4F82E
:104F6000A00030F91500FBF7A7FD07EB4700C0EBE9
:104F7000C713094A29462046CDF80080FEF762FB98
:104F8000D4F8A01021F815006D1CEDB2D4F89800EB
:104F90000078A842DAD8CCE7E90900082DE9F04FFB
:104FA000894604460222002199F8020089B00D4684
:104FB00010B101287DD09DE06669A369B0889B8807
:104FC00020B997E0022A04D0042A0DD09842F9D9DA
:104FD00090E0B9F800C0626852F830707F693F888D
:104FE00067450CD1984210D8F7886268F80000EB4A
:104FF000C50B002652F80B00D0F808804AE06D1C63
:10500000401C80B2EDB29842E6D973E000220392D0
:10501000049263684FF0140C53F80B0006EB460340
:105020000CEB8303C0585FEA000A67D09AF80000CF
:1050300010F0FF0007902BD00844069099F8033039
:10504000B0EBC30F24D8002003AACDE9002001F063
:10505000070209EBD10103460290091D0798FBF7EF
:10506000D9FC07990120491E00EBE101059105AA31
:1050700000210092CDE90110DAF8000003ABC0F383
:105080000722010C2046FFF749F8B8BB0698C1B2C9
:10509000761CF6B298F80000B042B7D8E06800B3CA
:1050A000616851F83710496C0E88D6B130F9150097
:1050B00000E010E0FBF700FD0020009006EB46004A
:1050C000C0EBC613294620462269FEF7BBFAE16809
:1050D00021F815000EE06069A2690121008912899A
:1050E00030B907E001290AD004291AD005293BD09C
:1050F0009042F7D9002009B0BDE8F08F3AE0B9F846
:105100000030616851F83060766936889E4201D17E
:10511000042116E06D1C401C80B2EDB29042F1D922
:10512000E8E7616851F83010096A0B78FD2B07D069
:10513000D9B2FC2908D0FF291ED0FE291CD019E0C5
:1051400005219042D0D9D5E7A36805EBC50113F836
:105150001160F60706D0062000EB41001918D4F8BC
:10516000E0012CE09042C5D86A4629462046FFF768
:1051700050F808B3FF20BEE7A16805EBC506022082
:1051800000EB4607C85FFBF797FCA168C853A1680E
:10519000042000EB4607C85FFBF78EFCA168C853EC
:1051A000A06810F8161021F0010100F81610294629
:1051B0002046FEF73BF89DE76946D4F8E001FFF78B
:1051C000D1F897E72DE9F04F8DB0044600200C9000
:1051D0006669A3690D4630881A880021D8B14FF05E
:1051E000040C904217D867680CEBC00817F80880C9
:1051F000B8F1010F75D957F83070B5F800807F69A4
:105200003F68474502D10127039121E0491C401C1A
:10521000C9B280B2E5E770885E880021002860D0BE
:105220000423B0425DD8626803EBC007D75D032F4B
:1052300057D952F830202F88126A1268BA4212D118
:1052400003916168022751F83000C06A00780C9021
:10525000E87800264FF00069082809D0CDE90069F8
:1052600000233A468FE0491C401CC9B280B2D8E7FF
:1052700002AB3A4620460399FFF705FAC8B9012F59
:1052800002D0022F0BD014E09DF8081001EB810131
:1052900004EB011191F82A1004291DD009E09DF8B2
:1052A000081001EB810104EB011191F82A10052986
:1052B00012D029794909DFF83C84DFF83CA405F1D4
:1052C00008020DF1180B0B92072960D2DFE801F0FC
:1052D0000AFCFBFA85F9F800297980297DD006219E
:1052E000E9E754E0012F02D0002877D049E0E8BB7D
:1052F0009DF8080000EB800004EB001090F82A10E5
:1053000002293ED1B0F97200411C19D0FBF7D4FB41
:105310009DF80810F94B01EB810104EB0111F84AEB
:10532000A1F8720000969DF808102046FEF78AF951
:105330009DF8081001EB810104EB0111A1F8720046
:105340009DF8080000EB800004EB0010018E059131
:1053500090F8328090F82B102879C0F30012914217
:105360007ED1C0F34200C0F1070200E009E06B1DEE
:1053700009929DF808102046FEF76EF8002870D1BB
:105380000BE00023F8E320460399FFF70AF90DB07C
:10539000FF20BDE8F08F059BEFE39DF8080020217A
:1053A00000EB800004EB001090F82B0041EA0010A5
:1053B0008DF81800012059460E54401C0828FBD3D4
:1053C00006AB39462046039A01F020FA9DF8080002
:1053D00000EB800004EB001001E08DE317E090F893
:1053E0002B1079B15FF0000180F82B102879C007ED
:1053F0006BD09DF808102046FEF716F820B1CDE9D5
:105400000080C8E70121EFE79DF80810FDE39DF853
:10541000080000EB800004EB001090F82A1003292C
:10542000AFD1B0F97200411C19D0FBF745FB9DF8D4
:105430000810B24B01EB810104EB0111B04AA1F855
:10544000720000969DF808102046FEF7FBF89DF8C4
:10545000081001EB810104EB0111A1F8720001E0D9
:105460008FE08FE09DF8080000EB800004EB001057
:10547000018E059190F8328090F82B102879C0F3B6
:10548000001291427DD1C0F34200C0F107026B1DB2
:1054900009929DF808102046FDF7DEFF002871D123
:1054A0009DF8080000EB800004EB001191F82B0040
:1054B000F8B1002081F82B002979C9071BD005E03D
:1054C000F0E35BE320E225E121E01FE39DF8080023
:1054D00000EB800004EB0010B0F97200FBF7ECFA6F
:1054E0009DF8081001EB810104EB0111A1F8720095
:1054F000DEE10120DEE7602141EA00108DF81800AE
:10550000012059460E54401C0828FBD350E2012FBD
:1055100060D0002884D19DF8080000EB800004EBE7
:10552000001090F82A100229F4D1B0F97200411C41
:1055300019D0FBF7C1FA9DF80810704B01EB8101FF
:1055400004EB01116E4AA1F8720000969DF8081054
:105550002046FEF777F89DF8081001EB810104EB77
:105560000111A1F872009DF8081001EB810004EB15
:105570000010028E059290F8328090F82B002A7964
:1055800001E082E095E0C2F3001290427DD109AAC9
:105590002046FFF795F80998002890D007289DF835
:1055A000080000EB800004EB001191F82B006DD98E
:1055B000E8B3002081F82B0000018DF818009DF859
:1055C00008100BF1010307222046FFF787F9002896
:1055D0006FD1EDE1B5F80510059195F807A040B140
:1055E00002AA39462046FFF736F828B1CDE900A8CF
:1055F000D1E6CDE900A8CEE60221CDE900A19DF8D3
:1056000008102046059B039AFFF710F928794108F6
:10561000C90724D09DF80810C0F3810001EB810177
:10562000C0F1040004EB01110990486300E045E07B
:105630009DF8081020460B9B099AFDF70DFF08BB4B
:105640009DF808102046FDF7EFFE10B1CDE900A04F
:10565000A1E69DF80810204601F01CF817E0C007ED
:1056600015D0287A697AEA7A00EB0120A97A090430
:1056700001EB0261421809929DF80810204601F0E2
:1056800075FA20B1CDE900A985E6CDE118E06020EA
:105690008DF8180005988DF81900000A8DF81A0089
:1056A0008DF81BA0042059460E54401C0828FBD33B
:1056B0007EE199E020460C99904727E2012079E7A6
:1056C000A8B1002081F82B00099A0001C2F107035C
:1056D00040EA4300401C8DF818009DF808100BF1BB
:1056E00001032046FFF7FAF800287DD10AE00120E7
:1056F000E8E700002100000800000305D8B8050015
:10570000AD3300085946099800E00E54401C0828A3
:10571000FBD34DE1012F45D000287FF4E7AD9DF884
:10572000080000EB800004EB001090F82A10032919
:10573000F3D1B0F97200411C19D0FBF7BDF99DF807
:10574000081001EB810104EB0111A1F87200FE4B7E
:10575000FE4A00969DF808102046FDF773FF9DF85D
:10576000081001EB810104EB0111A1F872009DF812
:10577000080000EB800004EB0010B0F830A090F8B7
:10578000328028794108C90772D0C0F38100C0F186
:10579000040209929DF8081020460B9BFDF75CFE61
:1057A000F0BB6BE0B5F80510ED798A4650B102AA5E
:1057B00039462046FEF74FFF30B15346CDE9005839
:1057C0003A46E0E50B46F9E70320CDE900505346A1
:1057D0009DF808102046039AFFF728F89DF8081056
:1057E0002046FFF7E2FA00E05BE120B1CDE900508E
:1057F00053463A46C7E509AA9DF808102046FEF729
:105800005FFF099A042A16D941208DF818008DF8F7
:1058100019A04FEA1A208DF81A008DF81B5000E0ED
:1058200063E08DF81C20100A8DF81D00100C8DF817
:105830001E00100E20E2C2F10400432141EA800064
:105840008DF818008DF819A04FEA1A208DF81A006B
:105850008DF81B500BF104039DF808102046FFF74C
:105860003DF808B153463BE109985946001D02E056
:1058700028E00E54401C0828FBD31CE19DF80800CA
:1058800000EB800004EB0010B0F97200FBF714F994
:105890009DF8081001EB810104EB0111A1F87200E1
:1058A0009DF80810099801EB810104EB0111486390
:1058B0009DF80810012001EB810104EB011181F832
:1058C0002A004EE1C00715D0287A697AEA7A00EBFF
:1058D0000120A97A090401EB0261421809929DF89E
:1058E0000810204601F042F920B153463A46CDE96E
:1058F000008948E560208DF81800012059460E54B3
:10590000401C0828FBD353E0012F52D000287FF41D
:10591000EDAC9DF8080000EB800004EB001090F85F
:105920002A100229F3D1B0F97200411C19D0FBF7FB
:10593000C3F89DF80810844B01EB810104EB0111C1
:10594000824AA1F8720000969DF808102046FDF7E3
:1059500079FE9DF8081001EB810104EB0111A1F81B
:1059600072009DF8081009AA01EB810004EB0010F9
:10597000B0F8308090F832502046FEF7A1FE099A28
:10598000002A3FF49CAD9DF80810072A01EB810026
:1059900004EB001090F82B004FEA001071D98DF83D
:1059A00018000BF1010307222046FEF797FFE0BB2A
:1059B000ADE20028ABD19DF8080000EB800004EBBD
:1059C000001090F82A100329A1D1B0F97200411CEF
:1059D00019D0FBF771F89DF808105B4B01EB8101C2
:1059E00004EB0111594AA1F8720000969DF80810C5
:1059F0002046FDF727FE9DF8081001EB810104EB1E
:105A00000111A1F872009DF8081001EB810004EB70
:105A10000010028E059290F832802A7990F82B00BF
:105A2000C2F30012904204D000E058E0CDE9008AB1
:105A3000B1E409AA2046FEF743FE9DF80810099A32
:105A400001EB810004EB0010072A90F82B004FEACD
:105A5000001019D98DF818000BF101030722204618
:105A6000FEF73CFFE8B99DF8080000EB800004EB6E
:105A7000001090F82B1029B15FF0000180F82B1076
:105A800045E21FE00121F9E7C2F1070340EA4300C4
:105A9000401C8DF818000BF101032046FEF71EFF95
:105AA00010B1CDE9008976E45946099800E00E541A
:105AB000401C0828FBD306AB39462046039A00F069
:105AC000A5FEA1E4C2F1070340EA4300401C8DF8A3
:105AD00018000BF101032046FEF700FF20B14346FA
