:020000040800F2
:1000000090110020A1020008B33A0008BD33000897
:10001000B13A0008850800081D45000800000000EE
:10002000000000000000000000000000B93F0008D0
:100030006D0B000800000000053E0008BB3F0008F3
:1000400041460008BB020008BB020008BB020008D2
:10005000BB020008BB020008710B0008BB020008CD
:10006000F50B00082D0C0008BB020008BB020008BD
:10007000BB020008BB020008BB020008BB0200086C
:10008000BB020008BB020008BB020008BB0200085C
:1000900089080008BB020008BB020008BB02000878
:1000A000BB020008BB020008BB020008BB0200083C
:1000B000BB02000871400008BB020008BB02000838
:1000C000BB020008BB020008BB020008BB0200081C
:1000D000BB020008BB020008E1440008BB020008A4
:1000E000B90B0008BB020008BB020008BB020008F5
:1000F000BB020008BB020008BB020008BB020008EC
:10010000BB020008BB0200087D400008BB020008DB
:10011000BB020008BB020008BB020008BB020008CB
:10012000BB020008BB020008BB020008BB020008BB
:10013000BB020008BB020008BB020008BB020008AB
:1001400095080008BB020008BB020008BB020008BB
:10015000BB020008BB020008BB020008BB0200088B
:10016000BB020008BB020008BB020008BB0200087B
:10017000BB020008BB020008BB0200080000000030
:10018000BB020008BB020008BB020008BB0200085B
:10019000BB020008BB020008BB020008BB0200084B
:1001A000BB020008BB020008BB02000800F002F816
:1001B00000F067F80AA090E8000C82448344AAF19A
:1001C0000107DA4501D100F05CF8AFF2090EBAE898
:1001D0000F0013F0010F18BFFB1A43F0010318477B
:1001E000F4620000146300000A444FF0000C10F8A1
:1001F000013B13F0070408BF10F8014B1D1108BFA5
:1002000010F8015B641E05D010F8016B641E01F844
:10021000016BF9D113F0080F1EBF10F8014BAD1C94
:100220000C1B09D16D1E58BF01F801CBFAD505E0B2
:1002300014F8016B01F8016B6D1EF9D59142D6D30C
:10024000704700000023002400250026103A28BF34
:1002500078C1FBD8520728BF30C148BF0B60704738
:10026000642900F01181782900F04A81732900F097
:10027000A582002070471FB505F0BCFC1FBD10B55E
:1002800010BD00F0D1FA1146FFF7F5FF04F04CFD68
:1002900000F0EFFA03B4FFF7F2FF03BC04F05FFADB
:1002A0000948804709480047FEE7FEE7FEE7FEE70A
:1002B000FEE7FEE7FEE7FEE7FEE7FEE70448054946
:1002C000054A064B7047000061400008AD01000878
:1002D000900B002090110020900D0020900D002028
:1002E000704753EA020C00F069802DE9F04B4FF0A3
:1002F0000006002B1FBFB3FA83F503FA05F424FAB6
:1003000005F65E4012BF1643B2FA82F502FA05F412
:10031000C5F120051EBF22FA05FC44EA0C04203575
:1003200056EA044C4FEA144418BF641C4FF000080E
:100330004FF00009904271EB030C39D3002919BF2B
:10034000B1FA81F701FA07F6B0FA80F700FA07F67A
:10035000C7F120071EBF20FA07FC46EA0C0620372B
:10036000B6FBF4FCA7EB0507103F07F01F0BCBF122
:1003700020060CFA0BFB2CFA06F644BFB346002607
:10038000202FA4BF5E464FF0000B5BEA060C08BFAF
:100390004FF0010B19EB0B09ABFB027C48EB060895
:1003A000C01B06FB02CC0BFB03CC71EB0C01C1E7BD
:1003B0000B46024641464846BDE8F08B13B54FF068
:1003C00000004FF00001AFF30080BDE81C40704713
:1003D0000FB4044910B503AA029800F0F3F910BC59
:1003E0005DF814FBA004002070B504468569006820
:1003F000C10601D5302600E02026C00707D070BD19
:10040000D4E9012130469047206A401C20626D1ECD
:10041000F6D570BD70B5044685690078C00707D170
:1004200070BDD4E9012120209047206A401C206241
:100430006D1EF6D570BD70B50C460546012A05D077
:100440002878800600D5EA69002302E0012305E050
:100450005B1C934202D2E05C0028F9D1A869E6183F
:10046000C01AA861286A184428622846FFF7BCFF12
:1004700004E0D5E9012114F8010B9047B442F8D308
:100480002846FFF7C7FF70BD2DE9F041064600245E
:1004900010687529314616A510D0AFF300800028EA
:1004A00002DA404213A507E031688A0701D512A598
:1004B00002E0490704D511A5012401E0AFF3008053
:1004C00000210A2206F1240709E0B0FBF2FCB0FB90
:1004D000F2F302FB1C00303078541846491C002807
:1004E000F3D123462A463046BDE8F04100F0FBB880
:1004F000000000002D0000002B0000002000000084
:1005000070B504460D4621461068AFF3008021887F
:10051000090502D50F4A7A4402E00E4A7A440E32A7
:10052000002104F1240305E000F00F060009965DA8
:100530005E54491C0028F7D120780023000704D519
:10054000702D02D009B1022311322046BDE870405F
:1005500000F0C9B8265F00002DE9F05F8946044627
:100560004FF0000ADFF824B1FB44C0F820A0204679
:10057000E168884700287DD0252806D0D4E90121EC
:100580009047206A401C2062F1E700255F46204624
:10059000E16888472028064607DB312E05D2B819C6
:1005A00010F8200C08B10543F1E7A80701D525F0A4
:1005B0000405C4F81CA00027C4F818A02A2E09D0EE
:1005C000304604F0C5F838B304EB8708303EC8F86D
:1005D000186019E059F8041B204604EB870291616A
:1005E000E1688847012F064618D1E069002820DA23
:1005F00025F020051DE0D8F8180000EB800006EB80
:1006000040003038C8F818002046E16888470646A0
:1006100004F09EF80028EED1012F0AD02E2E08D12A
:100620002046E16888477F1C0646022F45F02005DA
:10063000C4DBA069002803DA404245F00105A0614F
:10064000E80701D025F01005A6B1A6F14100192850
:1006500002D8203645F400654A46314620462560DA
:100660004D46FFF7FDFD60B1012807D0ED1D25F0D7
:10067000070000E007E000F1080978E705F1040948
:1006800075E730467AE7206ABDE8F09FFC5E00001F
:100690004FF0000200B5134694469646203922BF1B
:1006A000A0E80C50A0E80C50B1F12001BFF4F7AF66
:1006B000090728BFA0E80C5048BF0CC05DF804EB48
:1006C000890028BF40F8042B08BF704748BF20F8B6
:1006D000022B11F0804F18BF00F8012B70477047B4
:1006E0007047704770472DE9F0470D46994692468E
:1006F000044600F124080168880604D5E06921F069
:100700001001216000E00120A84201DD471B00E04C
:100710000027A1697A1902EB0900081AA061207864
:10072000C00602D42046FFF75FFE002608E0D4E9A9
:1007300001211AF806009047206A401C761C2062AE
:100740004E45F4DB2078C0060AD52046FFF74CFE64
:1007500006E0D4E9012130209047206A401C206245
:10076000381EA7F10107F4DC07E0D4E9012118F8ED
:1007700005009047206A401C2062281EA5F1010553
:10078000F3DC2046FFF746FE2078000602D5022063
:10079000BDE8F0870120FBE710B5436913B1AFF363
:1007A000008001E0FFF747FE012010BD127800F144
:1007B00024010A7000224A700122EDE711684FF00F
:1007C000FF32E9E7074B70B50D467B4400F015F8A2
:1007D0000446284600F024F810B14FF0FF3070BDF9
:1007E000204670BD2F41000000487047300B0020AC
:1007F00001694A1C02610878704700B58FB0CDE9E5
:1008000001310021059105497944CDE903101146D4
:100810006846FFF7A1FE0FB000BD0000E5FFFFFF37
:10082000007B00F0800070477546FFF7DDFFAE46A5
:1008300005006946534620F00700854618B020B5EC
:10084000FFF73CFDBDE820404FF000064FF00007E9
:100850004FF000084FF0000B21F00701AC46ACE868
:10086000C009ACE8C009ACE8C009ACE8C0098D46D5
:10087000704710B50446AFF300802046BDE8104035
:10088000FFF708BDFEE70000014800F0F9BB0000DB
:10089000AC040020014800F0F3BB0000D4040020A9
:1008A0002DE9F04F2DED048B83B000248346ADF885
:1008B0000040DFF8D0E10094019402949EF80030EB
:1008C0004FF6FF729EF8010002EA032240EA020A94
:1008D0008C469FED6D9B9FED6E8B77466E4D7879C4
:1008E000B979000202B2D7F8009041EA02067F68A7
:1008F00006F5E162BCF1080F7BD2DFE80CF0BC0426
:100900001FBC405A7B9CB2F5616F33D8304604F06F
:1009100072FF53EC192B04F085FF53EC182B04F0F5
:1009200095FE04F03BFF82B20021032000F0ACFEF4
:100930000096D5E90121534658A08BE0B2F5616FCE
:1009400018D8304604F057FF53EC192B04F06AFF17
:1009500053EC182B04F07AFE04F020FF82B2002141
:10096000032000F091FED5E9012133465AA000BFD3
:10097000FFF72EFD03B0BDEC048BBDE8F08F9EF8B1
:1009800002109EF803209EF8040042EA012140EA8A
:10099000012104F1080020F00100A96060F30704C0
:1009A000CDE90197234664F30F03042201A95846B9
:1009B0003EE0394ECDE9019718360822B068010CA7
:1009C0008DF80910010A8DF80A108DF80B0004F15A
:1009D0000A0020F0010060F30704234664F30F03CC
:1009E00001A9584600F0ABFAD5E9012146A0B36849
:1009F000BEE740E00143A00903F0B2FE4B4908788E
:100A00000728B7D10C70491C204609780129B1D1BB
:100A10008DF806008DF8070002900C3020F00100E0
:100A200060F30704234664F30F03082201A9584624
:100A300000F085FA9EE7184E3D4F0C36012B0CD086
:100A4000022B15D0F470386800903A48D5E901219E
:100A500003683948FFF7BCFC8CE7384803F0C2F95B
:100A60000120F070386845F2780108443860EAE700
:100A70000220F070E7E7D5E9012131A0FFF7A8FCDB
:100A800078E700003C0400209A99999999992F40A1
:100A9000000000008006E040100700205554433A53
:100AA000202564206D73204341533A2025642C2077
:100AB0006672616D654E756D3A2025642C207570E7
:100AC00064617465205370656564203A2564207202
:100AD000706D0A0D000000005554433A2025642033
:100AE0006D73204341533A2025642C207570646156
:100AF0007465205370656564203A25642072706DBA
:100B00002C20740A0D0000005554433A2564206DD2
:100B100073204341533A20256420437572506F730C
:100B200069206973202564200A0D00000000002060
:100B3000A8040020A40400207C640008F80A002017
:100B40005554433A2564206D73204341533A202580
:100B5000642052656376204572726F7220436F6E17
:100B600074657874205061636B0A0D007047000053
:100B700010B50A2000F0B2FD0C48D0F800020128A0
:100B80000CD10B48D0F8801261B10021C0F880125E
:100B9000D0F8801241B10021C0F88412054901202B
:100BA000086010BD0121F1E70121F5E70000404296
:100BB00000804042143C014010B50A2000F08EFD38
:100BC0000948D0F8340238B90848D0F8841241B145
:100BD0005FF00001C0F8841205494FF4005008602E
:100BE00010BD0121F6E700000000414200804042B4
:100BF000143C014010B50A2000F070FD0848D0F800
:100C0000080238B90748D0F8801239B15FF0000106
:100C1000C0F8801204490420086010BD0121F7E7E4
:100C20000080434200804042143C014010B50A203D
:100C300000F054FD0C48D0F80C0268B90B48D0F80D
:100C4000841269B15FF00001C0F88412D0F88012FC
:100C500041B10021C0F8801205490820086010BD8C
:100C60000121F1E70121F5E7008043420080404285
:100C7000143C01407CB50024012500948DF804400B
:100C80008DF800502A466946ED2004F067F90820E7
:100C90008DF8000001226946F52004F05FF9652017
:100CA0008DF8000001226946C02004F057F90620A3
:100CB0008DF8000001226946C12004F04FF98DF83B
:100CC000004001226946C22004F048F98DF8004036
:100CD00001226946C32004F041F904208DF8000088
:100CE00001226946E62004F039F963208DF80000FE
:100CF00001226946E82004F031F98DF80040012214
:100D00006946F12004F02AF98DF800500122694665
:100D1000F42004F023F9012201A9C02004F0BEF858
:100D20009DF8041001A0FFF753FB7CBD7244617471
:100D300061206973202564200A0D000090F82020AE
:100D4000012A07D0022A05D0416A41F4802141627C
:100D500001207047006842690A43426100207047E1
:100D6000F0B590F820500468A468012D05D0022D3C
:100D700003D0416A41F4802157E014F0406F01D163
:100D8000E5004FD5C4F301640125A5401D608D68C1
:100D90004FF4C0739DB1CE6835434E6845EAC60531
:100DA000066803EB0417F5514FF4C275076805EBAD
:100DB00004150E697E51097D012905D009E00E88D0
:100DC000CD6845EA4655EBE701684E5946F4807612
:100DD0004E511179D579567941EA056195792D04FD
:100DE00045EA062529434FF4C676056806EB041646
:100DF000A9511178D57841EA0561957852782D048A
:100E000045EA022211434FF4C475026805EB04154C
:100E10005151006803EB0411425842F00102425064
:100E20000020F0BD416A41F4001141620120F0BD93
:100E300010B590F82020012A07D0022A05D0416A77
:100E400041F480214162012010BD3B48D0F80022CE
:100E500042F00102C0F80022D0F8002222F47C52B5
:100E6000C0F80022D0F800224B6A42EA0322C0F800
:100E700000220A7D02F01F0301229A40D0F81C32A2
:100E80009343C0F81C32CB69B3B9D0F80C3293430A
:100E9000C0F80C328C894B6864F31F434C6900EB3B
:100EA000C404C4F840320C890B6864F31F434C69D6
:100EB00000EBC404C4F84432CB69012B16D1D0F83E
:100EC0000C321343C0F80C320C884B6864F31F4398
:100ED0004C6900EBC404C4F840320C89CB6864F35D
:100EE0001F434C6900EBC404C4F844328B69002BE7
:100EF000D0F804320ED01343C0F804320B69002B33
:100F0000D0F8143208D01343C0F81432096A01290A
:100F100004D008E09343EFE79343F5E7D0F81C12C1
:100F20001143C0F81C12D0F8001221F00101C0F8E2
:100F30000012002010BD0000006400407047F0B5B2
:100F40000746002087B00E4606900421CDE9000335
:100F5000CDE90210144605468DF8140012E0082C65
:100F600001D9082000E020460490721906AB6946BA
:100F70003846FFF7F5FE10B1012007B0F0BD049828
:100F80000544241A002CEAD10020F6E770B590F849
:100F90002040012C05D0022C03D0416A41F480216D
:100FA00028E0046809B32469A40720D04FF4D8745A
:100FB000056804EB01142D5915F0040595600568CA
:100FC0002D591AD0ED08556005682C5904F002041B
:100FD000D4604FF4DA74056804EB01142E5906F05E
:100FE0000F06082E0CD308250DE0E468DCE7416A03
:100FF00041F400114162012070BD6D0D1560E3E701
:101000002D5905F00F05156105682D59C5F3072504
:10101000956105682C59240C54614FF4DC72046806
:1010200002EB0112A4581C700468A458240A5C70D6
:101030000468A458240C9C700468A258120EDA703C
:101040004FF4DE72046802EB0112A4581C710468AC
:10105000A458240A5C710468A458240C9C71046888
:10106000A258120EDA71006829B1016941F020011D
:101070000161002070BDC16841F02001C160F8E746
:101080002DE9F05F0546006800244669D0F8049019
:101090008768D0F80CB0D0F810A0D0F81880F1070D
:1010A00048D0F90714D001218160B80703D528463C
:1010B00000F0BFFA0CE0780702D54FF4006407E0B7
:1010C000380702D54FF4805402E0284600F0B0FA09
:1010D000F80516D529684FF480708860B80503D5E7
:1010E000284600F0A8FA0CE0780502D544F4005434
:1010F00007E0380502D544F4804402E0284600F0B9
:1011000099FAF80316D529684FF480308860B8033F
:1011100003D5284600F091FA0CE0780302D544F498
:10112000004407E0380302D544F4803402E0284646
:1011300000F082FA300707D55FEACB6004D5296852
:10114000102044F40074C86070074FF0080707D5FA
:101150005FEA0B7004D52868C760284600F088F95C
:10116000B00706D52868C068800702D0284600F07E
:1011700081F9700607D55FEACA6004D52968102096
:1011800044F480640861B00607D55FEA0A7004D5AC
:1011900028680761284600F01BFAF00606D5286883
:1011A0000069800702D0284600F013FAB00308D582
:1011B0005FEAC96005D5296810204860284600F01C
:1011C00009FAF00307D55FEA097004D5286847607B
:1011D000284600F033FA300446D55FEA497040D51E
:1011E000F00504D55FEAC87001D044F00104B005F1
:1011F00004D55FEA887001D544F00204700504D577
:101200005FEA487001D544F00404300529D518F090
:10121000700F26D008F07000402815D006DC10288A
:1012200009D020280AD0302816D10AE050280ED044
:10123000602811D10EE044F008040DE044F01004E1
:101240000AE044F0200407E044F0400404E044F0E5
:10125000800401E044F480742868816921F0700101
:101260008161296804204860002C05D0686A204309
:1012700068622846FFF762FEBDE8F09F70B5040083
:1012800003D094F8200010B104E0012070BD204686
:1012900000F082F82068016841F00101016000F06F
:1012A0004FFB0546052604E000F04AFB401B0A28D8
:1012B00011D820684068C007F6D02068016821F086
:1012C0000201016000F03CFB05460BE000F038FB3A
:1012D000401B0A2806D9606A40F40030606284F836
:1012E0002060D2E7206840688007EFD4207E012884
:1012F000206801683DD021F080010160607E0128F6
:101300002068016838D021F040010160A07E0128EA
:101310002068016833D021F020010160E07E0128BF
:10132000206801682ED041F010010160207F012863
:101330002068016829D021F008010160607F012840
:101340002068016824D021F004010160D4E9020181
:101350000843D4E90412114308436168491E084355
:101360002168C86100206062012084F8200000200C
:1013700070BD41F08001C0E741F04001C5E741F098
:101380002001CAE721F01001CFE741F00801D4E7BE
:1013900041F00401D9E70000F0B587B004461421FC
:1013A0006846FFF775F92D4B2D48DFF8ACE019685A
:1013B000D4F800C02A4A0225032609271030002449
:1013C000491CF44519D11960012907D1016841F080
:1013D00000710160006800F000700590106840F036
:1013E000010010601068694600F0010005904FF49C
:1013F000C050CDE900051B4827E0DFF86CE0F4455C
:1014000028D1D0F800C04CF0806CC0F800C0D0F8F3
:1014100000C001290CF0806CCDF814C0196007D110
:10142000016841F000710160006800F000700590F3
:10143000106840F0020010601068694600F0020079
:1014400005906020CDE90005084802AB83E8D00094
:1014500000F056F907B0F0BD0064004028040020F9
:1014600030380240000002400068004000040240A2
:10147000704700002DE9F04F89B00027344D8046B9
:10148000009701973C4633A06968FEF7A1FFA5F5D8
:101490001971DFF8E0B0DFF8E090404601F51C7606
:1014A000EA46884528D1534602AA0021FFF76EFD7F
:1014B0000399C9F80010B9F800104846C1F3841226
:1014C0009BF800108A4215D10078C10712D02B4A30
:1014D00051460B5D1355641CE4B2082CF9D3C0F3DC
:1014E000440227A06968FEF773FF0120307109B03C
:1014F000BDE8F08F3771FAE72B49884523D1534671
:1015000002AA0021FFF742FD2848039901600088E4
:10151000C0F384119BF80000814212D12449504647
:10152000025D0A55641CE4B2082CF9D399F8000056
:101530006968C0F3440212A0FEF74AFF01207071EF
:10154000D5E77771D3E71BA06968FEF741FFCEE7C7
:10155000100700202564206D73204341533A207208
:10156000656376204E6577204672616D65200A0DB1
:1015700000000000010000204C0400203C0400207A
:101580002564206D73204341533A207265637620B1
:101590004E6577204672616D6520547970652069CB
:1015A000732025640A0D0000D4040020500400209C
:1015B0004404002025642072656376206572726F92
:1015C000722063616E206672616D65200A0D0000F5
:1015D000704770477047000070B5044690F82000CF
:1015E000012804D0606A40F40020606218E0022004
:1015F00084F820002068016821F00101016000F0FA
:101600009FF905460EE000BF00F09AF9401B0A283A
:1016100008D9606A40F400306062052084F8200038
:10162000012070BD20684068C007EDD1606270BDC8
:10163000704770477047704770477047704710B5E4
:1016400003220021042000F01FF8322000F046F8A9
:1016500003220021062000F017F8322000F03EF8A7
:1016600048F234020021032000F00EF8322000F08E
:1016700035F801220021072000F006F8BDE81040EF
:10168000142000F02BB80000F8B5002341EAC00098
:1016900000938DF80000100A8DF801000D4F8DF8B1
:1016A00002201C461A461021384600F043F96E46C7
:1016B000311932230122084800F0EFFF641CE4B224
:1016C0000546032CF4D301221021384600F032F9EC
:1016D0002846F8BD000002405005002070B50446C1
:1016E00000F02EF90546601C02D00448007804443E
:1016F00000F026F9401BA042FAD370BD2C04002054
:101700002DE9F84FDFF8F8A10022012403254FF05E
:101710000F090AF1040BAAF1040E00BF0B6804FACA
:1017200002F63340B34270D10F7907F00307012F5F
:1017300001D0022F16D187684FEA420805FA08FC4B
:1017400027EA0C07D1F80CC00CFA08FC4CEA070C8D
:10175000C0F808C04768B7430E79C6F30016964034
:101760003E4346600E79F643B6070AD0C7684FEA93
:10177000420C05FA0CF6B7438E6806FA0CF63E43A7
:10178000C6600E7906F00306022E10D1D60800EBD3
:101790008608D8F8206057074FEAD76C09FA0CF78B
:1017A000BE430F6907FA0CF73743C8F82070066884
:1017B0004FEA420C05FA0CF7BE430F7907F0030716
:1017C00007FA0CF7374307604E6816F4403F1CD009
:1017D0004C4E376847F480473760366822F003077D
:1017E00006F480460096484E07EB060CDCF80868C5
:1017F00097073F0F09FA07F826EA0806DFF80C8179
:10180000404503D14FF0000841E072E0DFF800816D
:10181000404502D14FF0010839E0DFF8F88040453B
:1018200002D14FF0020832E0DFF8EC80404502D1EF
:101830004FF003082BE0DFF8E480404502D14FF081
:10184000040824E0DFF8D880404502D14FF00508B5
:101850001DE0DFF8D080404502D14FF0060816E0C9
:10186000DFF8C480404502D14FF007080FE0DFF8F1
:10187000BC80404502D14FF0080808E0DFF8B08096
:10188000404502D14FF0090801E04FF00A0808FA7C
:1018900007F848EA0608CCF80888DAF800605746E6
:1018A000D1F804C09E435FEACC2C00D51E433E60B5
:1018B000DBF800605F46D1F804C09E435FEA8C2CE1
:1018C00000D51E433E60DEF800607746D1F804C0C4
:1018D0009E435FEA8C3C00D51E433E60084F083FA4
:1018E0003E68D1F804C09E435FEACC3C00D51E435D
:1018F0003E60521C102AFFF411AFBDE8F88F0000C3
:10190000083C0140443802400030014000000240E1
:101910000004024000080240000C02400010024097
:101920000014024000180240001C02400020024047
:10193000002402400AB1816170470904FBE70000FE
:1019400001488068704700002C04002090F83D207A
:10195000202A01D002207047242280F83D2002680E
:10196000136823F0010313600268536A23F0100325
:1019700053620268536A0B43536201680A6842F07B
:1019800001020A60202180F83D100020704790F885
:101990003D20202A01D002207047242280F83D20DB
:1019A0000268136823F00103136003685A6A22F087
:1019B0000F020A4391B2596201680A6842F00102BB
:1019C0000A60202180F83D100020704770B50400A7
:1019D00025D094F83D00002520B984F83C502046DD
:1019E00000F0B8F8242084F83D002068016821F058
:1019F000010101602068016841F400410160206834
:101A0000016821F40041016000F044FA4D4A616828
:101A1000914201D84C4900E04C49884201D2012052
:101A200070BD4B492368B0FBF1F15E6826F03F06BC
:101A30000E435E606368934206D94FF49673594330
:101A40004FF47A73B1FBF3F12368491C1E6A26F048
:101A50003F06314319626168914210D84900401E27
:101A6000B0FBF1F2521CC2F30B02042A01D2042093
:101A700022E0B0FBF1F0401CC0F30B001CE0A268B8
:101A8000F2B301EBC10303EB0116431EB3FBF6F304
:101A90005B1C43F480431B0549D092B301EBC102A8
:101AA00002EB0111401EB0FBF1F0401CC0F30B0033
:101AB00040F4804040F400402168CA694CF6FF734E
:101AC0009A431043C861D4E90710014320680268B3
:101AD00022F0C00211430160D4E9030101432068F0
:101AE000826848F2FF339A4311438160D4E90501CB
:101AF00008432168CA6822F0FF021043C86001E071
:101B00000EE016E02068016841F0010101602564E3
:101B1000202084F83D00256384F83E50002070BDED
:101B200001EB4106431EB3FBF6F35B1CB3E7012058
:101B3000C2E701EB4101401EB0FBF1F0401CC0F3D5
:101B40000B00B7E7A086010080841E0000093D005D
:101B500040420F0010B586B0044614216846FEF7D7
:101B600097FD13492068884220D11248002102685D
:101B700042F080020260006800F080000590302092
:101B800000901220CDE9010103200390042004906D
:101B900069460948FFF7B4FD06481030016841F472
:101BA00080010160006800F48000059006B010BD5F
:101BB0000058004030380240001C02400248816852
:101BC00002781144816070472C0400200B4810B546
:101BD000016841F400710160016841F480610160B5
:101BE000016841F480710160032000F06FF80F205C
:101BF00000F006F800F024F8002010BD003C024080
:101C000070B50D4D04464FF47A712878B1FBF0F0B1
:101C10000A490968B1FBF0F000F0EDFE48B9102C5C
:101C200007D200222146501E00F030F800206C60E0
:101C300070BD012070BD00002C040020380400207D
:101C40000A4808B5016841F480410160006800F469
:101C5000804000900548001F016841F080510160FC
:101C6000006800F08050009008BD00004438024039
:101C7000002809DB00F01F0201219140400980008B
:101C800000F1E020C0F8001170470000F0B40E4BE6
:101C90001B680C46C3F30223C3F10705042D00D9CA
:101CA0000425191D072901D2002300E0DB1E0126AF
:101CB00006FA05F1491E214099409E40761E1640C5
:101CC0003143F0BC02F034BD0CED00E0064900F0F9
:101CD000070208684FF6FF03184040EA0220034A53
:101CE00010430860704700000CED00E00000FA05AA
:101CF0002DE9F8431748016841F080510160006800
:101D0000154F00F08050012600903E64FFF718FE4A
:101D100005464FF47A78114C05E000BFFFF710FE3E
:101D2000401B40450DD86068C003F7D57E64FFF7BF
:101D300007FE0546464607E0FFF702FE401BB0429D
:101D400002D90320BDE8F88360688003F4D5002041
:101D5000F8E700004038024000000E4200700040EA
:101D60002DE9F0470E46050065D0DFF81481D8F85C
:101D70000000F7B200F00F00B04207D288F8007000
:101D8000D8F8000000F00F00B04254D128683D4C54
:101D9000810712D5400703D5206840F4E050206049
:101DA0002878000703D5206840F460402060206850
:101DB000A96820F0F000084320602878C0072DD0E3
:101DC000304968680839012812D0022813D0032846
:101DD00011D00968890700292DDA216821F0030153
:101DE00001432160FFF7ACFD814641F2883A0EE0E5
:101DF00009688903EFE709688901ECE7FFF7A0FDAF
:101E0000A0EB0901514502D90320BDE8F087206805
:101E1000696800F00C00B0EB810FEFD1D8F800102A
:101E2000404601F00F01B14207D90770006800F089
:101E30000F00B04201D00120E7E72878400705D520
:101E40002068E96820F4E050084320602878000703
:101E500006D52068296920F4604040EAC10020606E
:101E600000F038F82168084AC1F30311515CC840FA
:101E70000649086006480068FFF7C2FE0020C4E774
:101E8000003C024008380240105C00083804002082
:101E9000300400200448054900680968044AC1F379
:101EA0008221515CC8407047380400200838024045
:101EB000205C00080448054900680968044AC1F329
:101EC0004231515CC8407047380400200838024055
:101ED000205C0008154810B5006810F00C0214488A
:101EE00013D01449042A0FD0082A0ED10F4C241FF6
:101EF0002268236802F03F025B0207D52068C0F326
:101F00008810A0FB010106E0084610BD2168C1F35E
:101F10008811A1FB00010023FEF7E3F92168C1F35A
:101F20000141491C4900B0FBF1F010BD08380240E6
:101F30000024F40040787D012DE9F84F04006ED0B4
:101F40002078DFF84C93C007A9F104054AD009F1C5
:101F500004000168C1F38101012908D00068C0F3C1
:101F6000810002280AD1D9F80000400206D528686D
:101F7000800337D560680028E1D033E06068B0F5B1
:101F8000803F10D0B0F5A02F286810D020F480300A
:101F90002860286820F4802028606068A8B1FFF7D6
:101FA000CFFC06460DE0286840F48030F4E740F4AA
:101FB00080202860F7E700BFFFF7C2FC801B642881
:101FC00073D828688003F7D50CE0FFF7B9FC064604
:101FD00005E000BFFFF7B4FC801B6428F0D8286838
:101FE0008003F7D42078DFF8AC8280074FF0000A36
:101FF0003ED5A748001D016811F00C0F08D00068FD
:10200000C0F3810002280BD1D9F80000400207D4A8
:102010002868800716D5E068012800D112E033E176
:10202000E068B8B10120C8F80000FFF789FC064657
:1020300005E000BFFFF784FC801B0228C0D8286899
:102040008007F7D52868216920F0F80040EAC10030
:1020500028600DE0C8F800A0FFF772FC064604E017
:10206000FFF76EFC801B02281FD828688007F7D472
:102070002078000722D5864F87486169703771B193
:1020800001210160FFF75CFC064604E0FFF758FC05
:10209000801B022809D838688007F7D50EE0C0F801
:1020A00000A0FFF74DFC064605E082E0FFF748FC84
:1020B000801B02287DD838688007F7D42078400735
:1020C00068D5DFF8CCB100270BF13C0BDBF8000042
:1020D000C0000BD4DBF8001041F08051CBF80010A9
:1020E000DBF80000012700F0805000906B4E306854
:1020F000C00510D4306840F480703060FFF720FCD9
:10210000009005E0FFF71CFC0099401A022850D807
:102110003068C005F6D55E4EA0686C3601280FD039
:102120000528306810D020F001003060306820F0C1
:1021300004003060A068B8B1FFF702FC00900FE027
:10214000306840F00100F4E740F004003060F7E749
:10215000FFF7F6FB0099411A41F28830814266D8B8
:1021600030688007F4D50EE0FFF7EAFB009007E047
:10217000FFF7E6FB0099411A41F28830814256D8B8
:1021800030688007F4D42FB1DBF8001021F08051C3
:10219000CBF80010A069C8B33D49091D0968C1F317
:1021A000810102294AD00228504607D0C8F86000B1
:1021B00000E03CE0FFF7C4FB04463BE04746C8F8BC
:1021C0006000FFF7BDFB064605E000BFFFF7B8FB68
:1021D000801B02282BD828688001F7D4D4E9070196
:1021E0000843A16A2E4A490802EB0141626A41EAAA
:1021F0008211084394F82C1040EA0161C9F80010DC
:1022000001203866FFF79CFB044606E03EE000BF75
:10221000FFF796FB001B022809D828688001F7D534
:1022200034E000BFFFF78CFB001B022802D903201B
:10223000BDE8F88F28688001F4D427E00128F7D0A2
:10224000D9F80000E26900F4800191421CD1226AB1
:1022500000F03F01914217D147F6C071626A014018
:10226000B1EB821F10D1A26A4FF0FF3300F440316E
:1022700003EB5202B1EB024F06D194F82C1000F0A0
:102280007060B0EB016F01D00120D1E70020CFE7F3
:102290000438024000004742800E47420070004070
:1022A0000000FFFFFFF7CBB908B5FF208DF8000055
:1022B000322301226946034800F044F99DF80000EA
:1022C00008BD0000F807002001B53223012269464D
:1022D000044800F0E2F9002802D003A0FEF778F8E5
:1022E00008BD0000F80700202053504934205365F2
:1022F0006E64204661696C656421200A0D0000004F
:1023000070B5040009D0606A002540B1256165619F
:10231000A56294F8510040B10CE0012070BD6068E6
:10232000B0F5827FF4D0E561F2E784F850502046A2
:1023300000F044F8022084F851002068016821F080
:1023400040010160A088218900F4827001F40441F9
:102350000843A18901F400610843217C01F00201D6
:102360000843217D01F001010843218B01F4007134
:102370000843217F01F03801084394F8201001F050
:1023800080010843218D01F4005108432168086051
:10239000A069042101EA104094F8241001F0100112
:1023A0000843216848602068C16921F40061C16167
:1023B0006565012084F85100002070BD2DE9F041D1
:1023C00086B0044614216846FEF762F95348524B22
:1023D00022680024514914380225032605279A4211
:1023E00015D10A6842F480520A60096801F48051EC
:1023F0000591016841F0010101600068694600F043
:1024000001000590E020CDE9000545481AE0434B66
:10241000DFF810C11B1FDFF8108162451AD119685F
:1024200041F480411960196801F480410591016807
:1024300041F002010160006800F0020005904FF4D5
:10244000604030E002AA82E8D000FFF759F906B0F8
:10245000BDE8F081DFF8D4C0624529D1196841F4A4
:1024600000411960196801F400410591016841F0CB
:1024700004010160016801F004010591016841F067
:1024800002010160006802AA00F0020005904FF40A
:102490008050CDE90005062782E8D000694624482F
:1024A000FFF72EF91820CDE9000569464046C9E737
:1024B000204B9A4215D10A6842F400520A6009681A
:1024C00001F400510591016841F0100101600068BC
:1024D000694600F0100005906420CDE9000516481B
:1024E000B0E7164B9A42B2D10A6842F480120A60F1
:1024F000096801F480110591016841F02001016033
:102500000068694600F0200005904FF46070CDE946
:1025100000050B4896E700000030014044380240B7
:10252000000002400038004000040240003C00402F
:1025300000080240003401400010024000500140F9
:10254000001402402DE9F84F044690F851009846D7
:1025500016460F460025012801D0022598E0606844
:102560004FF0040BB0F5827F01D1A068F8B194F868
:102570005000012826D04FF0010984F85090FFF751
:10258000DFF98246002F7FD0002E7DD084F851B035
:1025900000206065A763A687E6872063A086E086A3
:1025A00020646064A068B0F5004F0DD016E084F898
:1025B00051B013460A462046CDF8008000F024F9B9
:1025C000BDE8F88F0220FBE72068016821F0400198
:1025D00001602068016821F4804101602068016881
:1025E000490603D4016841F040010160E068D8B1B8
:1025F0003BE020688168C90709D0007BA16B0870A7
:10260000A06B401CA063E08F401EE0870CE0FFF74A
:1026100097F9A0EB0A01414503D3B8F1FF3F03D07E
:1026200006E0B8F1000F03D0E08F0028E1D11FE0F1
:1026300003252BE020688168C90709D0C068A16B19
:102640000880A06B801CA063E08F401EE0870CE038
:10265000FFF776F9A0EB0A01414503D3B8F1FF3F3C
:1026600003D0E5E7B8F1000FE2D0E08F0028E1D118
:1026700052464146204601F0DFFB08B1202060654C
:10268000606D00E000E008B1012501E084F85190A0
:10269000002084F85000284692E72DE9F84F0446C0
:1026A00090F850000026984615468A4601280CD01E
:1026B000012784F85070FFF743F9814694F85100E0
:1026C000B346012804D002269AE00220BDE8F88F24
:1026D000BAF1000F6FD0002D6DD0032084F85100A7
:1026E000C4F854B0C4F830A0A586E586C4F838B064
:1026F000A4F83CB0A4F83EB0C4F844B0C4F840B06C
:10270000A068B0F5004F09D12068016821F04001B0
:1027100001602068016841F480410160206801681F
:10272000490603D4016841F040010160E068B0F55A
:10273000006F606803D058B3012D29D049E008B17B
:10274000012D1FD1206B21680088C86006E0206839
:102750008168890709D5216B0988C160206B801CBD
:102760002063E08E401EE0860CE0FFF7E9F8A0EB66
:102770000901414503D3B8F1FF3F03D006E0B8F1AA
:10278000000F03D0E08E0028E1D125E0032635E0DC
:10279000206B21680078087306E02068816889074B
:1027A0000AD5216B09780173206B401C2063E08EF1
:1027B000401EE0860DE01FE0FFF7C2F8A0EB090124
:1027C000414503D3B8F1FF3F03D0DFE7B8F1000F75
:1027D000DCD0E08E0028E0D14A464146204601F098
:1027E00059FB08B120206065A06818B92068C1684D
:1027F00080680090606D08B1012601E084F8517096
:1028000084F850B0304661E72DE9FF4F81B00446AF
:1028100090F8500000260E9F1D4693464FF0010988
:1028200001280FD04FF0010A84F850A0FFF788F874
:10283000804694F85100616801280DD0B1F5827F7F
:1028400008D103E0022005B0BDE8F08FA16809B906
:10285000042801D00226C9E00298002865D0BBF107
:10286000000FFBD0002DF9D094F85100042802D0BD
:10287000052084F8510000206065C4F838B0E58771
:10288000A58702992163E586A58620646064206897
:102890000168490603D4016841F040010160E06825
:1028A000B0F5006F606803D0F0B3012D47D081E030
:1028B00008B1012D3CD1206B21680088C860206BD5
:1028C000801C2063E08E401EE08631E02068816835
:1028D00089070FD5E18E69B1B9F1010F0AD1216BDA
:1028E0000988C160206B801C2063E08E401EE0865A
:1028F0004FF0000920688168C9070CD0E18F51B101
:10290000C068A16B0880A06B801CA063E08F401E94
:10291000E0874FF00109FFF713F8A0EB0800B84279
:1029200006D3781C04D001E009E05BE003265BE0FD
:10293000E08E0028CAD1E08F0028C7D140E0206B8C
:10294000216800780873206B401C2063E08E401ED5
:10295000E0862FE02068816889070FD5E18E69B194
:10296000B9F1010F0AD1216B09780173206B401C6A
:102970002063E08E401EE0864FF0000920688168E9
:10298000C9070CD0E18F51B1C068A16B0870A06B72
:10299000401CA063E08F401EE0874FF00109FEF766
:1029A000CFFFA0EB0800B84202D3781C02D0BAE7F0
:1029B000002FB8D0E08E0028CCD1E08F0028C9D1FC
:1029C00042463946204601F065FA18B1012620201A
:1029D00060650BE0A06818B92068C1688068009045
:1029E000606D08B1012601E084F851A0002084F850
:1029F0005000304627E710B5401EB0F1807F01D36C
:102A0000012010BD4FF0E02460610F21601701F03C
:102A10008FFE0020A06107202061002010BD7047BC
:102A2000704710B590F83C20012A22D0012280F88E
:102A30003C20CA688C6822F4407222434C6822F41D
:102A4000806222430C6822F4006222430C6922F463
:102A5000805222434C6922F400522243C969002368
:102A600022F480420A4301684A6480F83C30002026
:102A700010BD022010BD000070B590F83C20012A66
:102A800032D0012480F83C40022280F83D200368C7
:102A90005A689D6822F070060A6832435A60134BE8
:102AA00002689A4214D0B2F1804F11D0104B9A4272
:102AB0000ED0104B9A420BD00F4B9A4208D00F4BBE
:102AC0009A4205D00E4B9A4202D00E4B9A4204D144
:102AD000496825F080031943916080F83D4000214A
:102AE00080F83C10084670BD022070BD0000014017
:102AF0000004004000080040000C004000040140B9
:102B0000004001400018004010B5040003D094F8C4
:102B10003D0010B107E0012010BD002084F83C000A
:102B2000204600F01FF8022084F83D00211D206897
:102B300001F0ECFA012084F8460084F83E0084F8A5
:102B40003F0084F8400084F8410084F8420084F893
:102B5000430084F8440084F8450084F83D000020D8
:102B600010BD000010B586B0044614216846FDF77C
:102B70008FFD1F4B226800211E489A4207D1016831
:102B800041F001010160006800F001002DE01A4BE6
:102B90009A4220D11748001F026842F002020260E8
:102BA000006800F00200059012481438026842F0F4
:102BB00004020260006800F00400059058150090BF
:102BC0000220CDE90101CDE9031069460B48FEF76B
:102BD00097FD06B010BD0A498A42FAD1016841F05A
:102BE00002010160006800F002000590F1E70000BA
:102BF0000000014044380240000400400008024048
:102C00000004014090F83D10012901D001207047D7
:102C1000022180F83D100168CA6842F00102CA60D2
:102C200000681149884214D0B0F1804F11D00F498B
:102C300088420ED00E4988420BD00E49884208D0F7
:102C40000D49884205D00D49884202D00C4988427E
:102C500004D1816801F00701062903D0016841F021
:102C600001010160002070470000014000040040A5
:102C700000080040000C00400004014000400140FA
:102C80000018004070B5044690F83C00002501286B
:102C900017D0012684F83C60022084F83D002068AB
:102CA000826822F0770222F47F428260086850280E
:102CB00038D00DDC20284FD005DC90B3102811D17E
:102CC0004AE0022070BD302846D040280AD13BE0BF
:102CD00060282FD070280DD0B0F5805F03D0B0F5FC
:102CE000005F12D0012584F83D60002084F83C008C
:102CF000284670BDCB68D1E90121206801F072FA45
:102D00002068816841F0770109E0CB68D1E90121B1
:102D1000206801F067FA2068816841F48041816091
:102D2000E1E719E0CA684968206801F02FFB5021EB
:102D3000206806E0CA684968206801F038FB602115
:102D4000206801F059FACEE7CA684968206801F0A6
:102D50001DFB40212068F4E7226801461046F0E799
:102D600070472DE9F04104460068C66805694FF0D8
:102D70000007A90713D5B10711D5F91E016101207C
:102D80002077206880698007204602D0FFF7E8FF9F
:102D900004E000F002F9204600F0D6F92777680732
:102DA00016D5700714D521686FF004000861022061
:102DB00020772068806910F4407F204602D0FFF71A
:102DC000CFFF04E000F0E9F8204600F0BDF92777D6
:102DD000280715D5300713D521686FF00800086162
:102DE000042020772068C0698007204602D0FFF7C2
:102DF000B7FF04E000F0D1F8204600F0A5F92777EE
:102E0000E80616D5F00614D521686FF010000861A9
:102E1000082020772068C06910F4407F204602D047
:102E2000FFF79EFF04E000F0B8F8204600F08CF9B0
:102E30002777E80708D0F00706D021686FF0010077
:102E40000861204600F082F9280608D5300606D52C
:102E500021686FF0800008612046FFF7E0FD6806FA
:102E600008D5700606D521686FF04000086120463D
:102E700000F0A4F9A8060AD5B00608D521686FF0BD
:102E8000200008612046BDE8F041FFF7C9BDBDE85C
:102E9000F081000030B587B0044614216846FDF784
:102EA000F7FB224D23680020214902220124AB4276
:102EB00010D10B6843F010030B60096801F010019A
:102EC000059111020091CDE90120CDE90304694685
:102ED000184811E0184DAB4212D10B6843F48073CF
:102EE0000B6009680094CDE9012001F48071CDE9FF
:102EF0000421039069461148FEF702FC07B030BD7B
:102F00000F4CA342FAD10B6843F080030B600968B1
:102F100001F08001059161140091CDE90120039039
:102F20000320049069460748E6E7000000000140DE
:102F30003038024000100240000C004000200240E7
:102F400000040140001C024070B5044690F83C00AB
:102F5000002501280FD0012084F83C006AB1042A22
:102F60000FD0082A11D00C2A13D00125002084F894
:102F70003C00284670BD022070BD206801F044F975
:102F8000F4E7206801F070F9F0E7206801F0A2F999
:102F9000ECE7206801F0D2F9E8E7704710B50400CB
:102FA00003D094F83D0010B107E0012010BD0020CF
:102FB00084F83C00204600F01EF8022084F83D0012
:102FC000211D206801F0A2F8012084F8460084F851
:102FD0003E0084F83F0084F8400084F8410084F803
:102FE000420084F8430084F8440084F8450084F8E3
:102FF0003D00002010BD704770B5044690F83C00BD
:1030000000260D4601280FD0012084F83C006AB14B
:10301000042A1DD0082A2FD00C2A3FD001260020D8
:1030200084F83C00304670BD022070BD206801F07D
:10303000EBF82068816941F00801816120688169AD
:1030400021F004018161206881692A69114311E03E
:10305000206801F009F92068816941F4006181610B
:103060002068816921F480618161206881692A6911
:1030700041EA02218161D2E7206801F02BF9206842
:10308000C16941F00801C1612068C16921F00401F2
:10309000C1612068C1692A69114311E0206801F00B
:1030A0004DF92068C16941F40061C1612068C169BE
:1030B00021F48061C1612068C1692A6941EA022165
:1030C000C161ACE710B5040003D094F83D0010B125
:1030D00007E0012010BD002084F83C00204600F0ED
:1030E0001FF8022084F83D00211D206801F00EF831
:1030F000012084F8460084F83E0084F83F0084F8FC
:10310000400084F8410084F8420084F8430084F8C9
:10311000440084F8450084F83D00002010BD000004
:1031200008B500680649884208D10648016841F0A0
:1031300008010160006800F00800009008BD000070
:10314000000C00404038024070470000184910B59C
:1031500088422BD101F59070164B026800F10C01EA
:103160009A4202D2521C026006E0002202604260D3
:103170000A78521C0A7002686423B2FBF3F403FB62
:10318000142212B94268521C426040684FF47A72AD
:10319000B0FBF2F302FB1302002A07D1064A536880
:1031A000984203D001234B7050608B6010BD00002B
:1031B000F0050020002A751500000020704770B54A
:1031C000040004D094F84100002510B106E001206D
:1031D00070BD84F84050204600F024F8242084F884
:1031E00041002068C16821F40051C160204601F00F
:1031F000F1F82068016921F490410161206841697A
:1032000021F02A0141612068C16841F40051C16088
:103210006564202084F8410084F842006563002042
:1032200070BD00002DE9F04F87B0044614216846B8
:10323000FDF72EFA5848574B22680024564910389B
:1032400002250326DFF854B14FF4406C4FF0080913
:103250009A4213D10A6842F400220A60096801F414
:1032600000210591016841F0040101600068694690
:1032700000F00400CDE9049058466AE0464BDFF8C0
:1032800020811B1D0727DFF81CA142451BD11968AF
:1032900041F010011960196801F0100105910168F1
:1032A00041F0010101600068694600F001000590ED
:1032B0004FF4C060CDE9000550462FE0FEF720FA3C
:1032C00007B0BDE8F08FDFF8E08042452AD10A68F8
:1032D00042F400320A60096801F400310591016886
:1032E00041F001010160016801F0010105910168EF
:1032F00041F008010160006802AA00F00800059092
:103300000420CDE9000582E8D00069465046FEF76A
:10331000F7F94020CDE900052448694602AA82E871
:10332000D000CBE7DFF88880424517D10A6842F425
:1033300080220A60096801F480210591016841F04A
:10334000020101600068694600F00200CDE90470E6
:103350001848CDE900C5CDE90246AFE716498A42D3
:10336000AED1196841F020011960196801F02001FF
:103370000591016841F004010160006802AA00F0B3
:1033800004000590C020CDE9000582E8500269469E
:10339000584693E7004C0040403802400008024085
:1033A000001001400000024000440040000C0240B8
:1033B000004800400004024000140140FEE7000005
:1033C00070B501220B4D140221462846FEF7B2FAD1
:1033D0000122560231462846FEF7ACFA0022314659
:1033E0002846FEF7A7FA21462846BDE8704000228D
:1033F000FEF7A0BA0004024070B5094C0122110288
:103400002046FEF797FA6515002229462046FEF76A
:1034100091FA29462046BDE870400122FEF78ABA9B
:103420000004024070B50122064D140221462846D0
:10343000FEF780FA21462846BDE870400022FEF7DC
:1034400079BA00000004024010B501F095FABDE819
:10345000104001F0A9BA01F05DBA000010B51B4898
:103460008AB01949016006210024C0E901144FF413
:103470000021C0E90341C9004161047644768476A5
:10348000C47604774477FDF7F9FE08B172B6FEE71B
:103490000120CDE906400394089004940E20099081
:1034A00005940194029469460848FDF7C1FC074859
:1034B000FEF792F810B106A0FCF78AFF022103483C
:1034C000FDF73CFC0AB010BD00640040AC040020D5
:1034D00043414E31205374617274204661696C65BA
:1034E00064210A0D0000000010B51C488AB01A497A
:1034F000016006210024C0E901144FF40021C0E955
:103500000341C9004161047644768476C476047729
:103510004477FDF7B3FE08B172B6FEE70E20CDE9A1
:1035200005040120029403940790089004941C2041
:103530000990019469460948FDF77AFC0748FEF7AF
:103540004BF810B106A0FCF743FF02210348FDF73A
:10355000F5FB0AB010BD000000680040D404002054
:1035600043414E32205374617274204661696C6528
:1035700064210A0D000000002DE9F04F87B01421EE
:103580006846FDF785F88248016841F01001016046
:10359000016801F010010591016841F4807101603A
:1035A000016801F480710591016841F0200101601A
:1035B000016801F020010591016841F0800101607E
:1035C000016801F080010591016841F0040101608A
:1035D000016801F004010591016841F001010160F9
:1035E000016801F001010591016841F002010160EB
:1035F000016801F002010591016841F008010160D4
:10360000016801F008010591016841F04001016085
:103610000068DFF880B100F040000590002218211A
:103620005846FEF787F9002240215B48FEF782F9F1
:103630004FF48176002231465848FEF77BF948F274
:103640001207002239465648FEF774F90022042179
:103650005448FEF76FF941F20308002241465248F0
:10366000FEF768F900227A215048FEF763F94FF41B
:103670008069002249464E48FEF75CF94FF4407AD3
:10368000012251464848FEF755F918200124CDE99A
:10369000000400200325CDE9020569465846FEF7DF
:1036A0002FF840F604000090002001900290694637
:1036B0003E48FEF725F84020CDE900040020CDE982
:1036C000020569463448FEF71BF800200096039572
:1036D000CDE9014069463148FEF712F80020009715
:1036E0000395CDE9014069462D48FEF709F804200D
:1036F000CDE900040020CDE9020569462948FDF71F
:10370000FFFF0020CDF800800395CDE90140694618
:103710002548FDF7F5FF7A20CDE900040020CDE92A
:10372000020569462148FDF7EBFF0020CDF8009027
:103730000395CDE9014069461D48FDF7E1FFCDE95C
:1037400000A469461848CDE90245FDF7D9FF0122DA
:1037500010215846FEF7EEF8012211031248FEF739
:10376000E9F8012240210C48FEF7E4F80122B91ED5
:103770000B48FEF7DFF8002202210848FEF7DAF8CE
:10378000012202210648FEF7D5F807B0BDE8F08F08
:10379000303802400010024000140240000802408D
:1037A00000000240001C02400004024000200240D1
:1037B00000180240134810B51149016012494160D8
:1037C00000214FF480428160C0E9031241618161B0
:1037D000C1610162FEF7FAF808B172B6FEE7002196
:1037E0000848FEF7B3F808B172B6FEE700210548B5
:1037F000FEF7CDF8002801D072B6FEE710BD00003C
:1038000000580040FC040020801A06000F4810B544
:103810000D4901604FF48271416000218160C160F7
:103820004FF400720161C0E905121022C0E90721BE
:10383000416281620A21C162FEF762FD002801D067
:1038400072B6FEE710BD00000030014050050020B8
:1038500010B596B000240F94109411941294139400
:103860001C2108A81494FCF713FF20216846FCF7DC
:103870000FFF27482549C0E900144FF6FF71C0E942
:103880000241046144618461FFF73EF908B172B6F8
:10389000FEE74FF480500F900FA91D48FFF7F2F993
:1038A00008B172B6FEE71A48FFF778FB08B172B6A6
:1038B000FEE7139413A916481494FFF7DDF808B136
:1038C00072B6FEE7089409940A940B940C940D9434
:1038D000002208A90E480E94FFF736FB08B172B615
:1038E000FEE700944FF40050CDE9044002940194A7
:1038F0000394694606480794FFF793F808B172B637
:10390000FEE70348FFF7C6FA16B010BD00000140FD
:10391000A805002010B586B0002416480094019434
:103920000294039404941249059401605921C0E95A
:1039300001140921C0E903148461FFF7E5F808B117
:1039400072B6FEE74FF48050009069460948FFF7D1
:1039500099F908B172B6FEE7049404A905480594E4
:10396000FFF78AF8002801D072B6FEE706B010BD56
:1039700000040040F005002010B58AB00024079430
:103980001C2168460894FCF783FE16481449C0E9D8
:10399000001441F28731C0E9024104618461FFF7FC
:1039A00091FB08B172B6FEE7079407A90D48089489
:1039B000FFF762F808B172B6FEE76020CDE90004B7
:1039C00002940C22694607480494FFF715FB08B1DE
:1039D00072B6FEE70348FFF75DFA0AB010BD0000BB
:1039E000000C00403806002010B596B000240F945B
:1039F00010941194129413941C2108A81494FCF7A9
:103A000047FE20216846FCF743FE28482649C0E9C6
:103A100000144FF6FF71C0E9024104614461846102
:103A2000FFF772F808B172B6FEE74FF480500F90BE
:103A30000FA91E48FFF726F908B172B6FEE71B482A
:103A4000FFF740FB08B172B6FEE7139413A91748BD
:103A50001494FFF711F808B172B6FEE76020CDE9C3
:103A600008040A940B940C940D94002208A90F48A2
:103A70000E94FFF7C1FA08B172B6FEE700944FF456
:103A80000050CDE90440029401940394694607482C
:103A90000794FEF7C6FF08B172B6FEE70348FFF7CA
:103AA000F9F916B010BD00000004014080060020A6
:103AB000FEE7FEE770B50024002104F1B00000F03D
:103AC0008AF90021022000F086F90021102000F080
:103AD00082F900250121002000F07DF96D1CEDB276
:103AE000802DF7D3641CE4B2082CE5D370BD2DE91A
:103AF000F04798461746824600260C46DDF820908F
:103B000011E02146504600F0D6F8554607E019F876
:103B100006000121761C00F05EF96D1CEDB2BD427D
:103B2000F5D3641CE4B24445EBD3BDE8F08710B58F
:103B30004FF44870FDF7D2FD0021AE2000F04BF9A4
:103B40000320FDF7CBFD0021022000F044F9032003
:103B5000FDF7C4FD0021102000F03DF90320FDF722
:103B6000BDFD0021402000F036F90320FDF7B6FD31
:103B70000021B02000F02FF90320FDF7AFFD002158
:103B8000812000F028F90320FDF7A8FD0021FF2087
:103B900000F021F90320FDF7A1FD0021A12000F094
:103BA0001AF90320FDF79AFD0021A62000F013F971
:103BB0000320FDF793FD0021A82000F00CF903205D
:103BC000FDF78CFD00213F2000F005F90320FDF7F3
:103BD00085FD0021C82000F0FEF80320FDF77EFDE2
:103BE0000021D32000F0F7F80320FDF777FD002136
:103BF000084600F0F0F80320FDF770FD0021D52005
:103C000000F0E9F80320FDF769FD0021802000F0B5
:103C1000E2F80320FDF762FD0021D82000F0DBF878
:103C20000320FDF75BFD0021052000F0D4F8032000
:103C3000FDF754FD0021D92000F0CDF80320FDF759
:103C40004DFD0021F12000F0C6F80320FDF746FDF0
:103C50000021DA2000F0BFF80320FDF73FFD00212E
:103C6000122000F0B8F80320FDF738FD0021DB201A
:103C700000F0B1F80320FDF731FD0021302000F005
:103C8000AAF80320FDF72AFD00218D2000F0A3F8FB
:103C90000320FDF723FD0021142000F09CF80320F1
:103CA000FDF71CFD0021AF2000F095F8BDE81040A5
:103CB0000320FDF713BD10B50A460446002102F1AA
:103CC000B00000F088F8A41CC4F3031040F010000A
:103CD000002100F080F804F00F00BDE81040002142
:103CE00000F079B82DE9F041203A00240D468046D5
:103CF000D6B27F2803D900208D1C8046EDB2102B50
:103D0000294610D0FFF7D7FF164906EB460001EB16
:103D100040050121285D00F05EF8641CE4B2062C29
:103D2000F7D3BDE8F081FFF7C6FF0F4F04EB061095
:103D30000121385C00F04FF8641CE4B2082CF5D384
:103D40006D1CE9B24046FFF7B6FF002404EB0610F5
:103D500038440121007A00F03EF8641CE4B2082CDB
:103D6000F4D3DEE7285C0008505E00082DE9F05F20
:103D70000026DDF828901D4692468B468046344644
:103D80004FEA590723E0281B401EC1B20A2001F068
:103D900007FABAFBF0F00A21B0FBF1F201FB1200C6
:103DA00026B9691E8C4201DA38B101263030C2B220
:103DB00007FB0480C0B24B4604E007FB0480C0B29E
:103DC0004B4620225946FFF78DFF641CE4B2AC42FB
:103DD000D9D3BDE8F09FC0B209B100F092BC00F0A9
:103DE00079BC00009FED060A80ED090A80ED0B0A00
:103DF00080ED0C0A80ED0A0A80ED0D0A7047000084
:103E00000000000070470000012210210148FDF76A
:103E100091BD000000100240002210210148FDF772
:103E200089BD000000100240012080F31088704717
:103E3000002080F310887047F8B5044640684FF4BE
:103E40008273984221D1A0684FF48065B0F5004F8D
:103E500001D0A8420AD12068066826F04006066014
:103E60006068984211D1A068A8420ED000920B461B
:103E700000228021204600F043F8002804D0606D25
:103E800040F0200060650320F8BD00920B46002240
:103E90000121EFE7F8B515460E460B4600920446A1
:103EA0000122022100F02CF8A0B913481349006840
:103EB000B0FBF1F04FF47A71484300906068B0F5C0
:103EC000827F0DD13346002280212046009500F0EC
:103ED00017F870B1606D40F0200060650320F8BDF8
:103EE000009830B1401E009020688068C0430006F2
:103EF000F6D50020F8BD00003804002000366E0121
:103F00002DE9F8431E46914688460446089DFDF774
:103F100017FD401B351AFDF713FD074625480068BD
:103F2000C0F3CB30684338E0701C37D0FDF708FD94
:103F3000C01BA84203D215B1009860B32CE02068E2
:103F4000416821F0E00141606068B0F5827F0BD1EB
:103F5000A068B0F5004F02D0B0F5806F04D12068A2
:103F6000016821F040010160A06AB0F5005F09D14D
:103F70002068016821F4005101602068016841F463
:103F800000510160012084F85100002084F85000A5
:103F90000320BDE8F8830025401E0090206881685A
:103FA00038EA010004D000214945BDD10020F0E7E6
:103FB0000121F9E7380400207047FDF7FFBD00003C
:103FC00030B593B030216846FCF762FB14210CA891
:103FD000FCF75EFB20480025016841F0805101603C
:103FE000006800F0805011901C48016821F44041A5
:103FF00041F4804101600068022400F440401190C7
:1040000001200090000401908001CDE906401920B4
:1040100008904FF4B470CDE9090404200B90684671
:10402000FDF78AFF08B172B6FEE7FDF761FE08B141
:1040300072B6FEE70F20CDE90C0480200E904001FF
:10404000CDE90F0502210CA8FDF78AFE002801D05A
:1040500072B6FEE713B030BD403802400070004039
:104060000248016841F470010160704788ED00E08A
:104070000148FEF776BE0000F005002030B5204C68
:1040800020684FF0000283B21E4801780D0635D437
:10409000DD0706D04D0604D5CD43AD0613D0491C2F
:1040A000017099072AD5037817495D0612D543F0A8
:1040B00080030370144B14331B684360086820F0BE
:1040C000020008601AE041F0800101704FF0FF31FA
:1040D0004160E6E7402342600370094810380368F6
:1040E00023F001030360084B1B1D1A600B6843F0AB
:1040F00002030B60016841F001010160226030BDE4
:10410000100C004068040020200C0040F0B502684C
:10411000294C2A4D2A4E2B4F2B4B4FF0804CA0425E
:1041200009D0604507D0A84205D0B04203D0B842BC
:1041300001D0984204D122F0700E4A6842EA0E0281
:10414000A0421BD0604519D0A84217D0B04215D06C
:10415000B84213D0984211D01C4DA8420ED01C4D2D
:10416000A8420BD01B4DA84208D01B4DA84205D039
:104170001A4DA84202D01A4DA84203D122F440752C
:10418000CA682A434D6922F080022A4302608A6885
:10419000C2620A688262A04201D0984201D10969D4
:1041A0000163012141610169C90703D0016921F05F
:1041B00001010161F0BD0000000001400004004069
:1041C00000080040000C0040000401400040014095
:1041D000004401400048014000180040001C00401D
:1041E0000020004010B5846842EA032224F47F4492
:1041F0000A432243826010BD826822F070020A43A3
:1042000042F0070181607047F0B5036A026A22F04C
:104210000102026242688469124E24F073050C6840
:104220002C4323F002058B682B430D4DA84201D08F
:10423000B04205D123F00807CB683B4323F00403C9
:10424000A84201D0B04205D14D6922F44072154315
:104250008A692A4342608461496841630362F0BD10
:104260000000014000040140F0B5026A036A23F037
:1042700010030362436884690D6824F4E64444EA49
:1042800005248D6822F0200242EA05120F4D104EDF
:10429000A84201D0B04206D1CF6822F0800242EAA3
:1042A000071222F04002A84201D0B04207D14D6966
:1042B00023F4406343EA85038D6943EA8503436041
:1042C0008461496881630262F0BD00000000014022
:1042D00000040140F0B5026A036A23F480730362AC
:1042E0004368C46922F4007224F073050C68124E0E
:1042F0002C438D6842EA05220E4DA84201D0B042FF
:1043000006D1CF6822F4006242EA072222F48062DA
:10431000A84201D0B04207D14D6923F4405343EA8B
:1043200005138D6943EA05134360C4614968C1639D
:104330000262F0BD000001400004014030B5046A93
:10434000026A22F4805202624268C3690D6823F453
:10435000E64343EA05238D6824F4005444EA053417
:10436000084DA84202D0084DA84204D14D6922F45C
:10437000804242EA85124260C36149680164046276
:1043800030BD0000000001400004014010B5036A88
:10439000046A24F001040462846924F0F00444EA0D
:1043A000021423F00A020A438461026210BD10B5B0
:1043B000036A046A24F010040462846923F0A003F1
:1043C00024F4704444EA023243EA0111826101623A
:1043D00010BD000070B5044600680169E26821F470
:1043E0004051114301612169A068E2690843616994
:1043F000114308432168CA6849F20C639A43024397
:10440000CA6020684169A26921F440711143416189
:1044100031492068884202D03049884202D1FDF7F4
:1044200049FD01E0FDF736FDE2690023192164250D
:104430003226B2F5004F626828D0A0FB0101930F2D
:104440009200FBF74EFF0146B0FBF5F06FF018024B
:10445000504301EB800006EB0010B0FBF5F000F0DC
:10446000F002B1FBF5F002EB0012B1FBF5F06FF0DA
:104470001803584301EB800006EB0010B0FBF5F089
:1044800000F00F0021681044886070BDA0FB01019E
:1044900092185B41FBF725FF0146B0FBF5F00201E6
:1044A000B1FBF5F06FF01803584301EB800006EB09
:1044B000C000B0FBF5F000F0F80002EB4002B1FBE9
:1044C000F5F0584301EB800006EBC000B0FBF5F0BF
:1044D00000F00700D6E70000001001400014014082
:1044E0000B4810B50068800610D50A48012100224B
:1044F000417007498270091D0B68074C01786354AD
:10450000491CC9B20170352900D3027010BD0000EA
:10451000004400405404002080080020FEE7000012
:1045200070B50D4C0546A068804720698047E16959
:10453000C5F307408847E169C5F307208847E1696B
:10454000E8B28847A0698047054660698047E0680F
:104550008047284670BD00007C0400202DE9F04112
:10456000114C06461746A0688846002580472069FA
:104570008047E169C6F307408847E169C6F3072031
:104580008847E169F0B2884705E0A069804708F8EC
:1045900005006D1CADB2BD42F7D360698047E0688D
:1045A000BDE8F041004700007C04002070B50E4CCF
:1045B00005460E46A06880472069804745F00405FF
:1045C000E169C5F307408847E169C5F307208847DB
:1045D000E169E8B28847E169304688476069804709
:1045E000E068BDE8704000477C0400202DE9F04100
:1045F000124C06461746A068884600258047206969
:10460000804746F00406E169C6F307408847E16940
:10461000C6F307208847E169F0B2884706E000BF8B
:10462000E16918F8050088476D1CADB2BD42F7D3AB
:1046300060698047E068BDE8F04100477C040020E5
:104640000A480B49007800F07F0008600849002004
:10465000083108600748D0F8801221B15FF00001EE
:10466000C0F8801270470121FAE7000070040020B2
:10467000002C0040008040422DE9F041144F0446D8
:104680004FF48076002231463846FDF753F9002575
:104690004FF4007804F08000802816D000224146B4
:1046A0003846FDF747F96006040E012231463846C8
:1046B000FDF740F9002231463846FDF73BF96D1C05
:1046C000EDB2082DE6D3BDE8F0810122E7E7000056
:1046D0000004024010B50446FEF772FE7820FFF792
:1046E000CBFFFEF79FFE0020FFF7C6FFFEF79AFE06
:1046F0002046FFF7C1FFFEF795FEBDE81040FEF72C
:104700007BBE10B50446FEF75BFE7820FFF7B4FFD2
:10471000FEF788FE4020FFF7AFFFFEF783FE20463E
:10472000FFF7AAFFFEF77EFEBDE81040FEF764BE6D
:104730000907090E002804DB00F1E02080F80014CE
:10474000704700F00F0000F1E02080F8141D704762
:1047500030380A2801D20120704700207047704786
:1047600010B50022032808D30A48D0E901210AA085
:10477000FBF72EFE4FF0FF3010BD124B43F8201018
:104780000121401E8140A3F1080003781943017004
:10479000104610BD100700205554433A2564206D83
:1047A00073204341533A20256420526563762045A7
:1047B00072726F7220436F6E7465787420506163FB
:1047C0006B0A0D000800002010B50C4606281ED20A
:1047D000DFE800F003070B101418204600F008FE75
:1047E00013E0204600F076FD0FE02078BDE8104091
:1047F00000F02ABE00F09AFD207006E0204600F08E
:1048000035FE02E0204600F094FD002010BD4FF080
:10481000FF3010BD2DE9F0410C46002102464F1E2D
:1048200008464FF498554FF4A056102A61D2DFE89D
:1048300002F0080B17131A1E222C3643464A574E15
:10484000535A00F02AFE4BE014B1204604F108014F
:10485000BDE8F04100F081BD208800F00BFD3FE095
:1048600000F01BFD05E0208800F0B4FD38E000F00A
:1048700023FD208034E02088010A2846FFF796FEB9
:1048800021783046FFF792FE2AE03046FFF748FED7
:1048900006462846FFF744FE06EB0020E9E71648E7
:1048A00082782270C27862700279A2704279E270D6
:1048B00080792071617113E000F065FE10E0204600
:1048C00000F076FE0CE0204600F021FE08E02078A3
:1048D000BDE8F04100F091BE00F049FE05E0207017
:1048E0000020BDE8F08100F039FEC0B241B2491CA1
:1048F000F5D13846F5E700007C04002004490A6839
:104900005206FCD5024AC1B2121D11607047000068
:10491000004C00402DE9F041804600218723F02221
:10492000084600F067F9114F4FF400460022314667
:104930003846FCF7FFFF012202210D48FCF7FAFF81
:104940000025002441460B4800F08AF9641CA4B2FB
:10495000872CF7D36D1CADB2F02DF2D3314638461B
:10496000BDE8F0410122FCF7E5BF00000000024075
:1049700000080240A007002010B50A4C00220421C4
:104980002046FCF7D7FF4FF47A70FCF7A7FE012210
:1049900004212046FCF7CEFFBDE810406420FCF760
:1049A0009DBE0000001C024010B54FF47A70FCF769
:1049B00095FE1121894800F097F97820FCF78EFECA
:1049C0003A21864800F090F90521844800F06CF9FE
:1049D000C521824800F088F91A21804800F064F966
:1049E00036217E4800F080F900217C4800F05CF917
:1049F000B2217A4800F078F90521784800F054F99E
:104A00000521764800F050F90021744800F04CF977
:104A10003321724800F048F93321704800F044F91E
:104A2000B7216E4800F060F905216C4800F03CF9B0
:104A3000BB216A4800F058F93F21684800F034F97A
:104A4000C021664800F050F92C21644800F02CF990
:104A5000C221624800F048F90121604800F024F9C1
:104A6000C3215E4800F040F90F215C4800F01CF9BA
:104A7000C4215A4800F038F92021584800F014F9B0
:104A8000C621564800F030F90121544800F00CF9D5
:104A9000D021524800F028F9A421504800F004F930
:104AA000A1214E4800F000F9E8214C4800F01CF923
:104AB00003214A4800F0F8F8E921484800F014F9C9
:104AC0000921464800F0F0F80921444800F0ECF8CC
:104AD0000821424800F0E8F8E021404800F004F9DD
:104AE000D0213E4800F0E0F805213C4800F0DCF819
:104AF00009213A4800F0D8F80921384800F0D4F8E4
:104B00000821364800F0D0F81421344800F0CCF8E1
:104B10002821324800F0C8F83321304800F0C4F8AA
:104B20003F212E4800F0C0F807212C4800F0BCF8C7
:104B300013212A4800F0B8F81421284800F0B4F8EE
:104B40002821264800F0B0F83021244800F0ACF8C5
:104B5000E121224800F0C8F8D021204800F0A4F854
:104B600005211E4800F0A0F809211C4800F09CF81F
:104B700009211A4800F098F80821184800F094F824
:104B80000321164800F090F82421144800F08CF816
:104B90003221124800F088F83221104800F084F8E1
:104BA0003B210E4800F080F814210C4800F07CF8FE
:104BB00013210A4800F078F82821084800F074F81A
:104BC0002F21064800F070F82121044800F08CF8ED
:104BD000BDE810402921014800F086B8A007002058
:104BE00008B532238DF8001001226946FDF755FD06
:104BF00008BD00002DE9F0410E4607461C4615464B
:104C00002A21164800F070F8390A144800F04CF8D0
:104C1000F9B2124800F048F8290A104800F044F8A8
:104C2000E9B20E4800F040F82B210C4800F05CF887
:104C3000310A0A4800F038F8F1B2084800F034F8B8
:104C4000210A064800F030F8E1B2044800F02CF8E0
:104C5000BDE8F0412C21014800F046B8A007002033
:104C60002DE9F0410E4E0C4607464FF40045002258
:104C700029463046FCF75EFE012202210948FCF776
:104C800059FE210A3846FFF7ABFF21463846FFF7A9
:104C9000A7FF29463046BDE8F0410122FCF74ABE95
:104CA00000000240000802402DE9F0410C4D0E4684
:104CB00007464FF40044002221462846FCF73AFEFE
:104CC000012202210748FCF735FE31463846FFF73E
:104CD00087FF21462846BDE8F0410122FCF72ABEA5
:104CE00000000240000802402DE9F0410C4D0E4644
:104CF00007464FF40044002221462846FCF71AFEDE
:104D0000002202210748FCF715FE31463846FFF71E
:104D100067FF21462846BDE8F0410122FCF70ABEA4
:104D2000000002400008024008B50025FCF74EFFD5
:104D3000FFF746F9FEF720FCFEF790FBFEF7D4FBE9
:104D4000FEF738FDFEF762FDFEF782FDFEF7E2FD9D
:104D5000FEF712FEFEF748FE44484349016044490D
:104D6000C0E901150C21C560C0E904518561C56128
:104D7000FEF725FA08B172B6FEE7002211461420AC
:104D8000FCF784FF1420FCF773FF0022114640203B
:104D9000FCF77CFF4020FCF76BFF002201211D2067
:104DA000FCF774FF1D20FCF763FF00F03BFA2F486F
:104DB000D838FDF727FFFEF747FB4FF47840FEF7A2
:104DC0004AFBFEF7B4FEFEF775FE10201E21009090
:104DD00002230F220846FEF7C9FF26480021009053
:104DE000082380220846FEF782FE4FF4FA50FCF7B3
:104DF00075FCFEF75FFE00F073F900F0CDF8FBF7ED
:104E000039FFFDF74FFA4FF4FA70FCF767FC4EF6E6
:104E1000945200210320FCF737FC144EDFF8588031
:104E20004836164F06F10C046078012804D114A00E
:104E30007168FBF7CDFA65702079012807D198F8E1
:104E40000000C0F344011448FBF72AFD2571607986
:104E50000128E9D13878C0F344010F482830FBF726
:104E60001FFD6571E0E70000004C0040C80600200F
:104E700020A10700100000204C0400205004002056
:104E80002564206D732048656172744265617420E9
:104E90004D7367200A0D0000AC04002070B50D466C
:104EA0000F491446921C0A800E4903230B70487068
:104EB0000020034603E00E18401CB370C0B2A042AD
:104EC000F9D30949074800F011F80020064904E029
:104ED0000A1892782A54401CC0B2A042F8D370BD80
:104EE0009C040020F6080020F70900202DE9F84F67
:104EF000DFF848A015460E46804600244FF480593E
:104F0000224649465046FCF715FD32270DE032197E
:104F100008EB040101230A480097FDF775FC10B166
:104F200008A0FBF755FA641CA4B2AC42EFD3494683
:104F30005046BDE8F84F0122FCF7FCBC00040240DB
:104F400048070020535049322053656E6420466163
:104F5000696C656421200A0D00000000F0B40B4C60
:104F6000931C022523800A4C25706070002004E009
:104F70000D5C2618401CB570C0B29042F8D3F0BC4E
:104F80001A4604490248FFF7B1BF00009C04002004
:104F9000F6080020F709002010B586B0214900204E
:104FA000FFF712FC1F490120FFF70EFC03A90820A0
:104FB000FFF730FC1C4803AA41681CA0FBF708FA65
:104FC000184CE078627921798DE80700A37862783F
:104FD00021781EA0FBF7FCF9607A0090237AE27931
:104FE000A17924A0FBF7F4F9607C0090237CE27B9C
:104FF000A17B25A0FBF7ECF9607B0090237BE27A94
:10500000A17A26A0FBF7E4F9607D0090237DE27C85
:10501000A17C27A0FBF7DCF92AA0FBF7D9F906B0A1
:1050200010BD000010040020100700200D0A203DD4
:105030003D3D202564206D73202573204E4554206E
:10504000434F4E46203D3D3D0D0A00004D41433A41
:1050500020253032583A253032583A253032583AE5
:10506000253032583A253032583A253032580D0A18
:10507000000000005349503A2025642E25642E2557
:10508000642E25640D0A00004741523A2025642E03
:1050900025642E25642E25640D0A00005355423ADE
:1050A0002025642E25642E25642E25640D0A00001B
:1050B000444E533A2025642E25642E25642E256403
:1050C0000D0A00003D3D3D3D3D3D3D3D3D3D3D3DED
:1050D0003D3D3D3D3D3D3D3D3D3D0D0A0000000057
:1050E00000B5174B85B00DF1040C0FCB8CE80F0009
:1050F0001449154800F05CF81449154800F06AF8A6
:105100001449154800F078F801A90120FFF782FB47
:10511000401C05D11148416811A0FBF759F9FEE781
:1051200069460F20FFF776FB401C02D115A0FBF764
:105130004FF99DF800000028F2D005B000BD000036
:10514000005C0008313E0008293E0008093E0008C6
:10515000193E0008C9220008A922000810070020F3
:105160002564206D732057495A4348495020496EA1
:10517000697469616C697A6564206661696C2E0D79
:105180000A000000556E6B6E6F776E2050485920F4
:105190004C696E6B207374617574732E0D0A000078
:1051A0000246012000E05043491EC9B2FBD27047BD
:1051B000054A18B111B1C2E9020170470348906075
:1051C0000348D060704700007C0400209352000820
:1051D00095520008054A18B111B1C2E9040170479F
:1051E0000348106103485061704700007C040020B0
:1051F0009952000897520008074A10B513889C0579
:10520000FDD518B111B1C2E9060110BD0348906186
:105210000348D06110BD00007C04002095540008B4
:10522000995400080F4910B500208870C8700C31DF
:10523000C022886088810C480121A8230170094898
:10524000052420308271C3710172447242F2B82485
:1052500044810270437081700B21C17041F641712D
:10526000818010BD1C0700200100002000787047DD
:105270000170704710B5040A00F0F0014FF4A85017
:10528000FFF794F92146BDE810404FF4B850FFF7FE
:105290008DB9704770477047704710B54FF4A850EC
:1052A000FFF73EF900F0F0044FF4B850FFF738F97B
:1052B00004EB002080B210BD10B54FF4B050FFF7E2
:1052C0002FF904464FF4C050FFF72AF904EB0020F1
:1052D00080B210BD10B50446014606224FF410609E
:1052E000FFF73CF9042204F10E019001FFF736F9B3
:1052F000042204F10A014FF4A060FFF72FF9042201
:10530000A11D4FF47060FFF729F907480178A174D7
:105310004178E17481782175C07860750248401E3B
:105320000078A07510BD0000750400200020FFF774
:10533000F7B870B504464FF4D850FFF7F1F8207075
:105340004FF4D050FFF7ECF805464FF4C850FFF784
:10535000E7F805EB0020608070BD2DE9F0410D46B7
:105360000646002400F099F84FF0FF38AEB1002255
:10537000B05C521C204452B244B2082AF8DB102C14
:1053800017DC002441F60877315D07EB4410FFF786
:105390000DF9641C64B2082CF6DBCDB1002108467F
:1053A0002A5C401C114440B249B20828F8DB10299D
:1053B00002DD4046BDE8F081002441F60866295D23
:1053C00006EB4410FFF7F2F8641C64B2082CF6DB1D
:1053D0000020EFE710B5C1B2040A4FF4B050FFF758
:1053E000E5F82146BDE810404FF4C050FFF7DEB8A5
:1053F00010B50446014606224FF41060FFF7F6F898
:10540000042204F10E019001FFF7F0F8042204F1E8
:105410000A014FF4A060FFF7E9F80422A11D4FF440
:105420007060FFF7E3F80748A17C0170E17C4170F0
:10543000217D8170617DC1700249A07D491E087087
:1054400010BD00007504002010B5044630F03A008D
:1054500002D04FF0FF3010BD0020FFF761F840EAA6
:1054600004010020FFF7A2F8002010BD10B504468B
:1054700001784FF4D850FFF799F86088010A4FF48B
:10548000C850FFF793F8A178BDE810404FF4D05012
:10549000FFF78CB8002070477047F0B585B04FF427
:1054A0001064062269462046FFF758F80422950149
:1054B00002A92846FFF752F84FF4A066042203A978
:1054C0003046FFF74BF84FF47067042204A93846C2
:1054D000FFF744F880210020FFF768F80020FFF76D
:1054E0001FF8062269462046FFF780F8042202A929
:1054F0002846FFF77BF8042203A93046FFF776F829
:10550000042204A93846FFF771F805B0F0BD10B5C4
:1055100004464FF43850FFF703F8C0F380112170B0
:1055200000F0380001220021202811D038280FD0A7
:10553000617010280ED018280CD020280AD0A17035
:10554000082809D0182807D0202805D0E17010BD00
:105550006270EEE7A270F3E7E27010BD10B54FF491
:105560003850FEF7DDFFC00700D0012010BD10B598
:1055700000244FF43850FEF7D3FF10F0300F00D066
:105580000124204610BD10B54FF438542046FEF7D4
:10559000C7FF20F080012046FFF708F82046FEF7FD
:1055A000BFFF40F080012046BDE81040FEF7FEBF7F
:1055B00010B502780021012A00D140214278012A49
:1055C00006D0C2788078012A05D001280BD00CE0E3
:1055D00041F0380109E0012802D041F0080104E05F
:1055E00041F0180101E041F010014FF43850FEF78E
:1055F000DDFFBDE81040FFF7C6BF70B504464FF4AD
:1056000038563046FEF78CFF41064FF0FF351AD56D
:1056100020F03800012C10D040F038013046FEF761
:10562000C5FFFFF7B0FF3046FEF77AFF012C07D029
:1056300000F0380038B1002070BD40F03001EDE7D7
:1056400000F03000F6E7284670BD000010B591EA82
:10565000030F48BF83F0004300F1EA81841A71EB25
:10566000030C05D2121943EB0C03001B61EB0C0178
:10567000DFF824E14FEA1154A4EB135C1EEA430F58
:1056800018BF9EEA445F73D023EA0E03DCF1200EBC
:1056900021EA045143F4801332D322FA0CFE10EBBA
:1056A0000E0023FA0CFE41EB0E01CCF1200E03FAA2
:1056B0000EFE10EB0E0051F10001B1F5801FCCF190
:1056C000200E32D201EB045112FA0EF2BDE8104066
:1056D00058BF7047401C38BF5FEA420218BF70478E
:1056E000002814BF20F0010041F100014FEA4103FE
:1056F00013F5001F38BF7047A1F1C04100F08AB90F
:10570000012A43EB0302ACF1200CDCF11F0E32BF87
:105710004FF0000E23FA0CF310EB030041EB0451A1
:10572000B4EB115FD0D0A1EB045101F58011490811
:105730005FEA300001EB04510ED350F1000038BF96
:1057400012FA0EFE08D1BDE81040C9E7401C38BF70
:105750005FEA4202CAD1C3E7BDE810404FEA410305
:1057600013F5001F38BF7047A1F1C04100F052B9D6
:105770009EEA445F08D011EA5E0FBDE8104004BF06
:1057800001F0004100207047BDE8104070B500F006
:10579000F3F800BF64FBBE3E0000E0FF4FEA115388
:1057A000A3F58063D3F11E03A8BFD3F1200C08DB5F
:1057B0004FF0004242EAC12252EA505232FA03F05C
:1057C000704709420BD4102BC4BF0020704703F56B
:1057D000787CBCF1FF3F05D04FF0FF3070474FF0B1
:1057E0000000704770B500F0C7F800BF49922480F0
:1057F00000207047F0E710F0004248BF4042B0FA86
:1058000080F310FA03F10AD0C3F11D0303F580639E
:105810004FEA415002EB035202EBD12170474FF0A7
:1058200000007047DFF848C170B51CEA111E1EBFAA
:105830001CEA13159EEA0C0F95EA0C0F00F06F801E
:1058400081EA030423EA4C134EEAD47E21EA4C1188
:1058500041F4801143F48013AE44A1FB024CA0FB41
:105860000365AEF17F7E361955EB0C05A1FB034CA9
:105870004CF10003A0FB021C16EB0C06654153F132
:105880000003094218BF46F0010613F4007F0BD154
:105890004FEA03314FEA0530340341EA155140EA3B
:1058A00016506FF003020AE04FEAC3214FEAC52009
:1058B000F40241EA555140EA56506FF0020202EB01
:1058C0002E4201EB025585EACE710AD05FEA440C04
:1058D00018BF24F0004450F1000041F1000120EA1B
:1058E000D47040F2FE7C624500D270BDA84214BF65
:1058F0004FF080444FF04044002E08BF0024BEF11A
:10590000806FA8BFA1F1C041BDE8704080F28280E5
:105910004FF0000001F1C04101F0004170479EEAE4
:105920000C0F0CEA131518BF95EA0C0F06D04FF0B8
:10593000000081EA030E0EF0004170BD00F01CF87B
:105940008900013E00F007B800F009B84FEA430CA7
:105950005FEA5C5C08D081EA030100F05BB84FEAC3
:10596000410C5FEA5C5CF6D14FF0000001497047E2
:105970000000FF070000F87F0EF1020E2EF0030E6C
:105980005EF8046B364205D4012A43EB030515F596
:10599000001F12D8012841EB010C1CF5001F0CD888
:1059A0000ED14FEAD17C15F5001F0CEB4C0C0CF11D
:1059B000020C08BF4CEBD37C04E04FF0080C01E074
:1059C0004FEAD37C0CEB4C0526FA05F606F00706E9
:1059D000B6F1040C06D20EEB860CBDE870404CF01C
:1059E000010C6047DFE80CF0090B02024FF00041A8
:1059F0004FF00000A1F5002170BD194610460128A6
:105A000051EB010418BFD4F5001484BF002001F04D
:105A1000004170BD0808A0F500114FEA3101704740
:105A200010B591EA030F48BF83F000433FF516AE6F
:105A3000841A71EB030C07D212198CF0004C43EB63
:105A40000C03001B61EB0C01DFF8A4E14FEA1154D9
:105A5000A4EB135C1EEA430F18BF9EEA445F00F0FC
:105A6000B08023EA6E03524221EA0451C3EB6E0375
:105A700038BF5B1EDCF1200E25D322FA0CFE10EBA2
:105A80000E0043FA0CFE41EB0E01CCF1200E03FA9E
:105A90000EFE10EB0E0051F10001CCF1200E29D4C6
:105AA00012FA0EF201EB0451BDE8104058BF7047E6
:105AB000401C1CBFB2F1004F704700280CBF491CAE
:105AC00020F00100704712EB020E43EB030218BFF7
:105AD0004FF0010E4EEA4202ACF1200CDCF11E0E3A
