:020000040800F2
:1000000018590020B9020008155A00084753000883
:10001000115A00082D180008296B00080000000084
:10002000000000000000000000000000396200082D
:10003000FD1C000800000000ED5B0008FF620008E6
:10004000856C0008D3020008D3020008D302000820
:10005000D3020008D3020008391D0008D3020008AB
:10006000B91D0008ED1D0008D3020008D3020008E6
:10007000D3020008D3020008D3020008D30200080C
:10008000D3020008D3020008D3020008D3020008FC
:1000900031180008D3020008D3020008D302000878
:1000A000D3020008D3020008D3020008D3020008DC
:1000B000D3020008DD630008ED630008D3020008E6
:1000C000D3020008D3020008D3020008D3020008BC
:1000D000D3020008D3020008D3020008D3020008AC
:1000E000851D0008D3020008D3020008D3020008CF
:1000F000D3020008D3020008D3020008D30200088C
:10010000D3020008D3020008D3020008D30200087B
:10011000D3020008D3020008D3020008D30200086B
:10012000D3020008D3020008D3020008D30200085B
:10013000D3020008D3020008D3020008D30200084B
:1001400041180008D3020008D3020008D3020008B7
:10015000D3020008D3020008D3020008196B00087C
:10016000D3020008D3020008D3020008D30200081B
:10017000D3020008D3020008D302000800000000E8
:10018000D3020008D3020008D3020008D3020008FB
:10019000D3020008D3020008D3020008D3020008EB
:1001A000D3020008D3020008D302000800F002F8CE
:1001B00000F072F80AA090E8000C82448344AAF18F
:1001C0000107DA4501D100F067F8AFF2090EBAE88D
:1001D0000F0013F0010F18BFFB1A43F0010318477B
:1001E000ACE60000CCE600000A444FF0000C10F82A
:1001F000013B13F0070408BF10F8014B1D1108BFA5
:1002000010F8015B641E05D010F8016B641E01F844
:10021000016BF9D113F0080F1EBF10F8014BAD1C94
:100220000C1B09D16D1E58BF01F801CBFAD505E0B2
:1002300014F8016B01F8016B6D1EF9D59142D6D30C
:10024000704700000023002400250026103A28BF34
:1002500078C1FBD8520728BF30C148BF0B60704738
:1002600066290DF02D86642900F01A81782900F0A6
:100270005381732900F06085002070471FB50DF091
:100280001AFE00F073FD0400002000210DF0B6FA04
:10029000E0601FBD10B510BD00F080FE1146FFF7F5
:1002A000EDFF08F003FA00F09EFE03B4FFF7F2FF43
:1002B00003BC07F009F800000948804709480047D7
:1002C000FEE7FEE7FEE7FEE7FEE7FEE7FEE7FEE706
:1002D000FEE7FEE704480549054A064B7047000063
:1002E000C9630008AD010008185300201859002008
:1002F0001855002018550020704753EA020C00F0F2
:1003000069802DE9F04B4FF00006002B1FBFB3FAB8
:1003100083F503FA05F424FA05F65E4012BF16438E
:10032000B2FA82F502FA05F4C5F120051EBF22FAE1
:1003300005FC44EA0C04203556EA044C4FEA144408
:1003400018BF641C4FF000084FF00009904271EB99
:10035000030C39D3002919BFB1FA81F701FA07F666
:10036000B0FA80F700FA07F6C7F120071EBF20FA9F
:1003700007FC46EA0C062037B6FBF4FCA7EB0507A2
:10038000103F07F01F0BCBF120060CFA0BFB2CFAE9
:1003900006F644BFB3460026202FA4BF5E464FF0AA
:1003A000000B5BEA060C08BF4FF0010B19EB0B09C1
:1003B000ABFB027C48EB0608C01B06FB02CC0BFB28
:1003C00003CC71EB0C01C1E70B460246414648469F
:1003D000BDE8F08B13B54FF000004FF00001AFF314
:1003E0000080BDE81C4070470FB4044910B503AA53
:1003F000029800F0A5FC10BC5DF814FB6C00002016
:1004000070B5044685690068C10601D5302600E054
:100410002026C00707D070BDD4E90121304690479F
:10042000206A401C20626D1EF6D570BD70B5044672
:1004300085690078C00707D170BDD4E9012120206B
:100440009047206A401C20626D1EF6D570BD70B5C5
:100450000C460546012A05D02878800600D5EA69B1
:10046000002302E0012305E05B1C934202D2E05C22
:100470000028F9D1A869E618C01AA861286A1844AA
:1004800028622846FFF7BCFF04E0D5E9012114F8F3
:10049000010B9047B442F8D32846FFF7C7FF70BD61
:1004A0002DE9F0410646002410687529314616A54D
:1004B00010D0AFF30080002802DA404213A507E015
:1004C00031688A0701D512A502E0490704D511A5B4
:1004D000012401E0AFF3008000210A2206F1240785
:1004E00009E0B0FBF2FCB0FBF2F302FB1C00303081
:1004F00078541846491C0028F3D123462A46304632
:10050000BDE8F04100F09EB9000000002D000000A1
:100510002B0000002000000070B504460D46214667
:100520001068AFF300802188090502D50F4A7A448C
:1005300002E00E4A7A440E32002104F1240305E061
:1005400000F00F060009965D5E54491C0028F7D1A3
:1005500020780023000704D5702D02D009B10223B2
:1005600011322046BDE8704000F06CB958DD000043
:100570002DE9F05F894604464FF0000ADFF824B108
:10058000FB44C0F820A02046E168884700287DD0C1
:10059000252806D0D4E901219047206A401C20621A
:1005A000F1E700255F462046E16888472028064697
:1005B00007DB312E05D2B81910F8200C08B105431D
:1005C000F1E7A80701D525F00405C4F81CA0002711
:1005D000C4F818A02A2E09D0304606F04DFC38B3D6
:1005E00004EB8708303EC8F8186019E059F8041B7E
:1005F000204604EB87029161E1688847012F064697
:1006000018D1E069002820DA25F020051DE0D8F88F
:10061000180000EB800006EB40003038C8F81800E6
:100620002046E1688847064606F026FC0028EED101
:10063000012F0AD02E2E08D12046E16888477F1C62
:100640000646022F45F02005C4DBA069002803DA26
:10065000404245F00105A061E80701D025F01005F2
:10066000A6B1A6F14100192802D8203645F400654C
:100670004A463146204625604D46FFF7F1FD60B100
:10068000012807D0ED1D25F0070000E007E000F18C
:10069000080978E705F1040975E730467AE7206A2A
:1006A000BDE8F09F2EDD000040EA010310B59B0776
:1006B0000FD1042A0DD310C808C9121F9C42F8D0CC
:1006C00020BA19BA884201D9012010BD4FF0FF307D
:1006D00010BD1AB1D30703D0521C07E0002010BD93
:1006E00010F8013B11F8014B1B1B07D110F8013B1F
:1006F00011F8014B1B1B01D1921EF1D1184610BD00
:10070000032A40F2308010F0030C00F0158011F83D
:10071000013BBCF1020F624498BF11F801CB00F815
:10072000013B38BF11F8013BA2F1040298BF00F869
:1007300001CB38BF00F8013B11F0030300F0258026
:10074000083AC0F0088051F8043B083A51F804CB4D
:10075000A0E80810F5E7121D5CBF51F8043B40F813
:10076000043BAFF30080D20724BF11F8013B11F81E
:1007700001CB48BF11F8012B24BF00F8013B00F862
:1007800001CB48BF00F8012B704710B5203AC0F0EC
:100790000B80B1E81850203AA0E81850B1E8185082
:1007A000A0E81850BFF4F5AF5FEA027C24BFB1E8BF
:1007B0001850A0E8185044BF18C918C0BDE8104030
:1007C0005FEA827C24BF51F8043B40F8043B08BF39
:1007D0007047D20728BF31F8023B48BF11F8012B00
:1007E00028BF20F8023B48BF00F8012B70474FF0AC
:1007F000000200B5134694469646203922BFA0E871
:100800000C50A0E80C50B1F12001BFF4F7AF09077C
:1008100028BFA0E80C5048BF0CC05DF804EB89006D
:1008200028BF40F8042B08BF704748BF20F8022BB0
:1008300011F0804F18BF00F8012B704770477047C8
:10084000704770472DE9F0470D4699469246044699
:1008500000F124080168880604D5E06921F0100140
:10086000216000E00120A84201DD471B00E00027D5
:10087000A1697A1902EB0900081AA0612078C00664
:1008800002D42046FFF7BCFD002608E0D4E9012190
:100890001AF806009047206A401C761C20624E45DC
:1008A000F4DB2078C0060AD52046FFF7A9FD06E054
:1008B000D4E9012130209047206A401C2062381E74
:1008C000A7F10107F4DC07E0D4E9012118F80500DD
:1008D0009047206A401C2062281EA5F10105F3DC28
:1008E0002046FFF7A3FD2078000602D50220BDE8D0
:1008F000F0870120FBE770472DE9FF4F0C461E46AD
:100900004FF0FF378BB0D2E90001DDF860800A902C
:100910008A46C1F30A5505B93D46002108464FF005
:100920000000BAF1000F00F4400005DA00EB80008F
:100930004FF4400101EA50004FEA9059B9F1010F1C
:1009400000DDB9460A9850EA4A000ED044F610502D
:10095000A5F2FF3545432F14B8F1000F1ED07542A4
:10096000291E1EDDC9F100021CE0B8F1010F4FF095
:10097000000001D0302103E0F24305E02154401C87
:10098000B042FBDB30460022002121540B99C1F814
:100990000880C1E900200FB0BDE8F08FBD1B6D1CC1
:1009A000DEE74A4600DA694206A800F081FA06ABA3
:1009B00093E8070003AB83E8070050460A9900F06C
:1009C0005BFB8DE80700A0F500501F3800900398EE
:1009D000002D0ADD42F21F014A460844002303A904
:1009E0000390684600F0C4FD09E0A0F500504A46B7
:1009F0001F38002303A90390684600F0CEFD8DE860
:100A000007000004000C03D04FF0FF30410800E065
:100A10001046B8F1000F03D00022009215461EE0E8
:100A2000751E05D400F0A6F9303262556D1EF9D559
:100A3000B3460122084302D000227F1C04E0207844
:100A4000302801D100227F1E002A099784D01DE0A2
:100A5000112D07DA00F08EF9303262556D1C50EA24
:100A60000102F5D1084302D00098C8B10EE0002180
:100A7000681E05E0235C625C63542254401E491CDE
:100A80008142F7DBAB46A81B401E0990002004F80A
:100A90000B000B98099AC0F80880C0E9002B7AE790
:100AA00011264FF0000857E72DE9F04F884604461D
:100AB000D21D22F0070191B0D1E90001CDE90A0170
:100AC00006F001F902460B98C00F01D02D2007E077
:100AD0002068810701D52B2002E0202101EAC00017
:100AE000032A099001D0072A05DB03464146204628
:100AF00000F09EF90BE12078800601D5E06900E066
:100B00000620B8F1650F814606D0B8F1660F18D0FF
:100B1000B8F1670F70D131E00020B9F1110F0090EA
:100B200001DB112301E009F101030AAA01A90CA8C4
:100B3000FFF7E2FEDDE90C70002609F101058346AE
:100B400047E001204B4600904FF000470AAA01A958
:100B50000CA8FFF7D1FEDDE90DB00C995D4600262B
:100B600010B909F101000D18B9EB050003D4C0F16B
:100B7000FF3609F10105A5EB09002BE0B9F1010FE2
:100B800001DA4FF001090020B9F1110F0090484639
:100B900001DD112300E003460AAA01A90CA8FFF712
:100BA000ABFEDDE90C704D46002683462078000739
:100BB0000AD4AB4500DA5D4601A8012D04DD4119D8
:100BC00011F8011C302907D04F4502DA17F1040F44
:100BD00004DA012082460FE06D1EEEE7002F02DCF2
:100BE000ED1B3E4403E0781CA84200DD7D1CB81BD1
:100BF00000F1010A4FF000472078000703D4AA450E
:100C000001DB4FF0FF3A0021B7F1004F0DF143082F
:100C10008DF8431024D002202B23002F01DA7F42CD
:100C20002D230A21021EA0F1010000DC5FB197FB19
:100C3000F1FC97FBF1F201FB1C7C17460CF1300C28
:100C400008F801CDEEE7A8F101000370218809053D
:100C500001D5452100E06521A0F1010800F8011C43
:100C600009980FA9A1EB0807FF1D00B10120411948
:100C700001EBEA70A1693844081A401EA06120788F
:100C8000C00602D42046FFF7BBFB099828B1D4E97F
:100C900001219047206A401C20622078C00622D59E
:100CA0002046FFF7ADFB1EE0002E04DBB34502DD5E
:100CB00001A8805D00E03020D4E901219047206A3E
:100CC000401C2062761CAAF101005FEA000A0AD1EA
:100CD00000F04CF8C0680168405CD4E901219047FD
:100CE000206A401C2062281EA5F10105DCDC07E01B
:100CF000D4E9012118F8010B9047206A401C2062BA
:100D0000381EA7F10107F3DC2046FFF78FFB032015
:100D100011B041E610B5436913B1AFF3008001E0B3
:100D2000FFF795FB012010BD127800F124010A7035
:100D300000224A700122EDE711684FF0FF32E9E727
:100D4000074B70B50D467B4400F05FF8044628461B
:100D500000F020F910B14FF0FF3070BD204670BD9B
:100D60009773000000487047B85200200048704751
:100D7000D852002030B5B0F10A024FEA900E71F15E
:100D800000034EEA817EB0EB0E0061EB91014FEA69
:100D9000101E4EEA017E10EB0E0041EB11114FEADE
:100DA000102E4EEA016E10EB0E0041EB11214FEABE
:100DB000104E4EEA014E10EB0E0041EB114140186F
:100DC00041F100014FEAD00040EA41704FEAD10101
:100DD00010EB80054FEA810444EA907444EB01046F
:100DE0006D1944EB0404521BA3414FF0000348BFAC
:100DF0000A3200D530BD401C41F1000130BD000079
:100E000001694A1C02610878704700B58FB0CDE9CE
:100E100001310021059105497944CDE903101146BE
:100E20006846FFF7A5FB0FB000BD0000E5FFFFFF20
:100E30002DE9F0411F46044603260168072A01F404
:100E4000006004DB08B116A505E016A503E008B1B3
:100E500015A500E015A521F010002060A069C01EB6
:100E6000A0610FB1401EA0612046FFF7C9FA4FB143
:100E7000D4E9012138469047206A401C2062C01CFA
:100E8000206206E0206AFAE7D4E9012115F8010B97
:100E90009047761EF8D22046FFF7C8FABDE8F081E9
:100EA0004E414E006E616E00494E4600696E66000E
:100EB0002DE9F047814616468AB0354878440DC87A
:100EC0008DE80D0032487844801C03AC0DC884E8DE
:100ED0000D0041F69B300844372190FBF1F290FB66
:100EE000F1F5A5F1800501FB12041B3C02D564421B
:100EF000012000E00020DFF898A080460027FA4497
:100F0000AAF1BE0A0EE0E0070AD03246684607EBB7
:100F1000470101230AEB810100F03FFB8DE8070048
:100F200064107F1C002CEED1194F7F44AE3F19E0B6
:100F3000E80715D007EB04100DF1180A90E80E0031
:100F40008AE80E00C068F04201D198190890324634
:100F5000012306A903A800F020FB03AB83E80700E8
:100F60006D10641C002DE3D14FF001033246694639
:100F7000B8F1000F03A802D000F0FAFA01E000F087
:100F80000CFBC9E90001C9F808200AB0BDE8F087E8
:100F900080D40000007B00F0800070477546FFF7AA
:100FA000E1FEAE4605006946534620F0070085463F
:100FB00018B020B5FFF78EF9BDE820404FF00006CD
:100FC0004FF000074FF000084FF0000B21F0070131
:100FD000AC46ACE8C009ACE8C009ACE8C009ACE874
:100FE000C0098D46704710B50446AFF30080204617
:100FF000BDE81040FFF759B94FF0013C50F8042B01
:1010000051F8043B9A4221D1A2EB0C03934313EA1B
:10101000CC1317D150F8042B51F8043B9A4215D148
:10102000A2EB0C03934313EACC130BD150F8042B1F
:1010300051F8043B9A4209D1A2EB0C03934313EA03
:10104000CC13DBD04FF00000704700BFD01A01BABC
:10105000B1FA81F101F0180122FA01F0CB40C1F19F
:101060002001DBB2C0B2C01A2CFA01F3D11A9143AD
:1010700011EAC311E6D170475FEA400C08BF91F056
:10108000000F4FEA8C234FEAC12243EA51514FEA45
:101090001C5018BF00F5F0404FEA300018BF41F077
:1010A00000415FEA6C5C00F02980BCF1FF3F08BFA3
:1010B00040F080407047130C06BF12044FF0100C34
:1010C0004FF0000C130E04BF12020CF1080C130FAA
:1010D00004BF12010CF1040C930F04BF92000CF139
:1010E000020CD30F04BF52000CF1010C11464FF05B
:1010F0000002A0F11F00A0EB0C00704711F0004FA0
:1011000008BF704731F000413FF4D5AF0B0C06BF6C
:1011100009044FF0100C4FF0000C0B0E04BF090235
:101120000CF1080C0B0F04BF09010CF1040C8B0F20
:1011300004BF89000CF1020CCB0F04BF49000CF175
:10114000010CCCF12003A0EB0C0022FA03F302FA0D
:101150000CF241EA030100F10100704720F07F4CDE
:1011600080EA030023F07F47ACEB070303F57C53D1
:1011700000F0004003F1FF032DE980494FEA154BD1
:1011800009B44FEA144325EA0B4E24EA03480FF250
:10119000042606EB132749083E785FEA320203FB78
:1011A0000667C7F5000707FB06F64FEA54374FEA14
:1011B000D64606F1020607FB066CCCF1005C4FEA4E
:1011C0001C472CEA074C07FB06F40CFB06F504EB66
:1011D00015464FEA961634BF00204FF000404FEA04
:1011E000D13706FB07FC4FEA1C4C0CFB0BF7D21B5C
:1011F00003FB0CF761EB07010CFB0EF7B0EB0740AC
:1012000072EB17420CFB08F734BFA2EB0742B2EBBC
:10121000074261EB17414FEA0C444FEA910706FB86
:1012200007FC4FEA1C4C0CFB0BF7B0EBC74072EB12
:10123000573203FB0CF734BFA2EBC742B2EBC742F5
:1012400061EB57310CFB0EF7B0EBC70072EB577236
:101250000CFB08F734BFA2EBC702B2EBC70261EB8D
:101260005771039F4FEA816141EA921104EBCC046C
:101270004FEAD1374FEA826206FB07FC42EA90123E
:101280004FEA80604FEA1C4C0CFB0BF7D21B03FBB0
:101290000CF761EB07010CFB0EF7B0EB074072EBAC
:1012A00017420CFB08F734BFA2EB0742B2EB074230
:1012B00061EB17414FEA8C554FEA910704EB9C24F0
:1012C00006FB07FC4FEA1C4C0CFB0BF7B0EBC740CE
:1012D00072EB573203FB0CF734BFA2EBC742B2EB01
:1012E000C74261EB57310CFB0EF7B0EBC70072EB56
:1012F00057720CFB08F734BFA2EBC702B2EBC70270
:1013000061EB577115EB4C254FEA816141EA92116F
:101310004FEA82624FEAD13742EA901206FB07FC9D
:1013200044F100044FEA80604FEA1C4C0CFB0BF7C1
:10133000D21B03FB0CF761EB07010CFB0EF7B0EBC4
:10134000074072EB17420CFB08F734BFA2EB0742D1
:10135000B2EB074261EB174115EB1C154FEA8131E7
:1013600041EA92414FEA823242EA90424FEA8030AB
:101370004FEA0C7644F1000448EA03434EEA0B4876
:101380004FF0000EB2EB080C71EB030724BF62466E
:1013900039464EEB0E0E4FF0000B001852414941FA
:1013A0004BEB0B0BB2EB080C71EB03077BF1000B63
:1013B00024BF624639464EEB0E0E4FF0000B00186C
:1013C000524149414BEB0B0BB2EB080C71EB03079D
:1013D0007BF1000B24BF624639464EEB0E0E51EAFC
:1013E000020718BF46F0010616EB0E7655F1000213
:1013F00054F1000103D5BDE88901BDE80088BDE8CE
:101400008901BDE80048B619524141EB0101A3F141
:101410000103704780807F7E7D7C7B7A7978777648
:1014200076757473727171706F6E6E6D6C6C6B6AC1
:101430006A6968686766666564646363626161605F
:10144000605F5F5E5E5D5D5C5C5B5B5A5A595958DC
:101450005857575656555555545453535252525146
:10146000515050504F4F4F4E4E4D4D4D4C4C4C4B9C
:101470004B4B4A4A4A4949494848484747474746E3
:10148000464645454544444444434343434242421F
:1014900042414141002B9C4630D477002BD01CB5F3
:1014A0004FEA370703B44FF010004FF01001BAF1C4
:1014B000000F06D0BCF1000FDCBF40F0080040F088
:1014C00008014FF000000FBCBDE810400BF1010B0C
:1014D000BBF1010F08BF5FEA170722BF12F101023B
:1014E00011F101014FF0004143F1000300F0004011
:1014F00043EA00007047F9D35708D0E746EA0646AA
:1015000013F1400F4FEA16461FDD13F1200FDFBF26
:1015100016430A46002120335B42BED0C3F12007A8
:1015200046EA064602FA07F74FEA164646EA070673
:10153000C3F1200722FA03F201FA07F721FA03F1B7
:101540004FF0000342EA0702A7E746EA020646EA2E
:1015500006464FEA164646EA0106BCBF46EA06467C
:10156000360C4FF000034FF000024FF0000194E7FB
:101570002DE9804C9A46934670B491E8380007C82C
:1015800031EA400C48BF34EA430C03D5FFF7E6FDCF
:10159000FFF780FFF0BCBDE8008C2DE9804C9A4637
:1015A000934670B491E8380007C810F0804F08BF28
:1015B00013F0804F03D100F005F8FFF76BFFF0BC8C
:1015C000BDE8008C20F07F4780EA030023F07F4CC9
:1015D00007EB0C03A3F57C5300F00040A3F1FE03DE
:1015E00092F0000F00F0B38095F0000F00F07780CC
:1015F0002DE901494FEA11404FEA144621EA00481B
:1016000000FB06FC24EA064708FB06F607FB08F881
:1016100000FB07F718EB06484CEB164C4FEA124B51
:1016200018EB07484FEA15464CEB174022EA0B4EE1
:101630000BFB06FC25EA06470EFB06F607FB0EFE33
:101640000BFB07F71EEB064E4CEB164C4FF000065B
:101650001EEB074E4CEB174B18EB0B0840F100004C
:1016600018EB0E0B58EB000840F100008F1A4FF0FA
:1016700000013CBFC943661B14BFB5EB040C00213D
:101680003CBFC943F61B4FEA17444EEA8E0E27EAC9
:1016900004454FEA1C4704FB07622CEA074C05FB94
:1016A00007F70CFB05F604FB0CFC16EB074642EBB8
:1016B000174216EB0C4642EB1C421BEB060658EB9E
:1016C0000202414146EA9E0601D5BDE80189B619EC
:1016D000524141EB0101A3F10103BDE801894FEA49
:1016E00014454FEA114724EA054621EA074C05FB59
:1016F00007F406FB07F70CFB06F105FB0CFC11EBEE
:10170000074144EB17444FEA124711EB0C4144EBFD
:101710001C4422EA074C05FB07F206FB07F70CFB0B
:1017200006F605FB0CFC16EB074642EB174216EBE0
:101730000C4642EB1C456A1854F1000148BF704743
:10174000B619524141EB0101A3F10103704795F035
:10175000000F37D04FEA11424FEA144721EA024600
:1017600024EA074C02FB07F106FB07F70CFB06F423
:1017700002FB0CFC14EB074441EB17414FEA154701
:1017800014EB0C4441EB1C4125EA074C02FB07F526
:1017900006FB07F70CFB06F602FB0CFC16EB0746F4
:1017A00045EB174516EB0C4645EB1C42121951F15F
:1017B000000148BF7047B619524141EB0101A3F146
:1017C000010370474FEA14454FEA114724EA0546E2
:1017D00021EA074C05FB07F106FB07F70CFB06F2B5
:1017E0004FF0000605FB0CFC12EB074241EB1741E2
:1017F00012EB0C4251EB1C4148BF7047921841EB71
:101800000101A3F10103704710B504462078C828F0
:1018100009DD00200449887300F05FFC01200249C3
:1018200088730020207010BD443F002000BFFEE7F9
:1018300010B5024800F0A7FE10BD00008C36002055
:1018400010B5024800F09FFE10BD0000B436002025
:101850002DE9F04F87B081460D4600200690059097
:10186000039004900024824683468046029000261E
:10187000002701908C4890F800804FF6FF7000EA36
:1018800008288948407840EA0808082D7DD2DFE81A
:1018900005F07C041C7C256198DD8448407E8349EA
:1018A000897E88420DD18148407E032808D17E4838
:1018B000047924024079044320B200F0CBF903E01C
:1018C00002E07BA0FEF790FDE9E07748447924022E
:1018D0008079044320B200F0BDF9E0E072488078DE
:1018E00081498860084680680002886008468068F0
:1018F0006D49C97808437C498860084680680002C1
:101900008860084680686849097908437649886094
:1019100008468068886064480168039140680490C4
:101920009DF8040020F03E0008308DF804009DF87A
:10193000040020F001008DF80400BDF8040020F43C
:10194000F860ADF80400042203A94846019B00F0AA
:1019500024FDA4E054480168039140680490534872
:101960004068000C8DF8110050488088000A8DF8FE
:1019700012004E4800798DF813009DF8040020F005
:101980003E000A308DF8040000E087E09DF8040076
:1019900020F001008DF80400BDF8040020F4F86088
:1019A000ADF80400082203A94846019B00F0F5FCAD
:1019B0003E4843684C48426881684CA0FEF714FDDD
:1019C0006DE0394847793F0280790743BDF804103C
:1019D000C1F38410394605F0A7FC4F48007807286A
:1019E00033D14E4805F0DCFC064600204A49087019
:1019F0004B480078012828D100208DF80E008DF882
:101A00000F008DF81000300C8DF81100300A8DF8A1
:101A10001200F0B28DF813009DF8040020F03E0093
:101A20000C308DF804009DF8040020F001008DF8C2
:101A30000400BDF8040020F4F860ADF804000822AA
:101A400003A94846019B00F0A8FC28E0164800784E
:101A500001280DD1334804F0B1F80120134948762C
:101A60003148006845F2780108442F49086009E0D0
:101A70000D480078042802D10C49487602E0032082
:101A80000A494876284800680090174842688168EB
:101A9000264803682648FEF7A7FC00E000BF00BF09
:101AA00007B0BDE8F08F0000240000205C3F00205C
:101AB00043414E313A2053797374656D204F706500
:101AC000726174696F6E4D6F6465206E6F7420650E
:101AD00071207265616C204D6F746F72204D6F6460
:101AE0006521200D0A000000383F00205554433A7C
:101AF0002564206D73204341533A202564206D7383
:101B00002043414E3120437572506F7369206973D1
:101B1000202564200A0D00009C000020A000002069
:101B2000983F0020003F002074000020700000203B
:101B3000E4E3000870B504460D46D4F89C0050F864
:101B40002500C0F307464FF0FF30D4F8A01021F86D
:101B50001500012104F1B000815531462046D4F82A
:101B6000AC20904770BD2DE9FF4FDDE90D456CE0DD
:101B7000A5EB020A4FFA8AF3002B04DD91F800A0CE
:101B80000AFA03FA05E091F800A0C3F1000B4AFA43
:101B90000BFA0AF0FF0C002B02DDC5F1080A01E088
:101BA000C2F1080A0AF0FF08804501DD824600E024
:101BB000C246564605EB060B4FF0FF0A0AFA0BFA2F
:101BC000C5F1080E4FF0FF0B4BFA0EFB4AEA0B0A69
:101BD0000AF0FF072CEA070994F800A00AEA070AAE
:101BE00084F800A094F800A04AEA090A84F800A04A
:101BF00002EB060A0AF0FF0A5246BAF1070F0BDDA4
:101C00000022DDF80CA0BAF1000F02D04FF0FF3A2D
:101C100001E04FF0010A514405EB060A0AF0FF0A01
:101C20005546BAF1070F0BDD0025DDF83CA0BAF1EF
:101C3000000F02D04FF0FF3A01E04FF0010A544488
:101C4000A0EB060A0AF0FF0000BF002890DCBDE808
:101C5000FF8F000070B52DED068B04460026002591
:101C6000B4F57A7F26DC14F57A7F23DB20460BF06F
:101C7000B2FE41EC1A0B9FED110B53EC102B0BF045
:101C8000C1FE41EC190B9FED0F0B53EC102B0BF029
:101C9000CBFD41EC180B0BF06FFE0546AAB20021FC
:101CA000032000F0CFFF094842688168234608A05E
:101CB000FEF79AFB3046BDEC068B70BDF2D24D624A
:101CC00010D82540000000008006E040383F00208A
:101CD0005554433A202564206D73204341533A20E4
:101CE00025642C207570646174652053706565648B
:101CF000203A25642072706D0A0D000070470000C4
:101D00000146481C80B10A48B0F90000814205D163
:101D100007480088401E00B2054A1080002001EBF1
:101D20004102044B03F832004FF0FF3070470000CF
:101D3000C4000020F04F002010B50A2001F020F868
:101D40000C480068012811D10B48006808B901202F
:101D500000E00020084908600848D0F8800208B96F
:101D6000012000E000200449091D08600120044909
:101D7000086010BD00024042808240420080404224
:101D8000143C014010B50A2000F0FAFF0748006833
:101D900038B90748006808B9012000E0002004496C
:101DA00008604FF400500349086010BD34024142FE
:101DB00084824042143C014010B50A2000F0E0FF4C
:101DC0000748006838B90748006808B9012000E0F2
:101DD00000200449086004200349086010BD000089
:101DE0000882434280824042143C014010B50A20E0
:101DF00000F0C6FF0C48006888B90C48006808B9B4
:101E0000012000E00020094908600948D0F880025C
:101E100008B9012000E000200449091F08600820DB
:101E20000449086010BD00000C8243428482404295
:101E300000804042143C014072B600BFFEE70246FB
:101E40000868B0B9D1E901031843CB6818430B699E
:101E500018434B6918438B691843CB6918430B6AC5
:101E600018434B6A184313686FF30E03184310604E
:101E700019E0D1E9070318434B6A1843136823F4A8
:101E8000F84318431060D1E901031843CB681843A5
:101E90000B6918434B6918438B69184353686FF3F8
:101EA0000E0318435060002070470246506943F605
:101EB000FE73984340EA41005061002070472DE9CD
:101EC000F04105460C4616460027D4E900010843B8
:101ED000A168491E40EA4110E16840EA41202969B1
:101EE0006FF315010843286101F0FEF807460AE088
:101EF000701C40B126B101F0F7F8C01BB04202D906
:101F00000320BDE8F081A86900F020002028EFD070
:101F10000020F6E730B50346FAB90868401E4C6861
:101F2000641E40EA04148868401E44EA0024C8681D
:101F3000401E44EA0034088A401E44EA0044888A6D
:101F4000401E44EA0054087E401E44EA00609C683B
:101F500004F070442043986022E0C868401E0403E7
:101F6000888A401E44EA00509C680E4D2C40204355
:101F700098600868401E4C68641E40EA0414886833
:101F8000401E44EA0024088A401E44EA0044087EB9
:101F9000401E44EA0060DC6804F070442043D860CE
:101FA000002030BDFF0F0FFF70B504460E46D4F879
:101FB0003801008860B3002527E004F1B000405DDF
:101FC0000F2820D020680078A8421CD004F5A0700B
:101FD000405D00280BDCD4F8340120B129462046AE
:101FE000D4F834219047012104F1B000415504F5A3
:101FF000A070405D401EC1B204F5A0704155294655
:10200000204606F059FB681CC5B2802DD5DB05E0E3
:10201000B4F93001FFF774FEA4F8300170BDF8B5D3
:102020000020009000240025002601208DF80000EB
:1020300001226946ED2006F0FFFB09208DF8000023
:1020400001226946F52006F0F7FB61208DF80000BB
:1020500001226946C02006F0EFFB00208DF8000049
:1020600001226946C12006F0E7FB04208DF800003C
:1020700001226946E62006F0DFFB63208DF80000B0
:1020800001226946E82006F0D7FB80208DF8000089
:1020900001226946F42006F0CFFB642000F084FEA4
:1020A00010208DF8000001226946F42006F0C4FBE0
:1020B000642000F079FE00208DF8000001226946BE
:1020C000F12006F0B9FBF8BD08B50120009001220F
:1020D0006946F42006F0B0FB08BD08B5002000906A
:1020E0008020009001226946F42006F0A5FB012023
:1020F000009001226946F42006F09EFB08BD10B551
:10210000024692F82030012B01D0022B06D1106834
:102110004069084314686061002010BD506A40F4B3
:10212000802050620120F8E7F0B504460D461E46B7
:1021300094F8207020688368A86800B900E000BFA8
:10214000012F01D0022F7DD103F0806030B903F060
:10215000006018B903F0805000287ED0C3F30161FD
:10216000012088403060A86860B9B5F800C0E86810
:1021700040EA4C5C206800F5C07000EB0110C0F82C
:1021800000C00FE0D5E901C040EACC00D5F80CC092
:1021900040EA0C00D4F800C00CF5C07C0CEB011C2C
:1021A000CCF80000D5F810C0206800F5C07000EB36
:1021B0000110C0F804C0287D01280ED1206800F568
:1021C000C07000EB0110406840F4807C206800F58E
:1021D000C07000EB0110C0F804C0D079000692F87E
:1021E00006C040EA0C4092F805C040EA0C2092F884
:1021F00004C040EA0C00D4F800C00CF5C07C0CEB25
:10220000011CCCF80C00D078000692F802C040EA1D
:102210000C4092F801C040EA0C2092F800C040EA5D
:102220000C00D4F800C00CF5C07C0CEB011CCCF801
:102230000800206800F5C07000EB0110006840F055
:10224000010C01E00FE008E0206800F5C07000EB31
:102250000110C0F800C00020F0BD606A40F400101A
:1022600060620120F8E7606A40F48020606201202B
:10227000F2E70000F0B504460A46216894F82050C1
:10228000012D01D0022D7ED1424901F5007108686F
:1022900040F001000860086820F47C50086008687D
:1022A000566A40EA06200860107D00F01F060120F3
:1022B00000FA06F3C8699843C861A1F50071D069B6
:1022C000C8B9D1F80C029843C1F80C02908880B2CA
:1022D000968940EA064601F51070576940F8376064
:1022E000108880B2168940EA064601F510705769D9
:1022F00000EBC7004660D069012819D1D1F80C0263
:102300001843C1F80C02908880B2168840EA06464D
:1023100001F51070576940F83760908980B21689CE
:1023200040EA064601F51070576900EBC7004660A9
:10233000906928B9D1F804029843C1F8040204E076
:10234000D1F804021843C1F80402106928B9D1F881
:1023500014029843C1F8140204E0D1F8140218439F
:10236000C1F81402106A012804D1D1F81C021843E4
:10237000C1F81C02D1F8000220F00100C1F80002EF
:102380000020F0BDFFE7606A40F480206062012019
:10239000F7E700000064004070472DE9F04188B085
:1023A00080460D4614461E46002007900027042054
:1023B000039000200490019002968DF8180014E01C
:1023C000082C01D9082000E020460590EA1907AB47
:1023D00001A94046FFF7A8FE18B1012008B0BDE8EA
:1023E000F081059807440598241A002CE8D10020B4
:1023F000F4E770B5044694F82050012D01D0022D69
:102400007DD151B92068C06800F0030080B9606ACE
:1024100040F400106062012070BD2068006900F087
:10242000030028B9606A40F4001060620120F3E7FD
:10243000206800F5D87000EB0110006800F004007F
:102440009060906840B9206800F5D87000EB0110EA
:102450000068400D106007E0206800F5D87000EBC0
:1024600001100068C0085060206800F5D87000EBCB
:102470000110006800F00200D060206800F5D870FC
:1024800000EB0110406800F00F00082802D308207C
:10249000106108E0206800F5D87000EB011040687A
:1024A00000F00F001061206800F5D87000EB0110FB
:1024B000406800F47F40000A9061206800F5D87001
:1024C00000EB01104068000C5061206800F5D870E6
:1024D00000EB011080681870206800F5D87000EBE0
:1024E0000110806800F47F40000A5870206800F5F1
:1024F000D87000EB0110806800F47F0000E03CE041
:10250000000C9870206800F5D87000EB011080680E
:10251000000ED870206800F5D87000EB0110C0687C
:102520001871206800F5D87000EB0110C06800F445
:102530007F40000A5871206800F5D87000EB011048
:10254000C06800F47F00000C9871206800F5D87016
:1025500000EB0110C068000ED87131B92068C06866
:1025600040F020002668F06005E02068006940F037
:1025700020002668306100204EE7606A40F4802029
:102580006062012048E72DE9F05F044600252068DD
:1025900046692068D0F80490206887682068D0F8E1
:1025A0000CA02068D0F810B02068D0F8188006F091
:1025B0000100002855D007F00100C0B101202168BA
:1025C000886007F0020018B1204600F034FB0EE0EE
:1025D00007F0040010B145F4006508E007F00800BA
:1025E00010B145F4805502E0204600F023FB07F4CB
:1025F0008070C8B14FF480702168886007F4007063
:1026000018B1204600F019FB0EE007F4806010B10D
:1026100045F4005508E007F4006010B145F480452A
:1026200002E0204600F008FB07F48030C8B14FF408
:1026300080302168886007F4003018B1204600F02F
:10264000FEFA0EE007F4802010B145F4004508E0E2
:1026500007F4002010B145F4803502E0204600F078
:10266000EDFA06F0080038B10AF0100020B145F488
:10267000007510202168C86006F0040040B10AF01F
:10268000080028B108202168C860204600F0FEF943
:1026900006F0020038B12068C06800F0030010B1F5
:1026A000204600F0F5F906F0400038B10BF01000BC
:1026B00020B145F4806510202168086106F02000F3
:1026C00040B10BF0080028B10820216808612046BD
:1026D00000F07EFA06F0100038B12068006900F0C2
:1026E000030010B1204600F074FA06F4003040B147
:1026F00009F0100028B1102021684860204600F041
:1027000069FA06F4803040B109F0080028B10820C9
:1027100021684860204600F093FA06F4004088B330
:1027200009F0040078B306F4807020B108F00100CD
:1027300008B145F0010506F4007020B108F0020070
:1027400008B145F0020506F4806020B108F00400ED
:1027500008B145F0040506F40060A0B108F070006F
:1027600088B108F07000402817D006DC10280BD084
:1027700020280CD0302819D10CE0502810D0602827
:1027800014D110E01DE019E045F008050FE045F018
:1027900010050CE045F0200509E045F0400506E095
:1027A00045F0800503E045F4807500E000BF00BF00
:1027B0002068806920F07000216888610420216809
:1027C00048602DB1606A284360622046FFF7E4FD4F
:1027D000BDE8F09F70B504460CB9012070BD94F8B7
:1027E000200010B9204600F0AFF82068006840F0E3
:1027F00001002168086000F077FC05460DE000F05C
:1028000073FC401B0A2808D9606A40F400306062FB
:10281000052084F820000120E0E72068406800F0EF
:1028200001000028EBD02068006820F00200216839
:10283000086000F059FC05460DE000F055FC401B17
:102840000A2808D9606A40F400306062052084F8E4
:1028500020000120C2E72068406800F00200002844
:10286000EBD1207E012806D12068006840F080006E
:102870002168086005E02068006820F08000216879
:102880000860607E012806D12068006840F04000A2
:102890002168086005E02068006820F04000216899
:1028A0000860A07E012806D12068006840F0200062
:1028B0002168086005E02068006820F02000216899
:1028C0000860E07E012806D12068006820F0100032
:1028D0002168086005E02068006840F01000216869
:1028E0000860207F012806D12068006840F00800B9
:1028F0002168086005E02068006820F00800216871
:102900000860607F012806D12068006840F004005C
:102910002168086005E02068006820F00400216854
:102920000860D4E90201084321690843616908434A
:102930006168491E08432168C86100206062012067
:1029400084F82000002049E710B586B00446142121
:1029500001A8FDF74CFF4749206888423AD1464814
:102960000068401C444908600846006801280FD1EF
:1029700000BF002000904148006840F000703F49CF
:1029800008600846006800F00070009000BF00BFBB
:1029900000BF0020009039481038006840F0010066
:1029A0003649103908600846006800F001000090C0
:1029B00000BF00BF4FF4C0500190022002900020E1
:1029C0000390032004900920059001A92C4800F0F1
:1029D0007DFA4CE02B492068884248D100BF002096
:1029E00000902648006840F080602449086008464E
:1029F000006800F08060009000BF00BF1E480068C3
:102A0000401C1D4908600846006801280FD100BF1E
:102A1000002000901948006840F0007017490860D5
:102A20000846006800F00070009000BF00BF00BFC3
:102A30000020009011481038006840F002000F4953
:102A4000103908600846006800F00200009000BFDE
:102A500000BF60200190022002900020039003201C
:102A600004900920059001A9074800F02FFA06B04C
:102A700010BD00000064004000000020403802400B
:102A8000000002400068004000040240704700005F
:102A900030B58DB0054600200190029000243248E8
:102AA000854230D101AB06AA00212846FFF7A1FCE0
:102AB0002E490798086008460088C0F384102C4906
:102AC000097888421BD12948007800F00100B0B194
:102AD00000BF05E001A8005D26490855601CC4B28E
:102AE000082CF7DB21480078C0F3440222484168F3
:102AF00022A0FDF779FC01202A49C87031E00020AE
:102B00002849C8702DE02848854225D101AB06AA86
:102B100000212846FFF76DFC069880B2ADF80C0046
:102B2000099818B900208DF80E0002E001208DF8F8
:102B30000E000A98C0B28DF80F0001A904A80A9AE5
:102B4000FDF723FE03A9194804F0FEFD18480068AC
:102B5000401C1749086004E00748416815A0FDF7CC
:102B600043FC0DB030BD00008C3600201C0000205E
:102B7000983F002024000020383F00202564206D6D
:102B800073204341533A2072656376204E65772067
:102B90004672616D652054797065206973202564E3
:102BA0000A0D0000443F0020B436002050340020BD
:102BB000B400002025642072656376206572726F10
:102BC000722063616E206672616D65200A0D0000DF
:102BD00070477047704770B5044694F8200001288C
:102BE00022D1022084F820002068006820F0010033
:102BF0002168086000F078FA05460DE000F074FAEC
:102C0000401B0A2808D9606A40F400306062052041
:102C100084F82000012070BD2068406800F00100A9
:102C20000028EBD16062F6E7606A40F40020606241
:102C30000120F0E770477047704770477047704752
:102C4000704700002DE9F84306460F461446002061
:102C500000900025804647EAC600C0B28DF800000B
:102C6000200A8DF80100E0B28DF802000022102148
:102C70000C4800F033FA00BF09E00DEB05013223E8
:102C80000122094801F09BFA8046681CC5B2032D59
:102C9000F3DB01221021034800F020FA4046BDE892
:102CA000F8830000000002403037002070B5044671
:102CB000A56D00F019FA064694F83500022808D0F0
:102CC0008020606500BF002084F8340000BF012030
:102CD00070BD2068006820F0160021680860206838
:102CE000406920F0800021684861206C08B9A06C20
:102CF00028B12068006820F008002168086020687A
:102D0000006820F001002168086010E000F0ECF994
:102D1000801B05280BD920206065032084F835002E
:102D200000BF002084F8340000BF0320D0E72068F3
:102D3000006800F001000028E8D194F85C103F2002
:102D40008840A860012084F8350000BF002084F886
:102D5000340000BF00BFBBE7014691F835000228F0
:102D600003D08020486501207047052081F8350098
:102D70000868006820F001000A6810600020F3E78E
:102D800070B5044600F0B0F906462546681C10B13F
:102D900004480078054400BF00F0A6F9801BA84253
:102DA000FAD370BD1400002070B5044600F084FB17
:102DB0000949B0FBF1F5284601F0FFFB601EFFF763
:102DC000DFFF00F079FB4FF47A71B0FBF1F5284694
:102DD00001F0F3FB70BD000040420F0000B587B06A
:102DE000142102A8FDF703FD3148006808B107B0BF
:102DF00000BD01202E49086000BF002001902D4831
:102E0000006840F001002B4908600846006800F0A7
:102E10000100019000BF00BF4FF63F00029002206A
:102E2000039000200490032005900C20069002A936
:102E3000214800F04BF80D20029002200390012061
:102E40000490032005900C20069002A91B4800F076
:102E50003DF848F2371002900220039000200490C1
:102E6000032005900C20069002A9154800F02EF8CA
:102E70004FF68370029002200390002004900320FC
:102E800005900C20069002A90E4800F01FF84CF2A5
:102E9000037002900220039000200490032005900C
:102EA0000C20069002A9084800F010F800BF9EE729
:102EB000040000203838024000140240000802409C
:102EC0000018024000100240000C0240F8B5024613
:102ED0000B460025002400200021E0E0012606FA30
:102EE00001F51E6806EA0504AC4274D11E7906F0AD
:102EF0000306012E04D01E7906F00306022E13D11C
:102F000090684F000326BE40B0434F00DE68BE40CD
:102F100030439060506801268E40B0431E79C6F35E
:102F200000168E40304350601E7906F00306032ED3
:102F300009D0D0684F000326BE40B0434F009E68C2
:102F4000BE403043D0601E7906F00306022E13D136
:102F5000CF0802F1200656F827004E07F70E0F267D
:102F6000BE40B0434F07FF0E1E69BE403043CF083E
:102F700002F1200646F8270010684F000326BE40E5
:102F8000B0431E7906F003064F00BE403043106088
:102F90005E6806F44036002E1DD000BF0026009665
:102FA000414E366846F480463F4F3E603E463668A6
:102FB00006F48046009600BF00BF3C4E8F0856F8CE
:102FC00027008E07370F0F26BE40B043384EB2425F
:102FD00002D100262EE061E0364EB24201D1012638
:102FE00028E0354EB24201D1022623E0334EB242F0
:102FF00001D103261EE0324EB24201D1042619E06F
:10300000304EB24201D1052614E02F4EB24201D11A
:1030100006260FE02D4EB24201D107260AE02C4EC3
:10302000B24201D1082605E02A4EB24201D109265A
:1030300000E00A268F073F0FBE4030431B4E8F082B
:1030400046F82700244E3068A0435E6806F48016D8
:1030500006B12043204E3060361D3068A0435E68C4
:1030600006F4001606B120431B4E361D30601A4E82
:10307000361F3068A0435E6806F4003606B1204370
:10308000154E361F3060361F3068A0435E6806F468
:10309000803606B12043104E083E3060491C10298E
:1030A000FFF41CAFF8BD000044380240083801406E
:1030B000000002400004024000080240000C0240F0
:1030C000001002400014024000180240001C0240A0
:1030D0000020024000240240083C01400AB1816106
:1030E00001E00B04836170470148006870470000ED
:1030F0000C0000200348006803490978084401498E
:10310000086070470C0000201400002010B50D4826
:10311000006840F400700B4908600846006840F4FD
:10312000806008600846006840F4807008600320F2
:1031300000F0A6F80F2000F007F800F02BF80020B0
:1031400010BD0000003C024070B504460E480078F7
:103150004FF47A71B1FBF0F00C490968B1FBF0F55E
:10316000284601F02AFA08B1012070BD102C07D2C0
:1031700000222146501E00F045F80548046001E099
:103180000120F2E70020F0E71400002018000020E2
:103190001000002008B500BF002000900E48006815
:1031A00040F480400C4908600846006800F4804004
:1031B000009000BF00BF00BF00200090081F006803
:1031C00040F08050091F08600846006800F08050F9
:1031D000009000BF00BF08BD4438024001460846C9
:1031E00000280DDB00BF00BF00F01F0301229A4042
:1031F00043099B0003F1E023C3F8002100BF00BF97
:1032000000BF70472DE9F05F80460D461646002747
:1032100003F072FD074639462A46334601F007009F
:10322000C0F1070ABAF1040F02D94FF0040A01E015
:10323000C0F1070AD14600F1040ABAF1070F02D221
:103240004FF0000A01E0A0F1030AD4464FF0010A52
:103250000AFA09FAAAF1010A0AEA020A0AFA0CFAB7
:103260004FF0010B0BFA0CFBABF1010B0BEA030B5C
:103270004AEA0B042146404603F046FDBDE8F09FB4
:1032800000BF00F00702064B19684FF6FF03194014
:10329000044B0B4343EA0221014B196000BF704706
:1032A0000CED00E00000FA0538B5002400BF002056
:1032B00000901D48006840F080501B490860084697
:1032C000006800F08050009000BF00BF0120174947
:1032D0000864FFF709FF044607E0FFF705FF001B3E
:1032E000B0F57A7F01D9032038BD1148406800F459
:1032F0008030B0F5803FF0D101200C494864FFF7E1
:10330000F3FE044607E0FFF7EFFE001BB0F57A7FFF
:1033100001D90320E8E70648406800F40030B0F522
:10332000003FF0D10020DFE74038024000000E42AD
:103330000070004070B504460D460CB9012070BD08
:103340005848006800F00F00A84209D255490D7096
:103350000846006800F00F00A84201D00120EEE707
:10336000207800F0020002281DD1207800F004002F
:10337000042805D14C48006840F4E0504A490860F0
:10338000207800F00800082805D14748006840F47C
:103390006040454908604448006820F0F000A1689A
:1033A000084341490860207800F00100A8B3606834
:1033B000012807D13C4808380068C0F34040B8B93C
:1033C0000120BCE76068022802D06068032807D1AA
:1033D000354808380068C0F3406048B90120AEE7BE
:1033E000314808380068C0F3400008B90120A6E75A
:1033F0002D48006820F00300616808432A490860EE
:10340000FFF772FE064609E0FFF76EFE801B41F2F1
:103410008831884202D9032091E707E022480068FA
:1034200000F00C006168B0EB810FEDD11D48006821
:1034300000F00F00A84209D91A490D70084600682B
:1034400000F00F00A84201D0012078E7207800F0BA
:103450000400042807D11448006820F4E050E16813
:10346000084311490860207800F00800082808D1B6
:103470000D48006820F46040216940EAC1000A4913
:10348000086000F03FF808490968C1F30311074AD2
:10349000515CC8400649086006480068FFF754FEC2
:1034A00000204CE7003C024008380240C4DE00081F
:1034B000180000201000002001480068704700003C
:1034C0001800002000B5FFF7F7FF04490968C1F3B1
:1034D0008221034A515CC84000BD00000838024008
:1034E000D4DE000800B5FFF7E7FF04490968C1F31F
:1034F0004231034A515CC84000BD00000838024018
:10350000D4DE00082DE9F047002400250026A1465E
:103510002548006800F00C0020B1042805D00828D8
:103520003AD105E0DFF8849039E0DFF8849036E0A6
:103530001D48001F006800F03F041B48001F006882
:1035400000F4800078B11A481749091F0968C1F3CF
:103550008811A0FB01700146224600233846FCF783
:10356000CCFE05460EE011480F49091F0968C1F35A
:103570008811A0FB01700146224600233846FCF763
:10358000BCFE05460848001F0068C0F30140401C0F
:103590004600B5FBF6F902E0DFF8109000BF00BF6F
:1035A0004846BDE8F0870000083802400024F400D7
:1035B00040787D01F8B504460CB90120F8BD2078AB
:1035C00000F00100002874D0F948006800F00C00F9
:1035D00004280DD0F648006800F00C00082813D12C
:1035E000F348001F006800F48000B0F5800F0BD195
:1035F000EF4808380068C0F34040002859D06068A0
:10360000002856D10120D9E700BF6068B0F5803F9F
:1036100008D1E7480838006840F48030E4490839A8
:1036200008601EE06068B0F5A02F0DD1E0480838B2
:10363000006840F48020DE490839086008460068C8
:1036400040F4803008600CE0D9480838006820F465
:103650008030D749083908600846006820F4802087
:10366000086000BF606890B1FFF73EFD054606E0C8
:10367000FFF73AFD401B642801D903209EE7CC48A0
:1036800008380068C0F340400028F1D011E0FFF78F
:103690002BFD054606E0FFF727FD401B642801D9F6
:1036A00003208BE7C24808380068C0F34040002878
:1036B000F1D1207800F0020002285FD1BC480068F8
:1036C00000F00C0058B1BA48006800F00C0008285F
:1036D0001CD1B748001F006800F48000B0B9B4489E
:1036E00008380068C0F3400020B1E068012801D02C
:1036F000012063E7AE480838006820F0F80021692F
:1037000040EAC100AA490839086037E0E06800B320
:103710000120A8490860FFF7E7FC054606E0FFF72F
:10372000E3FC401B022801D9032047E7A0480838E2
:103730000068C0F340000028F1D09D4808380068B8
:1037400020F0F800216940EAC10099490839086071
:1037500014E0002097490860FFF7C6FC054606E024
:10376000FFF7C2FC401B022801D9032026E790483E
:1037700008380068C0F340000028F1D1207800F03C
:10378000080008282CD16069A8B101208A49086086
:10379000FFF7AAFC054606E0FFF7A6FC401B02283F
:1037A00001D903200AE782486C300068C0F340006A
:1037B0000028F1D014E000207F490860FFF794FC56
:1037C000054606E0FFF790FC401B022801D90320C4
:1037D000F4E677486C300068C0F340000028F1D16F
:1037E000207800F00400042870D100277048383099
:1037F000006800F0805090B900BF002000906C4835
:103800003830006840F08050694938310860084617
:10381000006800F08050009000BF00BF012767489B
:10382000006800F48070B0B96448006840F48070AB
:1038300062490860FFF758FC054606E0FFF754FCB4
:10384000401B022801D90320B8E65C48006800F458
:1038500080700028F2D000BFA068012808D1544829
:103860006830006840F001005149683108601DE08F
:10387000A06805280DD14E486830006840F004006B
:103880004B49683108600846006840F00100086054
:103890000CE047486830006820F001004449683176
:1038A00008600846006820F00400086000BFA068B7
:1038B000A8B1FFF719FC054609E0FFF715FC401B0E
:1038C00041F28831884202D9032077E626E0384861
:1038D00068300068C0F340000028EED013E0FFF726
:1038E00003FC054608E0FFF7FFFB401B41F288316F
:1038F000884201D9032061E62D4868300068C0F392
:1039000040000028EFD1012F07D129483830006846
:1039100020F0805026493831086000BFA069002897
:1039200045D02348006800F00C0008285DD0A0694D
:10393000022845D100201F490866FFF7D5FB054640
:1039400006E0FFF7D1FB401B022801D9032035E632
:10395000174808380068C0F340600028F1D1D4E966
:1039600007010843616A40EA81110122A06AC2EBA3
:10397000500041EA00412C20005D41EA00600C4902
:10398000091F086001200B490866FFF7ADFB0546DB
:1039900006E0FFF7A9FB401B022801D903200DE632
:1039A000034808380068C0F340600028F1D049E0BF
:1039B0000838024000004742800E47420070004035
:1039C000002021490866FFF78FFB054606E0FFF758
:1039D0008BFB401B022801D90320EFE51B48006840
:1039E000C0F340600028F2D12CE0A069012800D18A
:1039F000E4E51648001D0668A069012820D006F4F9
:103A00008001E06981421BD106F03F01206A8142BA
:103A100016D147F6C0703040616AB0EB811F0FD1FC
:103A200006F440310122A06AC2EB5000B1EB004F16
:103A300006D106F070612C20005DB1EB006F01D063
:103A40000120BBE50020B9E50000474200380240F4
:103A500070B504460D460CB9012070BD94F82C00D9
:103A600028B9002084F82D00204600F011F802202B
:103A700084F82C00211D2068FEF7E1F92946D4E9DD
:103A80000002FEF747FA012084F82C000020E4E74A
:103A900010B50446FFF7A2F910BD70B504460D46F7
:103AA00094F82C00022800D170BD94F82C00012855
:103AB0000AD1022084F82C0029462068FEF7F5F987
:103AC000012084F82C0001E00120EDE70020EBE765
:103AD0002DE9F04104460E46174694F82C50022D6D
:103AE00002D10220BDE8F081012D01D0052D12D1B7
:103AF000022084F82C003A4631462068FEF7DFF9B0
:103B00003068022803D1052084F82C0005E001204C
:103B100084F82C0001E00120E4E70020E2E7000047
:103B20002DE9B04185B007460024002004900390A1
:103B3000804600250090012104A804F015FE9DF8A0
:103B4000100000F0010000B95CE09DF8100000F0EA
:103B5000700070280BD09DF81000C0F30012C0F365
:103B600080112A48FCF740FCFEF7B7FA4AE0012230
:103B700003A9F12004F0CAFD00200090012269464B
:103B8000F12004F059FE9DF80C0000F0020002281C
:103B900003D01FA0FCF728FC34E09DF8100000F0D3
:103BA0007000702826D19DF80C0000F0020038B992
:103BB0009DF80C102348FCF717FCFEF78EFA20E066
:103BC000002407E001A801190122204604F09EFD0F
:103BD000601CC4B2052CF5DB032407E001A8005DDE
:103BE0004519012C00DD2D02601EC4B2002CF5DC4D
:103BF0003D6006E09DF8101013A0FCF7F5FBFEF702
:103C00006CFA00BF404605B0BDE8B08158E300083B
:103C1000424953532D433A20537465702033205347
:103C200056414C494431206E6F74207365742031C5
:103C30002120726553746172742041475321200A18
:103C40000D000000A0E30008424953532D433A20E1
:103C5000537465702037204552524F52204F636392
:103C6000757221204E6F7720537461747573496E9D
:103C7000666F726D6174696F6E46302069732030B3
:103C8000782578200A0D000038B5FF2000903224F6
:103C9000234601226946034800F0D2F99DF800004E
:103CA00038BD00003838002031B5002432252B46BD
:103CB00001226946044800F082FA044614B103A0C8
:103CC000FCF792FB38BD00003838002020535049E3
:103CD000342053656E64204661696C656421200A56
:103CE0000D00000010B504460CB9012010BD606A3B
:103CF00038B96068B0F5827F00D105E00021E1614C
:103D000002E00021216161610021A16294F851006B
:103D100028B9002084F85000204600F047F802201F
:103D200084F851002068006820F040002168086095
:103D3000A08800F48270218901F404410843A1891C
:103D400001F400610843217C01F002010843217D58
:103D500001F001010843218B01F400710843217F28
:103D600001F0380108432021095D01F0800108437A
:103D7000218D01F400510843216808600421A069E5
:103D800001EA104094F8241001F010010843216862
:103D900048602068C06920F400602168C861002084
:103DA0006065012084F8510000209FE710B586B0BF
:103DB0000446142101A8FCF71AFD964920688842A0
:103DC00030D100BF002000909348006840F480503C
:103DD000914908600846006800F48050009000BFD8
:103DE00000BF00BF002000908B481438006840F0EE
:103DF00001008949143908600846006800F0010094
:103E0000009000BF00BFE02001900220029000203F
:103E10000390032004900520059001A97F48FFF737
:103E200055F8F5E07E492068884233D100BF002074
:103E300000907948001F006840F480407649091FCF
:103E400008600846006800F48040009000BF00BF92
:103E500000BF0020009070481438006840F0020055
:103E60006D49143908600846006800F002000090AF
:103E700000BF00BF4FF4604001900220029000207C
:103E80000390032004900520059001A96548FFF7E1
:103E90001DF8BDE06449206888424FD100BF002072
:103EA00000905D48001F006840F400405A49091F17
:103EB00008600846006800F40040009000BF00BFA2
:103EC00000BF0020009054481438006840F00400FF
:103ED0005149143908600846006800F00400009059
:103EE00000BF00BF00BF002000900846006840F0FF
:103EF000020008600846006800F00200009000BF61
:103F000000BF88140190022002900020039003203B
:103F100004900620059001A94448FEF7D7FF182019
:103F200001900220029000200390032004900620BC
:103F3000059001A93B48FEF7C9FF69E03C492068AC
:103F4000884230D100BF002000903348006840F420
:103F50000050314908600846006800F400500090A5
:103F600000BF00BF00BF002000902B48143800683D
:103F700040F010002849143908600846006800F035
:103F80001000009000BF00BF64200190022002904A
:103F900000200390032004900520059001A92548E6
:103FA000FEF794FF34E024492068884230D100BFF6
:103FB000002000901848006840F4801016490860FE
:103FC0000846006800F48010009000BF00BF00BFEA
:103FD0000020009010481438006840F020000E497E
:103FE000143908600846006800F02000009000BF07
:103FF00000BF4FF4607001900220029000200390F7
:10400000032004900520059001A90C48FEF75EFFEF
:1040100006B010BD003001404438024000000240AC
:104020000038004000040240003C0040000802400C
:1040300000340140001002400050014000140240D2
:104040002DE9F8430446884616461D464FF0000900
:1040500094F85100012802D04FF00209A8E06068EE
:10406000B0F5827F0DD1A06858B9042084F85100C2
:104070003346424641462046009500F07EF9BDE8B1
:10408000F88300BF94F85000012801D10220F6E720
:10409000012084F8500000BFFFF726F80746B8F16A
:1040A000000F00D016B94FF0010981E0042084F818
:1040B000510000206065C4F83880A687E687206339
:1040C000A086E08620646064A068B0F5004F0BD144
:1040D0002068006820F040002168086020680068BF
:1040E00020F48040216808602068006800F04000EB
:1040F000402805D02068006840F040002168086032
:10410000E06810BB1DE02068806800F0010050B13D
:104110002068007BA16B0870A06B401CA063E08F3F
:10412000401EE0870DE0FEF7DFFFC01BA84201D371
:10413000681C00B92DB94FF00309012084F8510023
:1041400036E0E08F0028DED121E01DE020688068A5
:1041500000F0010050B12068C068A16B0880A06B1E
:10416000801CA063E08F401EE0870DE0FEF7BCFFDF
:10417000C01BA84201D3681C00B92DB94FF0030938
:10418000012084F8510013E0E08F0028DED13A4688
:104190002946204601F056FF08B120206065606D79
:1041A00010B14FF0010902E0012084F8510000BF76
:1041B00000BF002084F8500000BF48465FE72DE9AB
:1041C000F84F0446884616461D464FF0000A00BFC9
:1041D00094F85000012802D10220BDE8F88F012098
:1041E00084F8500000BFFEF77FFF0746B14694F801
:1041F0005100012802D04FF0020AB7E0B8F1000FD9
:1042000000D016B94FF0010AB0E0032084F8510045
:1042100000206065C4F83080A686E686A063A0878B
:10422000E08760642064A068B0F5004F0BD120687F
:10423000006820F04000216808602068006840F4B1
:104240008040216808602068006800F04000402835
:1042500005D02068006840F0400021680860E068F0
:10426000B0F5006F32D1606810B1B9F1010F09D11A
:10427000206B00882168C860206B801C2063E08E62
:10428000401EE0861EE02068806800F002000228E0
:104290000AD1206B00882168C860206B801C2063D5
:1042A000E08E401EE0860DE0FEF71EFFC01BA84218
:1042B00001D3681C00B92DB94FF0030A012084F81E
:1042C000510053E0E08E0028DDD131E0606810B18C
:1042D000B9F1010F09D1206B007821680873206BB8
:1042E000401C2063E08E401EE0861EE0206880684F
:1042F00000F0020002280AD1206B007821680873C0
:10430000206B401C2063E08E401EE0860DE0FEF72F
:10431000EBFEC01BA84201D3681C00B92DB94FF0B9
:10432000030A012084F8510020E0E08E0028DDD14E
:104330003A462946204601F0CFFE08B120206065AC
:10434000A06850B900BF002000902068C0680090AD
:1043500020688068009000BF00BF606D10B14FF012
:10436000010A02E0012084F8510000BF00BF0020D4
:1043700084F8500000BF50462FE72DE9FF5F044648
:10438000884691461D460E9E012002900020019015
:1043900000BF94F85000012803D1022004B0BDE80A
:1043A000F09F012084F8500000BFFEF79DFE0746F5
:1043B00094F851B060680390AA46BBF1010F0BD08E
:1043C0000398B0F5827F04D1A06810B9BBF1040F47
:1043D00002D002200190E9E0B8F1000F03D0B9F15A
:1043E000000F00D015B901200190DFE094F85100D2
:1043F000042802D0052084F8510000206065C4F82C
:104400003890E587A587C4F83080E586A5862064C6
:1044100060642068006800F04000402805D02068F3
:10442000006840F0400021680860E068B0F5006F67
:104430004DD1606810B1BAF1010F09D1206B00882D
:104440002168C860206B801C2063E08E401EE086DF
:1044500036E02068806800F00200022810D1E08E6B
:1044600070B1029801280BD1206B00882168C860C8
:10447000206B801C2063E08E401EE08600200290AE
:104480002068806800F0010068B1E08F58B12068B2
:10449000C068A16B0880A06B801CA063E08F401EE9
:1044A000E08701200290FEF71FFEC01BB04207D339
:1044B000701C28B103200190012084F8510075E0A0
:1044C000E08E0028C5D1E08F0028C2D14DE06068A1
:1044D00010B1BAF1010F09D1206B0078216808737F
:1044E000206B401C2063E08E401EE08637E0206891
:1044F000806800F00200022810D1E08E70B10298AE
:1045000001280BD1206B007821680873206B401CB8
:104510002063E08E401EE0860020029020688068C4
:1045200000F0010068B1E08F58B12068C068A16B4D
:104530000870A06B401CA063E08F401EE087012044
:104540000290FEF7D1FDC01BB04201D3701C00B930
:104550002EB903200190012084F8510026E0E08E5E
:104560000028C4D1E08F0028C1D13A463146204608
:1045700001F0B2FD20B1012001902020606515E01E
:10458000A06850B900BF002000902068C06800906B
:1045900020688068009000BF00BF606D10B10120EE
:1045A000019002E0012084F8510000BF00BF00200C
:1045B00084F8500000BF0198F0E670B50446254627
:1045C000681EB0F1807F01D301200FE0681E4FF01C
:1045D000E02148610F214FF0FF3002F095FB0020F1
:1045E0004FF0E021886107200861002070BD70470E
:1045F0007047000030B502460B4600BF92F83C0001
:10460000012801D1022030BD012082F83C0000BF0A
:10461000022082F83D00106844681068816824F028
:1046200070041868044310684460184D1068A8426C
:104630001BD01068B0F1804F17D0154D1068A842FC
:1046400013D0144D1068A8420FD0134D1068A84223
:104650000BD0124D1068A84207D0114D1068A84227
:1046600003D0104D1068A84205D121F08001586890
:10467000014310688160012082F83D0000BF0020E6
:1046800082F83C0000BF00BFBDE700000000014011
:104690000004004000080040000C004000040140FD
:1046A000004001400018004010B504460CB901203C
:1046B00010BD94F83D0028B9002084F83C00204645
:1046C00000F026F8022084F83D00211D206801F04A
:1046D00095FE012084F8460000BF84F83E000121C9
:1046E0003F200155402001554120015500BF00BF2A
:1046F000012084F842004320015544200155452003
:10470000015500BF012084F83D000020D0E70000E3
:1047100010B586B00446142101A8FCF768F83B499F
:10472000206888420FD100BF002000903848006800
:1047300040F00100364908600846006800F00100BA
:10474000009000BF5FE033492068884231D100BF4C
:10475000002000902E48001F006840F002002C4905
:10476000091F08600846006800F00200009000BFC2
:1047700000BF00BF0020009025481438006840F0BA
:1047800004002349143908600846006800F004005A
:10479000009000BF00BF4815019002200290002049
:1047A000039004900220059001A91B48FEF78EFBA0
:1047B00029E01A492068884211D100BF00200090EA
:1047C0001348001F006840F004001149091F0860E9
:1047D0000846006800F00400009000BF13E0104994
:1047E000206888420FD100BF002000900848006870
:1047F00040F00200064908600846006800F0020028
:10480000009000BF00BF06B010BD000000000140D6
:104810004438024000040040000802400008004004
:1048200000040140014691F83D00012801D001201B
:104830007047022081F83D000868C06840F0010020
:104840000B68D8601A4B086898421BD00868B0F112
:10485000804F17D0174B0868984213D0164B086842
:1048600098420FD0154B086898420BD0144B08683B
:10487000984207D0134B0868984203D0124B08683F
:1048800098420CD10868806800F00702062A0CD014
:104890000868006840F001000B68186005E00868CF
:1048A000006840F001000B6818600020C0E70000BD
:1048B000000001400004004000080040000C0040DF
:1048C0000004014000400140001800402DE9F04183
:1048D00004460D46002700BF94F83C00012802D191
:1048E0000220BDE8F081012084F83C0000BF0220D6
:1048F00084F83D002068866826F0770626F47F4617
:10490000206886602868502833D00CDC202850D0DE
:1049100004DC00284BD0102851D149E0302849D080
:1049200040284CD139E060282DD0702807D0B0F550
:10493000805F03D0B0F5005F41D10DE041E0D5E9E3
:1049400002136A68206801F0CDFD2068866846F091
:1049500077062068866034E0D5E902136A6820682B
:1049600001F0C0FD2068806840F4804021688860C4
:1049700027E0EA686968206801F0C8FD50212068D6
:1049800001F0BBFD1DE0EA686968206801F0D1FD17
:104990006021206801F0B1FD13E0EA6869682068D1
:1049A00001F0B4FD4021206801F0A7FD09E000BF3F
:1049B00000BF00BF2968206801F09FFD01E00127CA
:1049C00000BF00BF012084F83D0000BF002084F834
:1049D0003C0000BF384684E7704770B50446206845
:1049E000C5682068066906F00200022819D105F0A2
:1049F0000200022815D1401F21680861012020779C
:104A00002068806900F0030018B12046FFF7E4FF3A
:104A100005E0204600F097F8204600F095F80020C9
:104A2000207706F00400042819D105F004000428BA
:104A300015D1C04321680861022020772068806971
:104A400000F4407018B12046FFF7C6FF05E020468D
:104A500000F079F8204600F077F80020207706F083
:104A60000800082819D105F00800082815D1C0430E
:104A700021680861042020772068C06900F00300E5
:104A800018B12046FFF7A8FF05E0204600F05BF8CC
:104A9000204600F059F80020207706F0100010287A
:104AA00019D105F01000102815D1C0432168086104
:104AB000082020772068C06900F4407018B12046B3
:104AC000FFF78AFF05E0204600F03DF8204600F0A1
:104AD0003BF80020207706F0010048B105F0010006
:104AE00030B16FF0010021680861204600F02EF817
:104AF00006F08000802809D105F08000802805D1CB
:104B0000C043216808612046FFF771FD06F04000B0
:104B1000402809D105F04000402805D1C043216854
:104B20000861204600F0D6F806F02000202809D1C0
:104B300005F02000202805D1C043216808612046E7
:104B4000FFF756FD70BD70477047000010B5044672
:104B50004C4884427ED14C480068401C4A49086059
:104B60004A4800684A49884205D248480068401CC3
:104B70004649086008E0002044490860486045480C
:104B80000078401C43490870404800686421B0FB2D
:104B9000F1F201FB120038BB3C48006820B33B48EF
:104BA0004068401C394948603A48007B142804DBBF
:104BB000012038494873002008733748407801289D
:104BC0000DD13548C078401C3349C8700846C078BC
:104BD0000A2804DB0020C8704870012088702D4826
:104BE000007B401C2B4908732C48006828498842E8
:104BF00004D3002029490860294908602748006833
:104C000027490968401A322809D3244800682449F2
:104C100008602048807B012801D11E4988601F4818
:104C20000068401C1D490860184840684FF47A71BC
:104C3000B0FBF1F201FB120010BB14484068F8B160
:104C40001248406817490968401A19D001201149D3
:104C5000487000E004E00D484068124908600FE029
:104C60001148844207D111480068401C0F49086070
:104C700001F0BEFC04E0054841680DA0FBF7B4FB61
:104C800010BD00003039002094000020383F002083
:104C9000002A7515443F0020C83F0020AC000020CA
:104CA000B0000020A80000207839002098000020E3
:104CB0002564206D7320556E6B6E6F776E2054499E
:104CC0004D455220496E74657275707421200D0A2D
:104CD0000000000070477047704700002DE9F84F52
:104CE0000446206805682068C668206847694FF058
:104CF0000009CA4605F00F09B9F1000F0AD105F005
:104D0000200038B106F0200020B1204601F020FD3F
:104D1000BDE8F88FB9F1000F7CD007F0010018B999
:104D200006F49070002875D005F0010030B106F44B
:104D3000807018B1606C40F00100606405F0040000
:104D400030B107F0010018B1606C40F002006064FF
:104D500005F0020030B107F0010018B1606C40F0BE
:104D60000400606405F0080048B106F0200010B9A6
:104D700007F0010018B1606C40F008006064606CDE
:104D8000002846D005F0200028B106F0200010B120
:104D9000204601F0DDFC20684069C0F3801A606C99
:104DA00000F0080010B9BAF1000F2DD0204601F034
:104DB00089FC2068406900F04000402820D100BFF5
:104DC00000BF2168143151E8001F21F04000216824
:104DD000143141E80002002AF3D100BFE06B50B16A
:104DE0007748E16B0865E06BFDF7B6FF88B1E06BD3
:104DF000016D88470DE02046FFF76EFF09E009E0EE
:104E00002046FFF769FF04E02046FFF765FF00201A
:104E100060647DE7206B012878D105F01000002840
:104E200074D006F010000028FAD000BF00200090D7
:104E300020680068009020684068009000BF00BFB4
:104E40002068406900F04000402860D1E06B0068B5
:104E500040681FFA80F8B8F1000F56D0A08D404589
:104E600053DDA4F82E80E06BC069B0F5807F43D09D
:104E700000BF00BF21680C3151E8001F21F4807091
:104E800021680C3141E80002002AF3D100BF00BFC5
:104E900000BF2168143151E8001F21F00100216892
:104EA000143141E80002002AF3D100BF00BF00BF67
:104EB0002168143151E8001F21F0400021681431AD
:104EC00041E80002002AF3D100BF202084F842000C
:104ED0000020206300BF00BF21680C3151E8001F93
:104EE00021F0100021680C3141E80002002AF3D1C2
:104EF00000BFE06BFDF7DAFE02206063A08DE28D5B
:104F0000801A81B22046FFF7E6FE01E742E0A08D5D
:104F1000E18D401A1FFA80F8E08DD0B3B8F1000F90
:104F200037D000BF00BF21680C3151E8001F21F4C9
:104F3000907021680C3141E80002002AF3D100BFD3
:104F400000BF00BF2168143151E8001F21F00100AB
:104F50002168143141E80002002AF3D100BF20206B
:104F600084F842000020206300BF00BF21680C319C
:104F700051E8001F21F0100021680C3141E80002C7
:104F8000002AF3D100BF0220606341462046FFF7AC
:104F9000A2FEBDE605F0800030B106F0800018B139
:104FA000204601F089FDB3E605F0400030B106F07F
:104FB000400018B1204601F0BBFBA9E600BFA7E600
:104FC000B166000810B504460CB9012010BDA069F7
:104FD00000B100E000BF94F8410028B9002084F837
:104FE0004000204600F02AF8242084F84100206880
:104FF000C06820F400502168C860204601F026FCFB
:105000002068006920F490402168086120684069A8
:1050100020F02A00216848612068C06840F40050F0
:105020002168C86000206064202084F8410084F872
:1050300042000020606300BFC8E7000010B586B0E2
:105040000446142101A8FBF7D2FB97492068884247
:1050500031D100BF002000909448006840F4002047
:10506000924908600846006800F40020009000BFE4
:1050700000BF00BF002000908C481038006840F04E
:1050800004008A49103908600846006800F00400EE
:10509000009000BF00BF4FF44060019002200290DA
:1050A00000200390032004900820059001A9804867
:1050B000FDF70CFFF5E07F492068884233D100BF3F
:1050C000002000907948001D006840F010007749EA
:1050D000091D08600846006800F01000009000BF3D
:1050E00000BF00BF0020009070481038006840F0FA
:1050F00001006E49103908600846006800F00100A0
:10510000009000BF00BF4FF4C060019002200290E9
:1051100000200390032004900720059001A9664811
:10512000FDF7D4FEBDE06549206888424DD100BF3F
:10513000002000905D48006840F400305B49086042
:105140000846006800F40030009000BF00BF00BFB8
:105150000020009055481038006840F00100534985
:10516000103908600846006800F00100009000BF98
:1051700000BF00BF002000900846006840F0080013
:1051800008600846006800F00800009000BF00BFFB
:10519000042001900220029000200390032004903C
:1051A0000720059001A94448FDF790FE402001909A
:1051B0000220029000200390032004900720059015
:1051C00001A93F48FDF782FE6BE03E492068884216
:1051D00031D100BF002000903448006840F48020A6
:1051E000324908600846006800F48020009000BF43
:1051F00000BF00BF002000902C481038006840F02D
:1052000002002A49103908600846006800F00200D0
:10521000009000BF00BF4FF4406001900220029058
:1052200000200390032004900720059001A9264840
:10523000FDF74CFE35E025492068884231D100BF9A
:10524000002000901948001D006840F02000174918
:10525000091D08600846006800F02000009000BFAB
:1052600000BF00BF0020009010481038006840F0D8
:1052700004000E49103908600846006800F0040078
:10528000009000BF00BFC0200190022002900020CB
:105290000390032004900820059001A90448FDF71D
:1052A00015FE06B010BD0000004C00404038024022
:1052B000000802400010014000000240004400408D
:1052C000000C02400048004000040240001401406D
:1052D00070B504460D46164694F8420020280BD1BE
:1052E00005B10EB9012070BD002020633246294669
:1052F000204601F0C1FBF6E70220F4E710B50E4AA4
:105300000168914217D101210C4A51701146C978A8
:10531000491CD17002685268D3B2084A11784A1CFD
:10532000064C2270064A5354214609787F2902DB35
:1053300000212246117010BD00140140C83F00201A
:10534000EC3B0020704700BFFEE7000000B58BB0CB
:105350001C481D4908600620486000211A488160E9
:10536000C1604FF400210161C90041610021017653
:1053700041768176C17601774177FDF72BFA08B146
:10538000FCF75AFD002006900790012008900020AD
:105390000290039004900590012009900E200A903D
:1053A00001A90948FCF766FF0748FDF714FC10B196
:1053B00006A0FBF719F802210348FCF7A0FE0BB08A
:1053C00000BD0000006400408C36002043414E3197
:1053D000205374617274204661696C6564210A0D02
:1053E0000000000000B587B01C216846FBF7FFF9FC
:1053F0001B481C4908600020486001211948816051
:105400000821C16010210161402141614FF4C07148
:1054100081610021C1614FF4006101624900416274
:10542000490081620220009008200190062002902D
:1054300003900420049002200590069069460948D4
:10544000FEF706FB08B1FCF7F7FC064800F096FDF6
:1054500040F2AB210348FEF720FB07B000BD00007F
:10546000400100A0B83B002000B587B0142102A87D
:10547000FBF7BDF900BF00200190B048006840F084
:105480001000AE4908600846006800F01000019066
:1054900000BF00BF00BF002001900846006840F434
:1054A000807008600846006800F48070019000BFBA
:1054B00000BF00BF002001900846006840F02000B7
:1054C00008600846006800F02000019000BF00BF9F
:1054D00000BF002001900846006840F0800008608E
:1054E0000846006800F08000019000BF00BF00BFC8
:1054F000002001900846006840F00400086008465B
:10550000006800F00400019000BF00BF00BF002051
:1055100001900846006840F00100086008460068F5
:1055200000F00100019000BF00BF00BF002001900B
:105530000846006840F0020008600846006800F075
:105540000200019000BF00BF00BF0020019008468C
:10555000006840F0400008600846006800F0400025
:10556000019000BF00BF00BF002001900846006806
:1055700040F0080008600846006800F0080001904C
:1055800000BF00BF012218216D48FDF7A7FD0022D2
:1055900040216C48FDF7A2FD00224FF481716A485A
:1055A000FDF79CFD002248F212016848FDF796FDC8
:1055B000012204216648FDF791FD002241F203011A
:1055C0006448FDF78BFD00227A216348FDF786FDD4
:1055D00000224FF480616148FDF780FD01224FF405
:1055E00040715C48FDF77AFD18200290012003907D
:1055F000002004900320059002A95148FDF766FCA5
:1056000040F60400029000200390049002A9524842
:10561000FDF75CFC402002900120039000200490E4
:105620000320059002A94748FDF750FC4FF4817014
:10563000029001200390002004900320059002A90D
:105640004148FDF743FC48F212000290012003900C
:10565000002004900320059002A93C48FDF736FC89
:105660000420029001200390002004900320059064
:1056700002A93748FDF72AFC41F2030002900120FD
:105680000390002004900320059002A93148FDF703
:105690001DFC7A200290012003900020049003203A
:1056A000059002A92C48FDF711FC4FF48060029090
:1056B00001200390002004900320059002A92748B0
:1056C000FDF704FC4FF44070029001200390049019
:1056D0000320059002A91F48FDF7F8FB01221021C5
:1056E0001748FDF7FBFC012211031A48FDF7F6FCF1
:1056F000012240211348FDF7F1FC012248F210017C
:105700001248FDF7EBFC012210211348FDF7E6FCDF
:10571000012202211048FDF7E1FC002208210E4879
:10572000FDF7DCFC002202210748FDF7D7FC01222F
:1057300002210648FDF7D2FC07B000BD3038024018
:105740000010024000140240000802400000024025
:10575000001C0240000402400020024000180240E9
:1057600010B5012211461420FDF74CFD1420FDF761
:1057700035FD002201211D20FDF744FD1D20FDF710
:105780002DFD022201211E20FDF73CFD1E20FDF70C
:1057900025FD002202214720FDF734FD4720FDF7BB
:1057A0001DFD022201214020FDF72CFD4020FDF7C8
:1057B00015FD10BD10B50E480E4908604FF48270FB
:1057C000486000210B488160C160016141614FF474
:1057D000007181611021C161002101624162816219
:1057E0000A21C162FEF77EFA08B1FCF725FB10BD65
:1057F000003001403037002010B50E480E490860D7
:105800004FF48270486000210B488160C1600161E3
:1058100041614FF4007181610821C1610021016281
:10582000416281620A21C162FEF75CFA08B1FCF7AD
:1058300003FB10BD003800408837002010B50E482B
:105840000E4908604FF48270486000210B48816067
:10585000C160016141614FF4007181610021C1614A
:105860000162416281620A21C162FEF73BFA08B11E
:10587000FCF7E2FA10BD0000003401403838002087
:1058800000B587B000200390049005900690019029
:10589000029015481549086000204860002113480F
:1058A00081604FF6FF71C16000210161416181613A
:1058B000FEF7FAFE08B1FCF7BFFA4FF480500390F0
:1058C00003A90A48FFF702F808B1FCF7B5FA00206F
:1058D0000190029001A90548FEF78CFE08B1FCF783
:1058E000ABFA07B000BD000000000140E83800201E
:1058F00000B587B0002003900490059006900190B9
:105900000290144814490860592048600021124848
:1059100081600921C160002101618161FEF7C4FE3F
:1059200008B1FCF789FA4FF48050039003A90A48A4
:10593000FEF7CCFF08B1FCF77FFA0020019002903F
:1059400001A90548FEF756FE08B1FCF775FA07B045
:1059500000BD0000000400403039002010B50A48A6
:105960000A4908600A484860002108488160C1600F
:1059700001610C21416100218161C161FFF722FBBE
:1059800008B1FCF759FA10BD004C0040503A002015
:1059900020A1070010B50A480A4908600A48486073
:1059A000002108488160C16001610C214161002132
:1059B0008161C161FFF706FB08B1FCF73DFA10BD3C
:1059C00000100140983A002020A1070010B50D48B2
:1059D0000D4908604FF4E130486000210A488160B9
:1059E000C16001610C21416100218161C161FFF74A
:1059F000E9FA08B1FCF720FA012204490248FFF74E
:105A000067FC10BD00140140703B00206C3C00207E
:105A100000BFFEE700BFFEE770B504460D46164620
:105A2000204607F0BDF8002070BD70B504460D4655
:105A30001646204602F0B4FC204602F069FC002025
:105A400070BD70B504460D461646204603F070F84A
:105A5000204603F029F8002070BD30B503460C46FF
:105A6000D3F80802007860B9002106E00020D3F8DE
:105A70000C5245F82100481CC1B293F80502884237
:105A8000F4DC002030BD70B505460C464FF0FF3009
:105A900004EBC402A96801EB42014880002004EB3A
:105AA000C402A96801EB4201C880E1B2284606F0B1
:105AB000B5FB70BD70B505460C464FF0FF3004EBEA
:105AC000C402A96801EB4201888004EBC401A86804
:105AD00010F8110020F0010004EBC402A96801F8DD
