:020000040800F2
:1000000038080020550200085F1E0008B91B0008D0
:100010005D1E0008ED0600086923000800000000CE
:10002000000000000000000000000000891F000820
:10003000EF06000800000000611E00088B1F00088A
:100040006D2300086F0200086F0200086F020008AD
:100050006F0200086F020008F10600086F02000836
:1000600075070008AD0700086F0200086F0200085E
:100070006F0200086F0200086F0200086F0200089C
:100080006F0200086F0200086F0200086F0200088C
:100090006F0200086F0200086F0200086F0200087C
:1000A0006F0200086F0200086F0200086F0200086C
:1000B0006F020008412000086F0200086F0200086C
:1000C0006F0200086F0200086F0200086F0200084C
:1000D0006F0200086F0200082D2300086F0200085D
:1000E000390700086F0200086F0200086F0200085D
:1000F0006F0200086F0200086F0200086F0200081C
:100100006F0200086F0200084D2000086F0200080F
:100110006F0200086F0200086F0200086F020008FB
:100120006F0200086F0200086F0200086F020008EB
:100130006F0200086F0200086F0200086F020008DB
:100140006F0200086F0200086F0200086F020008CB
:100150006F0200086F0200086F0200086F020008BB
:100160006F0200086F0200086F0200086F020008AB
:100170006F0200086F0200086F0200080000000014
:100180006F0200086F0200086F0200086F0200088B
:100190006F0200086F0200086F0200086F0200087B
:1001A0006F0200086F0200086F02000800F002F8FA
:1001B00000F041F80AA090E8000C82448344AAF1C0
:1001C0000107DA4501D100F036F8AFF2090EBAE8BE
:1001D0000F0013F0010F18BFFB1A43F0010318477B
:1001E000FC2600001C270000103A24BF78C878C104
:1001F000FAD8520724BF30C830C144BF04680C602D
:10020000704700000023002400250026103A28BF74
:1002100078C1FBD8520728BF30C148BF0B60704778
:10022000642900F0BB80002070471FB502F044FB3A
:100230001FBD10B510BD00F02BFA1146FFF7F5FFFA
:1002400002F0DEFA00F049FA03B4FFF7F2FF03BC54
:1002500002F0BFF80948804709480047FEE7FEE77B
:10026000FEE7FEE7FEE7FEE7FEE7FEE7FEE7FEE766
:1002700004480549054A064B704700003120000834
:10028000AD010008380200203808002038040020A2
:1002900038040020704753EA020C00F069802DE911
:1002A000F04B4FF00006002B1FBFB3FA83F503FAA3
:1002B00005F424FA05F65E4012BF1643B2FA82F541
:1002C00002FA05F4C5F120051EBF22FA05FC44EA36
:1002D0000C04203556EA044C4FEA144418BF641C41
:1002E0004FF000084FF00009904271EB030C39D336
:1002F000002919BFB1FA81F701FA07F6B0FA80F7C1
:1003000000FA07F6C7F120071EBF20FA07FC46EAED
:100310000C062037B6FBF4FCA7EB0507103F07F0EF
:100320001F0BCBF120060CFA0BFB2CFA06F644BF90
:10033000B3460026202FA4BF5E464FF0000B5BEAB9
:10034000060C08BF4FF0010B19EB0B09ABFB027C4D
:1003500048EB0608C01B06FB02CC0BFB03CC71EB81
:100360000C01C1E70B46024641464846BDE8F08B0A
:1003700013B54FF000004FF00001AFF30080BDE86F
:100380001C4070470FB4044910B503AA029800F04E
:100390004DF910BC5DF814FB380000202DE9F04148
:1003A0000646002410687529314616A510D0AFF313
:1003B0000080002802DA404213A507E031688A076E
:1003C00001D512A502E0490704D511A5012401E0D9
:1003D000AFF3008000210A2206F1240709E0B0FBF8
:1003E000F2FCB0FBF2F302FB1C00303078541846EC
:1003F000491C0028F3D123462A463046BDE8F04187
:1004000000F0BAB8000000002D0000002B00000032
:10041000200000002DE9F0474FF0000A894604460D
:10042000C0F820A02046E1688847002876D025281B
:1004300006D0D4E901219047206A401C2062F1E7F0
:10044000E168204600258847C4F81CA0064600271E
:10045000C4F818A02A2E09D0304601F0B3FF38B3F3
:1004600004EB8708303EC8F8186019E059F8041BFF
:10047000204604EB87029161E1688847012F064618
:1004800018D1E069002820DA25F020051DE0D8F811
:10049000180000EB800006EB40003038C8F8180068
:1004A0002046E1688847064601F08CFF0028EED11F
:1004B000012F0AD02E2E08D12046E16888477F1CE4
:1004C0000646022F45F02005C4DBA069002803DAA8
:1004D000404245F00105A061E80701D025F0100574
:1004E000B6B1A6F14100192802D8203645F40065BE
:1004F0004A463146204625604D46FFF791FE58B1E9
:10050000012806D0ED1D25F0070000F1080989E754
:1005100004E005F1040985E730468AE7206ABDE872
:10052000F0874FF0000200B51346944696462039F6
:1005300022BFA0E80C50A0E80C50B1F12001BFF49C
:10054000F7AF090728BFA0E80C5048BF0CC05DF802
:1005500004EB890028BF40F8042B08BF704748BF50
:1005600020F8022B11F0804F18BF00F8012B7047C4
:1005700070477047704770472DE9F0470D46994620
:100580009246044600F124080168880604D5E06913
:1005900021F01001216000E00120A84201DD471B8D
:1005A00000E00027A1697A1902EB0900081AA0618E
:1005B0002078C00602D42046AFF30080002608E071
:1005C000D4E901211AF806009047206A401C761CE5
:1005D00020624E45F4DB2078C0060AD52046AFF3F2
:1005E000008006E0D4E9012130209047206A401CB9
:1005F0002062381EA7F10107F4DC07E0D4E90121ED
:1006000018F805009047206A401C2062281EA5F1BA
:100610000105F3DC2046AFF300802078000602D508
:100620000220BDE8F0870120FBE70000074B70B512
:100630000D467B4400F015F80446284600F024F8E7
:1006400010B14FF0FF3070BD204670BD9F1D0000FF
:1006500000487047D801002001694A1C02610878EF
:10066000704700B58FB0CDE90131002105910549F2
:100670007944CDE9031011466846FFF7CBFE0FB071
:1006800000BD0000E5FFFFFF007B00F08000704729
:100690007546FFF7DDFFAE4605006946534620F07C
:1006A0000700854618B020B5FFF7E2FDBDE8204001
:1006B0004FF000064FF000074FF000084FF0000B1E
:1006C00021F00701AC46ACE8C009ACE8C009ACE8D1
:1006D000C009ACE8C0098D46704710B50446AFF3B9
:1006E00000802046BDE81040FFF7AEBDFEE7704732
:1006F00010B50A2000F07EF80C48D0F8000201285E
:100700000CD10B48D0F8801261B10021C0F88012E2
:10071000D0F8801241B10021C0F8841205490120AF
:10072000086010BD0121F1E70121F5E7000040421A
:1007300000804042143C014010B50A2000F05AF8F5
:100740000948D0F8340238B90848D0F8841241B1C9
:100750005FF00001C0F8841205494FF400500860B2
:1007600010BD0121F6E70000000041420080404238
:10077000143C014010B50A2000F03CF80848D0F8BD
:10078000080238B90748D0F8801239B15FF000018B
:10079000C0F8801204490420086010BD0121F7E769
:1007A0000080434200804042143C014010B50A20C2
:1007B00000F020F80C48D0F80C0268B90B48D0F8CB
:1007C000841269B15FF00001C0F88412D0F8801281
:1007D00041B10021C0F8801205490820086010BD11
:1007E0000121F1E70121F5E700804342008040420A
:1007F000143C014070B5044600F02EF90546601C1B
:1008000002D004480078044400F026F9401BA042BE
:10081000FAD370BD080000202DE9F84FDFF8F8A1E9
:100820000022012403254FF00F090AF1040BAAF15D
:10083000040E00BF0B6804FA02F63340B34270D1D5
:100840000F7907F00307012F01D0022F16D1876817
:100850004FEA420805FA08FC27EA0C07D1F80CC059
:100860000CFA08FC4CEA070CC0F808C04768B7430C
:100870000E79C6F3001696403E4346600E79F64365
:10088000B6070AD0C7684FEA420C05FA0CF6B74320
:100890008E6806FA0CF63E43C6600E7906F0030633
:1008A000022E10D1D60800EB8608D8F82060570732
:1008B0004FEAD76C09FA0CF7BE430F6907FA0CF739
:1008C0003743C8F8207006684FEA420C05FA0CF767
:1008D000BE430F7907F0030707FA0CF737430760A9
:1008E0004E6816F4403F1CD04C4E376847F48047A2
:1008F0003760366822F0030706F480460096484EBB
:1009000007EB060CDCF8086897073F0F09FA07F8B1
:1009100026EA0806DFF80C81404503D14FF00008B5
:1009200041E072E0DFF80081404502D14FF001085C
:1009300039E0DFF8F880404502D14FF0020832E09C
:10094000DFF8EC80404502D14FF003082BE0DFF8E0
:10095000E480404502D14FF0040824E0DFF8D8805D
:10096000404502D14FF005081DE0DFF8D08040453A
:1009700002D14FF0060816E0DFF8C480404502D1EE
:100980004FF007080FE0DFF8BC80404502D14FF080
:10099000080808E0DFF8B080404502D14FF00908B0
:1009A00001E04FF00A0808FA07F848EA0608CCF810
:1009B0000888DAF800605746D1F804C09E435FEA21
:1009C000CC2C00D51E433E60DBF800605F46D1F8BA
:1009D00004C09E435FEA8C2C00D51E433E60DEF8C7
:1009E00000607746D1F804C09E435FEA8C3C00D596
:1009F0001E433E60084F083F3E68D1F804C09E4346
:100A00005FEACC3C00D51E433E60521C102AFFF426
:100A100011AFBDE8F88F0000083C014044380240A7
:100A20000030014000000240000402400008024083
:100A3000000C024000100240001402400018024066
:100A4000001C024000200240002402400AB18161E3
:100A500070470904FBE70000014880687047000008
:100A600008000020024881680278114481607047C4
:100A7000080000200B4810B5016841F400710160C6
:100A8000016841F480610160016841F48071016096
:100A9000032000F06FF80F2000F006F800F024F8B3
:100AA000002010BD003C024070B50D4D04464FF4CF
:100AB0007A712878B1FBF0F00A490968B1FBF0F0CF
:100AC00000F01DFD48B9102C07D200222146501E0F
:100AD00000F030F800206C6070BD012070BD000097
:100AE00008000020140000200A4808B5016841F4FD
:100AF00080410160006800F4804000900548001FBC
:100B0000016841F080510160006800F08050009061
:100B100008BD000044380240002809DB00F01F0235
:100B2000012191404009800000F1E020C0F800114F
:100B300070470000F0B40E4B1B680C46C3F3022351
:100B4000C3F10705042D00D90425191D072901D279
:100B5000002300E0DB1E012606FA05F1491E2140B4
:100B600099409E40761E16403143F0BC01F01ABCFD
:100B70000CED00E0064900F0070208684FF6FF039D
:100B8000184040EA0220034A104308607047000002
:100B90000CED00E00000FA052DE9F8431748016864
:100BA00041F0805101600068154F00F0805001262F
:100BB00000903E64FFF750FF05464FF47A78114CE1
:100BC00005E000BFFFF748FF401B40450DD86068B7
:100BD000C003F7D57E64FFF73FFF0546464607E0B2
:100BE000FFF73AFF401BB04202D90320BDE8F8836B
:100BF00060688003F4D50020F8E700004038024028
:100C000000000E42007000402DE9F0470E4605003E
:100C100065D0DFF81481D8F80000F7B200F00F00BB
:100C2000B04207D288F80070D8F8000000F00F003A
:100C3000B04254D128683D4C810712D5400703D5F6
:100C4000206840F4E05020602878000703D5206831
:100C500040F4604020602068A96820F0F00008435C
:100C600020602878C0072DD03049686808390128ED
:100C700012D0022813D0032811D00968890700294F
:100C80002DDA216821F0030101432160FFF7E4FE22
:100C9000814641F2883A0EE009688903EFE7096866
:100CA0008901ECE7FFF7D8FEA0EB0901514502D915
:100CB0000320BDE8F0872068696800F00C00B0EB05
:100CC000810FEFD1D8F80010404601F00F01B1427A
:100CD00007D90770006800F00F00B04201D0012072
:100CE000E7E72878400705D52068E96820F4E05058
:100CF000084320602878000706D52068296920F479
:100D0000604040EAC100206000F038F82168084ADD
:100D1000C1F30311515CC8400649086006480068E9
:100D2000FFF7C2FE0020C4E7003C02400838024042
:100D3000C2280008140000200C00002004480549C7
:100D400000680968044AC1F38221515CC8407047B9
:100D50001400002008380240D22800080448054941
:100D600000680968044AC1F34231515CC8407047C9
:100D70001400002008380240D2280008154810B599
:100D8000006810F00C02144813D01449042A0FD044
:100D9000082A0ED10F4C241F2268236802F03F025C
:100DA0005B0207D52068C0F38810A0FB010106E0B4
:100DB000084610BD2168C1F38811A1FB0001002382
:100DC000FFF769FA2168C1F30141491C4900B0FBF2
:100DD000F1F010BD083802400024F40040787D0195
:100DE0002DE9F84F04006ED02078DFF84C93C0074F
:100DF000A9F104054AD009F104000168C1F3810199
:100E0000012908D00068C0F3810002280AD1D9F86E
:100E10000000400206D52868800337D560680028A6
:100E2000E1D033E06068B0F5803F10D0B0F5A02F7E
:100E3000286810D020F480302860286820F48020B2
:100E400028606068A8B1FFF707FE06460DE0286835
:100E500040F48030F4E740F480202860F7E700BFDA
:100E6000FFF7FAFD801B642873D828688003F7D544
:100E70000CE0FFF7F1FD064605E000BFFFF7ECFDD3
:100E8000801B6428F0D828688003F7D42078DFF826
:100E9000AC8280074FF0000A3ED5A748001D0168CC
:100EA00011F00C0F08D00068C0F3810002280BD1AC
:100EB000D9F80000400207D42868800716D5E068FA
:100EC000012800D112E033E1E068B8B10120C8F890
:100ED0000000FFF7C1FD064605E000BFFFF7BCFDBF
:100EE000801B0228C0D828688007F7D528682169A8
:100EF00020F0F80040EAC10028600DE0C8F800A02A
:100F0000FFF7AAFD064604E0FFF7A6FD801B0228B6
:100F10001FD828688007F7D42078000722D5864F8D
:100F200087486169703771B101210160FFF794FD55
:100F3000064604E0FFF790FD801B022809D83868B8
:100F40008007F7D50EE0C0F800A0FFF785FD064644
:100F500005E082E0FFF780FD801B02287DD838681D
:100F60008007F7D42078400768D5DFF8CCB1002798
:100F70000BF13C0BDBF80000C0000BD4DBF80010D9
:100F800041F08051CBF80010DBF80000012700F0A1
:100F9000805000906B4E3068C00510D4306840F42B
:100FA00080703060FFF758FD009005E0FFF754FDBA
:100FB0000099401A022850D83068C005F6D55E4E18
:100FC000A0686C3601280FD00528306810D020F0BA
:100FD00001003060306820F004003060A068B8B1D3
:100FE000FFF73AFD00900FE0306840F00100F4E7B1
:100FF00040F004003060F7E7FFF72EFD0099411A3A
:1010000041F28830814266D830688007F4D50EE01E
:10101000FFF722FD009007E0FFF71EFD0099411A3F
:1010200041F28830814256D830688007F4D42FB11D
:10103000DBF8001021F08051CBF80010A069C8B394
:101040003D49091D0968C1F3810102294AD00228DE
:10105000504607D0C8F8600000E03CE0FFF7FCFC19
:1010600004463BE04746C8F86000FFF7F5FC06463B
:1010700005E000BFFFF7F0FC801B02282BD8286892
:101080008001F7D4D4E907010843A16A2E4A490830
:1010900002EB0141626A41EA8211084394F82C1084
:1010A00040EA0161C9F8001001203866FFF7D4FC5E
:1010B000044606E03EE000BFFFF7CEFC001B02281E
:1010C00009D828688001F7D534E000BFFFF7C4FCD9
:1010D000001B022802D90320BDE8F88F2868800190
:1010E000F4D427E00128F7D0D9F80000E26900F431
:1010F000800191421CD1226A00F03F01914217D138
:1011000047F6C071626A0140B1EB821F10D1A26A3A
:101110004FF0FF3300F4403103EB5202B1EB024FCA
:1011200006D194F82C1000F07060B0EB016F01D084
:101130000120D1E70020CFE70438024000004742F9
:10114000800E4742007000400000FFFF70B50400B1
:1011500009D0606A002540B125616561A56294F8F7
:10116000510040B10CE0012070BD6068B0F5827F95
:10117000F4D0E561F2E784F85050204600F044F8DE
:10118000022084F851002068016821F040010160CC
:10119000A088218900F4827001F404410843A189E8
:1011A00001F400610843217C01F002010843217D24
:1011B00001F001010843218B01F400710843217FF4
:1011C00001F03801084394F8201001F08001084331
:1011D000218D01F40051084321680860A0690421B1
:1011E00001EA104094F8241001F01001084321682E
:1011F00048602068C16921F40061C1616565012012
:1012000084F85100002070BD2DE9F04186B00446FD
:1012100014216846FFF785F95348524B2268002491
:10122000514914380225032605279A4215D10A6828
:1012300042F480520A60096801F480510591016806
:1012400041F0010101600068694600F0010005906D
:10125000E020CDE9000545481AE0434BDFF810C116
:101260001B1FDFF8108162451AD1196841F48041D3
:101270001960196801F480410591016841F002018B
:101280000160006800F0020005904FF4604030E01B
:1012900002AA82E8D000FFF7BFFA06B0BDE8F081ED
:1012A000DFF8D4C0624529D1196841F400411960C2
:1012B000196801F400410591016841F004010160E1
:1012C000016801F004010591016841F0020101602B
:1012D000006802AA00F0020005904FF48050CDE9AA
:1012E0000005062782E8D00069462448FFF794FAF3
:1012F0001820CDE9000569464046C9E7204B9A42CF
:1013000015D10A6842F400520A60096801F40051DC
:101310000591016841F0100101600068694600F024
:10132000100005906420CDE900051648B0E7164B83
:101330009A42B2D10A6842F480120A60096801F444
:1013400080110591016841F0200101600068694643
:1013500000F0200005904FF46070CDE900050B48C7
:1013600096E700000030014044380240000002408F
:101370000038004000040240003C004000080240E9
:1013800000340140001002400050014000140240AF
:101390002DE9F84F044690F850000026984615466F
:1013A0008A4601280CD0012784F85070FFF754FBBF
:1013B000814694F85100B346012804D002269AE0F1
:1013C0000220BDE8F88FBAF1000F6FD0002D6DD06C
:1013D000032084F85100C4F854B0C4F830A0A586A6
:1013E000E586C4F838B0A4F83CB0A4F83EB0C4F820
:1013F00044B0C4F840B0A068B0F5004F09D12068EF
:10140000016821F0400101602068016841F48041D9
:10141000016020680168490603D4016841F0400179
:101420000160E068B0F5006F606803D058B3012D2B
:1014300029D049E008B1012D1FD1206B2168008817
:10144000C86006E020688168890709D5216B098892
:10145000C160206B801C2063E08E401EE0860CE0A3
:10146000FFF7FAFAA0EB0901414503D3B8F1FF3FBA
:1014700003D006E0B8F1000F03D0E08E0028E1D1E0
:1014800025E0032635E0206B21680078087306E02C
:101490002068816889070AD5216B09780173206B60
:1014A000401C2063E08E401EE0860DE01FE0FFF749
:1014B000D3FAA0EB0901414503D3B8F1FF3F03D0B4
:1014C000DFE7B8F1000FDCD0E08E0028E0D14A461B
:1014D0004146204600F0C6FC08B120206065A068A7
:1014E00018B92068C16880680090606D08B1012655
:1014F00001E084F8517084F850B0304661E710B5CF
:10150000401EB0F1807F01D3012010BD4FF0E024D8
:1015100060610F21601700F045FF0020A0610720E7
:101520002061002010BD70477047000070B590F832
:101530003C20012A32D0012480F83C40022280F86D
:101540003D2003685A689D6822F070060A6832439D
:101550005A60134B02689A4214D0B2F1804F11D0F6
:10156000104B9A420ED0104B9A420BD00F4B9A421E
:1015700008D00F4B9A4205D00E4B9A4202D00E4B28
:101580009A4204D1496825F080031943916080F89C
:101590003D40002180F83C10084670BD022070BD1F
:1015A000000001400004004000080040000C004022
:1015B00000040140004001400018004010B5040044
:1015C00003D094F83D0010B107E0012010BD0020C9
:1015D00084F83C00204600F01FF8022084F83D000B
:1015E000211D206800F07AFD012084F8460084F86F
:1015F0003E0084F83F0084F8400084F8410084F8FD
:10160000420084F8430084F8440084F8450084F8DC
:101610003D00002010BD000010B586B00446142126
:101620006846FEF77EFF1F4B226800211E489A4243
:1016300007D1016841F001010160006800F001007C
:101640002DE01A4B9A4220D11748001F026842F041
:1016500002020260006800F002000590124814388F
:10166000026842F004020260006800F00400059085
:10167000581500900220CDE90101CDE9031069461B
:101680000B48FFF7C9F806B010BD0A498A42FAD1E3
:10169000016841F002010160006800F0020005905D
:1016A000F1E700000000014044380240000400401F
:1016B000000802400004014090F83D10012901D0CB
:1016C00001207047022180F83D100168CA6842F08D
:1016D0000102CA6000681149884214D0B0F1804FFD
:1016E00011D00F4988420ED00E4988420BD00E49C6
:1016F000884208D00D49884205D00D49884202D061
:101700000C49884204D1816801F00701062903D001
:10171000016841F0010101600020704700000140B4
:101720000004004000080040000C0040000401409C
:10173000004001400018004070B5044690F83C009D
:101740000025012817D0012684F83C60022084F887
:101750003D002068826822F0770222F47F42826096
:101760000868502838D00DDC20284FD005DC90B315
:10177000102811D14AE0022070BD302846D0402800
:101780000AD13BE060282FD070280DD0B0F5805FE3
:1017900003D0B0F5005F12D0012584F83D60002031
:1017A00084F83C00284670BDCB68D1E9012120684F
:1017B00000F000FD2068816841F0770109E0CB6806
:1017C000D1E90121206800F0F5FC2068816841F42E
:1017D00080418160E1E719E0CA684968206800F04B
:1017E000FBFC5021206806E0CA684968206800F0C8
:1017F00004FD6021206800F0E7FCCEE7CA68496874
:10180000206800F0E9FC40212068F4E722680146E6
:101810001046F0E770472DE9F04104460068C668BD
:1018200005694FF00007A90713D5B10711D5F91EB7
:10183000016101202077206880698007204602D05E
:10184000FFF7E8FF04E000F07EF8204600F07CF8A7
:101850002777680716D5700714D521686FF0040044
:101860000861022020772068806910F4407F2046BC
:1018700002D0FFF7CFFF04E000F065F8204600F04B
:1018800063F82777280715D5300713D521686FF03F
:1018900008000861042020772068C069800720467E
:1018A00002D0FFF7B7FF04E000F04DF8204600F04B
:1018B0004BF82777E80616D5F00614D521686FF0A7
:1018C00010000861082020772068C06910F4407F6C
:1018D000204602D0FFF79EFF04E000F034F82046D7
:1018E00000F032F82777E80708D0F00706D0216823
:1018F0006FF001000861204600F028F8280608D59E
:10190000300606D521686FF0800008612046FFF799
:101910000AFE680608D5700606D521686FF04000FB
:101920000861204600F048F8A8060AD5B00608D598
:1019300021686FF0200008612046BDE8F041FFF704
:10194000F3BDBDE8F081704770470000174910B53E
:10195000884229D101F19000154B026815499A423D
:1019600002D2521C026006E00022026042600A7845
:10197000521C0A7002686423B2FBF3F403FB1422C6
:1019800012B94268521C426040684FF47A72B0FB50
:10199000F2F302FB1302002A06D1064A536898426A
:1019A00002D001234B70506010BD00009400002055
:1019B000002A751500000020704770B5040004D09F
:1019C00094F84100002510B106E0012070BD84F8B4
:1019D0004050204600F024F8242084F8410020687C
:1019E000C16821F40051C160204600F019FC206854
:1019F000016921F4904101612068416921F02A01C7
:101A000041612068C16841F40051C16065642020D3
:101A100084F8410084F842006563002070BD000036
:101A20002DE9F04F87B0044614216846FEF779FD92
:101A30005848574B2268002456491038022503267F
:101A4000DFF854B14FF4406C4FF008099A4213D1BB
:101A50000A6842F400220A60096801F40021059135
:101A6000016841F0040101600068694600F004006B
:101A7000CDE9049058466AE0464BDFF820811B1DF3
:101A80000727DFF81CA142451BD1196841F010015E
:101A90001960196801F010010591016841F0010118
:101AA00001600068694600F0010005904FF4C060D5
:101AB000CDE9000550462FE0FEF7AEFE07B0BDE8C9
:101AC000F08FDFF8E08042452AD10A6842F4003204
:101AD0000A60096801F400310591016841F00101D3
:101AE0000160016801F001010591016841F0080100
:101AF0000160006802AA00F0080005900420CDE90A
:101B0000000582E8D00069465046FEF785FE402079
:101B1000CDE900052448694602AA82E8D000CBE757
:101B2000DFF88880424517D10A6842F480220A60B3
:101B3000096801F480210591016841F0020101600A
:101B40000068694600F00200CDE904701848CDE94C
:101B500000C5CDE90246AFE716498A42AED1196801
:101B600041F020011960196801F020010591016818
:101B700041F004010160006802AA00F00400059031
:101B8000C020CDE9000582E850026946584693E737
:101B9000004C004040380240000802400010014064
:101BA0000000024000440040000C02400048004099
:101BB0000004024000140140FEE710B500F048FCAC
:101BC000BDE8104000F05CBC00F010BC2DE9F04F07
:101BD00087B014216846FEF7A4FC6D480024016814
:101BE00041F010010160016801F0100105910168E8
:101BF00041F480710160016801F480710591016810
:101C000041F020010160016801F0200105910168A7
:101C100041F080010160016801F0800105910168D7
:101C200041F004010160016801F0040105910168BF
:101C300041F001010160016801F0010105910168B5
:101C400041F002010160016801F0020105910168A3
:101C500041F008010160016801F008010591016887
:101C600041F0400101600068DFF8289100F0400079
:101C70000590002218214846FEF7E8FEDFF818A17B
:101C8000002240215046FEF7E1FE00220221434897
:101C9000FEF7DCFE48F21206012231464048FEF70C
:101CA000D5FE012204213F48FEF7D0FEDFF8F8B050
:101CB00041F20307002239465846FEF7C7FE0022CC
:101CC0007A213A48FEF7C2FE4FF48068002241466E
:101CD0003748FEF7BBFE182000900125CDE90154DE
:101CE000694648460394FEF797FD40F60400CDE9A7
:101CF000000469462D480294FEF78EFD40200090B6
:101D0000CDE90154694650460394FEF785FD022053
:101D10000090CDE90154694620480394FEF77CFD0C
:101D20000096CDE9015469461D480394FEF774FD01
:101D300004200090CDE9015469461A480394FEF747
:101D40006BFD0097CDE90154694658460394FEF7B0
:101D500063FD280200900320CDE9010469460F4885
:101D6000FEF75AFD7A200090CDE9015469460F48EC
:101D70000394FEF751FDCDF80080CDE9015469468A
:101D80000B480394FEF748FD07B0BDE8F08F000054
:101D900030380240001002400014024000080240A7
:101DA00000000240001C02400004024000200240EB
:101DB000001802400F4810B50D4901604FF48271C0
:101DC0004160002102228160C0E9031201224261C8
:101DD0005202C0E906210162416281620A21C162A8
:101DE000FFF7B4F9002801D072B6FEE710BD00007D
:101DF000003C00403C00002010B586B0002416488E
:101E0000009401940294039404941249059401608F
:101E10005921C0E901140921C0E903148461FFF7C5
:101E2000CDFB08B172B6FEE74FF4805000906946D2
:101E30000948FFF781FC08B172B6FEE7049404A9D3
:101E400005480594FFF772FB002801D072B6FEE743
:101E500006B010BD0004004094000020FEE7FEE73D
:101E600070470000F8B515460E460B460092044632
:101E70000122022100F02CF8A0B913481349006890
:101E8000B0FBF1F04FF47A71484300906068B0F510
:101E9000827F0DD13346002280212046009500F03C
:101EA00017F870B1606D40F0200060650320F8BD48
:101EB000009830B1401E009020688068C043000642
:101EC000F6D50020F8BD00001400002000366E0199
:101ED0002DE9F8431E46914688460446089DFEF7C4
:101EE000BBFD401B351AFEF7B7FD074625480068C5
:101EF000C0F3CB30684338E0701C37D0FEF7ACFD40
:101F0000C01BA84203D215B1009860B32CE0206832
:101F1000416821F0E00141606068B0F5827F0BD13B
:101F2000A068B0F5004F02D0B0F5806F04D12068F2
:101F3000016821F040010160A06AB0F5005F09D19D
:101F40002068016821F4005101602068016841F4B3
:101F500000510160012084F85100002084F85000F5
:101F60000320BDE8F8830025401E009020688168AA
:101F700038EA010004D000214945BDD10020F0E736
:101F80000121F9E7140000207047FEF76BBD000047
:101F900030B593B030216846FEF7C3FA14210CA87F
:101FA000FEF7BFFA20480025016841F0805101602A
:101FB000006800F0805011901C48016821F44041F5
:101FC00041F4804101600068022400F44040119017
:101FD00001200090000401908001CDE90640192005
:101FE00008904FF4B470CDE9090404200B906846C2
:101FF000FEF7F6FE08B172B6FEE7FEF7CDFD08B1BA
:1020000072B6FEE70F20CDE90C0480200E9040014F
:10201000CDE90F0502210CA8FEF7F6FD002801D03E
:1020200072B6FEE713B030BD403802400070004089
:102030000248016841F470010160704788ED00E0DA
:102040000148FFF7E8BB00009400002030B5204CA9
:1020500020684FF0000283B21E4801780D0635D487
:10206000DD0706D04D0604D5CD43AD0613D0491C7F
:10207000017099072AD5037817495D0612D543F0F8
:1020800080030370144B14331B684360086820F00E
:10209000020008601AE041F0800101704FF0FF314A
:1020A0004160E6E740234260037009481038036846
:1020B00023F001030360084B1B1D1A600B6843F0FB
:1020C00002030B60016841F001010160226030BD34
:1020D000100C00402C000020200C0040F0B50268DD
:1020E000294C2A4D2A4E2B4F2B4B4FF0804CA042AF
:1020F00009D0604507D0A84205D0B04203D0B8420D
:1021000001D0984204D122F0700E4A6842EA0E02D1
:10211000A0421BD0604519D0A84217D0B04215D0BC
:10212000B84213D0984211D01C4DA8420ED01C4D7D
:10213000A8420BD01B4DA84208D01B4DA84205D089
:102140001A4DA84202D01A4DA84203D122F440757C
:10215000CA682A434D6922F080022A4302608A68D5
:10216000C2620A688262A04201D0984201D1096924
:102170000163012141610169C90703D0016921F0AF
:1021800001010161F0BD00000000014000040040B9
:1021900000080040000C00400004014000400140E5
:1021A000004401400048014000180040001C00406D
:1021B0000020004010B5846842EA032224F47F44E2
:1021C0000A432243826010BD826822F070020A43F3
:1021D00042F007018160704710B5036A046A24F079
:1021E00001040462846924F0F00444EA021423F038
:1021F0000A020A438461026210BD10B5036A046AD0
:1022000024F010040462846923F0A00324F47044D1
:1022100044EA023243EA01118261016210BD00000A
:1022200070B5044600680169E26821F44051114329
:1022300001612169A068E2690843616911430843AB
:102240002168CA6849F20C639A430243CA60206855
:102250004169A26921F4407111434161314920680B
:10226000884202D03049884202D1FEF777FD01E072
:10227000FEF764FDE2690023192164253226B2F5D8
:10228000004F626828D0A0FB0101930F9200FEF777
:1022900002F80146B0FBF5F06FF01802504301EB75
:1022A000800006EB0010B0FBF5F000F0F002B1FB8F
:1022B000F5F002EB0012B1FBF5F06FF01803584394
:1022C00001EB800006EB0010B0FBF5F000F00F0012
:1022D00021681044886070BDA0FB010192185B4129
:1022E000FDF7D9FF0146B0FBF5F00201B1FBF5F0B7
:1022F0006FF01803584301EB800006EBC000B0FB01
:10230000F5F000F0F80002EB4002B1FBF5F05843A5
:1023100001EB800006EBC000B0FBF5F000F0070019
:10232000D6E7000000100140001401400B4810B532
:102330000068800610D50A48012100224170074933
:102340008270091D0B68074C01786354491CC9B29F
:102350000170352900D3027010BD00000044004018
:102360001800002060010020FEE700000A480B4929
:10237000007800F07F0008600849002008310860FC
:102380000748D0F8801221B15FF00001C0F8801238
:1023900070470121FAE7000034000020002C0040C3
:1023A000008040420907090E002804DB00F1E0200C
:1023B00080F80014704700F00F0000F1E02080F872
:1023C000141D704730380A2801D2012070470020C0
:1023D0007047704704490A685206FCD5024AC1B2E8
:1023E000121D116070470000004C00402DE9F041C3
:1023F000804600218723F022084600F067F9114F3C
:102400004FF40046002231463846FEF71FFB0122FA
:1024100002210D48FEF71AFB0025002441460B4817
:1024200000F08AF9641CA4B2872CF7D36D1CADB2FE
:10243000F02DF2D331463846BDE8F0410122FEF7D7
:1024400005BB000000000240000802403C000020E4
:1024500010B50A4C002204212046FEF7F7FA4FF48B
:102460007A70FEF7C7F9012204212046FEF7EEFA42
:10247000BDE810406420FEF7BDB90000001C02401A
:1024800010B54FF47A70FEF7B5F91121894800F0C4
:1024900097F97820FEF7AEF93A21864800F090F9D6
:1024A0000521844800F06CF9C521824800F088F9C4
:1024B0001A21804800F064F936217E4800F080F946
:1024C00000217C4800F05CF9B2217A4800F078F9EC
:1024D0000521784800F054F90521764800F050F9BC
:1024E0000021744800F04CF93321724800F048F99B
:1024F0003321704800F044F9B7216E4800F060F9CC
:1025000005216C4800F03CF9BB216A4800F058F9FD
:102510003F21684800F034F9C021664800F050F9C6
:102520002C21644800F02CF9C221624800F048F9DF
:102530000121604800F024F9C3215E4800F040F911
:102540000F215C4800F01CF9C4215A4800F038F90A
:102550002021584800F014F9C621564800F030F9FF
:102560000121544800F00CF9D021524800F028F91C
:10257000A421504800F004F9A1214E4800F000F9D0
:10258000E8214C4800F01CF903214A4800F0F8F813
:10259000E921484800F014F90921464800F0F0F814
:1025A0000921444800F0ECF80821424800F0E8F81E
:1025B000E021404800F004F9D0213E4800F0E0F866
:1025C00005213C4800F0DCF809213A4800F0D8F831
:1025D0000921384800F0D4F80821364800F0D0F836
:1025E0001421344800F0CCF82821324800F0C8F813
:1025F0003321304800F0C4F83F212E4800F0C0F8E5
:1026000007212C4800F0BCF813212A4800F0B8F844
:102610001421284800F0B4F82821264800F0B0F82A
:102620003021244800F0ACF8E121224800F0C8F83D
:10263000D021204800F0A4F805211E4800F0A0F8A1
:1026400009211C4800F09CF809211A4800F098F86C
:102650000821184800F094F80321164800F090F87B
:102660002421144800F08CF83221124800F088F838
:102670003221104800F084F83B210E4800F080F829
:1026800014210C4800F07CF813210A4800F078F877
:102690002821084800F074F82F21064800F070F84F
:1026A0002121044800F08CF8BDE8104029210148A0
:1026B00000F086B83C00002008B532238DF80010E9
:1026C00001226946FEF764FE08BD00002DE9F041D5
:1026D0000E4607461C4615462A21164800F070F89B
:1026E000390A144800F04CF8F9B2124800F048F8E2
:1026F000290A104800F044F8E9B20E4800F040F80A
:102700002B210C4800F05CF8310A0A4800F038F838
:10271000F1B2084800F034F8210A064800F030F819
:10272000E1B2044800F02CF8BDE8F0412C2101484A
:1027300000F046B83C0000202DE9F0410E4E0C465A
:1027400007464FF40045002229463046FEF77EF941
:10275000012202210948FEF779F9210A3846FFF7DC
:10276000ABFF21463846FFF7A7FF29463046BDE8B4
:10277000F0410122FEF76AB9000002400008024061
:102780002DE9F0410C4D0E4607464FF4004400225F
:1027900021462846FEF75AF9012202210748FEF792
:1027A00055F931463846FFF787FF21462846BDE8F0
:1027B000F0410122FEF74AB9000002400008024041
:1027C0002DE9F0410C4D0E4607464FF4004400221F
:1027D00021462846FEF73AF9002202210748FEF773
:1027E00035F931463846FFF767FF21462846BDE8F0
:1027F000F0410122FEF72AB9000002400008024021
:10280000FEF738F9FFF7C4FBFFF7E0F9FFF7D2FA5C
:10281000FFF7F2FA1F481E49002401601E49C0E973
:1028200001140C21C460C0E904418461C461FFF754
:10283000C4F808B172B6FEE7002201211D20FEF7A0
:1028400079F91D20FEF768F912484838FEF734FF81
:10285000FFF7B3F94FF478463046FFF7B5F90D4F5F
:102860000E4D48374FF4FC684FF4FA796878012828
:1028700004D10BA07968FDF785FD6C704046FFF729
:10288000A3F94846FDF7B6FF3046FFF79DF9EDE79F
:10289000004C0040DC00002020A1070000000020C8
:1028A0002564206D732048656172744265617420EF
:1028B0004D7367200A0D00004FF04070E1EE100AE2
:1028C000704700000000000000000102030406073A
:1028D000080900000000010203040000FC280008B1
:1028E000000000203C000000E80100083829000832
:1028F0003C000020FC07000004020008000000006B
:1029000000000000010000001000000000000000B6
:102910000024F4000000000000000000000000009F
:1029200000000000000000000000000000000000A7
:082930007F0000000000000020
:04000005080001AD41
:00000001FF
