:020000040800F2
:1000000060460020A1020008BD470008D73D000857
:10001000B947000855090008015800080000000011
:10002000000000000000000000000000114F000868
:100030002F0E00080000000095490008D74F000867
:1000400005580008BB020008BB020008BB020008FC
:10005000BB020008BB020008690E0008BB020008D2
:10006000E90E00081D0F0008BB020008BB020008D3
:10007000BB020008BB020008BB020008BB0200086C
:10008000BB020008BB020008BB020008BB0200085C
:1000900059090008BB020008BB020008BB020008A7
:1000A000BB020008BB020008BB020008BB0200083C
:1000B000BB020008B5500008C5500008BB0200088C
:1000C000BB020008BB020008BB020008BB0200081C
:1000D000BB020008BB020008BB020008BB0200080C
:1000E000B50E0008BB020008BB020008BB020008F6
:1000F000BB020008BB020008BB020008BB020008EC
:10010000BB020008BB020008BB020008BB020008DB
:10011000BB020008BB020008BB020008BB020008CB
:10012000BB020008BB020008BB020008BB020008BB
:10013000BB020008BB020008BB020008BB020008AB
:1001400069090008BB020008BB020008BB020008E6
:10015000BB020008BB020008BB020008F157000800
:10016000BB020008BB020008BB020008BB0200087B
:10017000BB020008BB020008BB0200080000000030
:10018000BB020008BB020008BB020008BB0200085B
:10019000BB020008BB020008BB020008BB0200084B
:1001A000BB020008BB020008BB02000800F002F816
:1001B00000F067F80AA090E8000C82448344AAF19A
:1001C0000107DA4501D100F05CF8AFF2090EBAE898
:1001D0000F0013F0010F18BFFB1A43F0010318477B
:1001E0003CB800005CB800000A444FF0000C10F866
:1001F000013B13F0070408BF10F8014B1D1108BFA5
:1002000010F8015B641E05D010F8016B641E01F844
:10021000016BF9D113F0080F1EBF10F8014BAD1C94
:100220000C1B09D16D1E58BF01F801CBFAD505E0B2
:1002300014F8016B01F8016B6D1EF9D59142D6D30C
:10024000704700000023002400250026103A28BF34
:1002500078C1FBD8520728BF30C148BF0B60704738
:10026000642900F0EB80782900F02481732900F0E4
:100270000D83002070471FB50AF062FF1FBD10B547
:1002800010BD00F039FB1146FFF7F5FF06F08CFDBD
:1002900000F057FB03B4FFF7F2FF03BC05F0BCFD11
:1002A0000948804709480047FEE7FEE7FEE7FEE70A
:1002B000FEE7FEE7FEE7FEE7FEE7FEE70448054946
:1002C000054A064B70470000A1500008AD01000828
:1002D0006040002060460020604200206042002014
:1002E000704753EA020C00F069802DE9F04B4FF0A3
:1002F0000006002B1FBFB3FA83F503FA05F424FAB6
:1003000005F65E4012BF1643B2FA82F502FA05F412
:10031000C5F120051EBF22FA05FC44EA0C04203575
:1003200056EA044C4FEA144418BF641C4FF000080E
:100330004FF00009904271EB030C39D3002919BF2B
:10034000B1FA81F701FA07F6B0FA80F700FA07F67A
:10035000C7F120071EBF20FA07FC46EA0C0620372B
:10036000B6FBF4FCA7EB0507103F07F01F0BCBF122
:1003700020060CFA0BFB2CFA06F644BFB346002607
:10038000202FA4BF5E464FF0000B5BEA060C08BFAF
:100390004FF0010B19EB0B09ABFB027C48EB060895
:1003A000C01B06FB02CC0BFB03CC71EB0C01C1E7BD
:1003B0000B46024641464846BDE8F08B13B54FF068
:1003C00000004FF00001AFF30080BDE81C40704713
:1003D0000FB4044910B503AA029800F05BFA10BCF0
:1003E0005DF814FB3800002070B50C460546012A64
:1003F00005D02878800600D5EA69002302E00123B1
:1004000005E05B1C934202D2E05C0028F9D1A869A8
:10041000E618C01AA861286A184428622846AFF373
:10042000008004E0D5E9012114F8010B9047B442A3
:10043000F8D32846AFF3008070BD00002DE9F041ED
:100440000646002410687529314616A510D0AFF372
:100450000080002802DA404213A507E031688A07CD
:1004600001D512A502E0490704D511A5012401E038
:10047000AFF3008000210A2206F1240709E0B0FB57
:10048000F2FCB0FBF2F302FB1C003030785418464B
:10049000491C0028F3D123462A463046BDE8F041E6
:1004A00000F089B9000000002D0000002B000000C2
:1004B0002000000070B504460D4621461068AFF3D9
:1004C00000802188090502D50F4A7A4402E00E4ACD
:1004D0007A440E32002104F1240305E000F00F06F7
:1004E0000009965D5E54491C0028F7D1207800234E
:1004F000000704D5702D02D009B102231132204625
:10050000BDE8704000F057B934B000002DE9F04765
:100510004FF0000A89460446C0F820A02046E16852
:100520008847002876D0252806D0D4E901219047B5
:10053000206A401C2062F1E7E168204600258847D8
:10054000C4F81CA006460027C4F818A02A2E09D01B
:10055000304605F039FA38B304EB8708303EC8F866
:10056000186019E059F8041B204604EB87029161DA
:10057000E1688847012F064618D1E069002820DA93
:1005800025F020051DE0D8F8180000EB800006EBF0
:1005900040003038C8F818002046E1688847064611
:1005A00005F012FA0028EED1012F0AD02E2E08D124
:1005B0002046E16888477F1C0646022F45F020054B
:1005C000C4DBA069002803DA404245F00105A061C0
:1005D000E80701D025F01005B6B1A6F141001928B1
:1005E00002D8203645F400654A463146204625604B
:1005F0004D46FFF735FE58B1012806D0ED1D25F018
:10060000070000F1080989E704E005F1040985E71E
:1006100030468AE7206ABDE8F08740EA010310B55A
:100620009B070FD1042A0DD310C808C9121F9C4282
:10063000F8D020BA19BA884201D9012010BD4FF074
:10064000FF3010BD1AB1D30703D0521C07E00020C1
:1006500010BD10F8013B11F8014B1B1B07D110F81E
:10066000013B11F8014B1B1B01D1921EF1D1184621
:1006700010BD032A40F2308010F0030C00F015800A
:1006800011F8013BBCF1020F624498BF11F801CB95
:1006900000F8013B38BF11F8013BA2F1040298BFFA
:1006A00000F801CB38BF00F8013B11F0030300F064
:1006B0002580083AC0F0088051F8043B083A51F808
:1006C00004CBA0E80810F5E7121D5CBF51F8043B0D
:1006D00040F8043BAFF30080D20724BF11F8013B80
:1006E00011F801CB48BF11F8012B24BF00F8013BE2
:1006F00000F801CB48BF00F8012B704710B5203A35
:10070000C0F00B80B1E81850203AA0E81850B1E8CA
:100710001850A0E81850BFF4F5AF5FEA027C24BF80
:10072000B1E81850A0E8185044BF18C918C0BDE877
:1007300010405FEA827C24BF51F8043B40F8043B40
:1007400008BF7047D20728BF31F8023B48BF11F8F5
:10075000012B28BF20F8023B48BF00F8012B70474F
:100760004FF0000200B5134694469646203922BF4A
:10077000A0E80C50A0E80C50B1F12001BFF4F7AF95
:10078000090728BFA0E80C5048BF0CC05DF804EB77
:10079000890028BF40F8042B08BF704748BF20F8E5
:1007A000022B11F0804F18BF00F8012B70477047E3
:1007B0007047704770472DE9F0470D4699469246BD
:1007C000044600F124080168880604D5E06921F098
:1007D0001001216000E00120A84201DD471B00E07C
:1007E0000027A1697A1902EB0900081AA061207894
:1007F000C00602D42046AFF30080002608E0D4E90A
:1008000001211AF806009047206A401C761C2062DD
:100810004E45F4DB2078C0060AD52046AFF30080B1
:1008200006E0D4E9012130209047206A401C206274
:10083000381EA7F10107F4DC07E0D4E9012118F81C
:1008400005009047206A401C2062281EA5F1010582
:10085000F3DC2046AFF300802078000602D50220AA
:10086000BDE8F0870120FBE710B5436913B1AFF392
:10087000008001E0FFF7B8FD012010BD127800F103
:1008800024010A7000224A700122EDE711684FF03E
:10089000FF32E9E7074B70B50D467B4400F015F8D1
:1008A0000446284600F024F810B14FF0FF3070BD28
:1008B000204670BD1760000000487047FC3F0020D4
:1008C00001694A1C02610878704700B58FB0CDE914
:1008D00001310021059105497944CDE90310114604
:1008E0006846FFF713FE0FB000BD0000E5FFFFFFF5
:1008F000007B00F0800070477546FFF7DDFFAE46D5
:1009000005006946534620F00700854618B020B51B
:10091000FFF7D4FCBDE820404FF000064FF0000781
:100920004FF000084FF0000B21F00701AC46ACE897
:10093000C009ACE8C009ACE8C009ACE8C0098D4604
:10094000704710B50446AFF300802046BDE8104064
:10095000FFF7A0BC00BFFEE710B5024800F03BFE69
:1009600010BD00009836002010B5024800F033FE9C
:1009700010BD0000C03600202DE9F04F2DED068B94
:1009800087B082460D4600200690059003900490A3
:10099000002481468346002602900027804601906D
:1009A000A94806784FF6FF7000EA0626A648407868
:1009B0000643082D7ED2DFE805F07D04277D5A9896
:1009C000CDFCA148047924024079044320B2B0F55B
:1009D0007A7F13DC20B210F57A7F0FDB9B4804602E
:1009E00000219B4809F054FC20B2009099484268CD
:1009F000816833469848FFF7EBFC04E0954841686E
:100A000096A0FFF7E5FC18E18F484479240280792D
:100A1000044320B2B0F57A7F28DC20B210F57A7F4B
:100A200024DB20460AF08DF941EC1A0B9FED940B64
:100A300053EC102B0AF09CF941EC190B9FED920B33
:100A400053EC102B0AF0A8F841EC180B0AF04CF903
:100A500081461FFA89F20021032001F01BF97D482D
:100A60004268816823B28AA0FFF7B2FCE5E07648CD
:100A70008078784988600846806800028860084667
:100A800080687149C978084372498860084680685F
:100A900000028860084680686B49097908436D49FF
:100AA00088600846806888606748016803914068EC
:100AB000049000E0C0E09DF8040020F03E00083003
:100AC0008DF804009DF8040020F001008DF804006A
:100AD000BDF8040020F4F860ADF80400042203A976
:100AE0005046019B00F081FCA7E057480168039144
:100AF0004068049072484068000C8DF811007048FE
:100B00008088000A8DF812006D4800798DF8130076
:100B10009DF8040020F03E000A308DF804009DF896
:100B2000040020F001008DF80400BDF8040020F45A
:100B3000F860ADF80400082203A95046019B00F0BC
:100B400054FC5F4843684348426881685DA0FFF7F2
:100B50003FFC72E03C4890F805804FEA0828807915
:100B600040EA0808BDF80410C1F38410414605F0BE
:100B700083F95F480078072835D15E4805F0B8F959
:100B8000074600205A4908705B48007801282AD19E
:100B900000208DF80E008DF80F008DF81000380C35
:100BA0008DF81100380A8DF81200F8B28DF8130094
:100BB00000E019E09DF8040020F03E000C308DF8B4
:100BC00004009DF8040020F001008DF80400BDF839
:100BD000040020F4F860ADF80400082203A9504690
:100BE000019B00F002FC28E01748007801280DD195
:100BF000424803F0B7FE01204149C87041480068EF
:100C000045F2780108443F49086009E00E48007841
:100C1000022802D13A49C87002E000203849C87061
:100C20003848006800900B4842688168364803687D
:100C30003648FFF7CDFB00E000BF00BF07B0BDECBA
:100C4000068BBDE8F08F0000240000205C0500202A
:100C50005C340020B03C00208CB500084341533A7E
:100C600020202564206D7320537065656447697684
:100C7000656E204F766572466C6F77200A0D2100F5
:100C8000F2D24D6210D82540000000008006E040FE
:100C90005554433A202564206D73204341533A2034
:100CA00025642C20757064617465205370656564DB
:100CB000203A25642072706D2C20740A0D0000000B
:100CC000CC3C00205554433A2564206D73204341A9
:100CD000533A202564206D732043414E31204375E3
:100CE00072506F7369206973202564200A0D00001B
:100CF000480000204C000020FC3C0020783C0020F4
:100D0000BC3C0020400000203C0000202CB5000826
:100D100070B504460D46D4F89C0050F82500C0F389
:100D200007464FF0FF30D4F8A01021F8150001213C
:100D300004F1B000815531462046D4F8AC209047EC
:100D400070BD2DE9FF4FDDE90D456CE0A5EB020A12
:100D50004FFA8AF3002B04DD91F800A00AFA03FA97
:100D600005E091F800A0C3F1000B4AFA0BFA0AF073
:100D7000FF0C002B02DDC5F1080A01E0C2F1080AF0
:100D80000AF0FF08804501DD824600E0C246564673
:100D900005EB060B4FF0FF0A0AFA0BFAC5F1080E35
:100DA0004FF0FF0B4BFA0EFB4AEA0B0A0AF0FF0763
:100DB0002CEA070994F800A00AEA070A84F800A0C0
:100DC00094F800A04AEA090A84F800A002EB060A97
:100DD0000AF0FF0A5246BAF1070F0BDD0022DDF8D8
:100DE0000CA0BAF1000F02D04FF0FF3A01E04FF033
:100DF000010A514405EB060A0AF0FF0A5546BAF10A
:100E0000070F0BDD0025DDF83CA0BAF1000F02D082
:100E10004FF0FF3A01E04FF0010A5444A0EB060AFC
:100E20000AF0FF0000BF002890DCBDE8FF8F70478C
:100E30000146481C80B10A48B0F90000814205D142
:100E400007480088401E00B2054A1080002001EBD0
:100E50004102044B03F832004FF0FF3070470000AE
:100E600060000020543D002010B50A2000F0B0FFC3
:100E70000C480068012811D10B48006808B901200E
:100E800000E00020084908600848D0F8800208B94E
:100E9000012000E000200449091D086001200449E8
:100EA000086010BD00024042808240420080404203
:100EB000143C014010B50A2000F08AFF0748006882
:100EC00038B90748006808B9012000E0002004494B
:100ED00008604FF400500349086010BD34024142DD
:100EE00084824042143C014010B50A2000F070FF9B
:100EF0000748006838B90748006808B9012000E0D1
:100F000000200449086004200349086010BD000067
:100F10000882434280824042143C014010B50A20BE
:100F200000F056FF0C48006888B90C48006808B902
:100F3000012000E00020094908600948D0F880023B
:100F400008B9012000E000200449091F08600820BA
:100F50000449086010BD00000C8243428482404274
:100F600000804042143C014072B600BFFEE70246DA
:100F70000868B0B9D1E901031843CB6818430B697D
:100F800018434B6918438B691843CB6918430B6AA4
:100F900018434B6A184313686FF30E03184310602D
:100FA00019E0D1E9070318434B6A1843136823F487
:100FB000F84318431060D1E901031843CB68184384
:100FC0000B6918434B6918438B69184353686FF3D7
:100FD0000E0318435060002070470246506943F6E4
:100FE000FE73984340EA41005061002070472DE9AC
:100FF000F04105460C4616460027D4E90001084397
:10100000A168491E40EA4110E16840EA412029698F
:101010006FF315010843286101F08EF807460AE0D6
:10102000701C40B126B101F087F8C01BB04202D954
:101030000320BDE8F081A86900F020002028EFD04F
:101040000020F6E730B50346FAB90868401E4C6840
:10105000641E40EA04148868401E44EA0024C868FC
:10106000401E44EA0034088A401E44EA0044888A4C
:10107000401E44EA0054087E401E44EA00609C681A
:1010800004F070442043986022E0C868401E0403C6
:10109000888A401E44EA00509C680E4D2C40204334
:1010A00098600868401E4C68641E40EA0414886812
:1010B000401E44EA0024088A401E44EA0044087E98
:1010C000401E44EA0060DC6804F070442043D860AD
:1010D000002030BDFF0F0FFF70B504460E46D4F858
:1010E0003801008860B3002527E004F1B000405DBE
:1010F0000F2820D020680078A8421CD004F5A070EA
:10110000405D00280BDCD4F8340120B1294620468C
:10111000D4F834219047012104F1B000415504F581
:10112000A070405D401EC1B204F5A0704155294633
:10113000204605F03FFE681CC5B2802DD5DB05E0DA
:10114000B4F93001FFF774FEA4F8300170BD10B59A
:10115000024692F82030012B01D0022B06D11068F4
:101160004069084314686061002010BD506A40F473
:10117000802050620120F8E7F0B504460D461E4677
:1011800094F8207020688368A86800B900E000BF68
:10119000012F01D0022F7DD103F0806030B903F020
:1011A000006018B903F0805000287ED0C3F30161BD
:1011B000012088403060A86860B9B5F800C0E868D0
:1011C00040EA4C5C206800F5C07000EB0110C0F8EC
:1011D00000C00FE0D5E901C040EACC00D5F80CC052
:1011E00040EA0C00D4F800C00CF5C07C0CEB011CEC
:1011F000CCF80000D5F810C0206800F5C07000EBF6
:101200000110C0F804C0287D01280ED1206800F527
:10121000C07000EB0110406840F4807C206800F54D
:10122000C07000EB0110C0F804C0D079000692F83D
:1012300006C040EA0C4092F805C040EA0C2092F843
:1012400004C040EA0C00D4F800C00CF5C07C0CEBE4
:10125000011CCCF80C00D078000692F802C040EADD
:101260000C4092F801C040EA0C2092F800C040EA1D
:101270000C00D4F800C00CF5C07C0CEB011CCCF8C1
:101280000800206800F5C07000EB0110006840F015
:10129000010C01E00FE008E0206800F5C07000EBF1
:1012A0000110C0F800C00020F0BD606A40F40010DA
:1012B00060620120F8E7606A40F4802060620120EB
:1012C000F2E70000F0B504460A46216894F8205081
:1012D000012D01D0022D7ED1424901F5007108682F
:1012E00040F001000860086820F47C50086008683D
:1012F000566A40EA06200860107D00F01F060120B3
:1013000000FA06F3C8699843C861A1F50071D06975
:10131000C8B9D1F80C029843C1F80C02908880B289
:10132000968940EA064601F51070576940F8376023
:10133000108880B2168940EA064601F51070576998
:1013400000EBC7004660D069012819D1D1F80C0222
:101350001843C1F80C02908880B2168840EA06460D
:1013600001F51070576940F83760908980B216898E
:1013700040EA064601F51070576900EBC700466069
:10138000906928B9D1F804029843C1F8040204E036
:10139000D1F804021843C1F80402106928B9D1F841
:1013A00014029843C1F8140204E0D1F8140218435F
:1013B000C1F81402106A012804D1D1F81C021843A4
:1013C000C1F81C02D1F8000220F00100C1F80002AF
:1013D0000020F0BDFFE7606A40F4802060620120D9
:1013E000F7E700000064004070472DE9F04188B045
:1013F00080460D4614461E46002007900027042014
:10140000039000200490019002968DF8180014E0DB
:10141000082C01D9082000E020460590EA1907AB06
:1014200001A94046FFF7A8FE18B1012008B0BDE8A9
:10143000F081059807440598241A002CE8D1002073
:10144000F4E770B5044694F82050012D01D0022D28
:101450007DD151B92068C06800F0030080B9606A8E
:1014600040F400106062012070BD2068006900F047
:10147000030028B9606A40F4001060620120F3E7BD
:10148000206800F5D87000EB0110006800F004003F
:101490009060906840B9206800F5D87000EB0110AA
:1014A0000068400D106007E0206800F5D87000EB80
:1014B00001100068C0085060206800F5D87000EB8B
:1014C0000110006800F00200D060206800F5D870BC
:1014D00000EB0110406800F00F00082802D308203C
:1014E000106108E0206800F5D87000EB011040683A
:1014F00000F00F001061206800F5D87000EB0110BB
:10150000406800F47F40000A9061206800F5D870C0
:1015100000EB01104068000C5061206800F5D870A5
:1015200000EB011080681870206800F5D87000EB9F
:101530000110806800F47F40000A5870206800F5B0
:10154000D87000EB0110806800F47F0000E03CE000
:10155000000C9870206800F5D87000EB01108068CE
:10156000000ED870206800F5D87000EB0110C0683C
:101570001871206800F5D87000EB0110C06800F405
:101580007F40000A5871206800F5D87000EB011008
:10159000C06800F47F00000C9871206800F5D870D6
:1015A00000EB0110C068000ED87131B92068C06826
:1015B00040F020002668F06005E02068006940F0F7
:1015C00020002668306100204EE7606A40F48020E9
:1015D0006062012048E72DE9F05F0446002520689D
:1015E00046692068D0F80490206887682068D0F8A1
:1015F0000CA02068D0F810B02068D0F8188006F051
:101600000100002855D007F00100C0B10120216879
:10161000886007F0020018B1204600F034FB0EE0AD
:1016200007F0040010B145F4006508E007F0080079
:1016300010B145F4805502E0204600F023FB07F48A
:101640008070C8B14FF480702168886007F4007022
:1016500018B1204600F019FB0EE007F4806010B1CD
:1016600045F4005508E007F4006010B145F48045EA
:1016700002E0204600F008FB07F48030C8B14FF4C8
:1016800080302168886007F4003018B1204600F0EF
:10169000FEFA0EE007F4802010B145F4004508E0A2
:1016A00007F4002010B145F4803502E0204600F038
:1016B000EDFA06F0080038B10AF0100020B145F448
:1016C000007510202168C86006F0040040B10AF0DF
:1016D000080028B108202168C860204600F0FEF903
:1016E00006F0020038B12068C06800F0030010B1B5
:1016F000204600F0F5F906F0400038B10BF010007C
:1017000020B145F4806510202168086106F02000B2
:1017100040B10BF0080028B108202168086120467C
:1017200000F07EFA06F0100038B12068006900F081
:10173000030010B1204600F074FA06F4003040B106
:1017400009F0100028B1102021684860204600F000
:1017500069FA06F4803040B109F0080028B1082089
:1017600021684860204600F093FA06F4004088B3F0
:1017700009F0040078B306F4807020B108F001008D
:1017800008B145F0010506F4007020B108F0020030
:1017900008B145F0020506F4806020B108F00400AD
:1017A00008B145F0040506F40060A0B108F070002F
:1017B00088B108F07000402817D006DC10280BD044
:1017C00020280CD0302819D10CE0502810D06028E7
:1017D00014D110E01DE019E045F008050FE045F0D8
:1017E00010050CE045F0200509E045F0400506E055
:1017F00045F0800503E045F4807500E000BF00BFC0
:101800002068806920F070002168886104202168C8
:1018100048602DB1606A284360622046FFF7E4FD0E
:10182000BDE8F09F70B504460CB9012070BD94F876
:10183000200010B9204600F0AFF82068006840F0A2
:1018400001002168086000F077FC05460DE000F01B
:1018500073FC401B0A2808D9606A40F400306062BB
:10186000052084F820000120E0E72068406800F0AF
:1018700001000028EBD02068006820F002002168F9
:10188000086000F059FC05460DE000F055FC401BD7
:101890000A2808D9606A40F400306062052084F8A4
:1018A00020000120C2E72068406800F00200002804
:1018B000EBD1207E012806D12068006840F080002E
:1018C0002168086005E02068006820F08000216839
:1018D0000860607E012806D12068006840F0400062
:1018E0002168086005E02068006820F04000216859
:1018F0000860A07E012806D12068006840F0200022
:101900002168086005E02068006820F02000216858
:101910000860E07E012806D12068006820F01000F1
:101920002168086005E02068006840F01000216828
:101930000860207F012806D12068006840F0080078
:101940002168086005E02068006820F00800216830
:101950000860607F012806D12068006840F004001C
:101960002168086005E02068006820F00400216814
:101970000860D4E90201084321690843616908430A
:101980006168491E08432168C86100206062012027
:1019900084F82000002049E710B586B004461421E1
:1019A00001A8FEF7DDFE4749206888423AD1464843
:1019B0000068401C444908600846006801280FD1AF
:1019C00000BF002000904148006840F000703F498F
:1019D00008600846006800F00070009000BF00BF7B
:1019E00000BF0020009039481038006840F0010026
:1019F0003649103908600846006800F00100009080
:101A000000BF00BF4FF4C0500190022002900020A0
:101A10000390032004900920059001A92C4800F0B0
:101A20007DFA4CE02B492068884248D100BF002055
:101A300000902648006840F080602449086008460D
:101A4000006800F08060009000BF00BF1E48006882
:101A5000401C1D4908600846006801280FD100BFDE
:101A6000002000901948006840F000701749086095
:101A70000846006800F00070009000BF00BF00BF83
:101A80000020009011481038006840F002000F4913
:101A9000103908600846006800F00200009000BF9E
:101AA00000BF6020019002200290002003900320DC
:101AB00004900920059001A9074800F02FFA06B00C
:101AC00010BD0000006400400000002040380240CB
:101AD000000002400068004000040240704700001F
:101AE00030B58DB0054600200190029000243248A8
:101AF000854230D101AB06AA00212846FFF7A1FCA0
:101B00002E490798086008460088C0F384102C49C5
:101B1000097888421BD12948007800F00100B0B153
:101B200000BF05E001A8005D26490855601CC4B24D
:101B3000082CF7DB21480078C0F3440222484168B2
:101B400022A0FEF745FC01202A49087131E000205F
:101B5000284908712DE02848854225D101AB06AA05
:101B600000212846FFF76DFC069880B2ADF80C0006
:101B7000099818B900208DF80E0002E001208DF8B8
:101B80000E000A98C0B28DF80F0001A904A80A9AA5
:101B9000FEF7B4FD03A9194804F0C4FA1848006818
:101BA000401C1749086004E00748416815A0FEF78B
:101BB0000FFC0DB030BD0000983600201C00002046
:101BC000FC3C002024000020B03C00202564206D57
:101BD00073204341533A2072656376204E65772027
:101BE0004672616D652054797065206973202564A3
:101BF0000A0D0000BC3C0020C03600205C340020F0
:101C00005800002025642072656376206572726F2B
:101C1000722063616E206672616D65200A0D00009E
:101C200070477047704770B5044694F8200001284B
:101C300022D1022084F820002068006820F00100F2
:101C40002168086000F078FA05460DE000F074FAAB
:101C5000401B0A2808D9606A40F400306062052001
:101C600084F82000012070BD2068406800F0010069
:101C70000028EBD16062F6E7606A40F40020606201
:101C80000120F0E770477047704770477047704712
:101C9000704700002DE9F84306460F461446002021
:101CA00000900025804647EAC600C0B28DF80000CB
:101CB000200A8DF80100E0B28DF802000022102108
:101CC0000C4800F033FA00BF09E00DEB05013223A8
:101CD0000122094801F0FAF88046681CC5B2032DBC
:101CE000F3DB01221021034800F020FA4046BDE852
:101CF000F8830000000002403C37002070B5044625
:101D0000A56D00F019FA064694F83500022808D0AF
:101D10008020606500BF002084F8340000BF0120EF
:101D200070BD2068006820F01600216808602068F7
:101D3000406920F0800021684861206C08B9A06CDF
:101D400028B12068006820F0080021680860206839
:101D5000006820F001002168086010E000F0ECF954
:101D6000801B05280BD920206065032084F83500EE
:101D700000BF002084F8340000BF0320D0E72068B3
:101D8000006800F001000028E8D194F85C103F20C2
:101D90008840A860012084F8350000BF002084F846
:101DA000340000BF00BFBBE7014691F835000228B0
:101DB00003D08020486501207047052081F8350058
:101DC0000868006820F001000A6810600020F3E74E
:101DD00070B5044600F0B0F906462546681C10B1FF
:101DE00004480078054400BF00F0A6F9801BA84213
:101DF000FAD370BD1400002070B5044600F084FBD7
:101E00000949B0FBF1F5284601F03EF9601EFFF7E5
:101E1000DFFF00F079FB4FF47A71B0FBF1F5284653
:101E200001F032F970BD000040420F0000B587B0EC
:101E3000142102A8FEF794FC3148006808B107B0ED
:101E400000BD01202E49086000BF002001902D48F0
:101E5000006840F001002B4908600846006800F067
:101E60000100019000BF00BF4FF63F00029002202A
:101E7000039000200490032005900C20069002A9F6
:101E8000214800F04BF80D20029002200390012021
:101E90000490032005900C20069002A91B4800F036
:101EA0003DF848F237100290022003900020049081
:101EB000032005900C20069002A9154800F02EF88A
:101EC0004FF68370029002200390002004900320BC
:101ED00005900C20069002A90E4800F01FF84CF265
:101EE00003700290022003900020049003200590CC
:101EF0000C20069002A9084800F010F800BF9EE7E9
:101F0000040000203838024000140240000802405B
:101F10000018024000100240000C0240F8B50246D2
:101F20000B460025002400200021E0E0012606FAEF
:101F300001F51E6806EA0504AC4274D11E7906F06C
:101F40000306012E04D01E7906F00306022E13D1DB
:101F500090684F000326BE40B0434F00DE68BE408D
:101F600030439060506801268E40B0431E79C6F31E
:101F700000168E40304350601E7906F00306032E93
:101F800009D0D0684F000326BE40B0434F009E6882
:101F9000BE403043D0601E7906F00306022E13D1F6
:101FA000CF0802F1200656F827004E07F70E0F263D
:101FB000BE40B0434F07FF0E1E69BE403043CF08FE
:101FC00002F1200646F8270010684F000326BE40A5
:101FD000B0431E7906F003064F00BE403043106048
:101FE0005E6806F44036002E1DD000BF0026009625
:101FF000414E366846F480463F4F3E603E46366866
:1020000006F48046009600BF00BF3C4E8F0856F88D
:1020100027008E07370F0F26BE40B043384EB2421E
:1020200002D100262EE061E0364EB24201D10126F7
:1020300028E0354EB24201D1022623E0334EB242AF
:1020400001D103261EE0324EB24201D1042619E02E
:10205000304EB24201D1052614E02F4EB24201D1DA
:1020600006260FE02D4EB24201D107260AE02C4E83
:10207000B24201D1082605E02A4EB24201D109261A
:1020800000E00A268F073F0FBE4030431B4E8F08EB
:1020900046F82700244E3068A0435E6806F4801698
:1020A00006B12043204E3060361D3068A0435E6884
:1020B00006F4001606B120431B4E361D30601A4E42
:1020C000361F3068A0435E6806F4003606B1204330
:1020D000154E361F3060361F3068A0435E6806F428
:1020E000803606B12043104E083E3060491C10294E
:1020F000FFF41CAFF8BD000044380240083801402E
:10210000000002400004024000080240000C0240AF
:10211000001002400014024000180240001C02405F
:102120000020024000240240083C01400AB18161C5
:1021300001E00B04836170470148006870470000AC
:102140000C0000200348006803490978084401494D
:10215000086070470C0000201400002010B50D48E6
:10216000006840F400700B4908600846006840F4BD
:10217000806008600846006840F4807008600320B2
:1021800000F0A6F80F2000F007F800F02BF8002070
:1021900010BD0000003C024070B504460E480078B7
:1021A0004FF47A71B1FBF0F00C490968B1FBF0F51E
:1021B000284600F069FF08B1012070BD102C07D23D
:1021C00000222146501E00F045F80548046001E059
:1021D0000120F2E70020F0E71400002018000020A2
:1021E0001000002008B500BF002000900E480068D5
:1021F00040F480400C4908600846006800F48040C4
:10220000009000BF00BF00BF00200090081F0068C2
:1022100040F08050091F08600846006800F08050B8
:10222000009000BF00BF08BD443802400146084688
:1022300000280DDB00BF00BF00F01F0301229A4001
:1022400043099B0003F1E023C3F8002100BF00BF56
:1022500000BF70472DE9F05F80460D461646002707
:1022600003F0F2FA074639462A46334601F00700E2
:10227000C0F1070ABAF1040F02D94FF0040A01E0D5
:10228000C0F1070AD14600F1040ABAF1070F02D2E1
:102290004FF0000A01E0A0F1030AD4464FF0010A12
:1022A0000AFA09FAAAF1010A0AEA020A0AFA0CFA77
:1022B0004FF0010B0BFA0CFBABF1010B0BEA030B1C
:1022C0004AEA0B042146404603F0C6FABDE8F09FF7
:1022D00000BF00F00702064B19684FF6FF031940D4
:1022E000044B0B4343EA0221014B196000BF7047C6
:1022F0000CED00E00000FA0538B5002400BF002016
:1023000000901D48006840F080501B490860084656
:10231000006800F08050009000BF00BF0120174906
:102320000864FFF709FF044607E0FFF705FF001BFD
:10233000B0F57A7F01D9032038BD1148406800F418
:102340008030B0F5803FF0D101200C494864FFF7A0
:10235000F3FE044607E0FFF7EFFE001BB0F57A7FBF
:1023600001D90320E8E70648406800F40030B0F5E2
:10237000003FF0D10020DFE74038024000000E426D
:102380000070004070B504460D460CB9012070BDC8
:102390005848006800F00F00A84209D255490D7056
:1023A0000846006800F00F00A84201D00120EEE7C7
:1023B000207800F0020002281DD1207800F00400EF
:1023C000042805D14C48006840F4E0504A490860B0
:1023D000207800F00800082805D14748006840F43C
:1023E0006040454908604448006820F0F000A1685A
:1023F000084341490860207800F00100A8B36068F4
:10240000012807D13C4808380068C0F34040B8B9FB
:102410000120BCE76068022802D06068032807D169
:10242000354808380068C0F3406048B90120AEE77D
:10243000314808380068C0F3400008B90120A6E719
:102440002D48006820F00300616808432A490860AD
:10245000FFF772FE064609E0FFF76EFE801B41F2B1
:102460008831884202D9032091E707E022480068BA
:1024700000F00C006168B0EB810FEDD11D480068E1
:1024800000F00F00A84209D91A490D7008460068EB
:1024900000F00F00A84201D0012078E7207800F07A
:1024A0000400042807D11448006820F4E050E168D3
:1024B000084311490860207800F00800082808D176
:1024C0000D48006820F46040216940EAC1000A49D3
:1024D000086000F03FF808490968C1F30311074A92
:1024E000515CC8400649086006480068FFF754FE82
:1024F00000204CE7003C0240083802404AB1000886
:1025000018000020100000200148006870470000FB
:102510001800002000B5FFF7F7FF04490968C1F370
:102520008221034A515CC84000BD000008380240C7
:102530005AB1000800B5FFF7E7FF04490968C1F385
:102540004231034A515CC84000BD000008380240D7
:102550005AB100082DE9F047002400250026A146C5
:102560002548006800F00C0020B1042805D0082898
:102570003AD105E0DFF8849039E0DFF8849036E066
:102580001D48001F006800F03F041B48001F006842
:1025900000F4800078B11A481749091F0968C1F38F
:1025A0008811A0FB01700146224600233846FDF742
:1025B00098FE05460EE011480F49091F0968C1F34E
:1025C0008811A0FB01700146224600233846FDF722
:1025D00088FE05460848001F0068C0F30140401C03
:1025E0004600B5FBF6F902E0DFF8109000BF00BF2F
:1025F0004846BDE8F0870000083802400024F40097
:1026000040787D01F8B504460CB90120F8BD20786A
:1026100000F00100002874D0F948006800F00C00B8
:1026200004280DD0F648006800F00C00082813D1EB
:10263000F348001F006800F48000B0F5800F0BD154
:10264000EF4808380068C0F34040002859D060685F
:10265000002856D10120D9E700BF6068B0F5803F5F
:1026600008D1E7480838006840F48030E449083968
:1026700008601EE06068B0F5A02F0DD1E048083872
:10268000006840F48020DE49083908600846006888
:1026900040F4803008600CE0D9480838006820F425
:1026A0008030D749083908600846006820F4802047
:1026B000086000BF606890B1FFF73EFD054606E088
:1026C000FFF73AFD401B642801D903209EE7CC4860
:1026D00008380068C0F340400028F1D011E0FFF74F
:1026E0002BFD054606E0FFF727FD401B642801D9B6
:1026F00003208BE7C24808380068C0F34040002838
:10270000F1D1207800F0020002285FD1BC480068B7
:1027100000F00C0058B1BA48006800F00C0008281E
:102720001CD1B748001F006800F48000B0B9B4485D
:1027300008380068C0F3400020B1E068012801D0EB
:10274000012063E7AE480838006820F0F8002169EE
:1027500040EAC100AA490839086037E0E06800B3E0
:102760000120A8490860FFF7E7FC054606E0FFF7EF
:10277000E3FC401B022801D9032047E7A0480838A2
:102780000068C0F340000028F1D09D480838006878
:1027900020F0F800216940EAC10099490839086031
:1027A00014E0002097490860FFF7C6FC054606E0E4
:1027B000FFF7C2FC401B022801D9032026E79048FE
:1027C00008380068C0F340000028F1D1207800F0FC
:1027D000080008282CD16069A8B101208A49086046
:1027E000FFF7AAFC054606E0FFF7A6FC401B0228FF
:1027F00001D903200AE782486C300068C0F340002A
:102800000028F1D014E000207F490860FFF794FC15
:10281000054606E0FFF790FC401B022801D9032083
:10282000F4E677486C300068C0F340000028F1D12E
:10283000207800F00400042870D100277048383058
:10284000006800F0805090B900BF002000906C48F4
:102850003830006840F080506949383108600846D7
:10286000006800F08050009000BF00BF012767485B
:10287000006800F48070B0B96448006840F480706B
:1028800062490860FFF758FC054606E0FFF754FC74
:10289000401B022801D90320B8E65C48006800F418
:1028A00080700028F2D000BFA068012808D15448E9
:1028B0006830006840F001005149683108601DE04F
:1028C000A06805280DD14E486830006840F004002B
:1028D0004B49683108600846006840F00100086014
:1028E0000CE047486830006820F001004449683136
:1028F00008600846006820F00400086000BFA06877
:10290000A8B1FFF719FC054609E0FFF715FC401BCD
:1029100041F28831884202D9032077E626E0384820
:1029200068300068C0F340000028EED013E0FFF7E5
:1029300003FC054608E0FFF7FFFB401B41F288312E
:10294000884201D9032061E62D4868300068C0F351
:1029500040000028EFD1012F07D129483830006806
:1029600020F0805026493831086000BFA069002857
:1029700045D02348006800F00C0008285DD0A0690D
:10298000022845D100201F490866FFF7D5FB054600
:1029900006E0FFF7D1FB401B022801D9032035E6F2
:1029A000174808380068C0F340600028F1D1D4E926
:1029B00007010843616A40EA81110122A06AC2EB63
:1029C000500041EA00412C20005D41EA00600C49C2
:1029D000091F086001200B490866FFF7ADFB05469B
:1029E00006E0FFF7A9FB401B022801D903200DE6F2
:1029F000034808380068C0F340600028F1D049E07F
:102A00000838024000004742800E474200700040F4
:102A1000002021490866FFF78FFB054606E0FFF717
:102A20008BFB401B022801D90320EFE51B480068FF
:102A3000C0F340600028F2D12CE0A069012800D149
:102A4000E4E51648001D0668A069012820D006F4B8
:102A50008001E06981421BD106F03F01206A81427A
:102A600016D147F6C0703040616AB0EB811F0FD1BC
:102A700006F440310122A06AC2EB5000B1EB004FD6
:102A800006D106F070612C20005DB1EB006F01D023
:102A90000120BBE50020B9E50000474200380240B4
:102AA00070B504460D460CB9012070BD94F82C0099
:102AB00028B9002084F82D00204600F011F80220EB
:102AC00084F82C00211D2068FEF751FA2946D4E92C
:102AD0000002FEF7B7FA012084F82C000020E4E79A
:102AE00010B50446FFF7A2F910BD70B504460D46B7
:102AF00094F82C00022800D170BD94F82C00012815
:102B00000AD1022084F82C0029462068FEF765FAD5
:102B1000012084F82C0001E00120EDE70020EBE724
:102B20002DE9F04104460E46174694F82C50022D2C
:102B300002D10220BDE8F081012D01D0052D12D176
:102B4000022084F82C003A4631462068FEF74FFAFE
:102B50003068022803D1052084F82C0005E001200C
:102B600084F82C0001E00120E4E70020E2E710B542
:102B700004460CB9012010BD606A38B96068B0F530
:102B8000827F00D105E00021E16102E000212161A6
:102B900061610021A16294F8510028B9002084F8F5
:102BA0005000204600F048F8022084F851002068C8
:102BB000006820F0400021680860A08800F482705E
:102BC000218901F404410843A18901F4006108430B
:102BD000217C01F002010843217D01F0010108433D
:102BE000218B01F400710843217F01F03801084373
:102BF0002021095D01F080010843218D01F400517D
:102C00000843216808600421A06901EA104094F893
:102C1000241001F010010843216848602068C06951
:102C200020F400602168C86100206065012084F8FC
:102C3000510000209FE7000010B586B00446142123
:102C400001A8FDF78DFD96492068884230D100BF6C
:102C5000002000909348006840F48050914908603B
:102C60000846006800F48050009000BF00BF00BF1D
:102C7000002000908B481438006840F0010089491A
:102C8000143908600846006800F00100009000BF99
:102C900000BFE0200190022002900020039003205A
:102CA00004900520059001A97F48FFF737F9F5E06A
:102CB0007E492068884233D100BF002000907948C7
:102CC000001F006840F480407649091F08600846EC
:102CD000006800F48040009000BF00BF00BF0020EB
:102CE000009070481438006840F002006D491439B3
:102CF00008600846006800F00200009000BF00BFB6
:102D00004FF46040019002200290002003900320C5
:102D100004900520059001A96548FFF7FFF8BDE084
:102D20006449206888424FD100BF002000905D4870
:102D3000001F006840F400405A49091F0860084617
:102D4000006800F40040009000BF00BF00BF0020FA
:102D5000009054481438006840F004005149143978
:102D600008600846006800F00400009000BF00BF43
:102D700000BF002000900846006840F00200086094
:102D80000846006800F00200009000BF00BF8814F1
:102D9000019002200290002003900320049006205E
:102DA000059001A94448FFF7B9F8182001900220C6
:102DB000029000200390032004900620059001A9B2
:102DC0003B48FFF7ABF869E03C492068884230D1C6
:102DD00000BF002000903348006840F400503149A3
:102DE00008600846006800F40050009000BF00BF73
:102DF00000BF002000902B481438006840F01000FD
:102E00002849143908600846006800F01000009056
:102E100000BF00BF642001900220029000200390B8
:102E2000032004900520059001A92548FFF776F8B6
:102E300034E024492068884230D100BF002000904F
:102E40001848006840F48010164908600846006879
:102E500000F48010009000BF00BF00BF0020009071
:102E600010481438006840F020000E4914390860FA
:102E70000846006800F02000009000BF00BF4FF43B
:102E800060700190022002900020039003200490C3
:102E90000520059001A90C48FFF740F806B010BDC9
:102EA0000030014044380240000002400038004039
:102EB00000040240003C0040000802400034014091
:102EC0000010024000500140001402402DE9F84F6C
:102ED0000446884616461D464FF0000A00BF94F887
:102EE0005000012802D10220BDE8F88F012084F8AB
:102EF000500000BFFFF720F90746B14694F8510093
:102F0000012802D04FF0020AB7E0B8F1000F00D05C
:102F100016B94FF0010AB0E0032084F851000020F8
:102F20006065C4F83080A686E686A063A087E08747
:102F300060642064A068B0F5004F0BD12068006881
:102F400020F04000216808602068006840F480405C
:102F5000216808602068006800F04000402805D023
:102F60002068006840F0400021680860E068B0F523
:102F7000006F32D1606810B1B9F1010F09D1206B37
:102F800000882168C860206B801C2063E08E401E92
:102F9000E0861EE02068806800F0020002280AD166
:102FA000206B00882168C860206B801C2063E08E45
:102FB000401EE0860DE0FFF7BFF8C01BA84201D31A
:102FC000681C00B92DB94FF0030A012084F85100A4
:102FD00053E0E08E0028DDD131E0606810B1B9F136
:102FE000010F09D1206B007821680873206B401C09
:102FF0002063E08E401EE0861EE02068806800F0BE
:10300000020002280AD1206B007821680873206B27
:10301000401C2063E08E401EE0860DE0FFF78CF838
:10302000C01BA84201D3681C00B92DB94FF0030A98
:10303000012084F8510020E0E08E0028DDD13A46DE
:103040002946204601F0B4FE08B120206065A06842
:1030500050B900BF002000902068C0680090206830
:103060008068009000BF00BF606D10B14FF0010A92
:1030700002E0012084F8510000BF00BF002084F866
:10308000500000BF50462FE770B504462546681E25
:10309000B0F1807F01D301200FE0681E4FF0E021E6
:1030A00048610F214FF0FF3002F0D6FB00204FF0B7
:1030B000E021886107200861002070BD70477047DB
:1030C00030B502460B4600BF92F83C00012801D102
:1030D000022030BD012082F83C0000BF022082F8AF
:1030E0003D00106844681068816824F07004186816
:1030F000044310684460184D1068A8421BD0106843
:10310000B0F1804F17D0154D1068A84213D0144D60
:103110001068A8420FD0134D1068A8420BD0124D72
:103120001068A84207D0114D1068A84203D0104D76
:103130001068A84205D121F0800158680143106849
:103140008160012082F83D0000BF002082F83C0031
:1031500000BF00BFBDE700000000014000040040C8
:1031600000080040000C0040000401400040014005
:103170000018004010B504460CB9012010BD94F8A9
:103180003D0028B9002084F83C00204600F026F8D5
:10319000022084F83D00211D206801F09BFF0120E2
:1031A00084F8460000BF84F83E0001213F2001550D
:1031B000402001554120015500BF00BF012084F887
:1031C000420043200155442001554520015500BFD0
:1031D000012084F83D000020D0E7000010B586B043
:1031E0000446142101A8FDF7BBFA3B492068884238
:1031F0000FD100BF002000903848006840F0010067
:10320000364908600846006800F00100009000BFE1
:103210005FE033492068884231D100BF0020009030
:103220002E48001F006840F002002C49091F08606A
:103230000846006800F00200009000BF00BF00BF19
:103240000020009025481438006840F0040023490D
:10325000143908600846006800F00400009000BFC0
:1032600000BF4815019002200290002003900490B6
:103270000220059001A91B48FEF750FE29E01A49DB
:103280002068884211D100BF002000901348001F21
:10329000006840F004001149091F086008460068F2
:1032A00000F00400009000BF13E01049206888423D
:1032B0000FD100BF002000900848006840F00200D5
:1032C000064908600846006800F00200009000BF50
:1032D00000BF06B010BD00000000014044380240AD
:1032E00000040040000802400008004000040140C3
:1032F000014691F83D00012801D0012070470220CD
:1033000081F83D000868C06840F001000B68D86093
:103310001A4B086898421BD00868B0F1804F17D04C
:10332000174B0868984213D0164B086898420FD084
:10333000154B086898420BD0144B0868984207D088
:10334000134B0868984203D0124B086898420CD17E
:103350000868806800F00702062A0CD00868006838
:1033600040F001000B68186005E00868006840F054
:1033700001000B6818600020C0E700000000014059
:103380000004004000080040000C00400004014020
:1033900000400140001800402DE9F04104460D4670
:1033A000002700BF94F83C00012802D10220BDE8AC
:1033B000F081012084F83C0000BF022084F83D0029
:1033C0002068866826F0770626F47F4620688660A7
:1033D0002868502833D00CDC202850D004DC00288A
:1033E0004BD0102851D149E0302849D040284CD149
:1033F00039E060282DD0702807D0B0F5805F03D069
:10340000B0F5005F41D10DE041E0D5E902136A68F3
:10341000206801F0D3FE2068866846F077062068B1
:10342000866034E0D5E902136A68206801F0C6FEC0
:103430002068806840F480402168886027E0EA685E
:103440006968206801F0CEFE5021206801F0C1FEBD
:103450001DE0EA686968206801F0D7FE60212068F5
:1034600001F0B7FE13E0EA686968206801F0BAFE6F
:103470004021206801F0ADFE09E000BF00BF00BFA1
:103480002968206801F0A5FE01E0012700BF00BF08
:10349000012084F83D0000BF002084F83C0000BFFC
:1034A000384684E7704770B504462068C5682068D0
:1034B000066906F00200022819D105F00200022870
:1034C00015D1401F2168086101202077206880699C
:1034D00000F0030018B12046FFF7E4FF05E02046A6
:1034E00000F097F8204600F095F80020207706F0CD
:1034F0000400042819D105F00400042815D1C043A4
:1035000021680861022020772068806900F44070FB
:1035100018B12046FFF7C6FF05E0204600F079F815
:10352000204600F077F80020207706F008000828F1
:1035300019D105F00800082815D1C0432168086199
:10354000042020772068C06900F0030018B12046ED
:10355000FFF7A8FF05E0204600F05BF8204600F0EA
:1035600059F80020207706F01000102819D105F036
:103570001000102815D1C043216808610820207769
:103580002068C06900F4407018B12046FFF78AFF38
:1035900005E0204600F03DF8204600F03BF8002012
:1035A000207706F0010048B105F0010030B16FF05E
:1035B000010021680861204600F02EF806F0800026
:1035C000802809D105F08000802805D1C0432168FA
:1035D00008612046FFF772FD06F04000402809D13F
:1035E00005F04000402805D1C0432168086120460D
:1035F00000F0B8F806F02000202809D105F02000DE
:10360000202805D1C043216808612046FFF757FDF7
:1036100070BD70477047000070B5044614253F48E0
:10362000844269D13E4800683E49884205D23C4800
:103630000068401C3A49086008E0002038490860EA
:10364000486039480078401C3749087034480068A1
:103650006421B0FBF1F201FB120040BB304800686E
:1036600028B32F484068401C2D4948602E48007BF5
:10367000142804DB01202C494873002008732B48D0
:10368000407801280ED12948C078401C2749C870CD
:103690000A250846C0780A2804DB0020C870487054
:1036A000012088702048007B401C1F4908731C487B
:1036B00040684FF47A71B0FBF1F201FB120078B967
:1036C0001748406860B11648406819490968401AAF
:1036D00006D0012014494870114840681449086018
:1036E0000F4800681349B0FBF1F201FB120098B9D2
:1036F00001200D4988600FE00F48844207D10F4830
:103700000068401C0D49086001F0DEFD04E004483B
:1037100041680BA0FCF75CFE70BD00003C39002046
:10372000B03C0020002A7515BC3C00202C3D002038
:103730005400002040420F00843900204400002043
:103740002564206D7320556E6B6E6F776E20544923
:103750004D455220496E74657275707421200D0AB2
:103760000000000070477047704700002DE9F84FD7
:103770000446206805682068C668206847694FF0DD
:103780000009CA4605F00F09B9F1000F0AD105F08A
:10379000200038B106F0200020B1204601F044FEA0
:1037A000BDE8F88FB9F1000F7CD007F0010018B91F
:1037B00006F49070002875D005F0010030B106F4D1
:1037C000807018B1606C40F00100606405F0040086
:1037D00030B107F0010018B1606C40F00200606485
:1037E00005F0020030B107F0010018B1606C40F044
:1037F0000400606405F0080048B106F0200010B92C
:1038000007F0010018B1606C40F008006064606C63
:10381000002846D005F0200028B106F0200010B1A5
:10382000204601F001FE20684069C0F3801A606CF8
:1038300000F0080010B9BAF1000F2DD0204601F0B9
:10384000ADFD2068406900F04000402820D100BF55
:1038500000BF2168143151E8001F21F040002168A9
:10386000143141E80002002AF3D100BFE06B50B1EF
:103870007748E16B0865E06BFEF796FA88B1E06B7C
:10388000016D88470DE02046FFF76EFF09E009E073
:103890002046FFF769FF04E02046FFF765FF0020A0
:1038A00060647DE7206B012878D105F010000028C6
:1038B00074D006F010000028FAD000BF002000905D
:1038C00020680068009020684068009000BF00BF3A
:1038D0002068406900F04000402860D1E06B00683B
:1038E00040681FFA80F8B8F1000F56D0A08D40450F
:1038F00053DDA4F82E80E06BC069B0F5807F43D023
:1039000000BF00BF21680C3151E8001F21F4807016
:1039100021680C3141E80002002AF3D100BF00BF4A
:1039200000BF2168143151E8001F21F00100216817
:10393000143141E80002002AF3D100BF00BF00BFEC
:103940002168143151E8001F21F040002168143132
:1039500041E80002002AF3D100BF202084F8420091
:103960000020206300BF00BF21680C3151E8001F18
:1039700021F0100021680C3141E80002002AF3D147
:1039800000BFE06BFEF7BAF902206063A08DE28D04
:10399000801A81B22046FFF7E6FE01E742E0A08DE3
:1039A000E18D401A1FFA80F8E08DD0B3B8F1000F16
:1039B00037D000BF00BF21680C3151E8001F21F44F
:1039C000907021680C3141E80002002AF3D100BF59
:1039D00000BF00BF2168143151E8001F21F0010031
:1039E0002168143141E80002002AF3D100BF2020F1
:1039F00084F842000020206300BF00BF21680C3122
:103A000051E8001F21F0100021680C3141E800024C
:103A1000002AF3D100BF0220606341462046FFF731
:103A2000A2FEBDE605F0800030B106F0800018B1BE
:103A3000204601F0ADFEB3E605F0400030B106F0DF
:103A4000400018B1204601F0DFFCA9E600BFA7E660
:103A50008953000810B504460CB9012010BDA069B7
:103A600000B100E000BF94F8410028B9002084F8BC
:103A70004000204600F02AF8242084F84100206805
:103A8000C06820F400502168C860204601F04AFD5B
:103A90002068006920F4904021680861206840692E
:103AA00020F02A00216848612068C06840F4005076
:103AB0002168C86000206064202084F8410084F8F8
:103AC00042000020606300BFC8E7000010B586B068
:103AD0000446142101A8FCF743FE97492068884258
:103AE00031D100BF002000909448006840F40020CD
:103AF000924908600846006800F40020009000BF6A
:103B000000BF00BF002000908C481038006840F0D3
:103B100004008A49103908600846006800F0040073
:103B2000009000BF00BF4FF440600190022002905F
:103B300000200390032004900820059001A98048EC
:103B4000FEF7ECF9F5E07F492068884233D100BFE9
:103B5000002000907948001D006840F0100077496F
:103B6000091D08600846006800F01000009000BFC2
:103B700000BF00BF0020009070481038006840F07F
:103B800001006E49103908600846006800F0010025
:103B9000009000BF00BF4FF4C0600190022002906F
:103BA00000200390032004900720059001A9664897
:103BB000FEF7B4F9BDE06549206888424DD100BFE9
:103BC000002000905D48006840F400305B490860C8
:103BD0000846006800F40030009000BF00BF00BF3E
:103BE0000020009055481038006840F0010053490B
:103BF000103908600846006800F00100009000BF1E
:103C000000BF00BF002000900846006840F0080098
:103C100008600846006800F00800009000BF00BF80
:103C200004200190022002900020039003200490C1
:103C30000720059001A94448FEF770F94020019043
:103C4000022002900020039003200490072005909A
:103C500001A93F48FEF762F96BE03E4920688842BF
:103C600031D100BF002000903448006840F480202B
:103C7000324908600846006800F48020009000BFC8
:103C800000BF00BF002000902C481038006840F0B2
:103C900002002A49103908600846006800F0020056
:103CA000009000BF00BF4FF44060019002200290DE
:103CB00000200390032004900720059001A92648C6
:103CC000FEF72CF935E025492068884231D100BF44
:103CD000002000901948001D006840F0200017499E
:103CE000091D08600846006800F02000009000BF31
:103CF00000BF00BF0020009010481038006840F05E
:103D000004000E49103908600846006800F00400FD
:103D1000009000BF00BFC020019002200290002050
:103D20000390032004900820059001A90448FEF7A1
:103D3000F5F806B010BD0000004C004040380240CD
:103D40000008024000100140000002400044004012
:103D5000000C0240004800400004024000140140F2
:103D600070B504460D46164694F8420020280BD143
:103D700005B10EB9012070BD0020206332462946EE
:103D8000204601F0E5FCF6E70220F4E710B50E4A04
:103D90000168914217D101210C4A51701146C9782E
:103DA000491CD17002685268D3B2084A11784A1C83
:103DB000064C2270064A5354214609783F2902DBFB
:103DC00000212246117010BD001401402C3D00203E
:103DD000F83B0020704700BFFEE72DE9F0410446A4
:103DE0000D4616461F462A2000F02EF904F1280140
:103DF00088B200F019F906F1280188B200F014F930
:103E00002B2000F021F905F1350188B200F00CF902
:103E100007F1350188B200F007F92C2000F014F901
:103E2000BDE8F0812DE9F04706460F4614461D46D1
:103E3000DDF820A0681E83B2601E82B2394630468B
:103E4000FFF7CBFFB8460EE0B14606E0504600F063
:103E5000EBF809F101001FFA80F9A145F6DB08F142
:103E600001001FFA80F8A845EEDBBDE8F0870000EE
:103E700010B5012202210748FEF758F900224FF43D
:103E800000410448FEF752F9012202210248FEF7E0
:103E90004DF910BD000002400008024010B5FFF7C8
:103EA000E7FF00224FF400415E48FEF73FF964202F
:103EB000FDF78EFF112000F0C7F87820FDF788FF8E
:103EC000362000F0C1F8702000F0B7F83A2000F07A
:103ED000BBF8052000F0B1F8B22000F0B5F80C20D6
:103EE00000F0ABF80C2000F0A8F8002000F0A5F8D6
:103EF000332000F0A2F8332000F09FF8B72000F044
:103F0000A3F8352000F099F8BB2000F09DF81920A7
:103F100000F093F8C02000F097F82C2000F08DF806
:103F2000C22000F091F8012000F087F8C32000F0D3
:103F30008BF8122000F081F8C42000F085F82020D2
:103F400000F07BF8C62000F07FF80F2000F075F835
:103F5000D02000F079F8A42000F06FF8A12000F044
:103F60006CF8E02000F070F8D02000F066F8042033
:103F700000F063F80D2000F060F8112000F05DF80B
:103F8000132000F05AF82B2000F057F83F2000F0E3
:103F900054F8542000F051F84C2000F04EF818204E
:103FA00000F04BF80D2000F048F80B2000F045F829
:103FB0001F2000F042F8232000F03FF8E12000F03D
:103FC00043F8D02000F039F8042000F036F80C2037
:103FD00000F033F8112000F030F8132000F02DF835
:103FE0002C2000F02AF83F2000F027F8442000F0B1
:103FF00024F8512000F021F82F2000F01EF81F2097
:1040000000F01BF81F2000F018F8202000F015F831
:10401000232000F012F8212000F016F8292000F0EB
:1040200013F810BD0000024010B50446201200F045
:104030002BF8E0B200F028F810BD10B50446204679
:1040400000F022F810BD000010B504460022022145
:104050000B48FEF76BF8204600F016F8012202210B
:104060000748FEF763F80122D1030648FEF75EF821
:1040700000224FF400410348FEF758F810BD00003D
:10408000000802400000024001B500224FF4004148
:104090000548FEF74BF84FF47A730122694603484E
:1040A000FEF714FF08BD000000000240EC370020BE
:1040B00000B58BB01C481D490860062048600021EF
:1040C0001A488160C1604FF400210161C90041615B
:1040D0000021017641768176C17601774177FDF73F
:1040E000A1FB08B1FCF740FF0020069007900120DB
:1040F0000890002002900390049005900120099000
:104100000E200A9001A90948FDF7DCF80748FDF7E1
:104110008AFD10B106A0FCF75BF902210348FDF708
:1041200016F80BB000BD0000006400409836002077
:1041300043414E31205374617274204661696C654D
:1041400064210A0D0000000000B587B01C216846FC
:10415000FCF706FB1B481C49086000204860012151
:10416000194881600821C16010210161402141612D
:104170004FF4C07181610021C1614FF4006101629F
:1041800049004162490081620220009008200190AC
:1041900006200290039004200490022005900690CF
:1041A00069460948FEF77CFC08B1FCF7DDFE0648CD
:1041B00000F0B8FD40F2AB210348FEF796FC07B0D3
:1041C00000BD0000400100A0C43B002000B587B046
:1041D000142102A8FCF7C4FA00BF00200190B048E7
:1041E000006840F01000AE4908600846006800F022
:1041F0001000019000BF00BF00BF002001900846E2
:10420000006840F4807008600846006800F4807020
:10421000019000BF00BF00BF002001900846006869
:1042200040F0200008600846006800F0200001907F
:1042300000BF00BF00BF002001900846006840F0AA
:10424000800008600846006800F08000019000BF10
:1042500000BF00BF002001900846006840F0040045
:1042600008600846006800F00400019000BF00BF2D
:1042700000BF002001900846006840F0010008607F
:104280000846006800F00100019000BF00BF00BFB9
:10429000002001900846006840F0020008600846CF
:1042A000006800F00200019000BF00BF00BF0020C6
:1042B00001900846006840F0400008600846006829
:1042C00000F04000019000BF00BF00BF002001903F
:1042D0000846006840F0080008600846006800F0E2
:1042E0000800019000BF00BF012218216D48FDF7B2
:1042F0001DFF002240216C48FDF718FF00224FF4FB
:1043000081716A48FDF712FF002248F212016848E5
:10431000FDF70CFF012204216648FDF707FF00228C
:1043200041F203016448FDF701FF00227A2163484E
:10433000FDF7FCFE00224FF480616148FDF7F6FEB8
:1043400001224FF440715C48FDF7F0FE1820029006
:1043500001200390002004900320059002A95148F9
:10436000FDF7DCFD40F6040002900020039004906D
:1043700002A95248FDF7D2FD40200290012003908F
:10438000002004900320059002A94748FDF7C6FDD0
:104390004FF48170029001200390002004900320CC
:1043A000059002A94148FDF7B9FD48F212000290BC
:1043B00001200390002004900320059002A93C48AE
:1043C000FDF7ACFD04200290012003900020049032
:1043D0000320059002A93748FDF7A0FD41F2030034
:1043E000029001200390002004900320059002A970
:1043F0003148FDF793FD7A200290012003900020C0
:1044000004900320059002A92C48FDF787FD4FF486
:10441000806002900120039000200490032005900A
:1044200002A92748FDF77AFD4FF440700290012061
:10443000039004900320059002A91F48FDF76EFD2C
:10444000012210211748FDF771FE012211031A48BD
:10445000FDF76CFE012240211348FDF767FE0122A3
:1044600048F210011248FDF761FE012210211348A5
:10447000FDF75CFE012202211048FDF757FE0022E5
:1044800008210E48FDF752FE002202210748FDF7E1
:104490004DFE012202210648FDF748FE07B000BD8F
:1044A0003038024000100240001402400008024070
:1044B00000000240001C02400004024000200240B4
:1044C0000018024010B5012211461420FDF7C2FE6B
:1044D0001420FDF7ABFE002201211D20FDF7BAFEDE
:1044E0001D20FDF7A3FE022201211E20FDF7B2FED2
:1044F0001E20FDF79BFE002202214720FDF7AAFEA9
:104500004720FDF793FE022201214020FDF7A2FE85
:104510004020FDF78BFE10BD10B50E480E49086017
:104520004FF48270486000210B488160C1600161D6
:1045300041614FF4007181611021C161002101626C
:10454000416281620A21C162FEF711FB08B1FCF7EA
:104550000BFD10BD003001403C37002010B50E4867
:104560000E4908604FF48270486000210B4881605A
:10457000C160016141614FF4007181610821C16135
:1045800000210162416281620A21C162FEF7EFFAF5
:1045900008B1FCF7E9FC10BD00380040943700205A
:1045A00010B50E480E4908604FF482704860002133
:1045B0000B488160C1600221016101214161490212
:1045C00081610021C1610162416281620A21C1628F
:1045D000FEF7CDFA08B1FCF7C7FC10BD003C004067
:1045E000EC37002010B50E480E4908604FF4827079
:1045F000486000210B488160C160016141614FF456
:10460000007181610021C1610162416281620A2100
:10461000C162FEF7ACFA08B1FCF7A6FC10BD0000C1
:10462000003401404438002000B587B000200390DA
:104630000490059006900190029015481549086075
:10464000002048600021134881604FF6FF71C1606F
:104650000021016141618161FEF78CFD08B1FCF729
:1046600083FC4FF48050039003A90A48FEF794FEA0
:1046700008B1FCF779FC00200190029001A90548DF
:10468000FEF71EFD08B1FCF76FFC07B000BD00008F
:1046900000000140F438002000B587B000200390EE
:1046A0000490059006900190029014481449086007
:1046B000592048600021124881600921C160002111
:1046C00001618161FEF756FD08B1FCF74DFC4FF426
:1046D0008050039003A90A48FEF75EFE08B1FCF77C
:1046E00043FC00200190029001A90548FEF7E8FC78
:1046F00008B1FCF739FC07B000BD00000004004021
:104700003C39002010B50A480A4908600A48486048
:10471000002108488160C16001610C2141610021D4
:104720008161C161FFF796F908B1FCF71DFC10BD6E
:10473000004C00405C3A002020A1070010B50A4858
:104740000A4908600A484860002108488160C16041
:1047500001610C21416100218161C161FFF77AF99A
:1047600008B1FCF701FC10BD00100140A43A002084
:1047700020A1070010B50D480D4908604FF4E13045
:10478000486000210A488160C16001610C214161DB
:1047900000218161C161FFF75DF908B1FCF7E4FB1D
:1047A000012204490248FFF7DBFA10BD0014014062
:1047B0007C3B0020383C002000BFFEE700BFFEE746
:1047C00070B504460D461646204606F083F80020D4
:1047D00070BD70B504460D461646204602F05EF9DF
:1047E000204602F013F9002070BD70B504460D4656
:1047F0001646204602F04CFB204602F005FB002046
:1048000070BD30B503460C46D3F80802007860B995
:10481000002106E00020D3F80C5245F82100481C86
:10482000C1B293F805028842F4DC002030BD70B5B7
:1048300005460C464FF0FF3004EBC402A96801EBBB
:1048400042014880002004EBC402A96801EB420148
:10485000C880E1B2284605F01BFD70BD70B5054665
:104860000C464FF0FF3004EBC402A96801EB420193
:10487000888004EBC401A86810F8110020F0010042
:1048800004EBC402A96801F81200E1B2284605F061
:10489000FFFC70BD2DE9FC4104464FF4C056606931
:1048A0000589A0690789C5B115E06B4601AA3146A3
:1048B000204605F0DEFC019840B9009830B10A4866
:1048C000009988600099C86000994861701C86B2A0
:1048D000681C85B200BFBD42E7DD0021204601F023
:1048E0008DF8BDE8FC810000335200082DE9F0414D
:1048F0000446002560690689A069078986B32DE012
:1049000005EBC502A16801EB4201B1F90200FCF719
:104910008FFA05EBC502A16801EB4201488005EB67
:10492000C502A16801EB4201B1F90400FCF780FA6D
:1049300005EBC502A16801EB42018880002005EB70
:10494000C502A16801F8120005EBC502A16801EBE0
:104950004201C880681CC5B2701C86B2BE42CFDD61
:10496000BDE8F0819FED0A0A80ED090A9FED080A73
:1049700080ED0B0A9FED060A80ED0C0A9FED040AFC
:1049800080ED0A0A9FED020A80ED0D0A70470000D3
:10499000000000007047FEB504460E46D4F8A4009F
:1049A0000088A8B12068007800F5E065ADF80050F7
:1049B00001208DF8030000208DF8020094F87800A3
:1049C0008DF804006946D4F8E00101F0FBFB05E036
:1049D000B4F9A800FCF72CFAA4F8A800FEBD2DE954
:1049E000FC4106460F4614461D466B4601AA394651
:1049F000304605F03EFC8046019840B9009830B141
:104A000098F80400A04202DD009840F82450019874
:104A1000BDE8FC812DE9FC4104460D4660694688ED
:104A20005EB105EB850104F1280000EB0110007870
:104A30003044A1694988884201DDBDE8FC8105EB6D
:104A4000850204F1280000EB021000783044616810
:104A500051F83000C06A077805EB850304F128009F
:104A600000EB0310827A05EB850304F1280000EBCC
:104A70000310018933A0FBF7ABFC002340A241F6F1
:104A8000012149A0FBF7A4FC4FF0FF3105EB8502A3
:104A900004F1280000EB0210A0F84A10852105EB74
:104AA000850204F1280000EB02108170424905EBF9
:104AB000850204F1280000EB0210807A05EB850CDA
:104AC000CDE9000104F1280000EB0C10038905EB8F
:104AD000850C04F1280000EB0C10027805EB850C26
:104AE00004F1280000EB0C104178204605F02CFD65
:104AF000314905EB850204F1280000EB021041600A
:104B000005EB850104F1280000EB0110C06C48B1F1
:104B100005EB850104F1280000EB01103946C26C59
:104B20002046904705EB850104F1280000EB0110B9
:104B300040682149884203D1E9B2204605F06FFB65
:104B400000BF7AE743414E4F70656E3A2053444FA1
:104B500041626F7274204F636375722120496E64E5
:104B6000657820697320307825782C207375624928
:104B70006E64657820697320307825780D0A00000E
:104B800053444F2074696D656F75742E2053444FE4
:104B900020726573706F6E7365206E6F742072651E
:104BA0006365697665642E0030782578202573204A
:104BB000307825780A0D0000000004052DE9FF413A
:104BC00004460D4605EB850104F1280000EB0110B9
:104BD000C06868B905EB850104F1280000EB0110FD
:104BE00005EB8502016904F1280000EB0210C160A9
:104BF00005EB850104F1280000EB0110C06803906B
:104C0000012003AACDE9002005EB8507029004F1FD
:104C1000280000EB071000F1140305EB850704F1F1
:104C2000280000EB0710827A05EB850704F12800C5
:104C300000EB07100189204600F0ECFF06461EB18C
:104C4000304604B0BDE8F0810020FAE72DE9F047D6
:104C500004460D461646984605EB850104F12800EA
:104C600000EB011000693044202809D933461AA20C
:104C700041F6152127A0FBF7ABFBFF20BDE8F0872D
:104C800005EB850104F1280000EB0110D0F810902D
:104C900000270DE018F8071005EB850204F1280045
:104CA00000EB0210143009EB07028154781CC7B2E4
:104CB000B742EFD305EB850104F1280000EB0110AA
:104CC0000069811905EB850204F1280000EB021050
:104CD00001610020D2E7000053444F2053697A65F8
:104CE000206F66206461746120746F6F206C617244
:104CF00067652E204578636565642053444F5F4D9A
:104D000041585F4C454E4754485F5452414E5346BC
:104D1000455200003078257820257320307825789A
:104D20000A0D000070B5054600240023012211463B
:104D3000184600F019F84FF4FA70FDF75DF80023FB
:104D400001220221184600F00FF800230822032157
:104D5000184600F009F84FF40C7423460122042190
:104D6000002000F001F870BD2DE9FF4104460D461A
:104D700016461F464FF0000814B94FF0100803E024
:104D8000012C01D14FF008080095CDF8048002965F
:104D900003974FF4805269460448FDF7C1FE18B9E5
:104DA000002004B0BDE8F0810120FAE7C43B0020F8
:104DB0007CB504460E4615463346012202212046A4
:104DC000009500F039F828B1606D40F02000606572
:104DD00003207CBD164800681821B0FBF1F015498E
:104DE000B0FBF1F04FF47A71484301906068B0F580
:104DF000827F0DD13346002280212046009500F0AD
:104E00001BF898B1606D40F0200060650320E0E77A
:104E100000BF019800B908E00198401E0190206889
:104E20008068C0F3C0100028F3D100BF0020D0E795
:104E30001800002040420F002DE9F84F04460D46AF
:104E400090461E46DDF82890FDF776F9A0EB0900A4
:104E5000371AFDF771F982462C480068C0F3CB3051
:104E60007843009045E0701C002842D0FDF764F9BB
:104E7000A0EB0A00B84200D2A7BB2068406820F02F
:104E8000E000216848606068B0F5827F0DD1A068BD
:104E9000B0F5004F03D0A068B0F5806F05D1206851
:104EA000006820F0400021680860A06AB0F5005F4B
:104EB0000DD100BF2068006820F400502168086010
:104EC0002068006840F400502168086000BF01209D
:104ED00084F8510000BF002084F8500000BF032078
:104EE000BDE8F88FFFE7009800B900270098401E42
:104EF0000090206880682840A84201D1012000E08D
:104F000000204045AFD10020EAE700001800002053
:104F1000704700002DE9F05F82468B469146984627
:104F20000026264C3FE0B9F1000F39D02078B0BB05
:104F30002348B0F90000401C864205D12048008873
:104F4000401C00B21E49088001F0C2FC05464746DD
:104F5000B7F57A7F01D2384601E04FF47A70074600
:104F600018480068A8420AD916480068401BB84291
:104F700005D9E81913490860384605F089FCC4F8DA
:104F80000890C4F804A0C4F80CB008EB0500206138
:104F90000A986061012020703046BDE8F09FFFE76D
:104FA000701C06B218340648B0F90000401C864256
:104FB00001DC082EB7DB4FF0FF30EEE7543D002058
:104FC000600000205C00002070B504460D462046BD
:104FD00005F0E3FA70BD10B5FDF7B4F810BD0000A0
:104FE00000B593B0302107A8FBF7BAFB142102A843
:104FF000FBF7B6FB00BF002001902748006840F097
:105000008050254908600846006800F080500190F3
:1050100000BF00BF00BF002001902048006820F4BE
:10502000404040F480401D4908600846006800F494
:105030004040019000BF00BF01200790000408908D
:1050400002200D9041050E9119210F914FF4B4717A
:105050001091022111910421129107A8FDF7D2FAB3
:1050600008B1FBF781FFFDF747F908B1FBF77CFFBB
:105070000F200290022003908020049040010590B0
:1050800000200690022102A8FDF77CF908B1FBF789
:105090006BFF13B000BD00004038024000700040BC
:1050A0000348006840F47000014908607047000040
:1050B00088ED00E010B50248FEF7F5F910BD0000DC
:1050C0003C39002010B50248FEF7EDF910BD000094
:1050D0008439002010B502682D4B98420ED0B0F1F3
:1050E000804F0BD02B4B984208D02B4B984205D0C9
:1050F0002A4B984202D02A4B984203D122F07002E8
:105100004B681A43224B984220D0B0F1804F1DD0FB
:10511000204B98421AD0204B984217D01F4B9842F0
:1051200014D01F4B984211D01E4B98420ED01E4BEC
:1051300098420BD01D4B984208D01D4B984205D089
:105140001C4B984202D01C4B984203D122F440726F
:10515000CB681A4322F080034C6943EA04020260E0
:105160008B68C3620B688362094B984202D00C4B78
:10517000984201D10B69036301234361036903F082
:1051800001031BB1036923F00103036110BD00009B
:10519000000001400004004000080040000C0040F6
:1051A000000401400040014000440140004801402B
:1051B00000180040001C00400020004030B50C46A4
:1051C000816821F47F4142EA032525432943816018
:1051D00030BD0A46816821F0700142F0070319438F
:1051E0008160704730B50B461446026A056A25F0A7
:1051F00001050562816921F0F00141EA041122F004
:105200000A021A438161026230BD30B50B46144672
:10521000026A056A25F010050562816921F4704172
:1052200041EA043122F0A00242EA031281610262E3
:1052300030BD2DE9F04104460E4617467E20005D44
:10524000E0B3022F04D0032F03D0052F37D101E0A4
:1052500000BF00BF61690989606800EBC108A6EB67
:105260000800C0F3C70505EBC502A16801EB4201C8
:10527000B1F90200FBF7DCFD05EBC502A16801EB0B
:105280004201488005EBC502A16801EB4201B1F97A
:105290000400FBF7CDFD05EBC502A16801EB42015F
:1052A0008880002005EBC502A16801F8120029469C
:1052B0002046FFF7BCFA0020BDE8F08101E000BF06
:1052C00000BF0020F8E700002DE9F0414FF47A76A6
:1052D00001F0FEFA07462948006800EB07080025A0
:1052E000274C25E0207800F00100F0B1206940450E
:1052F00013D8606910B90220207016E06069B7FB0E
:10530000F0F100FB11706169081A20610320207020
:105310002069B04209D2266907E02069A0EB0800A5
:1053200020612069B04200D22669681C05B2183499
:105330001448B0F900008542D4DD104806603046BC
:1053400005F0A6FA00250E4C10E0207800F00200CF
:1053500048B1207820F002002070A06818B1D4E98C
:10536000022160689047681C05B218340548B0F9FE
:1053700000008542E9DDBDE8F08100005C0000200E
:10538000543D00206000002070B50546AC6B002045
:10539000E085E0842046FEF7E7F970BD00BF00BF5E
:1053A00002680C3252E8002F22F4907102680C322D
:1053B00042E80013002BF3D100BF00BF00BF02681A
:1053C000143252E8002F22F001010268143242E840
:1053D0000013002BF3D100BF016B01290ED100BFD8
:1053E00000BF02680C3252E8002F22F01001026860
:1053F0000C3242E80013002BF3D100BF202180F8CB
:10540000421000210163704710B504462068C0684F
:1054100020F040002168C860202084F84100204628
:10542000FEF7D8FC002010BDF8B5044694F8420001
:10543000222875D1A068B0F5805F0CD1206950B9E1
:105440000025A66A20684068C0F308003080A06A82
:10545000801CA06215E0A56A0026A068B0F5805FF8
:1054600003D0A06828B9206918B92068406828705E
:1054700004E02068406800F07F002870A06A401CAB
:10548000A062E08D401E80B2E085002846D12068F1
:10549000C06820F020002168C8602068C06820F43F
:1054A00080702168C8602068406920F00100216890
:1054B0004861202084F8420000206063206B0128AE
:1054C00026D10020206300BF00BF21680C3151E8C5
:1054D000001F21F0100021680C3141E80002002A71
:1054E000F3D100BF2068006800F0100010280AD136
:1054F00000BF00200090206800680090206840688D
:10550000009000BF00BFA18D2046FEF72CF902E0FD
:105510002046FEF73BFC0020F8BD01E00020FBE741
:105520000220F9E72DE9F84F04462068006920F4CD
:105530004050E1680843216808612169A068084378
:1055400061690843E169084300902068C06849F236
:105550000C618843009908432168C860206840694D
:1055600020F44070A16908432168486176492068A9
:10557000884203D075492068884203D1FCF7DAFFDE
:10558000814602E0FCF7C6FF8146E069B0F5004FB6
:105590006CD102206168A0FB015003461920A9FBD1
:1055A000007001462A463846FAF79BFE6421B0FB9C
:1055B000F1F04FEA001A02206168A0FB01510B468E
:1055C0001920A9FB00712A463846FAF78AFE83465D
:1055D00002206168A0FB015003461920A9FB00715D
:1055E0002A463846FAF77DFE6421B0FBF1F000EB65
:1055F000C00101EB0010ABEB8000322101EBC000D9
:105600006421B0FBF1F000F0F8000AEB400A022040
:105610006168A0FB015003461920A9FB00700146F8
:105620002A463846FAF75DFE834602206168A0FBF1
:10563000015003461920A9FB00712A463846FAF7A3
:1056400050FE6421B0FBF1F000EBC00101EB001053
:10565000ABEB8000322101EBC0006421B0FBF1F024
:1056600000F007005044216888606AE00420616807
:10567000A0FB015003461920A9FB007001462A46F1
:105680003846FAF72EFE824604206168A0FB0150DE
:1056900003461920A9FB007001462A463846FAF74E
:1056A00020FE6421B0FBF1F000EBC00101EB001023
:1056B000AAEB8000322101EB00106421B0FBF1F075
:1056C00000F0F00A04206168A0FB01700346192075
:1056D000A9FB00513A462846FAF703FE6421B0FBC5
:1056E000F1F00AEB001A04206168A0FB01510B469F
:1056F0001920A9FB00712A463846FAF7F2FD8346C5
:1057000004206168A0FB015003461920A9FB00702A
:1057100001462A463846FAF7E4FD6421B0FBF1F071
:1057200000EBC00101EB0010ABEB8000322101EB7C
:1057300000106421B0FBF1F000F00F00504421682C
:105740008860BDE8F88F000000100140001401409F
:1057500010B5034699629A85DA85002058642220A4
:1057600083F84200186928B11868C06840F4807056
:105770001C68E0601868406940F001001C686061C6
:105780001868C06840F020001C68E060002010BD70
:10579000014691F84100212828D18868B0F5805F42
:1057A0000BD1086948B90A6A1088C0F308000B6871
:1057B0005860086A801C086205E00B6A581C086281
:1057C00018780B685860C88C401E80B2C88458B9DD
:1057D0000868C06820F080000B68D8600868C0685E
:1057E00040F040000B68D860002070470220FCE7C2
:1057F00010B50248FDF7BAFF10BD00007C3B002049
:1058000000BFFEE700B50848007800F013F800205C
:10581000064908600648006808B9012000E0002039
:105820000349086000BD000034000020082C00403F
:105830008082404200F07F01014A11607047000001
:10584000002C00407047000002480068C0F30220AE
:10585000704700000CED00E010B5002804DB0A07DB
:10586000130E054A135406E00A07140E034A00F00B
:105870000F031B1FD45410BD00E400E018ED00E03E
:105880002DE9FE4F81468A4614461F46DDE90C6B22
:1058900001AA02A95046D9F8E43198470546029872
:1058A00010B10298BDE8FE8F2879A04209DC424879
:1058B00000231A4621460090504600F0AFFA3E48B9
:1058C000F0E70E9888B104EB4401286810F8210035
:1058D00000F0010048B1394800231A4621460090E3
:1058E000504600F09BFA3548DCE717B94FF00060EE
:1058F000D8E704EB4401286800EB81004068316878
:10590000884208D904EB4401286800EB8100406814
:1059100030602B48C6E704EB4401286800EB8100A7
:1059200040788BF8000004EB4401286800EB81000C
:10593000D0F804809BF8000009280CD004EB440246
:10594000286800EB8200424681683846FAF791FEEB
:10595000C6F800802DE004EB440ED5F800C00CEB37
:105960008E0CDCF808000346D6F800C0BCF1000F2E
:1059700002D0D6F800C000E0C4460CEB0002394665
:1059800003E010F801CB01F801CB90F800C0BCF1A6
:10599000000F01D09042F4D3A0EB030CC6F800C076
:1059A000D6F800C0C44503D24FF0000C80F800C008
:1059B00000BF002076E70000110009060100010683
:1059C000050004057047704730380A2801D20120CD
:1059D00070470020704770477047704770477047A6
:1059E0007047704710B50446206A007820B98122BC
:1059F0000021204601F0F1F910BD00002DE9FE4F15
:105A000004460F46002500264FF003096069B0F8F0
:105A100008806069B0F80AA0A069B0F808B07E20DC
:105A2000005D10B90020BDE8FE8FB8F1000F73D003
:105A30000020009001900290BCE0B9F1030F06D065
:105A4000B9F1050F69D0B9F10B0F67D19BE0606820
:105A500050F838004069006800F0004010B14FF085
:105A60000B09A6E0606850F83800066A87B3307802
:105A700001282EDB3078F0282BDC05EBC501A0686F
:105A800010F81100401CC0B205EBC502A16801F876
:105A90001200317888421CD1002005EBC502A168B4
:105AA00001F812000090019002906A4629462046B3
:105AB00000F090FA48B12B4641A241F6061148A0E9
:105AC000FAF786FC4FF00B0973E04FF0050951E03F
:105AD000FFE79FB33078FC2831D105EBC501A06802
