:020000040800F2
:10000000780C00204D0200082B260008291F00084C
:100010002926000839040008852B0008000000008C
:100020000000000000000000000000002F26000873
:1000300055040008000000002D26000831260008A5
:10004000892B0008670200086702000867020008A1
:1000500067020008670200085904000867020008E8
:10006000DD040008150500086702000867020008A3
:1000700067020008670200086702000867020008BC
:1000800067020008670200086702000867020008AC
:100090003D040008670200086702000867020008C4
:1000A000670200086702000867020008670200088C
:1000B000670200086702000867020008670200087C
:1000C000670200086702000867020008670200086C
:1000D0006702000867020008492B00086702000851
:1000E000A104000867020008670200086702000810
:1000F000670200086702000867020008670200083C
:100100006702000867020008E52600086702000889
:10011000670200086702000867020008670200081B
:10012000670200086702000867020008670200080B
:1001300067020008670200086702000867020008FB
:100140004904000867020008670200086702000807
:1001500067020008670200086702000867020008DB
:1001600067020008670200086702000867020008CB
:10017000670200086702000867020008000000002C
:1001800067020008670200086702000867020008AB
:10019000670200086702000867020008670200089B
:1001A00067020008670200086702000800F002F812
:1001B00000F03CF80AA090E8000C82448344AAF1C5
:1001C0000107DA4501D100F031F8AFF2090EBAE8C3
:1001D0000F0013F0010F18BFFB1A43F0010318477B
:1001E000982B0000B82B0000103A24BF78C878C1C3
:1001F000FAD8520724BF30C830C144BF04680C602D
:10020000704700000023002400250026103A28BF74
:1002100078C1FBD8520728BF30C148BF0B60704778
:100220001FB502F097FD1FBD10B510BD00F0D6F848
:100230001146FFF7F5FF02F003FD00F0F4F803B4F8
:10024000FFF7F2FF03BC02F0CBFC00000948804737
:1002500009480047FEE7FEE7FEE7FEE7FEE7FEE7A8
:10026000FEE7FEE7FEE7FEE704480549054A064BC0
:1002700070470000D5260008AD0100087806002070
:10028000780C00207808002078080020704753EA96
:10029000020C00F069802DE9F04B4FF00006002BB6
:1002A0001FBFB3FA83F503FA05F424FA05F65E409E
:1002B00012BF1643B2FA82F502FA05F4C5F1200521
:1002C0001EBF22FA05FC44EA0C04203556EA044C11
:1002D0004FEA144418BF641C4FF000084FF00009A7
:1002E000904271EB030C39D3002919BFB1FA81F7A1
:1002F00001FA07F6B0FA80F700FA07F6C7F120070F
:100300001EBF20FA07FC46EA0C062037B6FBF4FCB9
:10031000A7EB0507103F07F01F0BCBF120060CFAE7
:100320000BFB2CFA06F644BFB3460026202FA4BFD1
:100330005E464FF0000B5BEA060C08BF4FF0010B66
:1003400019EB0B09ABFB027C48EB0608C01B06FB54
:1003500002CC0BFB03CC71EB0C01C1E70B46024650
:1003600041464846BDE8F08B13B54FF000004FF012
:100370000001AFF30080BDE81C4070474FF0000261
:1003800000B5134694469646203922BFA0E80C508B
:10039000A0E80C50B1F12001BFF4F7AF090728BF66
:1003A000A0E80C5048BF0CC05DF804EB890028BFE2
:1003B00040F8042B08BF704748BF20F8022B11F00B
:1003C000804F18BF00F8012B704770477047704787
:1003D0007047000000487047180600207546FFF778
:1003E000F9FFAE4605006946534620F007008546F2
:1003F00018B020B5FFF738FFBDE820404FF00006E9
:100400004FF000074FF000084FF0000B21F00701FC
:10041000AC46ACE8C009ACE8C009ACE8C009ACE83F
:10042000C0098D46704710B50446AFF300802046E2
:10043000BDE81040FFF703BFFEE70000014800F0F1
:100440008EB8000038000020014800F088B8000095
:10045000600000207047000010B50A2002F0C1FBC8
:100460000C48D0F8000201280CD10B48D0F88012BB
:1004700061B10021C0F88012D0F8801241B1002192
:10048000C0F8841205490120086010BD0121F1E780
:100490000121F5E70000404200804042143C014049
:1004A00010B50A2002F09DFB0948D0F8340238B993
:1004B0000848D0F8841241B15FF00001C0F88412FE
:1004C00005494FF40050086010BD0121F6E7000017
:1004D0000000414200804042143C014010B50A2017
:1004E00002F07FFB0848D0F8080238B90748D0F876
:1004F000801239B15FF00001C0F880120449042075
:10050000086010BD0121F7E70080434200804042AF
:10051000143C014010B50A2002F063FB0C48D0F8EF
:100520000C0268B90B48D0F8841269B15FF0000181
:10053000C0F88412D0F8801241B10021C0F88012B6
:1005400005490820086010BD0121F1E70121F5E708
:100550000080434200804042143C014070472DE936
:10056000F05F0546006800244669D0F8049087686B
:10057000D0F80CB0D0F810A0D0F81880F10748D00F
:10058000F90714D001218160B80703D5284600F08F
:10059000F7F90CE0780702D54FF4006407E038075C
:1005A00002D54FF4805402E0284600F0E8F9F8053F
:1005B00016D529684FF480708860B80503D52846A1
:1005C00000F0E0F90CE0780502D544F4005407E0AF
:1005D000380502D544F4804402E0284600F0D1F901
:1005E000F80316D529684FF480308860B80303D526
:1005F000284600F0C9F90CE0780302D544F4004421
:1006000007E0380302D544F4803402E0284600F0C5
:10061000BAF9300707D55FEACB6004D52968102006
:1006200044F40074C86070074FF0080707D55FEA0C
:100630000B7004D52868C760284600F09BF9B00706
:1006400006D52868C068800702D0284600F093F9D4
:10065000700607D55FEACA6004D52968102044F403
:1006600080640861B00607D55FEA0A7004D528687F
:100670000761284600F080F9F00606D52868006971
:10068000800702D0284600F078F9B00308D55FEA69
:10069000C96005D5296810204860284600F06EF929
:1006A000F00307D55FEA097004D52868476028463B
:1006B00000F06BF9300446D55FEA497040D5F0058B
:1006C00004D55FEAC87001D044F00104B00504D538
:1006D0005FEA887001D544F00204700504D55FEA32
:1006E000487001D544F00404300529D518F0700F86
:1006F00026D008F07000402815D006DC102809D05C
:1007000020280AD0302816D10AE050280ED06028C0
:1007100011D10EE044F008040DE044F010040AE0AA
:1007200044F0200407E044F0400404E044F0800476
:1007300001E044F480742868816921F070018161CE
:10074000296804204860002C05D0686A204368624C
:100750002846FFF703FFBDE8F09F70B5040003D003
:1007600094F8200010B104E0012070BD204600F094
:1007700081F82068016841F00101016000F026FA6B
:100780000546052604E000F021FA401B0A2811D88E
:1007900020684068C007F6D02068016821F0020197
:1007A000016000F013FA05460BE000F00FFA401B61
:1007B0000A2806D9606A40F40030606284F820603C
:1007C000D2E7206840688007EFD4207E01282068A7
:1007D00001683DD021F080010160607E0128206821
:1007E000016838D021F040010160A07E0128206816
:1007F000016833D021F020010160E07E01282068EB
:1008000001682ED041F010010160207F012820688E
:10081000016829D021F008010160607F012820686B
:10082000016824D021F004010160D4E902010843E9
:10083000D4E90412114308436168491E0843216842
:10084000C86100206062012084F82000002070BD93
:1008500041F08001C0E741F04001C5E741F02001CF
:10086000CAE721F01001CFE741F00801D4E741F0D9
:100870000401D9E7F0B587B0044614216846FFF7B4
:100880007DFD374B3748DFF8D4E01968D4F800C055
:10089000344A02250326092710300024491CF44558
:1008A00024D11960012907D1016841F0007101606C
:1008B000006800F000700590106840F001001060C2
:1008C000106802AB00F0010005904FF4C050CDE974
:1008D000000583E8D0006946234800F057F800225D
:1008E0001146142000F03AFB142032E0DFF87CE0DF
:1008F000F44530D1D0F800C04CF0806CC0F800C096
:10090000D0F800C001290CF0806CCDF814C019603B
:1009100007D1016841F000710160006800F00070CB
:100920000590106840F002001060106802AB00F003
:10093000020005906020CDE9000583E8D0006946FB
:100940000B4800F023F800221146402000F006FB7F
:10095000402000F0F5FA07B0F0BD00000064004050
:1009600000000020303802400000024000680040D3
:1009700000040240704770477047704770477047E7
:100980007047704770477047704770472DE9F84FC0
:10099000DFF8F8A10022012403254FF00F090AF126
:1009A000040BAAF1040E00BF0B6804FA02F63340F0
:1009B000B34270D10F7907F00307012F01D0022F46
:1009C00016D187684FEA420805FA08FC27EA0C07A7
:1009D000D1F80CC00CFA08FC4CEA070CC0F808C0AF
:1009E0004768B7430E79C6F3001696403E4346600B
:1009F0000E79F643B6070AD0C7684FEA420C05FAEB
:100A00000CF6B7438E6806FA0CF63E43C6600E79C4
:100A100006F00306022E10D1D60800EB8608D8F89F
:100A2000206057074FEAD76C09FA0CF7BE430F69ED
:100A300007FA0CF73743C8F8207006684FEA420CF3
:100A400005FA0CF7BE430F7907F0030707FA0CF716
:100A5000374307604E6816F4403F1CD04C4E376851
:100A600047F480473760366822F0030706F4804673
:100A70000096484E07EB060CDCF8086897073F0F16
:100A800009FA07F826EA0806DFF80C81404503D189
:100A90004FF0000841E072E0DFF80081404502D1EC
:100AA0004FF0010839E0DFF8F880404502D14FF0FF
:100AB000020832E0DFF8EC80404502D14FF0030835
:100AC0002BE0DFF8E480404502D14FF0040824E039
:100AD000DFF8D880404502D14FF005081DE0DFF86F
:100AE000D080404502D14FF0060816E0DFF8C48000
:100AF000404502D14FF007080FE0DFF8BC804045C9
:100B000002D14FF0080808E0DFF8B080404502D17C
:100B10004FF0090801E04FF00A0808FA07F848EA20
:100B20000608CCF80888DAF800605746D1F804C007
:100B30009E435FEACC2C00D51E433E60DBF800608C
:100B40005F46D1F804C09E435FEA8C2C00D51E435B
:100B50003E60DEF800607746D1F804C09E435FEA4D
:100B60008C3C00D51E433E60084F083F3E68D1F8DC
:100B700004C09E435FEACC3C00D51E433E60521C3D
:100B8000102AFFF411AFBDE8F88F0000083C0140C7
:100B9000443802400030014000000240000402409E
:100BA00000080240000C0240001002400014024005
:100BB00000180240001C02400020024000240240B5
:100BC0000AB1816170470904FBE7000001488068B1
:100BD000704700000400002090F83D20202A01D03A
:100BE00002207047242280F83D200268136823F019
:100BF000010313600268536A23F010035362026812
:100C0000536A0B43536201680A6842F001020A60AA
:100C1000202180F83D100020704790F83D20202AC8
:100C200001D002207047242280F83D20026813681A
:100C300023F00103136003685A6A22F00F020A438B
:100C400091B2596201680A6842F001020A602021EB
:100C500080F83D100020704770B5040025D094F84E
:100C60003D00002520B984F83C50204600F0B8F83B
:100C7000242084F83D002068016821F00101016012
:100C80002068016841F4004101602068016821F496
:100C90000041016000F066FA4D4A6168914201D856
:100CA0004C4900E04C49884201D2012070BD4B49BB
:100CB0002368B0FBF1F15E6826F03F060E435E60EC
:100CC0006368934206D94FF4967359434FF47A738D
:100CD000B1FBF3F12368491C1E6A26F03F0631433D
:100CE00019626168914210D84900401EB0FBF1F2D0
:100CF000521CC2F30B02042A01D2042022E0B0FBF2
:100D0000F1F0401CC0F30B001CE0A268F2B301EB51
:100D1000C10303EB0116431EB3FBF6F35B1C43F464
:100D200080431B0549D092B301EBC10202EB0111D4
:100D3000401EB0FBF1F0401CC0F30B0040F48040BB
:100D400040F400402168CA694CF6FF739A4310438F
:100D5000C861D4E9071001432068026822F0C0028C
:100D600011430160D4E9030101432068826848F21D
:100D7000FF339A4311438160D4E905010843216898
:100D8000CA6822F0FF021043C86001E00EE016E0DE
:100D90002068016841F0010101602564202084F889
:100DA0003D00256384F83E50002070BD01EB4106F4
:100DB000431EB3FBF6F35B1CB3E70120C2E701EB74
:100DC0004101401EB0FBF1F0401CC0F30B00B7E73F
:100DD000A086010080841E0000093D0040420F00F3
:100DE000F0B587B0044614216846FFF7C7FA2668B5
:100DF000224C214F002121481222032304251034C4
:100E0000BE4219D1066846F002060660006802AECE
:100E100000F00200059086E82A001802CDE90002E1
:100E200069461748FFF7B2FD206840F400102060C3
:100E3000206800F400101BE0124FBE4219D1066872
:100E400046F080060660006802AE00F08000059063
:100E500086E82A003020CDE9000269460A48FFF7FB
:100E600095FD206840F480002060206800F4800038
:100E7000059007B0F0BD000000540040303802403B
:100E80000004024000580040001C024002488168F3
:100E90000278114481607047040000200B4810B5AF
:100EA000016841F400710160016841F480610160F2
:100EB000016841F480710160032000F06FF80F2099
:100EC00000F006F800F024F8002010BD003C0240BD
:100ED00070B50D4D04464FF47A712878B1FBF0F0EF
:100EE0000A490968B1FBF0F000F066FC48B9102C23
:100EF00007D200222146501E00F030F800206C601E
:100F000070BD012070BD0000040000201000002012
:100F10000A4808B5016841F480410160006800F4A6
:100F2000804000900548001F016841F08051016039
:100F3000006800F08050009008BD00004438024076
:100F4000002809DB00F01F020121914040098000C8
:100F500000F1E020C0F8001170470000F0B40E4B23
:100F60001B680C46C3F30223C3F10705042D00D907
:100F70000425191D072901D2002300E0DB1E0126EC
:100F800006FA05F1491E214099409E40761E164002
:100F90003143F0BC01F014BE0CED00E0064900F056
:100FA000070208684FF6FF03184040EA0220034A90
:100FB00010430860704700000CED00E00000FA05E7
:100FC0002DE9F8431748016841F08051016000683D
:100FD000154F00F08050012600903E64FFF7F6FDAB
:100FE00005464FF47A78114C05E000BFFFF7EEFD9F
:100FF000401B40450DD86068C003F7D57E64FFF7FD
:10100000E5FD0546464607E0FFF7E0FD401BB04220
:1010100002D90320BDE8F88360688003F4D500207E
:10102000F8E700004038024000000E420070004027
:101030002DE9F0470E46050065D0DFF81481D8F899
:101040000000F7B200F00F00B04207D288F800703D
:10105000D8F8000000F00F00B04254D128683D4C91
:10106000810712D5400703D5206840F4E050206086
:101070002878000703D5206840F46040206020688D
:10108000A96820F0F000084320602878C0072DD020
:10109000304968680839012812D0022813D0032883
:1010A00011D00968890700292DDA216821F0030190
:1010B00001432160FFF78AFD814641F2883A0EE044
:1010C00009688903EFE709688901ECE7FFF77EFD0E
:1010D000A0EB0901514502D90320BDE8F087206843
:1010E000696800F00C00B0EB810FEFD1D8F8001068
:1010F000404601F00F01B14207D90770006800F0C7
:101100000F00B04201D00120E7E72878400705D55D
:101110002068E96820F4E050084320602878000740
:1011200006D52068296920F4604040EAC1002060AB
:1011300000F038F82168084AC1F30311515CC84037
:101140000649086006480068FFF7C2FE0020C4E7B1
:10115000003C0240083802405E2D000810000020CC
:10116000080000200448054900680968044AC1F3E2
:101170008221515CC84070471000002008380240AE
:101180006E2D00080448054900680968044AC1F347
:101190004231515CC84070471000002008380240BE
:1011A0006E2D0008154810B5006810F00C021448A8
:1011B00013D01449042A0FD0082A0ED10F4C241F33
:1011C0002268236802F03F025B0207D52068C0F363
:1011D0008810A0FB010106E0084610BD2168C1F39C
:1011E0008811A1FB00010023FFF751F82168C1F32A
:1011F0000141491C4900B0FBF1F010BD0838024024
:101200000024F40040787D012DE9F84F04006ED0F1
:101210002078DFF84C93C007A9F104054AD009F102
:1012200004000168C1F38101012908D00068C0F3FE
:10123000810002280AD1D9F80000400206D52868AA
:10124000800337D560680028E1D033E06068B0F5EE
:10125000803F10D0B0F5A02F286810D020F4803047
:101260002860286820F4802028606068A8B1FFF713
:10127000ADFC06460DE0286840F48030F4E740F409
:1012800080202860F7E700BFFFF7A0FC801B6428E0
:1012900073D828688003F7D50CE0FFF797FC064663
:1012A00005E000BFFFF792FC801B6428F0D8286897
:1012B0008003F7D42078DFF8AC8280074FF0000A73
:1012C0003ED5A748001D016811F00C0F08D000683A
:1012D000C0F3810002280BD1D9F80000400207D4E6
:1012E0002868800716D5E068012800D112E033E1B4
:1012F000E068B8B10120C8F80000FFF767FC0646B7
:1013000005E000BFFFF762FC801B0228C0D82868F8
:101310008007F7D52868216920F0F80040EAC1006D
:1013200028600DE0C8F800A0FFF750FC064604E076
:10133000FFF74CFC801B02281FD828688007F7D4D1
:101340002078000722D5864F87486169703771B1D0
:1013500001210160FFF73AFC064604E0FFF736FC86
:10136000801B022809D838688007F7D50EE0C0F83E
:1013700000A0FFF72BFC064605E082E0FFF726FC05
:10138000801B02287DD838688007F7D42078400772
:1013900068D5DFF8CCB100270BF13C0BDBF800007F
:1013A000C0000BD4DBF8001041F08051CBF80010E6
:1013B000DBF80000012700F0805000906B4E306891
:1013C000C00510D4306840F480703060FFF7FEFB39
:1013D000009005E0FFF7FAFB0099401A022850D868
:1013E0003068C005F6D55E4EA0686C3601280FD077
:1013F0000528306810D020F001003060306820F0FF
:1014000004003060A068B8B1FFF7E0FB00900FE087
:10141000306840F00100F4E740F004003060F7E786
:10142000FFF7D4FB0099411A41F28830814266D817
:1014300030688007F4D50EE0FFF7C8FB009007E0A6
:10144000FFF7C4FB0099411A41F28830814256D817
:1014500030688007F4D42FB1DBF8001021F0805100
:10146000CBF80010A069C8B33D49091D0968C1F354
:10147000810102294AD00228504607D0C8F86000EE
:1014800000E03CE0FFF7A2FB04463BE04746C8F81B
:101490006000FFF79BFB064605E000BFFFF796FBE9
:1014A000801B02282BD828688001F7D4D4E90701D3
:1014B0000843A16A2E4A490802EB0141626A41EAE7
:1014C0008211084394F82C1040EA0161C9F8001019
:1014D00001203866FFF77AFB044606E03EE000BFD5
:1014E000FFF774FB001B022809D828688001F7D594
:1014F00034E000BFFFF76AFB001B022802D903207B
:10150000BDE8F88F28688001F4D427E00128F7D0DF
:10151000D9F80000E26900F4800191421CD1226AEE
:1015200000F03F01914217D147F6C071626A014055
:10153000B1EB821F10D1A26A4FF0FF3300F44031AB
:1015400003EB5202B1EB024F06D194F82C1000F0DD
:101550007060B0EB016F01D00120D1E70020CFE730
:101560000438024000004742800E474200700040AD
:101570000000FFFF70B5040009D0606A002540B18B
:1015800025616561A56294F8510040B10CE001202D
:1015900070BD6068B0F5827FF4D0E561F2E784F851
:1015A0005050204600F044F8022084F85100206892
:1015B000016821F040010160A088218900F4827057
:1015C00001F404410843A18901F400610843217C2E
:1015D00001F002010843217D01F001010843218B44
:1015E00001F400710843217F01F03801084394F8A9
:1015F000201001F080010843218D01F400510843BF
:1016000021680860A069042101EA104094F82410C0
:1016100001F010010843216848602068C16921F485
:101620000061C1616565012084F85100002070BD32
:101630002DE9F04186B0044614216846FEF79EFE6F
:101640005348524B2268002451491438022503267E
:1016500005279A4215D10A6842F480520A60096847
:1016600001F480510591016841F0010101600068B9
:10167000694600F001000590E020CDE900054548ED
:101680001AE0434BDFF810C11B1FDFF810816245E1
:101690001AD1196841F480411960196801F4804138
:1016A0000591016841F002010160006800F002004C
:1016B00005904FF4604030E002AA82E8D000FFF7C6
:1016C00065F906B0BDE8F081DFF8D4C0624529D1E4
:1016D000196841F400411960196801F4004105914D
:1016E000016841F004010160016801F00401059105
:1016F000016841F002010160006802AA00F00200E6
:1017000005904FF48050CDE90005062782E8D0000F
:1017100069462448FFF73AF91820CDE900056946E3
:101720004046C9E7204B9A4215D10A6842F400525C
:101730000A60096801F400510591016841F0100147
:1017400001600068694600F0100005906420CDE952
:1017500000051648B0E7164B9A42B2D10A6842F427
:1017600080120A60096801F480110591016841F056
:10177000200101600068694600F0200005904FF4E8
:101780006070CDE900050B4896E70000003001408D
:10179000443802400000024000380040000402408B
:1017A000003C0040000802400034014000100240AC
:1017B000005001400014024010B5401EB0F1807F7F
:1017C00001D3012010BD4FF0E02460610F216017AC
:1017D00001F0F6F90020A06107202061002010BD73
:1017E00010B590F83C20012A22D0012280F83C203C
:1017F000CA688C6822F4407222434C6822F48062EA
:1018000022430C6822F4006222430C6922F48052C5
:1018100022434C6922F400522243C969002322F476
:1018200080420A4301684A6480F83C30002010BDC1
:10183000022010BD70B590F83C20012A32D001245E
:1018400080F83C40022280F83D2003685A689D6879
:1018500022F070060A6832435A60134B02689A42BB
:1018600014D0B2F1804F11D0104B9A420ED0104BD1
:101870009A420BD00F4B9A4208D00F4B9A4205D098
:101880000E4B9A4202D00E4B9A4204D1496825F081
:1018900080031943916080F83D40002180F83C109E
:1018A000084670BD022070BD0000014000040040E9
:1018B00000080040000C00400004014000400140CE
:1018C0000018004010B5040003D094F83D0010B19A
:1018D00007E0012010BD002084F83C00204600F005
:1018E0001FF8022084F83D00211D206800F042FF0F
:1018F000012084F8460084F83E0084F83F0084F814
:10190000400084F8410084F8420084F8430084F8E1
:10191000440084F8450084F83D00002010BD00001C
:1019200008B5104A01681048914207D1016841F09A
:1019300001010160006800F0010005E00B4A9142DE
:1019400004D10948001F04E0009008BD084A9142F4
:10195000FBD1016841F002010160006800F0020063
:10196000F2E700000000014044380240000400405B
:101970000004014070B5044690F83C0000250128A1
:1019800017D0012684F83C60022084F83D002068CE
:10199000826822F0770222F47F4282600868502831
:1019A00038D00DDC20284FD005DC90B3102811D1A1
:1019B0004AE0022070BD302846D040280AD13BE0E2
:1019C00060282FD070280DD0B0F5805F03D0B0F51F
:1019D000005F12D0012584F83D60002084F83C00AF
:1019E000284670BDCB68D1E90121206800F02EFFA8
:1019F0002068816841F0770109E0CB68D1E90121D5
:101A0000206800F023FF2068816841F480418160F4
:101A1000E1E719E0CA684968206800F0EBFF50214F
:101A2000206806E0CA684968206800F0F4FF602179
:101A3000206800F015FFCEE7CA684968206800F00A
:101A4000D9FF40212068F4E7226801461046F0E7FC
:101A500070B586B0044614216846FEF78FFC2C480A
:101A60002A4E23680021441502220125B3420FD1DA
:101A7000036843F0100303600068009400F0100056
:101A80000590CDE90121CDE903156946214811E012
:101A9000214EB34212D1036843F00403036000688F
:101AA000009400F004000590CDE90121CDE9031276
:101AB00069461A48FEF76AFF06B070BD184CA3428B
:101AC0000FD1036843F4807303600068009500F44D
:101AD00080700590CDE90121CDE9031269461148D6
:101AE000E8E7114CA342E7D1036843F080030360A9
:101AF000006800F08000059060140090CDE901219D
:101B00000320CDE9031069460848D3E700000140EF
:101B1000303802400010024000040040000802403B
:101B2000000C00400020024000040140001C024064
:101B300070B5044690F83C00002501280FD0012024
:101B400084F83C006AB1042A0FD0082A11D00C2A6C
:101B500013D00125002084F83C00284670BD0220E7
:101B600070BD206800F084FEF4E7206800F0B0FE4D
:101B7000F0E7206800F0E2FEECE7206800F012FFDA
:101B8000E8E710B5040003D094F83D0010B107E079
:101B9000012010BD002084F83C00204600F01EF813
:101BA000022084F83D00211D206800F0E3FD0120A3
:101BB00084F8460084F83E0084F83F0084F8400032
:101BC00084F8410084F8420084F8430084F844001B
:101BD00084F8450084F83D00002010BD704770B5C2
:101BE000044690F83C0000260D4601280FD0012045
:101BF00084F83C006AB1042A1DD0082A2FD00C2A90
:101C00003FD00126002084F83C00304670BD022001
:101C100070BD206800F02CFE2068816941F0080149
:101C200081612068816921F00401816120688169F6
:101C30002A69114311E0206800F04AFE206881699A
:101C400041F4006181612068816921F480618161D2
:101C5000206881692A6941EA02218161D2E720680E
:101C600000F06CFE2068C16941F00801C161206884
:101C7000C16921F00401C1612068C1692A69114369
:101C800011E0206800F08EFE2068C16941F4006117
:101C9000C1612068C16921F48061C1612068C169A6
:101CA0002A6941EA0221C161ACE710B5040003D002
:101CB00094F83D0010B107E0012010BD002084F829
:101CC0003C00204600F01EF8022084F83D00211D53
:101CD000206800F04FFD012084F8460084F83E00A3
:101CE00084F83F0084F8400084F8410084F8420002
:101CF00084F8430084F8440084F8450084F83D00EB
:101D0000002010BD08B500680649884208D1064881
:101D1000016841F008010160006800F008000090CF
:101D200008BD0000000C00404038024070B50400BF
:101D300004D094F84100002510B106E0012070BDE8
:101D400084F84050204600F023F8242084F8410015
:101D50002068C16821F40051C160204600F06EFE89
:101D60002068016921F4904101612068416921F0F6
:101D70002A0141612068C16841F40051C160656475
:101D8000202084F8410084F842006563002070BD83
:101D90002DE9F04F87B0044614216846FEF7EEFAAD
:101DA0005848574B2268002456491038022503260C
:101DB000DFF854B14FF4406C4FF008099A4213D148
:101DC0000A6842F400220A60096801F400210591C2
:101DD000016841F0040101600068694600F00400F8
:101DE000CDE9049058466AE0464BDFF820811B1D80
:101DF0000727DFF81CA142451BD1196841F01001EB
:101E00001960196801F010010591016841F00101A4
:101E100001600068694600F0010005904FF4C06061
:101E2000CDE9000550462FE0FEF7B0FD07B0BDE854
:101E3000F08FDFF8E08042452AD10A6842F4003290
:101E40000A60096801F400310591016841F001015F
:101E50000160016801F001010591016841F008018C
:101E60000160006802AA00F0080005900420CDE996
:101E7000000582E8D00069465046FEF787FD402005
:101E8000CDE900052448694602AA82E8D000CBE7E4
:101E9000DFF88880424517D10A6842F480220A6040
:101EA000096801F480210591016841F00201016097
:101EB0000068694600F00200CDE904701848CDE9D9
:101EC00000C5CDE90246AFE716498A42AED119688E
:101ED00041F020011960196801F0200105910168A5
:101EE00041F004010160006802AA00F004000590BE
:101EF000C020CDE9000582E850026946584693E7C4
:101F0000004C0040403802400008024000100140F0
:101F10000000024000440040000C02400048004025
:101F20000004024000140140FEE700000E4810B516
:101F30000C4901600621416000214FF400228160BC
:101F4000C0E90312D2004261017641768176C17602
:101F500001774177FEF701FC002801D072B6FEE759
:101F600010BD000000640040380000200E4810B58D
:101F70000C4901600621416000214FF4002281607C
:101F8000C0E90312D2004261017641768176C176C2
:101F900001774177FEF7E1FB002801D072B6FEE73A
:101FA00010BD000000680040600000202DE9F04FE7
:101FB00087B014216846FEF7E1F96D4800240168F6
:101FC00041F010010160016801F010010591016804
:101FD00041F480710160016801F48071059101682C
:101FE00041F020010160016801F0200105910168C4
:101FF00041F080010160016801F0800105910168F4
:1020000041F004010160016801F0040105910168DB
:1020100041F001010160016801F0010105910168D1
:1020200041F002010160016801F0020105910168BF
:1020300041F008010160016801F0080105910168A3
:1020400041F0400101600068DFF8289100F0400095
:102050000590002218214846FEF7B2FDDFF818A1CE
:10206000002240215046FEF7ABFD002202214348EA
:10207000FEF7A6FD48F21206002231464048FEF760
:102080009FFD002204213F48FEF79AFDDFF8F8B0DB
:1020900041F20307002239465846FEF791FD00221F
:1020A0007A213A48FEF78CFD4FF4806800224146C1
:1020B0003748FEF785FD182000900125CDE9015431
:1020C000694648460394FEF761FC40F60400CDE9FA
:1020D000000469462D480294FEF758FC4020009009
:1020E000CDE90154694650460394FEF74FFC0220A7
:1020F0000090CDE90154694620480394FEF746FC60
:102100000096CDE9015469461D480394FEF73EFC54
:1021100004200090CDE9015469461A480394FEF763
:1021200035FC0097CDE90154694658460394FEF703
:102130002DFC280200900320CDE9010469460F48D8
:10214000FEF724FC7A200090CDE9015469460F483F
:102150000394FEF71BFCCDF80080CDE901546946DD
:102160000B480394FEF712FC07B0BDE8F08F0000A7
:1021700030380240001002400014024000080240C3
:1021800000000240001C0240000402400020024007
:1021900000180240134810B511490160124941600E
:1021A00000214FF480428160C0E9031241618161E6
:1021B000C1610162FEF750FD08B172B6FEE7002171
:1021C0000848FEF709FD08B172B6FEE70021054890
:1021D000FEF723FD002801D072B6FEE710BD000017
:1021E0000054004088000020801A0600134810B5F3
:1021F000114901601249416000214FF48042816021
:10220000C0E9031241618161C1610162FEF724FDF1
:1022100008B172B6FEE700210848FEF7DDFC08B100
:1022200072B6FEE700210548FEF7F7FC002801D052
:1022300072B6FEE710BD000000580040DC00002030
:10224000801A06000F4810B50D4901604FF48271E5
:10225000416000218160C1604FF400720161C0E9FA
:1022600005121022C0E90721416281620A21C16280
:10227000FFF780F9002801D072B6FEE710BD00001C
:1022800000300140300100200F4810B50D490160B9
:102290004FF48271416000218160C1604FF400728F
:1022A0000161C0E905120822C0E90721416281628B
:1022B0000A21C162FFF75EF9002801D072B6FEE77D
:1022C00010BD000000380040880100200F4810B504
:1022D0000D4901604FF4827141600021022281604A
:1022E000C0E90312012242615202C0E906210162E3
:1022F000416281620A21C162FFF73CF9002801D0E6
:1023000072B6FEE710BD0000003C0040E001002076
:102310000E4810B50C4901604FF4827141600021F4
:102320008160C1604FF400720161C0E90512C161B2
:102330000162416281620A21C162FFF71BF9002834
:1023400001D072B6FEE710BD003401403802002013
:102350000F4810B50D4901604FF4827141600021B2
:1023600002228160C0E903121202C0E905121022A4
:10237000C0E90721416281620A21C162FFF7FAF8D0
:10238000002801D072B6FEE710BD000000500140E9
:102390009002002010B596B000240F941094119470
:1023A000129413941C2108A81494FDF7E7FF202130
:1023B0006846FDF7E3FF27482549C0E900144FF6BA
:1023C000FF71C0E90241046144618461FFF77AFA58
:1023D00008B172B6FEE74FF480500F900FA91D4868
:1023E000FFF7C8FA08B172B6FEE71A48FFF7C9FB53
:1023F00008B172B6FEE7139413A916481494FFF7B8
:1024000019FA08B172B6FEE7089409940A940B947D
:102410000C940D94002208A90E480E94FFF788FB37
:1024200008B172B6FEE700944FF40050CDE90440C5
:10243000029401940394694606480794FFF7D0F983
:1024400008B172B6FEE70348FFF702FB16B010BDF5
:1024500000000140E802002010B58EB0002407946F
:10246000089409940A940B941C2168460C94FDF777
:1024700085FF1E481C49C0E900144FF6FF71C0E9F2
:10248000024104618461FFF71DFA08B172B6FEE7EC
:102490004FF48050079007A91448FFF76BFA08B172
:1024A00072B6FEE71148FFF700FC08B172B6FEE70E
:1024B0000B940BA90D480C94FFF7BCF908B172B648
:1024C000FEE76020CDE9000402940C22694607482B
:1024D0000494FFF784FB08B172B6FEE70348FFF7E8
:1024E000B7FA0EB010BD0000000400403003002019
:1024F00010B58AB0002407941C2168460894FDF7A3
:102500003DFF16481449C0E9001441F28731C0E983
:10251000024104618461FFF7C8FB08B172B6FEE7AF
:10252000079407A90D480894FFF784F908B172B61B
:10253000FEE76020CDE9000402940C2269460748BA
:102540000494FFF74CFB08B172B6FEE70348FFF7AF
:102550007FFA0AB010BD0000000C00407803002094
:1025600010B596B000240F94109411941294139403
:102570001C2108A81494FDF701FF20216846FDF7EF
:10258000FDFE28482649C0E900144FF6FF71C0E956
:102590000241046144618461FFF794F908B172B6A5
:1025A000FEE74FF480500F900FA91E48FFF7E2F9A5
:1025B00008B172B6FEE71B48FFF777FB08B172B6A9
:1025C000FEE7139413A917481494FFF733F908B1E1
:1025D00072B6FEE76020CDE908040A940B940C94CF
:1025E0000D94002208A90F480E94FFF7F8FA08B1DD
:1025F00072B6FEE700944FF40050CDE90440029417
:1026000001940394694607480794FFF7E9F808B175
:1026100072B6FEE70348FFF71BFA16B010BD0000C4
:1026200000040140C0030020FEE7FEE7704770474A
:10263000FEF72CBC30B593B030216846FDF79EFE06
:1026400014210CA8FDF79AFE20480025016841F0EE
:1026500080510160006800F0805011901C480168B2
:1026600021F4404141F4804101600068022400F4FB
:102670004040119001200090000401908001CDE9BC
:102680000640192008904FF4B470CDE909040420E5
:102690000B906846FEF7B8FD08B172B6FEE7FEF78C
:1026A0008FFC08B172B6FEE70F20CDE90C04802044
:1026B0000E904001CDE90F0502210CA8FEF7B8FCF1
:1026C000002801D072B6FEE713B030BD403802409A
:1026D000007000400248016841F4700101607047D9
:1026E00088ED00E030B5204C20684FF0000283B246
:1026F0001E4801780D0635D4DD0706D04D0604D5F9
:10270000CD43AD0613D0491C017099072AD5037833
:1027100017495D0612D543F080030370144B143340
:102720001B684360086820F0020008601AE041F06E
:10273000800101704FF0FF314160E6E740234260C5
:10274000037009481038036823F001030360084B45
:102750001B1D1A600B6843F002030B60016841F017
:1027600001010160226030BD100C004028000020F3
:10277000200C0040F0B50268294C2A4D2A4E2B4F00
:102780002B4B4FF0804CA04209D0604507D0A842A7
:1027900005D0B04203D0B84201D0984204D122F013
:1027A000700E4A6842EA0E02A0421BD0604519D062
:1027B000A84217D0B04215D0B84213D0984211D0D9
:1027C0001C4DA8420ED01C4DA8420BD01B4DA84258
:1027D00008D01B4DA84205D01A4DA84202D01A4D70
:1027E000A84203D122F44075CA682A434D6922F0F9
:1027F00080022A4302608A68C2620A688262A0423A
:1028000001D0984201D10969016301214161016947
:10281000C90703D0016921F001010161F0BD000089
:10282000000001400004004000080040000C00408F
:1028300000040140004001400044014000480140C4
:1028400000180040001C00400020004010B58468C3
:1028500042EA032224F47F440A432243826010BDEB
:10286000826822F070020A4342F0070181607047DB
:10287000F0B5036A026A22F00102026242688469CA
:10288000124E24F073050C682C4323F002058B686C
:102890002B430D4DA84201D0B04205D123F00807CB
:1028A000CB683B4323F00403A84201D0B04205D1DA
:1028B0004D6922F4407215438A692A43426084615B
:1028C000496841630362F0BD00000140000401401B
:1028D000F0B5026A036A23F0100303624368846957
:1028E0000D6824F4E64444EA05248D6822F02002B1
:1028F00042EA05120F4D104EA84201D0B04206D157
:10290000CF6822F0800242EA071222F04002A84279
:1029100001D0B04207D14D6923F4406343EA8503F7
:102920008D6943EA8503436084614968816302627B
:10293000F0BD00000000014000040140F0B5026A53
:10294000036A23F4807303624368C46922F400724B
:1029500024F073050C68124E2C438D6842EA052260
:102960000E4DA84201D0B04206D1CF6822F40062D9
:1029700042EA072222F48062A84201D0B04207D185
:102980004D6923F4405343EA05138D6943EA051367
:102990004360C4614968C1630262F0BD0000014048
:1029A0000004014030B5046A026A22F480520262D7
:1029B0004268C3690D6823F4E64343EA05238D6842
:1029C00024F4005444EA0534084DA84202D0084DCE
:1029D000A84204D14D6922F4804242EA8512426045
:1029E000C36149680164046230BD00000000014019
:1029F0000004014010B5036A046A24F00104046273
:102A0000846924F0F00444EA021423F00A020A4321
:102A10008461026210BD10B5036A046A24F01004D8
:102A20000462846923F0A00324F4704444EA02326F
:102A300043EA01118261016210BD000070B50446D5
:102A400000680169E26821F4405111430161216984
:102A5000A068E26908436169114308432168CA68B4
:102A600049F20C639A430243CA6020684169A26933
:102A700021F440711143416131492068884202D0FC
:102A80003049884202D1FEF77DFB01E0FEF76AFB88
:102A9000E2690023192164253226B2F5004F6268ED
:102AA00028D0A0FB0101930F9200FDF7F0FB014637
:102AB000B0FBF5F06FF01802504301EB800006EB1D
:102AC0000010B0FBF5F000F0F002B1FBF5F002EB06
:102AD0000012B1FBF5F06FF01803584301EB8000D2
:102AE00006EB0010B0FBF5F000F00F002168104479
:102AF000886070BDA0FB010192185B41FDF7C7FB28
:102B00000146B0FBF5F00201B1FBF5F06FF01803E0
:102B1000584301EB800006EBC000B0FBF5F000F07D
:102B2000F80002EB4002B1FBF5F0584301EB8000E6
:102B300006EBC000B0FBF5F000F00700D6E70000A0
:102B400000100140001401400B4810B500688006D9
:102B500010D50A4801210022417007498270091DE1
:102B60000B68074C01786354491CC9B201703529C0
:102B700000D3027010BD000000440040140000208B
:102B8000A0050020FEE700000A480B49007800F08D
:102B90007F00086008490020083108600748D0F825
:102BA000801221B15FF00001C0F88012704701214E
:102BB000FAE7000030000020002C00400080404276
:102BC0000907090E002804DB00F1E02080F800145A
:102BD000704700F00F0000F1E02080F8141D7047EE
:102BE000704770B54FF40775B0FBF5F1CCB2B0FB90
:102BF000F5F105FB110604E0284600F00DF8641E0F
:102C0000E4B2002CF8D1002E04D03046BDE870406C
:102C100000F002B870BD00000849498848434FF0F1
:102C2000E02148610020886101220A610A69D30716
:102C300001D0D203FAD508618861704732000020C4
:102C4000FEF72CF9FFF7F6FCFFF7B0F9FFF76EF986
:102C5000FFF78CF9FFF79EFAFFF7C8FAFFF7F2FAD1
:102C6000FFF712FBFFF732FBFFF752FBFFF770FB9A
:102C7000FFF790FBFFF7F0FBFFF73AFCFFF770FC64
:102C80002B482A494FF4E13600240160C0E9016471
:102C90000C25C460C0E904458461C461FFF746F8AF
:102CA00008B172B6FEE72248224948300160224945
:102CB000C0E90114C460C0E904458461C461FFF740
:102CC00035F808B172B6FEE719481C49903001602A
:102CD0001B49C0E90114C460C0E904458461C461B2
:102CE000FFF724F808B172B6FEE711481549D8304D
:102CF0000160C0E90164C460C0E904458461C46145
:102D0000FFF714F808B172B6FEE710480E490160EB
:102D10000F49C0E90114C460C0E904458461C4617D
:102D2000FFF704F808B172B6FEE7FEE7004C00407A
:102D3000080400200010014020A1070000440040CA
:102D4000A0A61D00004800400014014028050020F6
:102D5000703839004FF04070E1EE100A7047000003
:102D6000000000000000010203040607080900003B
:102D70000000010203040000982D0008000000205C
:102D800038000000E8010008D02D000838000020BD
:102D9000400C0000040200080000000001000000D8
:102DA00010000000000000000024F40000000000FB
:102DB0000000000000000000000000000000000013
:102DC00000000000000000007F0000000000000084
:04000005080001AD41
:00000001FF
