:020000040800F2
:1000000028210020A102000851510008994500084C
:100010004D5100087D0A0008016200080000000040
:100020000000000000000000000000006D58000803
:10003000B30F0008000000002953000837590008DA
:100040005D630008BB020008BB020008BB02000899
:10005000BB020008BB020008ED0F0008BB0200084D
:100060006D100008A1100008BB020008BB020008C8
:10007000BB020008BB020008BB020008BB0200086C
:10008000BB020008BB020008BB020008BB0200085C
:10009000810A0008BB020008BB020008BB0200087E
:1000A000BB020008BB020008BB020008BB0200083C
:1000B000BB020008155A0008255A0008BB020008B8
:1000C000BB020008BB020008BB020008BB0200081C
:1000D000BB020008BB020008BB020008BB0200080C
:1000E00039100008BB020008BB020008BB02000870
:1000F000BB020008BB020008BB020008BB020008EC
:10010000BB020008BB020008BB020008BB020008DB
:10011000BB020008BB020008BB020008BB020008CB
:10012000BB020008BB020008BB020008BB020008BB
:10013000BB020008BB020008BB020008BB020008AB
:10014000910A0008BB020008BB020008BB020008BD
:10015000BB020008BB020008BB020008F1610008F6
:10016000BB020008BB020008BB020008BB0200087B
:10017000BB020008BB020008BB0200080000000030
:10018000BB020008BB020008BB020008BB0200085B
:10019000BB020008BB020008BB020008BB0200084B
:1001A000BB020008BB020008BB02000800F002F816
:1001B00000F067F80AA090E8000C82448344AAF19A
:1001C0000107DA4501D100F05CF8AFF2090EBAE898
:1001D0000F0013F0010F18BFFB1A43F0010318477B
:1001E000BCC10000DCC100000A444FF0000C10F854
:1001F000013B13F0070408BF10F8014B1D1108BFA5
:1002000010F8015B641E05D010F8016B641E01F844
:10021000016BF9D113F0080F1EBF10F8014BAD1C94
:100220000C1B09D16D1E58BF01F801CBFAD505E0B2
:1002300014F8016B01F8016B6D1EF9D59142D6D30C
:10024000704700000023002400250026103A28BF34
:1002500078C1FBD8520728BF30C148BF0B60704738
:10026000642900F01181782900F04A81732900F097
:100270004883002070471FB50BF062FF1FBD10B50B
:1002800010BD00F075FB1146FFF7F5FF07F010F900
:1002900000F093FB03B4FFF7F2FF03BC06F0D2FAC1
:1002A0000948804709480047FEE7FEE7FEE7FEE70A
:1002B000FEE7FEE7FEE7FEE7FEE7FEE70448054946
:1002C000054A064B70470000015A0008AD010008BE
:1002D000281B002028210020281D0020281D002088
:1002E000704753EA020C00F069802DE9F04B4FF0A3
:1002F0000006002B1FBFB3FA83F503FA05F424FAB6
:1003000005F65E4012BF1643B2FA82F502FA05F412
:10031000C5F120051EBF22FA05FC44EA0C04203575
:1003200056EA044C4FEA144418BF641C4FF000080E
:100330004FF00009904271EB030C39D3002919BF2B
:10034000B1FA81F701FA07F6B0FA80F700FA07F67A
:10035000C7F120071EBF20FA07FC46EA0C0620372B
:10036000B6FBF4FCA7EB0507103F07F01F0BCBF122
:1003700020060CFA0BFB2CFA06F644BFB346002607
:10038000202FA4BF5E464FF0000B5BEA060C08BFAF
:100390004FF0010B19EB0B09ABFB027C48EB060895
:1003A000C01B06FB02CC0BFB03CC71EB0C01C1E7BD
:1003B0000B46024641464846BDE8F08B13B54FF068
:1003C00000004FF00001AFF30080BDE81C40704713
:1003D0000FB4044910B503AA029800F097FA10BCB4
:1003E0005DF814FB7400002070B504468569006850
:1003F000C10601D5302600E02026C00707D070BD19
:10040000D4E9012130469047206A401C20626D1ECD
:10041000F6D570BD70B5044685690078C00707D170
:1004200070BDD4E9012120209047206A401C206241
:100430006D1EF6D570BD70B50C460546012A05D077
:100440002878800600D5EA69002302E0012305E050
:100450005B1C934202D2E05C0028F9D1A869E6183F
:10046000C01AA861286A184428622846FFF7BCFF12
:1004700004E0D5E9012114F8010B9047B442F8D308
:100480002846FFF7C7FF70BD2DE9F041064600245E
:1004900010687529314616A510D0AFF300800028EA
:1004A00002DA404213A507E031688A0701D512A598
:1004B00002E0490704D511A5012401E0AFF3008053
:1004C00000210A2206F1240709E0B0FBF2FCB0FB90
:1004D000F2F302FB1C00303078541846491C002807
:1004E000F3D123462A463046BDE8F04100F09EB9DC
:1004F000000000002D0000002B0000002000000084
:1005000070B504460D4621461068AFF3008021887F
:10051000090502D50F4A7A4402E00E4A7A440E32A7
:10052000002104F1240305E000F00F060009965DA8
:100530005E54491C0028F7D120780023000704D519
:10054000702D02D009B1022311322046BDE870405F
:1005500000F06CB9F0BD00002DE9F05F894604465B
:100560004FF0000ADFF824B1FB44C0F820A0204679
:10057000E168884700287DD0252806D0D4E90121EC
:100580009047206A401C2062F1E700255F46204624
:10059000E16888472028064607DB312E05D2B819C6
:1005A00010F8200C08B10543F1E7A80701D525F0A4
:1005B0000405C4F81CA00027C4F818A02A2E09D0EE
:1005C000304605F0ADFF38B304EB8708303EC8F87D
:1005D000186019E059F8041B204604EB870291616A
:1005E000E1688847012F064618D1E069002820DA23
:1005F00025F020051DE0D8F8180000EB800006EB80
:1006000040003038C8F818002046E16888470646A0
:1006100005F086FF0028EED1012F0AD02E2E08D13A
:100620002046E16888477F1C0646022F45F02005DA
:10063000C4DBA069002803DA404245F00105A0614F
:10064000E80701D025F01005A6B1A6F14100192850
:1006500002D8203645F400654A46314620462560DA
:100660004D46FFF7FDFD60B1012807D0ED1D25F0D7
:10067000070000E007E000F1080978E705F1040948
:1006800075E730467AE7206ABDE8F09FC6BD0000F6
:1006900040EA010310B59B070FD1042A0DD310C8FF
:1006A00008C9121F9C42F8D020BA19BA884201D951
:1006B000012010BD4FF0FF3010BD1AB1D30703D099
:1006C000521C07E0002010BD10F8013B11F8014B4F
:1006D0001B1B07D110F8013B11F8014B1B1B01D16B
:1006E000921EF1D1184610BD032A40F2308010F05E
:1006F000030C00F0158011F8013BBCF1020F6244BD
:1007000098BF11F801CB00F8013B38BF11F8013B4D
:10071000A2F1040298BF00F801CB38BF00F8013BFA
:1007200011F0030300F02580083AC0F0088051F86A
:10073000043B083A51F804CBA0E80810F5E7121D75
:100740005CBF51F8043B40F8043BAFF30080D20794
:1007500024BF11F8013B11F801CB48BF11F8012B60
:1007600024BF00F8013B00F801CB48BF00F8012B83
:10077000704710B5203AC0F00B80B1E81850203A0D
:10078000A0E81850B1E81850A0E81850BFF4F5AF31
:100790005FEA027C24BFB1E81850A0E8185044BFBB
:1007A00018C918C0BDE810405FEA827C24BF51F828
:1007B000043B40F8043B08BF7047D20728BF31F81C
:1007C000023B48BF11F8012B28BF20F8023B48BF6D
:1007D00000F8012B70474FF0000200B51346944615
:1007E0009646203922BFA0E80C50A0E80C50B1F189
:1007F0002001BFF4F7AF090728BFA0E80C5048BF9D
:100800000CC05DF804EB890028BF40F8042B08BF3A
:10081000704748BF20F8022B11F0804F18BF00F836
:10082000012B704770477047704770472DE9F047BC
:100830000D4699469246044600F124080168880650
:1008400004D5E06921F01001216000E00120A842F8
:1008500001DD471B00E00027A1697A1902EB0900BE
:10086000081AA0612078C00602D42046FFF7BCFD1C
:10087000002608E0D4E901211AF806009047206A12
:10088000401C761C20624E45F4DB2078C0060AD559
:100890002046FFF7A9FD06E0D4E90121302090476A
:1008A000206A401C2062381EA7F10107F4DC07E033
:1008B000D4E9012118F805009047206A401C206205
:1008C000281EA5F10105F3DC2046FFF7A3FD2078E3
:1008D000000602D50220BDE8F0870120FBE710B535
:1008E000436913B1AFF3008001E0FFF7A4FD0120DD
:1008F00010BD127800F124010A7000224A70012212
:10090000EDE711684FF0FF32E9E70000074B70B5E3
:100910000D467B4400F015F80446284600F024F804
:1009200010B14FF0FF3070BD204670BD3B65000038
:1009300000487047C41A002001694A1C0261087807
:10094000704700B58FB0CDE901310021059105490F
:100950007944CDE9031011466846FFF7FDFD0FB05D
:1009600000BD0000E5FFFFFF007B00F08000704746
:100970007546FFF7DDFFAE4605006946534620F099
:100980000700854618B020B5FFF798FCBDE8204069
:100990004FF000064FF000074FF000084FF0000B3B
:1009A00021F00701AC46ACE8C009ACE8C009ACE8EE
:1009B000C009ACE8C0098D46704710B50446AFF3D6
:1009C00000802046BDE81040FFF764BC10B503F07E
:1009D0000DFE10BD70B50446002603F0B9FE254695
:1009E000E11704EB11610912A02202EB4101C8B228
:1009F00003F07AFE03F0F8FEE11704EB116109122F
:100A0000A4EB0121C8B203F06FFE03F0EDFE03F08A
:100A10009FFEA12003F068FE03F0E6FE002003F035
:100A20002DFE064603F0BAFE304670BD70B5044692
:100A30000E4603F08DFE2546E11704EB1161091205
:100A4000A02202EB4101C8B203F04EFE03F0CCFE3F
:100A5000E11704EB11610912A4EB0121C8B203F004
:100A600043FE03F0C1FE304603F03EFE03F0BCFE41
:100A700003F094FE0A2001F0F9FA70BD00BFFEE712
:100A800010B5024800F0D7FE10BD0000780B002022
:100A900010B5024800F0CFFE10BD0000A00B0020F2
:100AA0002DE9F04F2DED068B87B082460D460020D4
:100AB000069005900390049000248146834600260A
:100AC000002780460290B54806784FF6FF7000EA8E
:100AD0000626B24840780643082D69D2DFE805F0C3
:100AE000680438686DA9DEFEAC484479200204B27F
:100AF000AA4880790443B4F57A7F28DC14F57A7F1C
:100B000025DB20460BF01DF941EC1A0B9FEDA40BE1
:100B100053EC102B0BF02CF941EC190B9FEDA20BB1
:100B200053EC102B0BF038F841EC180B0BF0DCF801
:100B300081461FFA89F20021032001F0F9F99C484F
:100B400000944268816833469AA0FFF741FC1EE199
:100B500092484479200204B2904880790443B4F565
:100B60007A7F29DC14F57A7F26DB20460BF0E9F842
:100B700041EC1A0B9FED8A0B53EC102B0BF0F8F89D
:100B800041EC190B9FED880B53EC102B0BF004F884
:100B900041EC180B0BF0A8F881461FFA89F20021EE
:100BA000032001F0C5F9824842688168234600E0CD
:100BB000E6E08FA0FFF70CFCE9E0784880787C49FC
:100BC000886008468068000288600846806873492B
:100BD000C9780843764988600846806800028860C2
:100BE000084680686D49097908437149886008465C
:100BF00080688860694801680391406804909DF8A6
:100C0000080020F03E0008308DF808009DF808002C
:100C100020F001008DF80800BDF8080020F4F8600D
:100C2000ADF80800042203A95046029B00F00DFD18
:100C3000ADE05A48016803914068049078488068A4
:100C4000000C8DF8110076480089000A8DF812001A
:100C50007348007A8DF813009DF8080020F03E00DC
:100C60000A308DF808009DF8080020F001008DF88A
:100C70000800BDF8080020F4F860ADF8080008226C
:100C800003A95046029B00F0E0FC65488368484891
:100C90004268816863A0FFF79BFB78E03F4890F8CB
:100CA00005804FEA0828807940EA0808BDF8081056
:100CB000C1F38410414605F0CDFD63480078072854
:100CC00035D1624805F002FE074600205E490870F3
:100CD0005F48007801282AD1002000E028E08DF844
:100CE0000E008DF80F008DF81000380C8DF81100F3
:100CF000380A8DF81200F8B28DF813009DF808003C
:100D000020F03E000C308DF808009DF8080020F01F
:100D100001008DF80800BDF8080020F4F860ADF877
:100D20000800082203A95046029B00F08EFC2EE02A
:100D30001A48007801280DD1464804F0DDFA012058
:100D40004549C8704548006845F278010844434960
:100D5000086009E011480078022802D13E49C870B5
:100D600002E000203C49C8703C48006800901048F0
:100D7000426881683A4803683A48FFF729FB06E071
:100D80000B484268816838A0FFF722FB00BF00BF14
:100D900007B0BDEC068BBDE8F08F000024000020FA
:100DA000F2D24D6210D82540000000008006E040DD
:100DB000A01100205554433A202564206D73204330
:100DC00041533A2025642C206672616D654E756D25
:100DD0003A2025642C207570646174652053706519
:100DE0006564203A25642072706D0A0D00000000D1
:100DF0005554433A202564206D73204341533A20D3
:100E000025642C2075706461746520537065656479
:100E1000203A25642072706D2C20740A0D000000A9
:100E2000BC1100205554433A2564206D7320434182
:100E3000533A20256420437572506F73692069739B
:100E4000202564200A0D0000A0000020A40000203E
:100E50008000002068110020AC1100207C000020E0
:100E60007800002044C300085554433A2564206D9F
:100E700073204341533A2025642052656376204510
:100E800072726F7220436F6E746578742050616364
:100E90006B0A0D0070B504460D46D4F89C0050F85E
:100EA0002500C0F307464FF0FF30D4F8A01021F81A
:100EB0001500012104F1B000815531462046D4F8D7
:100EC000AC20904770BD2DE9FF4FDDE90D456CE08A
:100ED000A5EB020A4FFA8AF3002B04DD91F800A07B
:100EE0000AFA03FA05E091F800A0C3F1000B4AFAF0
:100EF0000BFA0AF0FF0C002B02DDC5F1080A01E035
:100F0000C2F1080A0AF0FF08804501DD824600E0D0
:100F1000C246564605EB060B4FF0FF0A0AFA0BFADB
:100F2000C5F1080E4FF0FF0B4BFA0EFB4AEA0B0A15
:100F30000AF0FF072CEA070994F800A00AEA070A5A
:100F400084F800A094F800A04AEA090A84F800A0F6
:100F500002EB060A0AF0FF0A5246BAF1070F0BDD50
:100F60000022DDF80CA0BAF1000F02D04FF0FF3ADA
:100F700001E04FF0010A514405EB060A0AF0FF0AAE
:100F80005546BAF1070F0BDD0025DDF83CA0BAF19C
:100F9000000F02D04FF0FF3A01E04FF0010A544435
:100FA000A0EB060A0AF0FF0000BF002890DCBDE8B5
:100FB000FF8F70470146481C80B10A48B0F9000015
:100FC000814205D107480088401E00B2054A1080C2
:100FD000002001EB4102044B03F832004FF0FF30D8
:100FE00070470000B8000020041A002010B50A2045
:100FF00001F03CF80C480068012811D10B4800684A
:1010000008B9012000E00020084908600848D0F82D
:10101000800208B9012000E000200449091D086091
:1010200001200449086010BD000240428082404215
:1010300000804042143C014010B50A2001F016F82F
:101040000748006838B90748006808B9012000E07F
:101050000020044908604FF400500349086010BDA7
:101060003402414284824042143C014010B50A20BF
:1010700000F0FCFF0748006838B90748006808B965
:10108000012000E0002004490860042003490860B2
:1010900010BD00000882434280824042143C01405F
:1010A00010B50A2000F0E2FF0C48006888B90C482F
:1010B000006808B9012000E00020094908600948DB
:1010C000D0F8800208B9012000E000200449091F7F
:1010D000086008200449086010BD00000C824342EB
:1010E0008482404200804042143C014072B600BFFE
:1010F000FEE702460868B0B9D1E901031843CB689E
:1011000018430B6918434B6918438B691843CB6923
:1011100018430B6A18434B6A184313686FF30E03A6
:101120001843106019E0D1E9070318434B6A1843CC
:10113000136823F4F84318431060D1E901031843FE
:10114000CB6818430B6918434B6918438B691843E4
:1011500053686FF30E031843506000207047024637
:10116000506943F6FE73984340EA41005061002005
:1011700070472DE9F04105460C4616460027D4E994
:1011800000010843A168491E40EA4110E16840EAB5
:10119000412029696FF315010843286101F01AF90C
:1011A00007460AE0701C40B126B101F013F9C01BDC
:1011B000B04202D90320BDE8F081A86900F0200008
:1011C0002028EFD00020F6E730B50346FAB90868CA
:1011D000401E4C68641E40EA04148868401E44EABD
:1011E0000024C868401E44EA0034088A401E44EACD
:1011F0000044888A401E44EA0054087E401E44EAA7
:1012000000609C6804F070442043986022E0C86845
:10121000401E0403888A401E44EA00509C680E4D1C
:101220002C40204398600868401E4C68641E40EAC9
:1012300004148868401E44EA0024088A401E44EAD8
:101240000044087E401E44EA0060DC6804F07044FC
:101250002043D860002030BDFF0F0FFF2DE9F0477D
:101260000C46DDE90867002100258C4600BF60E0E0
:101270004FF0010808FA01F504EA050CAC4557D116
:10128000D0F800804FEA410A4FF0030909FA0AF941
:1012900028EA0908C0F80080D0F800804FEA410928
:1012A00002FA09F948EA0908C0F80080012A01D0C9
:1012B000022A27D1D0F808804FEA410A4FF00309EB
:1012C00009FA0AF928EA0908C0F80880D0F8088065
:1012D0004FEA410906FA09F948EA0908C0F8088006
:1012E000D0F804904FF0010808FA01F829EA08093B
:1012F000C0F80490D0F8048003FA01F948EA09081C
:10130000C0F80480D0F80C804FEA410A4FF003097E
:1013100009FA0AF928EA0908C0F80C80D0F80C800C
:101320004FEA410907FA09F948EA0908C0F80C80B0
:10133000491C10299CD3BDE8F08770B504460E46C1
:10134000D4F83801008860B3002527E004F1B0002C
:10135000405D0F2820D020680078A8421CD004F5FA
:10136000A070405D00280BDCD4F8340120B1294680
:101370002046D4F834219047012104F1B0004155B2
:1013800004F5A070405D401EC1B204F5A070415547
:101390002946204606F092F8681CC5B2802DD5DBA0
:1013A00005E0B4F93001FFF705FEA4F8300170BD87
:1013B00010B5024692F82030012B01D0022B06D145
:1013C00010684069084314686061002010BD506ACD
:1013D00040F4802050620120F8E7F0B504460D4645
:1013E0001E4694F8207020688368A86800B900E061
:1013F00000BF012F01D0022F7DD103F0806030B9F2
:1014000003F0006018B903F0805000287ED0C3F3C9
:101410000161012088403060A86860B9B5F800C05B
:10142000E86840EA4C5C206800F5C07000EB0110F1
:10143000C0F800C00FE0D5E901C040EACC00D5F803
:101440000CC040EA0C00D4F800C00CF5C07C0CEBDA
:10145000011CCCF80000D5F810C0206800F5C07061
:1014600000EB0110C0F804C0287D01280ED12068CF
:1014700000F5C07000EB0110406840F4807C2068EB
:1014800000F5C07000EB0110C0F804C0D079000670
:1014900092F806C040EA0C4092F805C040EA0C20E1
:1014A00092F804C040EA0C00D4F800C00CF5C07CEF
:1014B0000CEB011CCCF80C00D078000692F802C0AE
:1014C00040EA0C4092F801C040EA0C2092F800C0BB
:1014D00040EA0C00D4F800C00CF5C07C0CEB011CF9
:1014E000CCF80800206800F5C07000EB011000681F
:1014F00040F0010C01E00FE008E0206800F5C0704A
:1015000000EB0110C0F800C00020F0BD606A40F49C
:10151000001060620120F8E7606A40F48020606299
:101520000120F2E7F0B504460A46216894F82050FD
:10153000012D01D0022D7ED1424901F500710868CC
:1015400040F001000860086820F47C5008600868DA
:10155000566A40EA06200860107D00F01F06012050
:1015600000FA06F3C8699843C861A1F50071D06913
:10157000C8B9D1F80C029843C1F80C02908880B227
:10158000968940EA064601F51070576940F83760C1
:10159000108880B2168940EA064601F51070576936
:1015A00000EBC7004660D069012819D1D1F80C02C0
:1015B0001843C1F80C02908880B2168840EA0646AB
:1015C00001F51070576940F83760908980B216892C
:1015D00040EA064601F51070576900EBC700466007
:1015E000906928B9D1F804029843C1F8040204E0D4
:1015F000D1F804021843C1F80402106928B9D1F8DF
:1016000014029843C1F8140204E0D1F814021843FC
:10161000C1F81402106A012804D1D1F81C02184341
:10162000C1F81C02D1F8000220F00100C1F800024C
:101630000020F0BDFFE7606A40F480206062012076
:10164000F7E700000064004070472DE9F04188B0E2
:1016500080460D4614461E460020079000270420B1
:10166000039000200490019002968DF8180014E079
:10167000082C01D9082000E020460590EA1907ABA4
:1016800001A94046FFF7A9FE18B1012008B0BDE846
:10169000F081059807440598241A002CE8D1002011
:1016A000F4E770B5044694F82050012D01D0022DC6
:1016B0007DD151B92068C06800F0030080B9606A2C
:1016C00040F400106062012070BD2068006900F0E5
:1016D000030028B9606A40F4001060620120F3E75B
:1016E000206800F5D87000EB0110006800F00400DD
:1016F0009060906840B9206800F5D87000EB011048
:101700000068400D106007E0206800F5D87000EB1D
:1017100001100068C0085060206800F5D87000EB28
:101720000110006800F00200D060206800F5D87059
:1017300000EB0110406800F00F00082802D30820D9
:10174000106108E0206800F5D87000EB01104068D7
:1017500000F00F001061206800F5D87000EB011058
:10176000406800F47F40000A9061206800F5D8705E
:1017700000EB01104068000C5061206800F5D87043
:1017800000EB011080681870206800F5D87000EB3D
:101790000110806800F47F40000A5870206800F54E
:1017A000D87000EB0110806800F47F0000E03CE09E
:1017B000000C9870206800F5D87000EB011080686C
:1017C000000ED870206800F5D87000EB0110C068DA
:1017D0001871206800F5D87000EB0110C06800F4A3
:1017E0007F40000A5871206800F5D87000EB0110A6
:1017F000C06800F47F00000C9871206800F5D87074
:1018000000EB0110C068000ED87131B92068C068C3
:1018100040F020002668F06005E02068006940F094
:1018200020002668306100204EE7606A40F4802086
:101830006062012048E72DE9F05F0446002520683A
:1018400046692068D0F80490206887682068D0F83E
:101850000CA02068D0F810B02068D0F8188006F0EE
:101860000100002855D007F00100C0B10120216817
:10187000886007F0020018B1204600F052FB0EE02D
:1018800007F0040010B145F4006508E007F0080017
:1018900010B145F4805502E0204600F041FB07F40A
:1018A0008070C8B14FF480702168886007F40070C0
:1018B00018B1204600F037FB0EE007F4806010B14D
:1018C00045F4005508E007F4006010B145F4804588
:1018D00002E0204600F026FB07F48030C8B14FF448
:1018E00080302168886007F4003018B1204600F08D
:1018F0001CFB0EE007F4802010B145F4004508E021
:1019000007F4002010B145F4803502E0204600F0D5
:101910000BFB06F0080038B10AF0100020B145F4C6
:10192000007510202168C86006F0040040B10AF07C
:10193000080028B108202168C860204600F0FEF9A0
:1019400006F0020038B12068C06800F0030010B152
:10195000204600F0F5F906F0400038B10BF0100019
:1019600020B145F4806510202168086106F0200050
:1019700040B10BF0080028B108202168086120461A
:1019800000F09CFA06F0100038B12068006900F001
:10199000030010B1204600F092FA06F4003040B186
:1019A00009F0100028B1102021684860204600F09E
:1019B00087FA06F4803040B109F0080028B1082009
:1019C00021684860204600F0B1FA06F4004088B370
:1019D00009F0040078B306F4807020B108F001002B
:1019E00008B145F0010506F4007020B108F00200CE
:1019F00008B145F0020506F4806020B108F004004B
:101A000008B145F0040506F40060A0B108F07000CC
:101A100088B108F07000402817D006DC10280BD0E1
:101A200020280CD0302819D10CE0502810D0602884
:101A300014D110E01DE019E045F008050FE045F075
:101A400010050CE045F0200509E045F0400506E0F2
:101A500045F0800503E045F4807500E000BF00BF5D
:101A60002068806920F07000216888610420216866
:101A700048602DB1606A284360622046FFF7E4FDAC
:101A8000BDE8F09F70B504460CB9012070BD94F814
:101A9000200010B9204600F0AFF82068006840F040
:101AA00001002168086000F095FC05460DE000F09B
:101AB00091FC401B0A2808D9606A40F4003060623B
:101AC000052084F820000120E0E72068406800F04D
:101AD00001000028EBD02068006820F00200216897
:101AE000086000F077FC05460DE000F073FC401B39
:101AF0000A2808D9606A40F400306062052084F842
:101B000020000120C2E72068406800F002000028A1
:101B1000EBD1207E012806D12068006840F08000CB
:101B20002168086005E02068006820F080002168D6
:101B30000860607E012806D12068006840F04000FF
:101B40002168086005E02068006820F040002168F6
:101B50000860A07E012806D12068006840F02000BF
:101B60002168086005E02068006820F020002168F6
:101B70000860E07E012806D12068006820F010008F
:101B80002168086005E02068006840F010002168C6
:101B90000860207F012806D12068006840F0080016
:101BA0002168086005E02068006820F008002168CE
:101BB0000860607F012806D12068006840F00400BA
:101BC0002168086005E02068006820F004002168B2
:101BD0000860D4E9020108432169084361690843A8
:101BE0006168491E08432168C861002060620120C5
:101BF00084F82000002049E710B586B0044614217F
:101C000001A8FEF7E8FD4749206888423AD14648D6
:101C10000068401C444908600846006801280FD14C
:101C200000BF002000904148006840F000703F492C
:101C300008600846006800F00070009000BF00BF18
:101C400000BF0020009039481038006840F00100C3
:101C50003649103908600846006800F0010000901D
:101C600000BF00BF4FF4C05001900220029000203E
:101C70000390032004900920059001A92C4800F04E
:101C80009BFA4CE02B492068884248D100BF0020D5
:101C900000902648006840F08060244908600846AB
:101CA000006800F08060009000BF00BF1E48006820
:101CB000401C1D4908600846006801280FD100BF7C
:101CC000002000901948006840F000701749086033
:101CD0000846006800F00070009000BF00BF00BF21
:101CE0000020009011481038006840F002000F49B1
:101CF000103908600846006800F00200009000BF3C
:101D000000BF602001900220029000200390032079
:101D100004900920059001A9074800F04DFA06B08B
:101D200010BD000000640040000000204038024068
:101D300000000240006800400004024070470000BC
:101D400030B58DB005460020019002900024324845
:101D5000416832A0FEF73CFB3848854230D101ABE8
:101D600006AA00212846FFF79CFC35490798086021
:101D700008460088C0F384103249097888421BD194
:101D80002F48007800F00100B0B100BF05E001A8C5
:101D9000005D2D490855601CC4B2082CF7DB2848AB
:101DA0000078C0F344021C48416828A0FEF710FBED
:101DB0000120304908712DE000202E49087129E0EA
:101DC0002D48854221D101AB06AA00212846FFF704
:101DD00068FC069880B2ADF80C000A98C0B28DF885
:101DE0000F0001A904A80A9AFEF7C3FC03A923481F
:101DF00004F041FE22480068401C21490860084662
:101E0000016820A0FEF7E4FA04E00348416824A03A
:101E1000FEF7DEFA0DB030BDA01100202564206D64
:101E200073204341533A2072656376204E657720D4
:101E30004672616D65200A0D00000000780B0020DD
:101E40001C00002080000020240000202564206D5C
:101E500073204341533A2072656376204E657720A4
:101E60004672616D65205479706520697320256420
:101E70000A0D0000AC110020A00B00203C0900203E
:101E8000B000002025642043414E32205265637625
:101E9000204E6577204672616D6521200A0D000095
:101EA00025642072656376206572726F72206361AB
:101EB0006E206672616D65200A0D000070477047E4
:101EC000704770B5044694F82000012822D1022002
:101ED00084F820002068006820F001002168086074
:101EE00000F078FA05460DE000F074FA401B0A286D
:101EF00008D9606A40F400306062052084F8200050
:101F0000012070BD2068406800F001000028EBD17E
:101F10006062F6E7606A40F4002060620120F0E74A
:101F200070477047704770477047704770470000B0
:101F30002DE9F84306460F46144600200090002580
:101F4000804647EAC600C0B28DF80000200A8DF82E
:101F50000100E0B28DF80200002210210C4800F0D0
:101F600033FA00BF09E00DEB0501322301220948D5
:101F700001F013FA8046681CC5B2032DF3DB012281
:101F80001021034800F020FA4046BDE8F883000025
:101F9000000002401C0C002070B50446A56D00F046
:101FA00019FA064694F83500022808D080206065AA
:101FB00000BF002084F8340000BF012070BD2068FD
:101FC000006820F01600216808602068406920F051
:101FD000800021684861206C08B9A06C28B1206895
:101FE000006820F00800216808602068006820F080
:101FF00001002168086010E000F0ECF9801B052862
:102000000BD920206065032084F8350000BF002034
:1020100084F8340000BF0320D0E72068006800F097
:1020200001000028E8D194F85C103F208840A860A7
:10203000012084F8350000BF002084F8340000BF80
:1020400000BFBBE7014691F83500022803D080208D
:10205000486501207047052081F835000868006850
:1020600020F001000A6810600020F3E770B5044614
:1020700000F0B0F906462546681C10B10448007807
:10208000054400BF00F0A6F9801BA842FAD370BD3A
:102090001400002070B5044600F084FB0949B0FB31
:1020A000F1F5284601F077FB601EFFF7DFFF00F037
:1020B00079FB4FF47A71B0FBF1F5284601F06BFB28
:1020C00070BD000040420F0000B587B0142102A887
:1020D000FEF781FB3148006808B107B000BD012060
:1020E0002E49086000BF002001902D48006840F094
:1020F00001002B4908600846006800F001000190CB
:1021000000BF00BF4FF63F00029002200390002066
:102110000490032005900C20069002A9214800F0AD
:102120004BF80D2002900220039001200490032020
:1021300005900C20069002A91B4800F03DF848F2DB
:102140003710029002200390002004900320059095
:102150000C20069002A9154800F02EF84FF6837067
:1021600002900220039000200490032005900C2090
:10217000069002A90E4800F01FF84CF2037002907E
:102180000220039000200490032005900C2006906C
:1021900002A9084800F010F800BF9EE704000020E4
:1021A0003838024000140240000802400018024083
:1021B00000100240000C0240F8B502460B46002514
:1021C000002400200021E0E0012606FA01F51E6847
:1021D00006EA0504AC4274D11E7906F00306012E0E
:1021E00004D01E7906F00306022E13D190684F002A
:1021F0000326BE40B0434F00DE68BE4030439060CF
:10220000506801268E40B0431E79C6F300168E40FA
:10221000304350601E7906F00306032E09D0D068C3
:102220004F000326BE40B0434F009E68BE4030437F
:10223000D0601E7906F00306022E13D1CF0802F1FA
:10224000200656F827004E07F70E0F26BE40B04373
:102250004F07FF0E1E69BE403043CF0802F1200633
:1022600046F8270010684F000326BE40B0431E7991
:1022700006F003064F00BE40304310605E6806F46F
:102280004036002E1DD000BF00260096414E366815
:1022900046F480463F4F3E603E46366806F4804630
:1022A000009600BF00BF3C4E8F0856F827008E07EF
:1022B000370F0F26BE40B043384EB24202D100263F
:1022C0002EE061E0364EB24201D1012628E0354EC3
:1022D000B24201D1022623E0334EB24201D103269D
:1022E0001EE0324EB24201D1042619E0304EB24215
:1022F00001D1052614E02F4EB24201D106260FE08F
:102300002D4EB24201D107260AE02C4EB24201D135
:10231000082605E02A4EB24201D1092600E00A262D
:102320008F073F0FBE4030431B4E8F0846F82700F3
:10233000244E3068A0435E6806F4801606B1204340
:10234000204E3060361D3068A0435E6806F40016EB
:1023500006B120431B4E361D30601A4E361F3068C2
:10236000A0435E6806F4003606B12043154E361FC2
:102370003060361F3068A0435E6806F4803606B1D0
:102380002043104E083E3060491C1029FFF41CAF5A
:10239000F8BD000044380240083801400000024007
:1023A0000004024000080240000C024000100240FD
:1023B0000014024000180240001C024000200240AD
:1023C00000240240083C01400AB1816101E00B0495
:1023D0008361704701480068704700000C000020CE
:1023E00003480068034909780844014908607047B8
:1023F0000C0000201400002010B50D48006840F4C7
:1024000000700B4908600846006840F4806008606E
:102410000846006840F480700860032000F0A6F8C9
:102420000F2000F007F800F02BF8002010BD00008E
:10243000003C024070B504460E4800784FF47A71B3
:10244000B1FBF0F00C490968B1FBF0F5284601F04A
:10245000A2F908B1012070BD102C07D2002221463C
:10246000501E00F045F80548046001E00120F2E745
:102470000020F0E7140000201800002010000020C9
:1024800008B500BF002000900E48006840F480406E
:102490000C4908600846006800F48040009000BFC6
:1024A00000BF00BF00200090081F006840F080506F
:1024B000091F08600846006800F08050009000BFC7
:1024C00000BF08BD443802400146084600280DDB25
:1024D00000BF00BF00F01F0301229A4043099B0088
:1024E00003F1E023C3F8002100BF00BF00BF704725
:1024F0002DE9F05F80460D461646002703F050FF99
:10250000074639462A46334601F00700C0F1070A5C
:10251000BAF1040F02D94FF0040A01E0C0F1070A32
:10252000D14600F1040ABAF1070F02D24FF0000AB7
:1025300001E0A0F1030AD4464FF0010A0AFA09FAB1
:10254000AAF1010A0AEA020A0AFA0CFA4FF0010B90
:102550000BFA0CFBABF1010B0BEA030B4AEA0B0481
:102560002146404603F024FFBDE8F09F00BF00F085
:102570000702064B19684FF6FF031940044B0B4343
:1025800043EA0221014B196000BF70470CED00E0E7
:102590000000FA0538B5002400BF002000901D4857
:1025A000006840F080501B4908600846006800F051
:1025B0008050009000BF00BF012017490864FFF75A
:1025C00009FF044607E0FFF705FF001BB0F57A7F1F
:1025D00001D9032038BD1148406800F48030B0F5BF
:1025E000803FF0D101200C494864FFF7F3FE044618
:1025F00007E0FFF7EFFE001BB0F57A7F01D903205B
:10260000E8E70648406800F40030B0F5003FF0D13C
:102610000020DFE74038024000000E42007000401A
:1026200070B504460D460CB9012070BD58480068CD
:1026300000F00F00A84209D255490D700846006805
:1026400000F00F00A84201D00120EEE7207800F052
:10265000020002281DD1207800F00400042805D1D2
:102660004C48006840F4E0504A490860207800F087
:102670000800082805D14748006840F460404549F3
:1026800008604448006820F0F000A1680843414910
:102690000860207800F00100A8B36068012807D125
:1026A0003C4808380068C0F34040B8B90120BCE796
:1026B0006068022802D06068032807D135480838CE
:1026C0000068C0F3406048B90120AEE731480838DF
:1026D0000068C0F3400008B90120A6E72D48006853
:1026E00020F00300616808432A490860FFF772FE82
:1026F000064609E0FFF76EFE801B41F288318842F2
:1027000002D9032091E707E02248006800F00C009E
:102710006168B0EB810FEDD11D48006800F00F003B
:10272000A84209D91A490D700846006800F00F0048
:10273000A84201D0012078E7207800F004000428A6
:1027400007D11448006820F4E050E16808431149BB
:102750000860207800F00800082808D10D480068BB
:1027600020F46040216940EAC1000A49086000F095
:102770003FF808490968C1F30311074A515CC84092
:102780000649086006480068FFF754FE00204CE741
:10279000003C0240083802404AC1000818000020EE
:1027A0001000002001480068704700001800002059
:1027B00000B5FFF7F7FF04490968C1F38221034A16
:1027C000515CC84000BD0000083802405AC10008F2
:1027D00000B5FFF7E7FF04490968C1F34231034A36
:1027E000515CC84000BD0000083802405AC10008D2
:1027F0002DE9F047002400250026A1462548006861
:1028000000F00C0020B1042805D008283AD105E0DA
:10281000DFF8849039E0DFF8849036E01D48001F2F
:10282000006800F03F041B48001F006800F48000AF
:1028300078B11A481749091F0968C1F38811A0FB2C
:1028400001700146224600233846FDF74AFD054641
:102850000EE011480F49091F0968C1F38811A0FB58
:1028600001700146224600233846FDF73AFD054631
:102870000848001F0068C0F30140401C4600B5FB3B
:10288000F6F902E0DFF8109000BF00BF4846BDE84F
:10289000F0870000083802400024F40040787D01F1
:1028A000F8B504460CB90120F8BD207800F001000D
:1028B000002874D0F948006800F00C0004280DD0FE
:1028C000F648006800F00C00082813D1F348001FF8
:1028D000006800F48000B0F5800F0BD1EF48083895
:1028E0000068C0F34040002859D06068002856D1E5
:1028F0000120D9E700BF6068B0F5803F08D1E74804
:102900000838006840F48030E449083908601EE067
:102910006068B0F5A02F0DD1E0480838006840F499
:102920008020DE49083908600846006840F480309D
:1029300008600CE0D9480838006820F48030D74996
:10294000083908600846006820F48020086000BF4D
:10295000606890B1FFF73EFD054606E0FFF73AFDDF
:10296000401B642801D903209EE7CC480838006842
:10297000C0F340400028F1D011E0FFF72BFD0546E1
:1029800006E0FFF727FD401B642801D903208BE7F1
:10299000C24808380068C0F340400028F1D12078D0
:1029A00000F0020002285FD1BC48006800F00C0073
:1029B00058B1BA48006800F00C0008281CD1B7488C
:1029C000001F006800F48000B0B9B44808380068FF
:1029D000C0F3400020B1E068012801D0012063E786
:1029E000AE480838006820F0F800216940EAC100CC
:1029F000AA490839086037E0E06800B30120A84917
:102A00000860FFF7E7FC054606E0FFF7E3FC401B24
:102A1000022801D9032047E7A04808380068C0F31E
:102A200040000028F1D09D480838006820F0F800E8
:102A3000216940EAC10099490839086014E0002082
:102A400097490860FFF7C6FC054606E0FFF7C2FCA1
:102A5000401B022801D9032026E790480838006867
:102A6000C0F340000028F1D1207800F008000828C9
:102A70002CD16069A8B101208A490860FFF7AAFC3F
:102A8000054606E0FFF7A6FC401B022801D90320FB
:102A90000AE782486C300068C0F340000028F1D09B
:102AA00014E000207F490860FFF794FC054606E02B
:102AB000FFF790FC401B022801D90320F4E6774879
:102AC0006C300068C0F340000028F1D1207800F09D
:102AD0000400042870D1002770483830006800F0E6
:102AE000805090B900BF002000906C4838300068DA
:102AF00040F080506949383108600846006800F0AD
:102B00008050009000BF00BF01276748006800F4B4
:102B10008070B0B96448006840F480706249086011
:102B2000FFF758FC054606E0FFF754FC401B02285F
:102B300001D90320B8E65C48006800F480700028E2
:102B4000F2D000BFA068012808D15448683000685E
:102B500040F001005149683108601DE0A068052877
:102B60000DD14E486830006840F004004B49683190
:102B700008600846006840F0010008600CE0474823
:102B80006830006820F00100444968310860084658
:102B9000006820F00400086000BFA068A8B1FFF73B
:102BA00019FC054609E0FFF715FC401B41F288318E
:102BB000884202D9032077E626E03848683000686A
:102BC000C0F340000028EED013E0FFF703FC0546F9
:102BD00008E0FFF7FFFB401B41F28831884201D932
:102BE000032061E62D4868300068C0F340000028EB
:102BF000EFD1012F07D129483830006820F08050EC
:102C000026493831086000BFA069002845D0234814
:102C1000006800F00C0008285DD0A069022845D1AA
:102C200000201F490866FFF7D5FB054606E0FFF7C1
:102C3000D1FB401B022801D9032035E6174808388C
:102C40000068C0F340600028F1D1D4E907010843CF
:102C5000616A40EA81110122A06AC2EB500041EA98
:102C600000412C20005D41EA00600C49091F08600A
:102C700001200B490866FFF7ADFB054606E0FFF7AC
:102C8000A9FB401B022801D903200DE603480838A0
:102C90000068C0F340600028F1D049E008380240E5
:102CA00000004742800E474200700040002021494A
:102CB0000866FFF78FFB054606E0FFF78BFB401B1E
:102CC000022801D90320EFE51B480068C0F34060EB
:102CD0000028F2D12CE0A069012800D1E4E51648D3
:102CE000001D0668A069012820D006F48001E06973
:102CF00081421BD106F03F01206A814216D147F67E
:102D0000C0703040616AB0EB811F0FD106F44031D2
:102D10000122A06AC2EB5000B1EB004F06D106F0D1
:102D200070612C20005DB1EB006F01D00120BBE58C
:102D30000020B9E500004742003802402DE9F0418B
:102D400004460D4616460027012211020A48FFF7E5
:102D50003BFB322332462946204601F0BDFB0746A5
:102D600000224FF480710448FFF72EFB17B103A037
:102D7000FDF72EFBBDE8F0810008024052533438C5
:102D8000352053656E64204661696C656421200AB4
:102D90000D00000070B504460D460CB9012070BD51
:102DA00094F82C0028B9002084F82D00204600F06B
:102DB00011F8022084F82C00211D2068FEF799F9F3
:102DC0002946D4E90002FEF7FFF9012084F82C001F
:102DD0000020E4E710B50446FFF776F910BD70B5A2
:102DE00004460D4694F82C00022800D170BD94F8DA
:102DF0002C0001280AD1022084F82C0029462068E2
:102E0000FEF7ADF9012084F82C0001E00120EDE788
:102E10000020EBE72DE9F04104460E46174694F8F2
:102E20002C50022D02D10220BDE8F081012D01D0ED
:102E3000052D12D1022084F82C003A463146206834
:102E4000FEF797F93068022803D1052084F82C009A
:102E500005E0012084F82C0001E00120E4E70020D7
:102E6000E2E7000038B5FF2000903224234601221B
:102E70006946034800F0D2F99DF8000038BD000013
:102E8000240D002031B5002432252B46012269464D
:102E9000044800F082FA044614B103A0FDF798FA42
:102EA00038BD0000240D00202053504934205365C4
:102EB0006E64204661696C656421200A0D00000083
:102EC00010B504460CB9012010BD606A38B96068BD
:102ED000B0F5827F00D105E00021E16102E0002130
:102EE000216161610021A16294F8510028B900209C
:102EF00084F85000204600F047F8022084F8510082
:102F00002068006820F0400021680860A08800F474
:102F10008270218901F404410843A18901F4006110
:102F20000843217C01F002010843217D01F00101E9
:102F30000843218B01F400710843217F01F038011F
:102F400008432021095D01F080010843218D01F42F
:102F500000510843216808600421A06901EA10407B
:102F600094F8241001F0100108432168486020689B
:102F7000C06920F400602168C861002060650120FC
:102F800084F8510000209FE710B586B00446142154
:102F900001A8FDF720FC96492068884230D100BF87
:102FA000002000909348006840F4805091490860E8
:102FB0000846006800F48050009000BF00BF00BFCA
:102FC000002000908B481438006840F001008949C7
:102FD000143908600846006800F00100009000BF46
:102FE00000BFE02001900220029000200390032007
:102FF00004900520059001A97F48FFF7DDF8F5E072
:103000007E492068884233D100BF00200090794873
:10301000001F006840F480407649091F0860084698
:10302000006800F48040009000BF00BF00BF002097
:10303000009070481438006840F002006D4914395F
:1030400008600846006800F00200009000BF00BF62
:103050004FF4604001900220029000200390032072
:1030600004900520059001A96548FFF7A5F8BDE08B
:103070006449206888424FD100BF002000905D481D
:10308000001F006840F400405A49091F08600846C4
:10309000006800F40040009000BF00BF00BF0020A7
:1030A000009054481438006840F004005149143925
:1030B00008600846006800F00400009000BF00BFF0
:1030C00000BF002000900846006840F00200086041
:1030D0000846006800F00200009000BF00BF88149E
:1030E000019002200290002003900320049006200B
:1030F000059001A94448FFF75FF8182001900220CD
:10310000029000200390032004900620059001A95E
:103110003B48FFF751F869E03C492068884230D1CC
:1031200000BF002000903348006840F4005031494F
:1031300008600846006800F40050009000BF00BF1F
:1031400000BF002000902B481438006840F01000A9
:103150002849143908600846006800F01000009003
:1031600000BF00BF64200190022002900020039065
:10317000032004900520059001A92548FFF71CF8BD
:1031800034E024492068884230D100BF00200090FC
:103190001848006840F48010164908600846006826
:1031A00000F48010009000BF00BF00BF002000901E
:1031B00010481438006840F020000E4914390860A7
:1031C0000846006800F02000009000BF00BF4FF4E8
:1031D0006070019002200290002003900320049070
:1031E0000520059001A90C48FEF7E6FF06B010BDCA
:1031F00000300140443802400000024000380040E6
:1032000000040240003C004000080240003401403D
:103210000010024000500140001402402DE9F84324
:103220000446884616461D464FF0000994F85100A2
:10323000012802D04FF00209A8E06068B0F5827F53
:103240000DD1A06858B9042084F851003346424695
:1032500041462046009500F07EF9BDE8F88300BFA6
:1032600094F85000012801D10220F6E7012084F8EB
:10327000500000BFFFF7AEF80746B8F1000F00D0CE
:1032800016B94FF0010981E0042084F851000020B4
:103290006065C4F83880A687E6872063A086E0864C
:1032A00020646064A068B0F5004F0BD1206800680E
:1032B00020F04000216808602068006820F4804009
:1032C000216808602068006800F04000402805D0B0
:1032D0002068006840F0400021680860E06810BB8A
:1032E0001DE02068806800F0010050B12068007B7C
:1032F000A16B0870A06B401CA063E08F401EE087AC
:103300000DE0FFF767F8C01BA84201D3681C00B9A5
:103310002DB94FF00309012084F8510036E0E08F09
:103320000028DED121E01DE02068806800F0010067
:1033300050B12068C068A16B0880A06B801CA0639E
:10334000E08F401EE0870DE0FFF744F8C01BA84265
:1033500001D3681C00B92DB94FF00309012084F88E
:10336000510013E0E08F0028DED13A46294620467E
:1033700002F082F908B120206065606D10B14FF055
:10338000010902E0012084F8510000BF00BF0020C5
:1033900084F8500000BF48465FE72DE9F84F044627
:1033A000884616461D464FF0000A00BF94F85000AC
:1033B000012802D10220BDE8F88F012084F85000D6
:1033C00000BFFFF707F80746B14694F851000128FF
:1033D00002D04FF0020AB7E0B8F1000F00D016B9E2
:1033E0004FF0010AB0E0032084F85100002060652E
:1033F000C4F83080A686E686A063A087E087606474
:103400002064A068B0F5004F0BD12068006820F060
:103410004000216808602068006840F4804021680E
:1034200008602068006800F04000402805D020684F
:10343000006840F0400021680860E068B0F5006F67
:1034400032D1606810B1B9F1010F09D1206B008849
:103450002168C860206B801C2063E08E401EE086DF
:103460001EE02068806800F0020002280AD1206B6C
:1034700000882168C860206B801C2063E08E401E9D
:10348000E0860DE0FEF7A6FFC01BA84201D3681C32
:1034900000B92DB94FF0030A012084F8510053E020
:1034A000E08E0028DDD131E0606810B1B9F1010F84
:1034B00009D1206B007821680873206B401C2063C1
:1034C000E08E401EE0861EE02068806800F002006A
:1034D00002280AD1206B007821680873206B401CF9
:1034E0002063E08E401EE0860DE0FEF773FFC01BF8
:1034F000A84201D3681C00B92DB94FF0030A01207E
:1035000084F8510020E0E08E0028DDD13A462946BB
:10351000204602F0FBF808B120206065A06850B991
:1035200000BF002000902068C0680090206880687C
:10353000009000BF00BF606D10B14FF0010A02E0C3
:10354000012084F8510000BF00BF002084F8500023
:1035500000BF50462FE72DE9FF5F0446884691469D
:103560001D460E9E012002900020019000BF94F89D
:103570005000012803D1022004B0BDE8F09F0120D3
:1035800084F8500000BFFEF725FF074694F851B0BD
:1035900060680390AA46BBF1010F0BD00398B0F509
:1035A000827F04D1A06810B9BBF1040F02D00220C1
:1035B0000190E9E0B8F1000F03D0B9F1000F00D09D
:1035C00015B901200190DFE094F85100042802D0E1
:1035D000052084F8510000206065C4F83890E58724
:1035E000A587C4F83080E586A586206460642068DD
:1035F000006800F04000402805D02068006840F0D6
:10360000400021680860E068B0F5006F4DD1606847
:1036100010B1BAF1010F09D1206B00882168C86090
:10362000206B801C2063E08E401EE08636E0206820
:10363000806800F00200022810D1E08E70B102987C
:1036400001280BD1206B00882168C860206B801C8A
:103650002063E08E401EE086002002902068806893
:1036600000F0010068B1E08F58B12068C068A16B1C
:103670000880A06B801CA063E08F401EE0870120C3
:103680000290FEF7A7FEC01BB04207D3701C28B102
:1036900003200190012084F8510075E0E08E00289D
:1036A000C5D1E08F0028C2D14DE0606810B1BAF1F9
:1036B000010F09D1206B007821680873206B401C32
:1036C0002063E08E401EE08637E02068806800F0CE
:1036D0000200022810D1E08E70B1029801280BD1AF
:1036E000206B007821680873206B401C2063E08EFB
:1036F000401EE086002002902068806800F00100F3
:1037000068B1E08F58B12068C068A16B0870A06BE9
:10371000401CA063E08F401EE08701200290FEF76E
:1037200059FEC01BB04201D3701C00B92EB9032052
:103730000190012084F8510026E0E08E0028C4D1D9
:10374000E08F0028C1D13A463146204601F0DEFF25
:1037500020B1012001902020606515E0A06850B9DB
:1037600000BF002000902068C0680090206880683A
:10377000009000BF00BF606D10B10120019002E019
:10378000012084F8510000BF00BF002084F85000E1
:1037900000BF0198F0E670B504462546681EB0F1FA
:1037A000807F01D301200FE0681E4FF0E0214861C7
:1037B0000F214FF0FF3002F0FBFD00204FF0E02121
:1037C000886107200861002070BD704770470000C5
:1037D00030B502460B4600BF92F83C00012801D1EB
:1037E000022030BD012082F83C0000BF022082F898
:1037F0003D00106844681068816824F070041868FF
:10380000044310684460184D1068A8421BD010682B
:10381000B0F1804F17D0154D1068A84213D0144D49
:103820001068A8420FD0134D1068A8420BD0124D5B
:103830001068A84207D0114D1068A84203D0104D5F
:103840001068A84205D121F0800158680143106832
:103850008160012082F83D0000BF002082F83C001A
:1038600000BF00BFBDE700000000014000040040B1
:1038700000080040000C00400004014000400140EE
:103880000018004010B504460CB9012010BD94F892
:103890003D0028B9002084F83C00204600F026F8BE
:1038A000022084F83D00211D206802F0C3F80120A9
:1038B00084F8460000BF84F83E0001213F200155F6
:1038C000402001554120015500BF00BF012084F870
:1038D000420043200155442001554520015500BFB9
:1038E000012084F83D000020D0E7000010B586B02C
:1038F0000446142101A8FCF76EFF3B49206888426A
:103900000FD100BF002000903848006840F001004F
:10391000364908600846006800F00100009000BFCA
:103920005FE033492068884231D100BF0020009019
:103930002E48001F006840F002002C49091F086053
:103940000846006800F00200009000BF00BF00BF02
:103950000020009025481438006840F004002349F6
:10396000143908600846006800F00400009000BFA9
:1039700000BF48150190022002900020039004909F
:103980000220059001A91B48FEF716FC29E01A4900
:103990002068884211D100BF002000901348001F0A
:1039A000006840F004001149091F086008460068DB
:1039B00000F00400009000BF13E010492068884226
:1039C0000FD100BF002000900848006840F00200BE
:1039D000064908600846006800F00200009000BF39
:1039E00000BF06B010BD0000000001404438024096
:1039F00000040040000802400008004000040140AC
:103A0000014691F83D00012801D0012070470220B5
:103A100081F83D000868C06840F001000B68D8607C
:103A20001A4B086898421BD00868B0F1804F17D035
:103A3000174B0868984213D0164B086898420FD06D
:103A4000154B086898420BD0144B0868984207D071
:103A5000134B0868984203D0124B086898420CD167
:103A60000868806800F00702062A0CD00868006821
:103A700040F001000B68186005E00868006840F03D
:103A800001000B6818600020C0E700000000014042
:103A90000004004000080040000C00400004014009
:103AA00000400140001800402DE9F04104460D4659
:103AB000002700BF94F83C00012802D10220BDE895
:103AC000F081012084F83C0000BF022084F83D0012
:103AD0002068866826F0770626F47F462068866090
:103AE0002868502833D00CDC202850D004DC002873
:103AF0004BD0102851D149E0302849D040284CD132
:103B000039E060282DD0702807D0B0F5805F03D051
:103B1000B0F5005F41D10DE041E0D5E902136A68DC
:103B2000206801F0FBFF2068866846F07706206871
:103B3000866034E0D5E902136A68206801F0EEFF80
:103B40002068806840F480402168886027E0EA6847
:103B50006968206801F0F6FF5021206801F0E9FF54
:103B60001DE0EA686968206801F0FFFF60212068B5
:103B700001F0DFFF13E0EA686968206801F0E2FF06
:103B80004021206801F0D5FF09E000BF00BF00BF61
:103B90002968206801F0CDFF01E0012700BF00BFC8
:103BA000012084F83D0000BF002084F83C0000BFE5
:103BB000384684E7704770B504462068C5682068B9
:103BC000066906F00200022819D105F00200022859
:103BD00015D1401F21680861012020772068806985
:103BE00000F0030018B12046FFF7E4FF05E020468F
:103BF00000F097F8204600F095F80020207706F0B6
:103C00000400042819D105F00400042815D1C0438C
:103C100021680861022020772068806900F44070E4
:103C200018B12046FFF7C6FF05E0204600F079F8FE
:103C3000204600F077F80020207706F008000828DA
:103C400019D105F00800082815D1C0432168086182
:103C5000042020772068C06900F0030018B12046D6
:103C6000FFF7A8FF05E0204600F05BF8204600F0D3
:103C700059F80020207706F01000102819D105F01F
:103C80001000102815D1C043216808610820207752
:103C90002068C06900F4407018B12046FFF78AFF21
:103CA00005E0204600F03DF8204600F03BF80020FB
:103CB000207706F0010048B105F0010030B16FF047
:103CC000010021680861204600F02EF806F080000F
:103CD000802809D105F08000802805D1C0432168E3
:103CE00008612046FFF771FD06F04000402809D129
:103CF00005F04000402805D1C043216808612046F6
:103D000000F0B2F806F02000202809D105F02000CC
:103D1000202805D1C043216808612046FFF756FDE1
:103D200070BD70477047000070B5044614253C48CC
:103D3000844268D13B480068401C3A4908603A48D0
:103D400000683A49884205D237480068401C364925
:103D5000086008E000203449086048603448007872
:103D6000401C33490870304800686421B0FBF1F210
:103D700001FB120028BB2C484068401C2A494860BF
:103D80002B48007B142804DB0120294948730020BC
:103D900008732848407801280ED12648C078401C76
:103DA0002449C8700A250846C0780A2804DB002088
:103DB000C8704870012088701D48007B401C1C4959
:103DC0000873194840684FF47A71B0FBF1F201FBB7
:103DD000120060B91448406817490968401A06D0B3
:103DE00001201349487010484068134908600E4884
:103DF00000681249B0FBF1F201FB120070B901201A
:103E00000B4988600AE00E48844202D101F00CFFA1
:103E100004E0054841680BA0FCF7DAFA70BD000029
:103E20001C0E00209C000020A0110020002A751507
:103E3000AC110020DC110020AC00002040420F003B
:103E4000640E00202564206D7320556E6B6E6F77B5
:103E50006E2054494D455220496E746572757074D8
:103E600021200D0A000000007047704770470000D5
:103E70002DE9F84F0446206805682068C668206868
:103E800047694FF00009CA4605F00F09B9F1000F64
:103E90000AD105F0200038B106F0200020B12046FC
:103EA00001F07CFFBDE8F88FB9F1000F7CD007F07E
:103EB000010018B906F49070002875D005F00100D3
:103EC00030B106F4807018B1606C40F0010060649D
:103ED00005F0040030B107F0010018B1606C40F04B
:103EE0000200606405F0020030B107F0010018B173
:103EF000606C40F00400606405F0080048B106F012
:103F0000200010B907F0010018B1606C40F0080003
:103F10006064606C002846D005F0200028B106F0EF
:103F2000200010B1204601F039FF20684069C0F33D
:103F3000801A606C00F0080010B9BAF1000F2DD0A3
:103F4000204601F0E5FE2068406900F0400040286E
:103F500020D100BF00BF2168143151E8001F21F0BB
:103F600040002168143141E80002002AF3D100BF6B
:103F7000E06B50B17748E16B0865E06BFEF762F8E3
:103F800088B1E06B016D88470DE02046FFF76EFFBA
:103F900009E009E02046FFF769FF04E02046FFF74B
:103FA00065FF002060647DE7206B012878D105F073
:103FB0001000002874D006F010000028FAD000BFCE
:103FC0000020009020680068009020684068009001
:103FD00000BF00BF2068406900F04000402860D169
:103FE000E06B006840681FFA80F8B8F1000F56D007
:103FF000A08D404553DDA4F82E80E06BC069B0F57C
:10400000807F43D000BF00BF21680C3151E8001F02
:1040100021F4807021680C3141E80002002AF3D1BC
:1040200000BF00BF00BF2168143151E8001F21F01C
:1040300001002168143141E80002002AF3D100BFD9
:1040400000BF00BF2168143151E8001F21F040007B
:104050002168143141E80002002AF3D100BF20207A
:1040600084F842000020206300BF00BF21680C31AB
:1040700051E8001F21F0100021680C3141E80002D6
:10408000002AF3D100BFE06BFDF786FF02206063DA
:10409000A08DE28D801A81B22046FFF7E6FE01E78F
:1040A00042E0A08DE18D401A1FFA80F8E08DD0B378
:1040B000B8F1000F37D000BF00BF21680C3151E8C4
:1040C000001F21F4907021680C3141E80002002AA1
:1040D000F3D100BF00BF00BF2168143151E8001FB9
:1040E00021F001002168143141E80002002AF3D1D7
:1040F00000BF202084F842000020206300BF00BFE2
:1041000021680C3151E8001F21F0100021680C31AA
:1041100041E80002002AF3D100BF0220606341465B
:104120002046FFF7A2FEBDE605F0800030B106F0A4
:10413000800018B1204601F0E5FFB3E605F040002D
:1041400030B106F0400018B1204601F017FEA9E694
:1041500000BFA7E6FD5C000810B504460CB90120BD
:1041600010BDA06900B100E000BF94F8410028B97B
:10417000002084F84000204600F02AF8242084F82B
:1041800041002068C06820F400502168C8602046C3
:1041900001F082FE2068006920F4904021680861E7
:1041A0002068406920F02A00216848612068C068C2
:1041B00040F400502168C86000206064202084F82A
:1041C000410084F842000020606300BFC8E700009F
:1041D00010B586B00446142101A8FCF7FCFA9749F3
:1041E0002068884231D100BF0020009094480068C8
:1041F00040F40020924908600846006800F400205E
:10420000009000BF00BF00BF002000908C48103815
:10421000006840F004008A491039086008460068C8
:1042200000F00400009000BF00BF4FF44060019018
:1042300002200290002003900320049008200590A3
:1042400001A98048FDF7B8FFF5E07F492068884262
:1042500033D100BF002000907948001D006840F075
:1042600010007749091D08600846006800F010003A
:10427000009000BF00BF00BF0020009070481038C1
:10428000006840F001006E49103908600846006877
:1042900000F00100009000BF00BF4FF4C06001902B
:1042A0000220029000200390032004900720059034
:1042B00001A96648FDF780FFBDE065492068884296
:1042C0004DD100BF002000905D48006840F40030F0
:1042D0005B4908600846006800F40030009000BFA9
:1042E00000BF00BF0020009055481038006840F023
:1042F00001005349103908600846006800F00100C9
:10430000009000BF00BF00BF00200090084600687A
:1043100040F0080008600846006800F008000090BF
:1043200000BF00BF042001900220029000200390F3
:10433000032004900720059001A94448FDF73CFFA5
:10434000402001900220029000200390032004905E
:104350000720059001A93F48FDF72EFF6BE03E497D
:104360002068884231D100BF0020009034480068A6
:1043700040F48020324908600846006800F480203C
:10438000009000BF00BF00BF002000902C481038F4
:10439000006840F002002A491039086008460068A9
:1043A00000F00200009000BF00BF4FF44060019099
:1043B0000220029000200390032004900720059023
:1043C00001A92648FDF7F8FE35E025492068884216
:1043D00031D100BF002000901948001D006840F056
:1043E00020001749091D08600846006800F02000F9
:1043F000009000BF00BF00BF0020009010481038A0
:10440000006840F004000E49103908600846006852
:1044100000F00400009000BF00BFC0200190022007
:10442000029000200390032004900820059001A929
:104430000448FDF7C1FE06B010BD0000004C00406E
:1044400040380240000802400010014000000240D5
:1044500000440040000C02400048004000040240BC
:104460000014014070B504460D46164694F842000B
:1044700020280BD105B10EB9012070BD00202063AA
:1044800032462946204601F01DFEF6E70220F4E7F9
:1044900010B50E4A0168914217D101210C4A5170A2
:1044A0001146C978491CD17002685268D3B2084AD3
:1044B00011784A1C064C2270064A5354214609784A
:1044C0003F2902DB00212246117010BD001401407B
:1044D000DC110020D81000202DE9F84F04460E46CC
:1044E000174699464FF0000A94F84100202850D111
:1044F00006B117B90120BDE8F88F002060642120C3
:1045000084F84100FDF766FF8246A784E784A0682F
:10451000B0F5805F04D1206910B90025B04602E0F3
:1045200035464FF000081EE0534600228021204609
:10453000CDF8009001F016FE20B1202084F8410053
:104540000320D8E745B9B8F80000C0F30800216897
:10455000486008F1020803E02878216848606D1C73
:10456000E08C401EE084E08C0028DDD15346002220
:1045700040212046CDF8009001F0F4FD20B120202C
:1045800084F841000320B6E7202084F84100002091
:10459000B1E70220AFE7704700BFFEE710B500208B
:1045A0000F4908600F48006820F440600D4908601A
:1045B0000846006840F48060086000200A49C1F89D
:1045C00094020220FDF766FD0120054908600220E3
:1045D000FDF760FD00200449C1F8900210BD000005
:1045E00090824342001C0240008043421CB50B48AD
:1045F000006840F080000949086001200221002382
:104600000246CDE9001030210548FCF727FE0120C5
:10461000044908600449C1F894021CBD30380240C6
:10462000001C0240908243420080434210B50020AB
:104630000F4908600F48006820F440600D49086089
:104640000846006840F48060086001200A49C1F80B
:1046500094020220FDF71EFD01200549086002209A
:10466000FDF718FD00200449C1F8900210BD0000BC
:1046700090824342001C02400080434270B50546D0
:1046800000241648006820F4406014490860084679
:1046900000680860002616E000201149086002202A
:1046A000FDF7F8FC01200F49C1F890026006040EE6
:1046B0000B487C38006808B1601CC4B20120FDF7CB
:1046C000E9FC701CC6B2082EE6DB15B9FFF7AEFF99
:1046D00001E0FFF763FF204670BD0000001C0240B0
:1046E000908243420080434270B5044615480068FA
:1046F00020F44060134908600846006840F4806078
:104700000860002010490860002517E0E0090E4904
:10471000091D08606006040E0220FDF7BBFC0120A5
:104720000A49C1F890020220FDF7B4FC00200649B6
:1047300008600220FDF7AEFC681CC5B2082DE5DB61
:1047400070BD0000001C0240908243420080434242
:1047500010B50F48006820F440600D490860084615
:10476000006840F48060086001200A4908600A4936
:10477000C1F890020420FDF78DFC00200549086077
:104780000420FDF787FC00200349C1F8900210BD0A
:10479000001C0240948243420080434210B50F48FF
:1047A000006820F440600D4908600846006840F445
:1047B0008060086000200A4908600A49C1F8940234
:1047C0000420FDF767FC0120054908600549C1F890
:1047D00094020420FDF75EFC10BD0000001C0240A6
:1047E000908243420080434210B500241348006881
:1047F00020F4406011490860084600680860012004
:104800000F490860FDF746FC01200E49C1F89002EF
:10481000FDF740FC07E0601CC4B2FA2C03DDFFF793
:10482000BDFF012010BD0648803800680028F2D185
:104830000349091F086000BFF4E70000001C0240A4
:10484000948243420080434200B58BB01C481D490E
:1048500008600620486000211A488160C1604FF45A
:1048600000210161C9004161002101764176817614
:10487000C17601774177FDF705F908B1FCF736FC01
:1048800000200690079001200890002002900390DD
:1048900004900590012009900E200A9001A9094872
:1048A000FCF740FE0748FDF70CFB10B106A0FBF734
:1048B0008FFD02210348FCF77BFD0BB000BD00001B
:1048C00000640040780B002043414E312053746156
:1048D0007274204661696C6564210A0D0000000055
:1048E00000B587B01C216846FBF775FF1B481C49C3
:1048F0000860002048600121194881600821C160DA
:1049000010210161402141614FF4C071816100219A
:10491000C1614FF400610162490041624900816256
:1049200002200090082001900620029003900420AD
:10493000049002200590069069460948FEF72AFA7D
:1049400008B1FCF7D3FB064800F031FE40F2AB2182
:104950000348FEF744FA07B000BD0000400100A084
:10496000A410002000B587B0142102A8FBF733FF84
:1049700000BF00200190AC48006840F01000AA4938
:1049800008600846006800F01000019000BF00BFFA
:1049900000BF002001900846006840F48070086065
:1049A0000846006800F48070019000BF00BF00BF9F
:1049B000002001900846006840F02000086008468A
:1049C000006800F02000019000BF00BF00BF002081
:1049D00001900846006840F08000086008460068C2
:1049E00000F08000019000BF00BF00BF00200190D8
:1049F0000846006840F0040008600846006800F0BF
:104A00000400019000BF00BF00BF002001900846D5
:104A1000006840F0010008600846006800F00100EE
:104A2000019000BF00BF00BF002001900846006851
:104A300040F0020008600846006800F002000190A3
:104A400000BF00BF00BF002001900846006840F092
:104A5000400008600846006800F04000019000BF78
:104A600000BF00BF002001900846006840F0080029
:104A700008600846006800F00800019000BF00BF11
:104A8000012218216948FDF79FFC00224021684857
:104A9000FDF79AFC00224FF481716648FDF794FC03
:104AA000002248F212016448FDF78EFC0022042126
:104AB0006248FDF789FC002241F203016048FDF7DE
:104AC00083FC00227A215F48FDF77EFC00224FF430
:104AD00080615D48FDF778FC01224FF44071584831
:104AE000FDF772FC18200290012003900020049032
:104AF0000320059002A94D48FDF75EFB40F6040037
:104B0000029000200390049002A94E48FDF754FB48
:104B10004020029001200390002004900320059083
:104B200002A94348FDF748FB4FF481700290012031
:104B30000390002004900320059002A93D48FDF752
:104B40003BFB48F2120002900120039000200490E9
:104B50000320059002A93848FDF72EFB042002909F
:104B600001200390002004900320059002A93348FF
:104B7000FDF722FB41F20300029001200390002088
:104B800004900320059002A92D48FDF715FB7A201B
:104B9000029001200390002004900320059002A9B8
:104BA0002848FDF709FB4FF4806002900120039034
:104BB000002004900320059002A92348FDF7FCFA89
:104BC0004FF4407002900120039004900320059060
:104BD00002A91B48FDF7F0FA012210211348FDF746
:104BE000F3FB012211031648FDF7EEFB01224021E1
:104BF0000F48FDF7E9FB012248F210010E48FDF7CE
:104C0000E3FB00224FF480710A48FDF7DDFB002230
:104C100002210848FDF7D8FB012202210648FDF7D2
:104C2000D3FB07B000BD0000303802400010024046
:104C3000001402400008024000000240001C024034
:104C400000040240002002400018024010B500227B
:104C500011461420FDF74CFC1420FDF735FC002212
:104C600001211D20FDF744FC1D20FDF72DFC002235
:104C700001211E20FDF73CFC1E20FDF725FC002233
:104C800011464720FDF734FC4720FDF71DFC0022AC
:104C900011464020FDF72CFC4020FDF715FC10BD0F
:104CA00010B50E480E4908604FF48270486000212C
:104CB0000B488160C160016141614FF40071816105
:104CC0001021C16100210162416281620A21C16239
:104CD000FEF7F6F808B1FCF709FA10BD0030014004
:104CE0001C0C002010B50E480E4908604FF482706D
:104CF000486000210B488160C160016141614FF44F
:104D0000007181610821C1610021016241628162FB
:104D10000A21C162FEF7D4F808B1FCF7E7F910BD2B
:104D200000380040740C002010B50E480E49086091
:104D30004FF48270486000210B488160C1600221FD
:104D4000016101214161490281610021C16101626A
:104D5000416281620A21C162FEF7B2F808B1FCF734
:104D6000C5F910BD003C0040CC0C002010B50E4829
:104D70000E4908604FF48270486000210B48816042
:104D8000C160016141614FF4007181610021C16125
:104D90000162416281620A21C162FEF791F808B1A5
:104DA000FCF7A4F910BD000000340140240D0020E0
:104DB00000B587B000200390049005900690019004
:104DC00002901548154908600020486000211348EA
:104DD00081604FF6FF71C160002101614161816115
:104DE000FEF750FD08B1FCF781F94FF480500390B5
:104DF00003A90A48FEF758FE08B1FCF777F900202E
:104E00000190029001A90548FEF7E2FC08B1FCF709
:104E10006DF907B000BD000000000140D40D002076
:104E200000B587B000200390049005900690019093
:104E30000290144814490860592048600021124823
:104E400081600921C160002101618161FEF71AFDC5
:104E500008B1FCF74BF94FF48050039003A90A48BE
:104E6000FEF722FE08B1FCF741F900200190029004
:104E700001A90548FEF7ACFC08B1FCF737F907B00B
:104E800000BD0000000400401C0E002010B50A48C0
:104E90000A4908600A484860002108488160C160EA
:104EA00001610C21416100218161C161FFF754F969
:104EB00008B1FCF71BF910BD004C00403C0F00206E
:104EC00020A1070010B50A480A4908600A4848604E
:104ED000002108488160C16001610C21416100210D
:104EE0008161C161FFF738F908B1FCF7FFF810BD27
:104EF00000100140840F002020A1070010B50D48CC
:104F00000D4908604FF4E130486000210A48816093
:104F1000C16001610C21416100218161C161FFF724
:104F20001BF908B1FCF7E2F8012204490248FFF737
:104F300099FA10BD001401405C10002018110020E7
:104F400070B504460B4641F20165581BAB4271D067
:104F50003DDC41F28125A3EB0500AB426BD01DDCAB
:104F600041F20705A3EB0500AB427DD00BDCB3F5A6
:104F7000805F71D06FF480501844E8B304286FD07C
:104F8000052868D16EE00D2873D0112873D012283F
:104F900073D0A0F279200028F3D170E040F27F16A0
:104FA000851BB0427CD008DC012871D0022871D06A
:104FB000032871D00428E4D170E0012D75D0022DB2
:104FC00075D0032D75D0B5F5007FDAD173E0B0F55B
:104FD000806F69D01DDC40F20126A0EB0605B042CF
:104FE00078D00CDC01286AD002286DD0A0F2FF1026
:104FF00000286BD0012800E030E0C2D168E0012D2C
:105000006AD0022D6AD0032D6AD0B5F5FF7FB8D1E2
:1050100068E040F6FF16851BB04270D00CDCA0F2B1
:105020000140002862D0012862D0022862D0032803
:105030006FD161E041E024E0012D62D0022D62D009
:10504000A5F58045783D002D5FD0872D61D15EE0CC
:105050000AE001E004E05CE000215EE001215CE0A8
:1050600002215AE0032158E0042156E001E002E069
:1050700003E0052151E006214FE007214DE0082122
:105080004BE0092149E00BE002E003E004E00CE022
:105090000A2142E00B2140E00C213EE00D213CE0E2
:1050A0000E213AE003E004E01EE00F2135E010217C
:1050B00033E0112131E012212FE013212DE01421E2
:1050C0002BE007E000E001E0152126E0162124E0B6
:1050D000172122E0182120E019211EE01A211CE0EE
:1050E0001B211AE01C2118E01D2116E01E2114E0EE
:1050F0001F2112E0202110E021210EE0FFE72221F4
:105100000BE0232109E0242107E0252105E02621E9
:1051100003E005481060002070BD00BF0020106053
:10512000024800EBC100F7E700000206B8C1000822
:1051300002469F2A04D1087808B10348704700BF8F
:1051400000BF0020FAE700003000090600BFFEE7BC
:1051500000BFFEE770B504460D461646204605F032
:10516000A5FF002070BD70B504460D4616462046CA
:1051700002F06AF8204602F01DF8002070BD70B5FC
:1051800004460D461646204602F01CFB204602F05F
:10519000D3FA002070BD30B503460C46D3F80802A0
:1051A000007860B9002106E00020D3F80C5245F8E1
:1051B0002100481CC1B293F805028842F4DC0020AB
:1051C00030BD70B505460C464FF0FF3004EBC4020D
:1051D000A96801EB42014880002004EBC402A968E1
:1051E00001EB4201C880E1B2284605F021FB70BD09
:1051F00070B505460C464FF0FF3004EBC402A968B9
:1052000001EB4201888004EBC401A86810F811008A
:1052100020F0010004EBC402A96801F81200E1B219
:10522000284605F005FB70BD2DE9FC4104464FF40E
:10523000C05660690589A0690789C5B115E06B464C
:1052400001AA3146204605F0E4FA019840B90098D9
:1052500030B10A48009988600099C8600099486197
:10526000701C86B2681C85B200BFBD42E7DD00211C
:10527000204601F06EF9BDE8FC810000935B000858
:105280002DE9F0410446002560690689A069078977
:1052900086B32DE005EBC502A16801EB4201B1F92F
:1052A0000200FBF787FE05EBC502A16801EB420196
:1052B000488005EBC502A16801EB4201B1F9040089
:1052C000FBF778FE05EBC502A16801EB420188807F
:1052D000002005EBC502A16801F8120005EBC5022C
:1052E000A16801EB4201C880681CC5B2701C86B27F
:1052F000BE42CFDDBDE8F0819FED0A0A80ED090ACC
:105300009FED080A80ED0B0A9FED060A80ED0C0A5E
:105310009FED040A80ED0A0A9FED020A80ED0D0A56
:1053200070470000000000007047FEB504460E46BE
:10533000D4F8A4000088A8B12068007800F5E065E2
:10534000ADF8005001208DF8030000208DF8020018
:1053500094F878008DF804006946D4F8E00101F073
:10536000D7FB05E0B4F9A800FBF724FEA4F8A800D9
:10537000FEBD2DE9FC4106460F4614461D466B4610
:1053800001AA3946304605F044FA8046019840B9F2
:10539000009830B198F80400A04202DD009840F86F
:1053A00024500198BDE8FC812DE9FC4104460D46DE
:1053B000606946885EB105EB850104F1280000EBC9
:1053C000011000783044A1694988884201DDBDE8B8
:1053D000FC8105EB850204F1280000EB0210007847
:1053E0003044616851F83000C06A07784FF0FF31EF
:1053F00005EB850204F1280000EB0210A0F84A102A
:10540000852105EB850204F1280000EB0210817074
:10541000254905EB850204F1280000EB0210807A93
:1054200005EB850CCDE9000104F1280000EB0C1020
:10543000038905EB850C04F1280000EB0C100278C1
:1054400005EB850C04F1280000EB0C104178204698
:1054500005F0F5FA144905EB850204F1280000EB8C
:105460000210416005EB850104F1280000EB0110FA
:10547000C06C48B105EB850104F1280000EB011078
:105480003946C26C2046904705EB850104F128009F
:1054900000EB011040680449884203D1E9B220467C
:1054A00005F08DF900BF92E7000004052DE9FF41EA
:1054B00004460D4605EB850104F1280000EB0110C0
:1054C000C06868B905EB850104F1280000EB011004
:1054D00005EB8502016904F1280000EB0210C160B0
:1054E00005EB850104F1280000EB0110C068039072
:1054F000012003AACDE9002005EB8507029004F105
:10550000280000EB071000F1140305EB850704F1F8
:10551000280000EB0710827A05EB850704F12800CC
:1055200000EB07100189204601F0E0F806461EB1A5
:10553000304604B0BDE8F0810020FAE7F0B504463B
:10554000154601EB810704F1280000EB0710006904
:105550002844202801D9FF20F0BD01EB810704F188
:10556000280000EB0710066900220DE09F5C01EBAC
:10557000810C04F1280000EB0C10143006EB020C37
:1055800000F80C70501CC2B2AA42EFD301EB8107A5
:1055900004F1280000EB07100069471901EB810CAA
:1055A00004F1280000EB0C1007610020D4E770B56F
:1055B00005460024002301221146184600F01AF87F
:1055C0004FF4FA70FCF766FD002301220221184611
:1055D00000F010F8002308220321184600F00AF812
:1055E0004FF40C74234601220421002000F002F83D
:1055F00070BD00002DE9FF4104460D4616461F46CA
:105600004FF0000814B94FF0100803E0012C01D14D
:105610004FF008080095CDF80480029603974FF4E8
:10562000805269460448FDF7F5FB18B9002004B024
:10563000BDE8F0810120FAE7A410002010B5012296
:1056400010210248FCF7C0FE10BD0000001002400F
:1056500010B5002210210248FCF7B6FE10BD000074
:1056600000100240012080F3108800BF7047002026
:1056700080F3108800BF7047F8B504460E46154603
:105680006068B0F5827F0DD1A068B0F5004F03D0FF
:10569000A068B0F5806F05D12068006820F0400058
:1056A000216808606068B0F5827F1FD1A068B0F5FE
:1056B000806F0DD03346002280212046009500F0F7
:1056C00069F808B3606D40F0200060650320F8BD04
:1056D0003346002201212046009500F05BF898B186
:1056E000606D40F0200060650320F0E73346002243
:1056F00001212046009500F04DF828B1606D40F082
:10570000200060650320E2E70020E0E77CB5044666
:105710000E4615463346012202212046009500F030
:1057200039F828B1606D40F02000606503207CBD31
:10573000164800681821B0FBF1F01549B0FBF1F0F4
:105740004FF47A71484301906068B0F5827F0DD1C3
:105750003346002280212046009500F01BF898B1C6
:10576000606D40F0200060650320E0E700BF019815
:1057700000B908E00198401E019020688068C0F3DD
:10578000C0100028F3D100BF0020D0E7180000208F
:1057900040420F002DE9F84F04460D4690461E4644
:1057A000DDF82890FCF716FEA0EB0900371AFCF78D
:1057B00011FE82462C480068C0F3CB30784300903D
:1057C00045E0701C002842D0FCF704FEA0EB0A0064
:1057D000B84200D2A7BB2068406820F0E0002168F2
:1057E00048606068B0F5827F0DD1A068B0F5004FC9
:1057F00003D0A068B0F5806F05D12068006820F064
:10580000400021680860A06AB0F5005F0DD100BFBC
:105810002068006820F40050216808602068006853
:1058200040F400502168086000BF012084F8510056
:1058300000BF002084F8500000BF0320BDE8F88FAF
:10584000FFE7009800B900270098401E00902068EC
:1058500080682840A84201D1012000E00020404596
:10586000AFD10020EAE700001800002070470000D8
:105870002DE9F05F82468B46914698460026274CDC
:1058800040E0B9F1000F3AD02078B8BB2448B0F915
:105890000000401C864205D121480088401C00B20F
:1058A0001F49088001F0A2FB054647464FF6FF70EE
:1058B000874201D2384601E04FF6FF70074619488B
:1058C0000068A8420AD917480068401BB84205D9A9
:1058D000E81914490860384605F00EFBC4F8089032
:1058E000C4F804A0C4F80CB008EB050020610A98C5
:1058F0006061012020703046BDE8F09FFFE7701C1A
:1059000006B218340648B0F90000401C864201DC9B
:10591000082EB6DB4FF0FF30EEE70000041A00203F
:10592000B8000020B400002070B504460D462046A3
:1059300005F0AEF870BD10B5FCF752FD10BD0000CB
:1059400000B593B0302107A8FAF745FF142102A84B
:10595000FAF741FF00BF002001902748006840F09F
:105960008050254908600846006800F0805001908A
:1059700000BF00BF00BF002001902048006820F455
:10598000404040F480401D4908600846006800F42B
:105990004040019000BF00BF012007900004089024
:1059A00002200D9041050E9119210F914FF4B47111
:1059B0001091022111910421129107A8FCF770FFA8
:1059C00008B1FBF793FBFCF7E5FD08B1FBF78EFB95
:1059D0000F20029002200390802004904001059047
:1059E00000200690022102A8FCF71AFE08B1FBF77E
:1059F0007DFB13B000BD0000403802400070004045
:105A00000348006840F470000149086070470000D6
:105A100088ED00E010B50248FEF7CDF810BD00009B
:105A20001C0E002010B50248FEF7C5F810BD00009E
:105A3000640E002010B502682D4B98420ED0B0F1D4
:105A4000804F0BD02B4B984208D02B4B984205D05F
:105A50002A4B984202D02A4B984203D122F070027E
:105A60004B681A43224B984220D0B0F1804F1DD092
:105A7000204B98421AD0204B984217D01F4B984287
:105A800014D01F4B984211D01E4B98420ED01E4B83
:105A900098420BD01D4B984208D01D4B984205D020
:105AA0001C4B984202D01C4B984203D122F4407206
:105AB000CB681A4322F080034C6943EA0402026077
:105AC0008B68C3620B688362094B984202D00C4B0F
:105AD000984201D10B69036301234361036903F019
