:020000040800F2
:100000005011002061020008AF240008812100087F
:10001000AD24000845080008452A0008000000003B
:10002000000000000000000000000000652600083D
:100030004708000800000000B124000867260008F7
:10004000692B00087B0200087B0200087B02000885
:100050007B0200087B020008490800087B020008B8
:10006000CD080008050900087B0200087B02000893
:100070007B0200087B0200087B0200087B0200086C
:100080007B0200087B0200087B0200087B0200085C
:100090007B0200087B0200087B0200087B0200084C
:1000A0007B0200087B0200087B0200087B0200083C
:1000B0007B0200081D2700087B0200087B02000865
:1000C0007B0200087B0200087B0200087B0200081C
:1000D0007B0200087B020008092A00087B02000856
:1000E000910800087B0200087B0200087B020008E0
:1000F0007B0200087B0200087B0200087B020008EC
:100100007B0200087B020008292700087B02000808
:100110007B0200087B0200087B0200087B020008CB
:100120007B0200087B0200087B0200087B020008BB
:100130007B0200087B0200087B0200087B020008AB
:100140007B0200087B0200087B0200087B0200089B
:100150007B0200087B0200087B0200087B0200088B
:100160007B0200087B0200087B0200087B0200087B
:100170007B0200087B0200087B02000800000000F0
:100180007B0200087B0200087B0200087B0200085B
:100190007B0200087B0200087B0200087B0200084B
:1001A0007B0200087B0200087B02000800F002F8D6
:1001B00000F047F80AA090E8000C82448344AAF1BA
:1001C0000107DA4501D100F03CF8AFF2090EBAE8B8
:1001D0000F0013F0010F18BFFB1A43F0010318477B
:1001E000C83D0000E83D0000103A24BF78C878C13F
:1001F000FAD8520724BF30C830C144BF04680C602D
:10020000704700000023002400250026103A28BF74
:1002100078C1FBD8520728BF30C148BF0B60704778
:10022000642900F01181782900F04A81732900F0D7
:10023000A582002070471FB503F07FFE1FBD10B5DB
:1002400010BD00F0D1FA1146FFF7F5FF02F0F4FF00
:1002500000F0EFFA03B4FFF7F2FF03BC02F0B7FCC3
:100260000948804709480047FEE7FEE7FEE7FEE74A
:10027000FEE7FEE7FEE7FEE7FEE7FEE70448054986
:10028000054A064B704700000D270008AD01000825
:10029000500B002050110020500D0020500D002068
:1002A000704753EA020C00F069802DE9F04B4FF0E3
:1002B0000006002B1FBFB3FA83F503FA05F424FAF6
:1002C00005F65E4012BF1643B2FA82F502FA05F453
:1002D000C5F120051EBF22FA05FC44EA0C042035B6
:1002E00056EA044C4FEA144418BF641C4FF000084F
:1002F0004FF00009904271EB030C39D3002919BF6C
:10030000B1FA81F701FA07F6B0FA80F700FA07F6BA
:10031000C7F120071EBF20FA07FC46EA0C0620376B
:10032000B6FBF4FCA7EB0507103F07F01F0BCBF162
:1003300020060CFA0BFB2CFA06F644BFB346002647
:10034000202FA4BF5E464FF0000B5BEA060C08BFEF
:100350004FF0010B19EB0B09ABFB027C48EB0608D5
:10036000C01B06FB02CC0BFB03CC71EB0C01C1E7FD
:100370000B46024641464846BDE8F08B13B54FF0A8
:1003800000004FF00001AFF30080BDE81C40704753
:100390000FB4044910B503AA029800F0F3F910BC99
:1003A0005DF814FB8400002070B504468569006880
:1003B000C10601D5302600E02026C00707D070BD59
:1003C000D4E9012130469047206A401C20626D1E0E
:1003D000F6D570BD70B5044685690078C00707D1B1
:1003E00070BDD4E9012120209047206A401C206282
:1003F0006D1EF6D570BD70B50C460546012A05D0B8
:100400002878800600D5EA69002302E0012305E090
:100410005B1C934202D2E05C0028F9D1A869E6187F
:10042000C01AA861286A184428622846FFF7BCFF52
:1004300004E0D5E9012114F8010B9047B442F8D348
:100440002846FFF7C7FF70BD2DE9F041064600249E
:1004500010687529314616A510D0AFF3008000282A
:1004600002DA404213A507E031688A0701D512A5D8
:1004700002E0490704D511A5012401E0AFF3008093
:1004800000210A2206F1240709E0B0FBF2FCB0FBD0
:10049000F2F302FB1C00303078541846491C002847
:1004A000F3D123462A463046BDE8F04100F0FBB8C0
:1004B000000000002D0000002B00000020000000C4
:1004C00070B504460D4621461068AFF300802188C0
:1004D000090502D50F4A7A4402E00E4A7A440E32E8
:1004E000002104F1240305E000F00F060009965DE9
:1004F0005E54491C0028F7D120780023000704D55A
:10050000702D02D009B1022311322046BDE870409F
:1005100000F0C9B8923A00002DE9F05F8946044620
:100520004FF0000ADFF824B1FB44C0F820A02046B9
:10053000E168884700287DD0252806D0D4E901212C
:100540009047206A401C2062F1E700255F46204664
:10055000E16888472028064607DB312E05D2B81906
:1005600010F8200C08B10543F1E7A80701D525F0E4
:100570000405C4F81CA00027C4F818A02A2E09D02E
:10058000304602F01DFB38B304EB8708303EC8F854
:10059000186019E059F8041B204604EB87029161AA
:1005A000E1688847012F064618D1E069002820DA63
:1005B00025F020051DE0D8F8180000EB800006EBC0
:1005C00040003038C8F818002046E16888470646E1
:1005D00002F0F6FA0028EED1012F0AD02E2E08D113
:1005E0002046E16888477F1C0646022F45F020051B
:1005F000C4DBA069002803DA404245F00105A06190
:10060000E80701D025F01005A6B1A6F14100192890
:1006100002D8203645F400654A463146204625601A
:100620004D46FFF7FDFD60B1012807D0ED1D25F017
:10063000070000E007E000F1080978E705F1040988
:1006400075E730467AE7206ABDE8F09F683A000017
:100650004FF0000200B5134694469646203922BF5B
:10066000A0E80C50A0E80C50B1F12001BFF4F7AFA6
:10067000090728BFA0E80C5048BF0CC05DF804EB88
:10068000890028BF40F8042B08BF704748BF20F8F6
:10069000022B11F0804F18BF00F8012B70477047F4
:1006A0007047704770472DE9F0470D4699469246CE
:1006B000044600F124080168880604D5E06921F0A9
:1006C0001001216000E00120A84201DD471B00E08D
:1006D0000027A1697A1902EB0900081AA0612078A5
:1006E000C00602D42046FFF75FFE002608E0D4E9EA
:1006F00001211AF806009047206A401C761C2062EF
:100700004E45F4DB2078C0060AD52046FFF74CFEA4
:1007100006E0D4E9012130209047206A401C206285
:10072000381EA7F10107F4DC07E0D4E9012118F82D
:1007300005009047206A401C2062281EA5F1010593
:10074000F3DC2046FFF746FE2078000602D50220A3
:10075000BDE8F0870120FBE710B5436913B1AFF3A3
:10076000008001E0FFF747FE012010BD127800F184
:1007700024010A7000224A700122EDE711684FF04F
:10078000FF32E9E7074B70B50D467B4400F015F8E2
:100790000446284600F024F810B14FF0FF3070BD39
:1007A000204670BDE725000000487047F00A002091
:1007B00001694A1C02610878704700B58FB0CDE925
:1007C00001310021059105497944CDE90310114615
:1007D0006846FFF7A1FE0FB000BD0000E5FFFFFF78
:1007E000007B00F0800070477546FFF7DDFFAE46E6
:1007F00005006946534620F00700854618B020B52D
:10080000FFF73CFDBDE820404FF000064FF0000729
:100810004FF000084FF0000B21F00701AC46ACE8A8
:10082000C009ACE8C009ACE8C009ACE8C0098D4615
:10083000704710B50446AFF300802046BDE8104075
:10084000FFF708BDFEE7704710B50A2000F0CCF8AE
:100850000C48D0F8000201280CD10B48D0F88012C7
:1008600061B10021C0F88012D0F8801241B100219E
:10087000C0F8841205490120086010BD0121F1E78C
:100880000121F5E70000404200804042143C014055
:1008900010B50A2000F0A8F80948D0F8340238B999
:1008A0000848D0F8841241B15FF00001C0F884120A
:1008B00005494FF40050086010BD0121F6E7000023
:1008C0000000414200804042143C014010B50A2023
:1008D00000F08AF80848D0F8080238B90748D0F87C
:1008E000801239B15FF00001C0F880120449042081
:1008F000086010BD0121F7E70080434200804042BC
:10090000143C014010B50A2000F06EF80C48D0F8F5
:100910000C0268B90B48D0F8841269B15FF000018D
:10092000C0F88412D0F8801241B10021C0F88012C2
:1009300005490820086010BD0121F1E70121F5E714
:100940000080434200804042143C014010B5032225
:100950000021042000F01EF8322000F045F80322A8
:100960000021062000F016F8322000F03DF848F291
:1009700034020021032000F00DF8322000F034F89A
:1009800001220021072000F005F8BDE810401420E6
:1009900000F02AB8F8B5002341EAC00000938DF8B2
:1009A0000000100A8DF801000D4F8DF802201C4642
:1009B0001A461021384600F043F96E4631193223A9
:1009C0000122084800F0D1FE641CE4B20546032C65
:1009D000F4D301221021384600F032F92846F8BD40
:1009E000000002408808002070B5044600F02EF98F
:1009F0000546601C02D004480078044400F026F943
:100A0000401BA042FAD370BD200000202DE9F84F12
:100A1000DFF8F8A10022012403254FF00F090AF1A5
:100A2000040BAAF1040E00BF0B6804FA02F633406F
:100A3000B34270D10F7907F00307012F01D0022FC5
:100A400016D187684FEA420805FA08FC27EA0C0726
:100A5000D1F80CC00CFA08FC4CEA070CC0F808C02E
:100A60004768B7430E79C6F3001696403E4346608A
:100A70000E79F643B6070AD0C7684FEA420C05FA6A
:100A80000CF6B7438E6806FA0CF63E43C6600E7944
:100A900006F00306022E10D1D60800EB8608D8F81F
:100AA000206057074FEAD76C09FA0CF7BE430F696D
:100AB00007FA0CF73743C8F8207006684FEA420C73
:100AC00005FA0CF7BE430F7907F0030707FA0CF796
:100AD000374307604E6816F4403F1CD04C4E3768D1
:100AE00047F480473760366822F0030706F48046F3
:100AF0000096484E07EB060CDCF8086897073F0F96
:100B000009FA07F826EA0806DFF80C81404503D108
:100B10004FF0000841E072E0DFF80081404502D16B
:100B20004FF0010839E0DFF8F880404502D14FF07E
:100B3000020832E0DFF8EC80404502D14FF00308B4
:100B40002BE0DFF8E480404502D14FF0040824E0B8
:100B5000DFF8D880404502D14FF005081DE0DFF8EE
:100B6000D080404502D14FF0060816E0DFF8C4807F
:100B7000404502D14FF007080FE0DFF8BC80404548
:100B800002D14FF0080808E0DFF8B080404502D1FC
:100B90004FF0090801E04FF00A0808FA07F848EAA0
:100BA0000608CCF80888DAF800605746D1F804C087
:100BB0009E435FEACC2C00D51E433E60DBF800600C
:100BC0005F46D1F804C09E435FEA8C2C00D51E43DB
:100BD0003E60DEF800607746D1F804C09E435FEACD
:100BE0008C3C00D51E433E60084F083F3E68D1F85C
:100BF00004C09E435FEACC3C00D51E433E60521CBD
:100C0000102AFFF411AFBDE8F88F0000083C014046
:100C1000443802400030014000000240000402401D
:100C200000080240000C0240001002400014024084
:100C300000180240001C0240002002400024024034
:100C40000AB1816170470904FBE700000148806830
:100C5000704700002000002002488168027811449B
:100C600081607047200000200B4810B5016841F4F6
:100C700000710160016841F480610160016841F424
:100C800080710160032000F06FF80F2000F006F87B
:100C900000F024F8002010BD003C024070B50D4D5E
:100CA00004464FF47A712878B1FBF0F00A490968DC
:100CB000B1FBF0F000F007FF48B9102C07D200227A
:100CC0002146501E00F030F800206C6070BD0120FD
:100CD00070BD0000200000202C0000200A4808B54C
:100CE000016841F480410160006800F48040009098
:100CF0000548001F016841F080510160006800F064
:100D00008050009008BD000044380240002809DBF4
:100D100000F01F02012191404009800000F1E02015
:100D2000C0F8001170470000F0B40E4B1B680C4671
:100D3000C3F30223C3F10705042D00D90425191DAF
:100D4000072901D2002300E0DB1E012606FA05F187
:100D5000491E214099409E40761E16403143F0BC0A
:100D600001F01EBF0CED00E0064900F00702086824
:100D70004FF6FF03184040EA0220034A1043086080
:100D8000704700000CED00E00000FA052DE9F84383
:100D90001748016841F0805101600068154F00F06C
:100DA0008050012600903E64FFF750FF05464FF447
:100DB0007A78114C05E000BFFFF748FF401B404523
:100DC0000DD86068C003F7D57E64FFF73FFF054686
:100DD000464607E0FFF73AFF401BB04202D9032026
:100DE000BDE8F88360688003F4D50020F8E70000D0
:100DF0004038024000000E42007000402DE9F047EC
:100E00000E46050065D0DFF81481D8F80000F7B26F
:100E100000F00F00B04207D288F80070D8F8000048
:100E200000F00F00B04254D128683D4C810712D524
:100E3000400703D5206840F4E05020602878000780
:100E400003D5206840F4604020602068A96820F045
:100E5000F000084320602878C0072DD0304968682A
:100E60000839012812D0022813D0032811D00968AC
:100E7000890700292DDA216821F00301014321604F
:100E8000FFF7E4FE814641F2883A0EE009688903E3
:100E9000EFE709688901ECE7FFF7D8FEA0EB09014D
:100EA000514502D90320BDE8F0872068696800F049
:100EB0000C00B0EB810FEFD1D8F80010404601F0E4
:100EC0000F01B14207D90770006800F00F00B0426F
:100ED00001D00120E7E72878400705D52068E968B8
:100EE00020F4E050084320602878000706D52068E9
:100EF000296920F4604040EAC100206000F038F821
:100F00002168084AC1F30311515CC84006490860D2
:100F100006480068FFF7C2FE0020C4E7003C02401C
:100F200008380240543F00082C0000202400002014
:100F30000448054900680968044AC1F38221515CEC
:100F4000C84070472C00002008380240643F000869
:100F50000448054900680968044AC1F34231515CFC
:100F6000C84070472C00002008380240643F000849
:100F7000154810B5006810F00C02144813D014493D
:100F8000042A0FD0082A0ED10F4C241F2268236890
:100F900002F03F025B0207D52068C0F38810A0FB77
:100FA000010106E0084610BD2168C1F38811A1FBCC
:100FB00000010023FFF775F92168C1F30141491CC5
:100FC0004900B0FBF1F010BD083802400024F400E5
:100FD00040787D012DE9F84F04006ED02078DFF8CD
:100FE0004C93C007A9F104054AD009F10400016837
:100FF000C1F38101012908D00068C0F381000228F3
:101000000AD1D9F80000400206D52868800337D5F8
:1010100060680028E1D033E06068B0F5803F10D010
:10102000B0F5A02F286810D020F480302860286800
:1010300020F4802028606068A8B1FFF707FE06460C
:101040000DE0286840F48030F4E740F48020286008
:10105000F7E700BFFFF7FAFD801B642873D8286804
:101060008003F7D50CE0FFF7F1FD064605E000BF71
:10107000FFF7ECFD801B6428F0D828688003F7D4C4
:101080002078DFF8AC8280074FF0000A3ED5A748F1
:10109000001D016811F00C0F08D00068C0F381003A
:1010A00002280BD1D9F80000400207D42868800735
:1010B00016D5E068012800D112E033E1E068B8B14C
:1010C0000120C8F80000FFF7C1FD064605E000BF9B
:1010D000FFF7BCFD801B0228C0D828688007F7D521
:1010E0002868216920F0F80040EAC10028600DE07E
:1010F000C8F800A0FFF7AAFD064604E0FFF7A6FD2A
:10110000801B02281FD828688007F7D420780007A2
:1011100022D5864F87486169703771B1012101601E
:10112000FFF794FD064604E0FFF790FD801B0228C0
:1011300009D838688007F7D50EE0C0F800A0FFF79F
:1011400085FD064605E082E0FFF780FD801B022852
:101150007DD838688007F7D42078400768D5DFF855
:10116000CCB100270BF13C0BDBF80000C0000BD426
:10117000DBF8001041F08051CBF80010DBF80000E4
:10118000012700F0805000906B4E3068C00510D4ED
:10119000306840F480703060FFF758FD009005E043
:1011A000FFF754FD0099401A022850D83068C00556
:1011B000F6D55E4EA0686C3601280FD00528306841
:1011C00010D020F001003060306820F00400306062
:1011D000A068B8B1FFF73AFD00900FE0306840F02A
:1011E0000100F4E740F004003060F7E7FFF72EFD60
:1011F0000099411A41F28830814266D830688007F0
:10120000F4D50EE0FFF722FD009007E0FFF71EFD8A
:101210000099411A41F28830814256D830688007DF
:10122000F4D42FB1DBF8001021F08051CBF800107E
:10123000A069C8B33D49091D0968C1F381010229AC
:101240004AD00228504607D0C8F8600000E03CE0D1
:10125000FFF7FCFC04463BE04746C8F86000FFF798
:10126000F5FC064605E000BFFFF7F0FC801B0228F6
:101270002BD828688001F7D4D4E907010843A16A74
:101280002E4A490802EB0141626A41EA8211084391
:1012900094F82C1040EA0161C9F80010012038666A
:1012A000FFF7D4FC044606E03EE000BFFFF7CEFCAB
:1012B000001B022809D828688001F7D534E000BF58
:1012C000FFF7C4FC001B022802D90320BDE8F88FF9
:1012D00028688001F4D427E00128F7D0D9F800006D
:1012E000E26900F4800191421CD1226A00F03F01C2
:1012F000914217D147F6C071626A0140B1EB821F7B
:1013000010D1A26A4FF0FF3300F4403103EB5202D8
:10131000B1EB024F06D194F82C1000F07060B0EBE6
:10132000016F01D00120D1E70020CFE7043802404F
:1013300000004742800E4742007000400000FFFF5F
:10134000FFF704BB38B5FF200B4D8DF800003224A9
:10135000002210212846FFF773FC2346012269462C
:10136000064800F057F9012210212846FFF768FCD3
:101370009DF8000038BD0000001002403809002030
:1013800031B50B4C3225002210212046FFF758FCC6
:101390002B4601226946074800F0E7F910B106A084
:1013A000FEF7F6FF012210212046FFF749FC38BD69
:1013B0000010024038090020205350493420536562
:1013C0006E64204661696C656421200A0D0000008E
:1013D00070B5040009D0606A002540B125616561DF
:1013E000A56294F8510040B10CE0012070BD606826
:1013F000B0F5827FF4D0E561F2E784F850502046E2
:1014000000F044F8022084F851002068016821F0BF
:1014100040010160A088218900F4827001F4044138
:101420000843A18901F400610843217C01F0020115
:101430000843217D01F001010843218B01F4007173
:101440000843217F01F03801084394F8201001F08F
:1014500080010843218D01F4005108432168086090
:10146000A069042101EA104094F8241001F0100151
:101470000843216848602068C16921F40061C161A6
:101480006565012084F85100002070BD2DE9F04110
:1014900086B0044614216846FFF7DAF85348524BE9
:1014A00022680024514914380225032605279A4250
:1014B00015D10A6842F480520A60096801F480512B
:1014C0000591016841F0010101600068694600F082
:1014D00001000590E020CDE9000545481AE0434BA6
:1014E000DFF810C11B1FDFF8108162451AD119689F
:1014F00041F480411960196801F480410591016847
:1015000041F002010160006800F0020005904FF414
:10151000604030E002AA82E8D000FFF777FA06B018
:10152000BDE8F081DFF8D4C0624529D1196841F4E3
:1015300000411960196801F400410591016841F00A
:1015400004010160016801F004010591016841F0A6
:1015500002010160006802AA00F0020005904FF449
:101560008050CDE90005062782E8D000694624486E
:10157000FFF74CFA1820CDE9000569464046C9E757
:10158000204B9A4215D10A6842F400520A60096859
:1015900001F400510591016841F0100101600068FB
:1015A000694600F0100005906420CDE9000516485A
:1015B000B0E7164B9A42B2D10A6842F480120A6030
:1015C000096801F480110591016841F02001016072
:1015D0000068694600F0200005904FF46070CDE986
:1015E00000050B4896E700000030014044380240F7
:1015F000000002400038004000040240003C00406F
:101600000008024000340140001002400050014038
:10161000001402402DE9F84F044690F85100984616
:1016200016460F460025012801D0022598E0606883
:101630004FF0040BB0F5827F01D1A068F8B194F8A7
:101640005000012826D04FF0010984F85090FFF790
:10165000FDFA8246002F7FD0002E7DD084F851B055
:1016600000206065A763A687E6872063A086E086E2
:1016700020646064A068B0F5004F0DD016E084F8D7
:1016800051B013460A462046CDF8008000F024F9F8
:10169000BDE8F88F0220FBE72068016821F04001D7
:1016A00001602068016821F48041016020680168C0
:1016B000490603D4016841F040010160E068D8B1F7
:1016C0003BE020688168C90709D0007BA16B0870E6
:1016D000A06B401CA063E08F401EE0870CE0FFF78A
:1016E000B5FAA0EB0A01414503D3B8F1FF3F03D09F
:1016F00006E0B8F1000F03D0E08F0028E1D11FE031
:1017000003252BE020688168C90709D0C068A16B58
:101710000880A06B801CA063E08F401EE0870CE077
:10172000FFF794FAA0EB0A01414503D3B8F1FF3F5C
:1017300003D0E5E7B8F1000FE2D0E08F0028E1D157
:1017400052464146204600F0CDFE08B1202060659B
:10175000606D00E000E008B1012501E084F85190DF
:10176000002084F85000284692E72DE9F84F0446FF
:1017700090F850000026984615468A4601280CD05D
:10178000012784F85070FFF761FA814694F8510000
:10179000B346012804D002269AE00220BDE8F88F63
:1017A000BAF1000F6FD0002D6DD0032084F85100E6
:1017B000C4F854B0C4F830A0A586E586C4F838B0A3
:1017C000A4F83CB0A4F83EB0C4F844B0C4F840B0AB
:1017D000A068B0F5004F09D12068016821F04001F0
:1017E00001602068016841F480410160206801685F
:1017F000490603D4016841F040010160E068B0F59A
:10180000006F606803D058B3012D29D049E008B1BA
:10181000012D1FD1206B21680088C86006E0206878
:101820008168890709D5216B0988C160206B801CFC
:101830002063E08E401EE0860CE0FFF707FAA0EB85
:101840000901414503D3B8F1FF3F03D006E0B8F1E9
:10185000000F03D0E08E0028E1D125E0032635E01B
:10186000206B21680078087306E02068816889078A
:101870000AD5216B09780173206B401C2063E08E30
:10188000401EE0860DE01FE0FFF7E0F9A0EB090144
:10189000414503D3B8F1FF3F03D0DFE7B8F1000FB4
:1018A000DCD0E08E0028E0D14A464146204600F0D8
:1018B00047FE08B120206065A06818B92068C1689B
:1018C00080680090606D08B1012601E084F85170D5
:1018D00084F850B0304661E72DE9FF4F81B00446EF
:1018E00090F8500000260E9F1D4693464FF00109C8
:1018F00001280FD04FF0010A84F850A0FFF7A6F995
:10190000804694F85100616801280DD0B1F5827FBE
:1019100008D103E0022005B0BDE8F08FA16809B945
:10192000042801D00226C9E00298002865D0BBF146
:10193000000FFBD0002DF9D094F85100042802D0FC
:10194000052084F8510000206065C4F838B0E587B0
:10195000A58702992163E586A586206460642068D6
:101960000168490603D4016841F040010160E06864
:10197000B0F5006F606803D0F0B3012D47D081E06F
:1019800008B1012D3CD1206B21680088C860206B14
:10199000801C2063E08E401EE08631E02068816874
:1019A00089070FD5E18E69B1B9F1010F0AD1216B19
:1019B0000988C160206B801C2063E08E401EE08699
:1019C0004FF0000920688168C9070CD0E18F51B140
:1019D000C068A16B0880A06B801CA063E08F401ED4
:1019E000E0874FF00109FFF731F9A0EB0800B8429A
:1019F00006D3781C04D001E009E05BE003265BE03D
:101A0000E08E0028CAD1E08F0028C7D140E0206BCB
:101A1000216800780873206B401C2063E08E401E14
:101A2000E0862FE02068816889070FD5E18E69B1D3
:101A3000B9F1010F0AD1216B09780173206B401CA9
:101A40002063E08E401EE0864FF000092068816828
:101A5000C9070CD0E18F51B1C068A16B0870A06BB1
:101A6000401CA063E08F401EE0874FF00109FFF7A4
:101A7000EDF8A0EB0800B84202D3781C02D0BAE718
:101A8000002FB8D0E08E0028CCD1E08F0028C9D13B
:101A900042463946204600F053FD18B10126202069
:101AA00060650BE0A06818B92068C1688068009084
:101AB000606D08B1012601E084F851A0002084F88F
:101AC0005000304627E710B5401EB0F1807F01D3AB
:101AD000012010BD4FF0E02460610F21601701F07C
:101AE0005FF80020A06107202061002010BD704732
:101AF0007047000070B590F83C20012A32D00124D4
:101B000080F83C40022280F83D2003685A689D68B6
:101B100022F070060A6832435A60134B02689A42F8
:101B200014D0B2F1804F11D0104B9A420ED0104B0E
:101B30009A420BD00F4B9A4208D00F4B9A4205D0D5
:101B40000E4B9A4202D00E4B9A4204D1496825F0BE
:101B500080031943916080F83D40002180F83C10DB
:101B6000084670BD022070BD000001400004004026
:101B700000080040000C004000040140004001400B
:101B80000018004010B5040003D094F83D0010B1D7
:101B900007E0012010BD002084F83C00204600F042
:101BA0001FF8022084F83D00211D206800F004FE8B
:101BB000012084F8460084F83E0084F83F0084F851
:101BC000400084F8410084F8420084F8430084F81F
:101BD000440084F8450084F83D00002010BD00005A
:101BE00010B586B0044614216846FEF731FD1F4B40
:101BF000226800211E489A4207D1016841F0010184
:101C00000160006800F001002DE01A4B9A4220D1DB
:101C10001748001F026842F002020260006800F0EC
:101C20000200059012481438026842F00402026073
:101C3000006800F004000590581500900220CDE9DE
:101C40000101CDE9031069460B48FEF7DFFE06B03F
:101C500010BD0A498A42FAD1016841F002010160CF
:101C6000006800F002000590F1E70000000001406C
:101C700044380240000400400008024000040140D3
:101C800090F83D10012901D001207047022180F811
:101C90003D100168CA6842F00102CA60006811493B
:101CA000884214D0B0F1804F11D00F4988420ED035
:101CB0000E4988420BD00E49884208D00D4988420F
:101CC00005D00D49884202D00C49884204D1816870
:101CD00001F00701062903D0016841F0010101600C
:101CE0000020704700000140000400400008004050
:101CF000000C00400004014000400140001800407A
:101D000070B5044690F83C000025012817D0012644
:101D100084F83C60022084F83D002068826822F04C
:101D2000770222F47F4282600868502838D00DDCA8
:101D300020284FD005DC90B3102811D14AE00220B2
:101D400070BD302846D040280AD13BE060282FD013
:101D500070280DD0B0F5805F03D0B0F5005F12D0D1
:101D6000012584F83D60002084F83C00284670BDC1
:101D7000CB68D1E90121206800F08AFD20688168E4
:101D800041F0770109E0CB68D1E90121206800F03A
:101D90007FFD2068816841F480418160E1E719E0BE
:101DA000CA684968206800F085FD5021206806E077
:101DB000CA684968206800F08EFD6021206800F044
:101DC00071FDCEE7CA684968206800F073FD4021C4
:101DD0002068F4E7226801461046F0E770472DE9D5
:101DE000F04104460068C66805694FF00007A9077E
:101DF00013D5B10711D5F91E0161012020772068A4
:101E000080698007204602D0FFF7E8FF04E000F079
:101E10007EF8204600F07CF82777680716D5700713
:101E200014D521686FF00400086102202077206833
:101E3000806910F4407F204602D0FFF7CFFF04E016
:101E400000F065F8204600F063F82777280715D5DD
:101E5000300713D521686FF008000861042020774F
:101E60002068C0698007204602D0FFF7B7FF04E072
:101E700000F04DF8204600F04BF82777E80616D51D
:101E8000F00614D521686FF0100008610820207753
:101E90002068C06910F4407F204602D0FFF79EFF03
:101EA00004E000F034F8204600F032F82777E80725
:101EB00008D0F00706D021686FF0010008612046C5
:101EC00000F028F8280608D5300606D521686FF0FE
:101ED000800008612046FFF70AFE680608D57006F4
:101EE00006D521686FF040000861204600F048F8F0
:101EF000A8060AD5B00608D521686FF02000086151
:101F00002046BDE8F041FFF7F3BDBDE8F081704722
:101F100070470000174910B588422AD101F190009E
:101F2000154B026815499A4202D2521C026006E023
:101F30000022026042600A78521C0A700268642320
:101F4000B2FBF3F403FB142212B94268521C426044
:101F500040684FF47A72B0FBF2F302FB1302002ADE
:101F600007D1064A521E5368984202D001234B7093
:101F7000506010BD90090020002A75150100002056
:101F8000704770B5040004D094F84100002510B1EA
:101F900006E0012070BD84F84050204600F024F88F
:101FA000242084F841002068C16821F40051C160F8
:101FB000204600F0A3FC2068016921F490410161F2
:101FC0002068416921F02A0141612068C16841F41B
:101FD0000051C1606564202084F8410084F842000B
:101FE0006563002070BD00002DE9F04F87B0044606
:101FF00014216846FEF72CFB5848574B22680024F2
:102000005649103802250326DFF854B14FF4406CCE
:102010004FF008099A4213D10A6842F400220A607C
:10202000096801F400210591016841F00401016093
:102030000068694600F00400CDE9049058466AE063
:10204000464BDFF820811B1D0727DFF81CA1424506
:102050001BD1196841F010011960196801F01001D5
:102060000591016841F0010101600068694600F0D6
:10207000010005904FF4C060CDE9000550462FE007
:10208000FEF7C4FC07B0BDE8F08FDFF8E080424502
:102090002AD10A6842F400320A60096801F400316A
:1020A0000591016841F001010160016801F0010141
:1020B0000591016841F008010160006802AA00F082
:1020C000080005900420CDE9000582E8D0006946AB
:1020D0005046FEF79BFC4020CDE9000524486946A8
:1020E00002AA82E8D000CBE7DFF88880424517D10A
:1020F0000A6842F480220A60096801F4802105918F
:10210000016841F0020101600068694600F00200C8
:10211000CDE904701848CDE900C5CDE90246AFE726
:1021200016498A42AED1196841F020011960196838
:1021300001F020010591016841F00401016000688F
:1021400002AA00F004000590C020CDE9000582E855
:1021500050026946584693E7004C00404038024020
:10216000000802400010014000000240004400400E
:10217000000C0240004800400004024000140140EE
:10218000FEE710B500F080FEBDE8104000F094BE00
:1021900000F048BE2DE9F04F87B014216846FEF7E5
:1021A00057FA6D480024016841F010010160016890
:1021B00001F010010591016841F48071016001682E
:1021C00001F480710591016841F02001016001680E
:1021D00001F020010591016841F080010160016872
:1021E00001F080010591016841F00401016001687E
:1021F00001F004010591016841F0010101600168ED
:1022000001F001010591016841F0020101600168DE
:1022100001F002010591016841F0080101600168C7
:1022200001F008010591016841F04001016000687A
:10223000DFF8289100F04000059000221821484660
:10224000FEF7FEFCDFF818A1002240215046FEF701
:10225000F7FC002202214348FEF7F2FC48F2120686
:10226000012231464048FEF7EBFC012204213F48A1
:10227000FEF7E6FCDFF8F8B041F20307002239462A
:102280005846FEF7DDFC00227A213A48FEF7D8FCDA
:102290004FF48068002241463748FEF7D1FC1820F1
:1022A00000900125CDE90154694648460394FEF7A4
:1022B000ADFB40F60400CDE9000469462D480294C8
:1022C000FEF7A4FB40200090CDE90154694650463A
:1022D0000394FEF79BFB02200090CDE90154694670
:1022E00020480394FEF792FB0096CDE9015469461D
:1022F0001D480394FEF78AFB04200090CDE90154A9
:1023000069461A480394FEF781FB0097CDE9015412
:10231000694658460394FEF779FB28020090032093
:10232000CDE9010469460F48FEF770FB7A20009062
:10233000CDE9015469460F480394FEF767FBCDF8D9
:102340000080CDE9015469460B480394FEF75EFB1B
:1023500007B0BDE8F08F00003038024000100240A6
:10236000001402400008024000000240001C02402D
:102370000004024000200240001802400F4810B53F
:102380000D4901604FF48271416000218160C1609C
:102390004FF400720161C0E905121822C0E907215B
:1023A000416281620A21C162FFF712F8002801D060
:1023B00072B6FEE710BD0000003001408808002022
:1023C0000F4810B50D4901604FF482714160002142
:1023D00002228160C0E90312012242615202C0E977
:1023E00006210162416281620A21C162FEF7F0FFAB
:1023F000002801D072B6FEE710BD0000003C00408E
:10240000E00800200F4810B50D4901604FF48271BB
:102410004160002102228160C0E903120122426171
:102420005202C0E906210162416281620A21C16251
:10243000FEF7CEFF002801D072B6FEE710BD000007
:10244000003401403809002010B586B00024164839
:102450000094019402940394049412490594016039
:102460005921C0E901140921C0E903148461FFF76F
:1024700089FB08B172B6FEE74FF4805000906946C0
:102480000948FFF73DFC08B172B6FEE7049404A9C1
:1024900005480594FFF72EFB002801D072B6FEE731
:1024A00006B010BD0004004090090020FEE7FEE7E2
:1024B00070470000012210210148FEF7C1BB000057
:1024C00000100240002210210148FEF7B9BB0000B5
:1024D00000100240012080F310887047002080F334
:1024E00010887047F8B5044640684FF482739842EC
:1024F00021D1A0684FF48065B0F5004F01D0A8420B
:102500000AD12068066826F0400606606068984296
:1025100011D1A068A8420ED000920B460022802163
:10252000204600F043F8002804D0606D40F0200001
:1025300060650320F8BD00920B4600220121EFE701
:10254000F8B515460E460B460092044601220221BC
:1025500000F02CF8A0B9134813490068B0FBF1F063
:102560004FF47A71484300906068B0F5827F0DD1D6
:102570003346002280212046009500F017F870B104
:10258000606D40F0200060650320F8BD009830B118
:10259000401E009020688068C0430006F6D50020E9
:1025A000F8BD00002C00002000366E012DE9F84334
:1025B0001E46914688460446089DFEF747FB401B91
:1025C000351AFEF743FB074625480068C0F3CB30B9
:1025D000684338E0701C37D0FEF738FBC01BA842B8
:1025E00003D215B1009860B32CE02068416821F057
:1025F000E00141606068B0F5827F0BD1A068B0F562
:10260000004F02D0B0F5806F04D12068016821F03E
:1026100040010160A06AB0F5005F09D1206801683F
:1026200021F4005101602068016841F4005101600B
:10263000012084F85100002084F850000320BDE8F8
:10264000F8830025401E00902068816838EA010068
:1026500004D000214945BDD10020F0E70121F9E770
:102660002C0000207047FEF7F7BA000030B593B099
:1026700030216846FDF7ECFF14210CA8FDF7E8FFB8
:1026800020480025016841F080510160006800F099
:10269000805011901C48016821F4404141F4804170
:1026A00001600068022400F4404011900120009075
:1026B000000401908001CDE90640192008904FF4F4
:1026C000B470CDE9090404200B906846FEF782FC43
:1026D00008B172B6FEE7FEF759FB08B172B6FEE725
:1026E0000F20CDE90C0480200E904001CDE90F05AC
:1026F00002210CA8FEF782FB002801D072B6FEE78B
:1027000013B030BD403802400070004002480168FC
:1027100041F470010160704788ED00E00148FFF767
:102720005EBB00009009002030B5204C20684FF0BF
:10273000000283B21E4801780D0635D4DD0706D0AD
:102740004D0604D5CD43AD0613D0491C0170990741
:102750002AD5037817495D0612D543F0800303702C
:10276000144B14331B684360086820F002000860B3
:102770001AE041F0800101704FF0FF314160E6E75F
:1027800040234260037009481038036823F00103B6
:102790000360084B1B1D1A600B6843F002030B60BB
:1027A000016841F001010160226030BD100C004061
:1027B00044000020200C0040F0B50268294C2A4D4E
:1027C0002A4E2B4F2B4B4FF0804CA04209D0604536
:1027D00007D0A84205D0B04203D0B84201D09842F9
:1027E00004D122F0700E4A6842EA0E02A0421BD0C9
:1027F000604519D0A84217D0B04215D0B84213D0C6
:10280000984211D01C4DA8420ED01C4DA8420BD0AE
:102810001B4DA84208D01B4DA84205D01A4DA84216
:1028200002D01A4DA84203D122F44075CA682A4347
:102830004D6922F080022A4302608A68C2620A68F7
:102840008262A04201D0984201D10969016301214D
:1028500041610169C90703D0016921F001010161EA
:10286000F0BD0000000001400004004000080040EE
:10287000000C0040000401400040014000440140C1
:102880000048014000180040001C004000200040AB
:1028900010B5846842EA032224F47F440A432243A9
:1028A000826010BD826822F070020A4342F0070184
:1028B0008160704710B5036A046A24F00104046261
:1028C000846924F0F00444EA021423F00A020A4363
:1028D0008461026210BD10B5036A046A24F010041A
:1028E0000462846923F0A00324F4704444EA0232B1
:1028F00043EA01118261016210BD000070B5044617
:1029000000680169E26821F44051114301612169C5
:10291000A068E26908436169114308432168CA68F5
:1029200049F20C639A430243CA6020684169A26974
:1029300021F440711143416131492068884202D03D
:102940003049884202D1FEF703FB01E0FEF7F0FABE
:10295000E2690023192164253226B2F5004F62682E
:1029600028D0A0FB0101930F9200FDF79AFC0146CD
:10297000B0FBF5F06FF01802504301EB800006EB5E
:102980000010B0FBF5F000F0F002B1FBF5F002EB47
:102990000012B1FBF5F06FF01803584301EB800013
:1029A00006EB0010B0FBF5F000F00F0021681044BA
:1029B000886070BDA0FB010192185B41FDF771FCBE
:1029C0000146B0FBF5F00201B1FBF5F06FF0180322
:1029D000584301EB800006EBC000B0FBF5F000F0BF
:1029E000F80002EB4002B1FBF5F0584301EB800028
:1029F00006EBC000B0FBF5F000F00700D6E70000E2
:102A000000100140001401400B4810B5006880061A
:102A100010D50A4801210022417007498270091D22
:102A20000B68074C01786354491CC9B20170352901
:102A300000D3027010BD00000044004030000020B0
:102A4000680A0020FEE7000070B50D4C0546A0683E
:102A5000804720698047E169C5F307408847E169FD
:102A6000C5F307208847E169E8B28847A069804735
:102A7000054660698047E0688047284670BD0000D1
:102A8000640000202DE9F041114C06461746A0686D
:102A900088460025804720698047E169C6F30740E2
:102AA0008847E169C6F307208847E169F0B28847A3
:102AB00005E0A069804708F805006D1CADB2BD4275
:102AC000F7D360698047E068BDE8F0410047000047
:102AD0006400002070B50E4C05460E46A068804785
:102AE0002069804745F00405E169C5F30740884740
:102AF000E169C5F307208847E169E8B28847E169E1
:102B00003046884760698047E068BDE8704000470C
:102B1000640000202DE9F041124C06461746A068DB
:102B20008846002580472069804746F00406E16911
:102B3000C6F307408847E169C6F307208847E16983
:102B4000F0B2884706E000BFE16918F80500884741
:102B50006D1CADB2BD42F7D360698047E068BDE847
:102B6000F0410047640000200A480B49007800F05B
:102B70007F00086008490020083108600748D0F845
:102B8000801221B15FF00001C0F88012704701216E
:102B9000FAE700004C000020002C0040008040427A
:102BA0000907090E002804DB00F1E02080F800147A
:102BB000704700F00F0000F1E02080F8141D70470E
:102BC00030380A2801D20120704700207047704732
:102BD00070B50446082802D94FF0FF3070BD4FF49D
:102BE000847000EB441005461021FFF773FF284660
:102BF000FFF72AFF0028FAD14FF4027000EB4410CF
:102C00001F21FFF767FF0C480121A14082888A43FA
:102C10000A498280002021F814000749891D0855BF
:102C20004FF4427000EB44142046FFF70DFF0028DC
:102C3000FAD1012070BD00004E000020DE0A002005
:102C400010B50C4606281ED2DFE800F003070B1073
:102C50001418204601F044F813E0204600F0B2FFBB
:102C60000FE02078BDE8104001F066B800F0D6FF14
:102C7000207006E0204601F071F802E0204600F0E6
:102C8000D0FF002010BD4FF0FF3010BD2DE9F04106
:102C90000C46002102464F1E08464FF498554FF44B
:102CA000A056102A61D2DFE802F0080B17131A1E93
:102CB000222C3643464A574E535A01F066F84BE0F1
:102CC00014B1204604F10801BDE8F04100F0BDBF99
:102CD000208800F046FF3FE000F056FF05E0208826
:102CE00000F0F0FF38E000F05EFF208034E0208844
:102CF000010A2846FFF7EEFE21783046FFF7EAFE8C
:102D00002AE03046FFF7A0FE06462846FFF79CFE65
:102D100006EB0020E9E7164882782270C2786270DC
:102D20000279A2704279E27080792071617113E0BA
:102D300001F0A1F810E0204601F0B2F80CE02046C6
:102D400001F05DF808E02078BDE8F04101F0CDB871
:102D500001F085F805E020700020BDE8F08101F069
:102D600075F8C0B241B2491CF5D13846F5E700000C
:102D70006400002004490A685206FCD5024AC1B228
:102D8000121D116070470000004C00402DE9F04119
:102D900042F2086101EB401542F20871002601EB96
:102DA00040142846FFF750FE07462046FFF74CFE2A
:102DB00000EB072007043F0C09D02846FFF744FE2C
:102DC00006462046FFF740FE00EB062086B2BE42D4
:102DD000E7D13046BDE8F0812DE9F04142F208012B
:102DE00001EB401542F20811002601EB4014284681
:102DF000FFF72AFE07462046FFF726FE00EB0720D6
:102E000007043F0C09D02846FFF71EFE0646204661
:102E1000FFF71AFE00EB062086B2BE42E7D130462D
:102E2000BDE8F0812DE9F041804600218723F022A2
:102E3000084600F067F9114F4FF400460022314672
:102E40003846FDF7FDFE012202210D48FDF7F8FE90
:102E50000025002441460B4800F08AF9641CA4B206
:102E6000872CF7D36D1CADB2F02DF2D33146384626
:102E7000BDE8F0410122FDF7E3BE00000000024082
:102E800000080240E008002010B50A4C002204218E
:102E90002046FDF7D5FE4FF47A70FDF7A5FD01221F
:102EA00004212046FDF7CCFEBDE810406420FDF76C
:102EB0009BBD0000001C024010B54FF47A70FDF776
:102EC00093FD1121894800F097F97820FDF78CFDDA
:102ED0003A21864800F090F90521844800F06CF909
:102EE000C521824800F088F91A21804800F064F971
:102EF00036217E4800F080F900217C4800F05CF922
:102F0000B2217A4800F078F90521784800F054F9A8
:102F10000521764800F050F90021744800F04CF982
:102F20003321724800F048F93321704800F044F929
:102F3000B7216E4800F060F905216C4800F03CF9BB
:102F4000BB216A4800F058F93F21684800F034F985
:102F5000C021664800F050F92C21644800F02CF99B
:102F6000C221624800F048F90121604800F024F9CC
:102F7000C3215E4800F040F90F215C4800F01CF9C5
:102F8000C4215A4800F038F92021584800F014F9BB
:102F9000C621564800F030F90121544800F00CF9E0
:102FA000D021524800F028F9A421504800F004F93B
:102FB000A1214E4800F000F9E8214C4800F01CF92E
:102FC00003214A4800F0F8F8E921484800F014F9D4
:102FD0000921464800F0F0F80921444800F0ECF8D7
:102FE0000821424800F0E8F8E021404800F004F9E8
:102FF000D0213E4800F0E0F805213C4800F0DCF824
:1030000009213A4800F0D8F80921384800F0D4F8EE
:103010000821364800F0D0F81421344800F0CCF8EC
:103020002821324800F0C8F83321304800F0C4F8B5
:103030003F212E4800F0C0F807212C4800F0BCF8D2
:1030400013212A4800F0B8F81421284800F0B4F8F9
:103050002821264800F0B0F83021244800F0ACF8D0
:10306000E121224800F0C8F8D021204800F0A4F85F
:1030700005211E4800F0A0F809211C4800F09CF82A
:1030800009211A4800F098F80821184800F094F82F
:103090000321164800F090F82421144800F08CF821
:1030A0003221124800F088F83221104800F084F8EC
:1030B0003B210E4800F080F814210C4800F07CF809
:1030C00013210A4800F078F82821084800F074F825
:1030D0002F21064800F070F82121044800F08CF8F8
:1030E000BDE810402921014800F086B8E008002022
:1030F00008B532238DF8001001226946FEF735FB32
:1031000008BD00002DE9F0410E4607461C46154655
:103110002A21164800F070F8390A144800F04CF8DB
:10312000F9B2124800F048F8290A104800F044F8B3
:10313000E9B20E4800F040F82B210C4800F05CF892
:10314000310A0A4800F038F8F1B2084800F034F8C3
:10315000210A064800F030F8E1B2044800F02CF8EB
:10316000BDE8F0412C21014800F046B8E0080020FD
:103170002DE9F0410E4E0C4607464FF40045002263
:1031800029463046FDF75CFD012202210948FDF782
:1031900057FD210A3846FFF7ABFF21463846FFF7B7
:1031A000A7FF29463046BDE8F0410122FDF748BDA2
:1031B00000000240000802402DE9F0410C4D0E468F
:1031C00007464FF40044002221462846FDF738FD0B
:1031D000012202210748FDF733FD31463846FFF74B
:1031E00087FF21462846BDE8F0410122FDF728BDB2
:1031F00000000240000802402DE9F0410C4D0E464F
:1032000007464FF40044002221462846FDF718FDEA
:10321000002202210748FDF713FD31463846FFF72B
:1032200067FF21462846BDE8F0410122FDF708BDB1
:10323000000002400008024008B5FDF715FDFFF749
:1032400015FAFEF7A7FFFFF799F8FFF7B9F8FFF7B0
:10325000D9F8FFF7F9F84248404900240160414994
:10326000C0E901140C21C460C0E904418461C46157
:10327000FEF787FE08B172B6FEE7002201211D208D
:10328000FDF752FD1D20FDF741FD00F0C5FB344860
:103290004838FEF7F5FCFEF774FF4FF47840FEF770
:1032A00077FF00F019F900F073F8FEF749F84FF4D2
:1032B000FA70FDF799FB48F2340200210320FDF774
:1032C00069FB274D284F4FF442794FF4027854356B
:1032D0007878012806D122484830416823A0FDF7BC
:1032E00057F87C704846FFF7AFFB70B32228EFD148
:1032F0006420FDF779FB46464046FFF7A5FB4007F3
:1033000003D504213046FFF7E5FB0020FFF73EFD23
:1033100010F0FF06DCD0711C1A48FDF799F910482F
:10332000AB1D5E30009032461649002000F034F9A3
:10333000144915A0FDF72CF868890090AB1D3246A2
:103340001049002000F044FAC2E7FFE70023AA88F2
:103350000221184600F0DEFABAE70000004C0040F7
:10336000D809002020A10700010000202564206D5D
:103370007320486561727442656174204D736720E3
:103380000A0D00008800002025730D0A00000000CF
:1033900010B586B021490020FFF752FC1F490120DB
:1033A000FFF74EFC03A90820FFF770FC1C4803AA96
:1033B00041681CA0FCF7ECFF184CE0786279217999
:1033C0008DE80700A378627821781EA0FCF7E0FF63
:1033D000607A0090237AE279A17924A0FCF7D8FFE3
:1033E000607C0090237CE27BA17B25A0FCF7D0FFD2
:1033F000607B0090237BE27AA17A26A0FCF7C8FFCD
:10340000607D0090237DE27CA17C27A0FCF7C0FFBB
:103410002AA0FCF7BDFF06B010BD00000800002088
:10342000200A00200D0A203D3D3D202564206D73BB
:10343000202573204E455420434F4E46203D3D3DB0
:103440000D0A00004D41433A20253032583A2530CC
:1034500032583A253032583A253032583A253032EF
:10346000583A253032580D0A000000005349503AAE
:103470002025642E25642E25642E25640D0A000067
:103480004741523A2025642E25642E25642E25645A
:103490000D0A00005355423A2025642E25642E253E
:1034A000642E25640D0A0000444E533A2025642EF4
:1034B00025642E25642E25640D0A00003D3D3D3D0A
:1034C0003D3D3D3D3D3D3D3D3D3D3D3D3D3D3D3D2C
:1034D0003D3D0D0A0000000000B5174B85B00DF111
:1034E000040C0FCB8CE80F001449154800F036F996
:1034F0001449154800F044F91449154800F052F9F0
:1035000001A90120FFF7C2FB401C05D11148416809
:1035100011A0FCF73DFFFEE769460F20FFF7B6FB61
:10352000401C02D115A0FCF733FF9DF800000028D5
:10353000F2D005B000BD0000443F0008DD240008C3
:10354000D5240008B5240008C5240008811300080C
:1035500045130008200A00202564206D7320574978
:103560005A4348495020496E697469616C697A65AB
:1035700064206661696C2E0D0A000000556E6B6E4A
:103580006F776E20504859204C696E6B20737461C0
:103590007574732E0D0A00002DE9FF4F002583B0CE
:1035A000984617460446082803D9681E07B0BDE8A8
:1035B000F08F60014FF0010A0830FFF745FA8346AB
:1035C00000F00F00022804D0042802D06FF004009D
:1035D000ECE72FB1DFF87C9139F8140018B11EE048
:1035E0006FF00D00E2E74FF4427000EB44160AFA68
:1035F00004FA2046FFF7CAFB05463046FFF724FAD7
:1036000030B1554949881AEA010F06D01DB106E0CC
:103610006FF00300CAE70020C8E7002DE9D0DFF80B
:1036200038A100210AF1060A4FF484700AF8041048
:103630000BF007014FF0800B00EB4416022920D05D
:1036400004295AD02946204600F036FA29F81450A9
:1036500030464021FFF73EFA3046FFF7F5F90028E3
:10366000FAD139F81410491B0904090C29F814106F
:1036700005D01AF8041041F001010AF80410284698
:1036800094E739F814004D4680BB0822694620466D
:1036900000F0E2F930464021FFF71CFA3046FFF710
:1036A000D3F90028FAD19DF8001088F800109DF891
:1036B000011088F801109DF8021088F802109DF89A
:1036C000031088F8031010999DF8040008809DF8F5
:1036D000051001EB0020109908809DF806009DF868
:1036E000071001EB002025F814002BE02CE02A46FF
:1036F0002046049900F0B0F9AAE739F814004D46C5
:1037000010BB02226946204600F0A6F9304640214F
:10371000FFF7E0F93046FFF797F90028FAD19DF856
:1037200000009DF8011001EB002080B240F2EA5148
:1037300025F81400884205D92046FFF749FA6FF4AE
:103740007A7033E70AF804B035F81450BD42CED988
:103750003D46CCE7DE0A00204E000020054A18B1A5
:1037600011B1C2E902017047034890600348D0607C
:103770007047000064000020813B0008833B000884
:10378000054A18B111B1C2E904017047034810613C
:10379000034850617047000064000020873B000828
:1037A000853B0008074A10B513889C05FDD518B164
:1037B00011B1C2E9060110BD034890610348D06110
:1037C00010BD000064000020853D0008893D000810
:1037D0002DE9F0479946089E15468A460446082872
:1037E00003D94FF0FF30BDE8F08760014FF00108CA
:1037F0000830FFF729F900F00F00022804D0042850
:1038000002D06FF00400EEE78DB1D9F8000088B166
:103810009EB14FF4427000EB44100746FFF714F9D5
:1038200042280DD022280BD06FF00600DBE76FF0A6
:103830000D00D8E76FF00B00D5E76FF00A00D2E774
:1038400040F6084000EB441004224946FFF762F9B5
:1038500041F20800310A00EB4410FFF73BF941F256
:103860000810F1B200EB4410FFF734F941F608708C
:1038700000EB4410FFF7E8F84FF6FF7101EA8020F3
:10388000854200D9054608FA04F6DFF88480204610
:10389000FFF7A2FA81463846FFF7D6F838B1B8F8F4
:1038A0000200064206D04D4504D900209BE76FF088
:1038B000030098E74D45EAD82A465146204600F0D5
:1038C0001CF94FF4847000EB441006462021FFF7EA
:1038D00001F94FF4027000EB44143046FFF7B4F8DE
:1038E0000028FAD12046FFF7AFF800F01F00C1060C
:1038F00005D520461021FFF7EDF8284673E70007AD
:10390000F0D520460821FFF7E5F86FF00C006AE7D4
:103910004E0000202DE9F0411D4617460E46044694
:10392000082803D94FF0FF30BDE8F081012E06D002
:10393000022E04D0042E02D06FF00400F4E715F03C
:10394000060F6FF00500EFD185B1012E02D0022ED7
:103950000CD103E015F0210FE6D007E0A90601D550
:103960002906E1D5E90601D52906DDD52046FFF770
:103970002FF9600105F0F0014FF0010831430830E4
:10398000FFF7A8F8224E57B93788781C80B2A0F507
:103990007F413080F03902D14FF4404030804FF405
:1039A0008160390A00EB4410FFF794F84FF4A160EE
:1039B000F9B200EB4410FFF78DF84FF4847000EB80
:1039C000441007460121FFF785F83846FFF73CF819
:1039D0000028FAD105F001007188A04008437080EA
:1039E000B18808FA04F08143B1800A49002021F827
:1039F00014000749891D08554FF4427000EB441527
:103A00002846FFF721F80028FAD060B28CE70000C2
:103A10004E000020DE0A00200D4910B500208870FD
:103A20000B480121401EC02201700A48A82305242A
:103A30008271C3710172447242F2B82444810270EF
:103A4000437081700B21C17041F64171818010BDBE
:103A5000010000202C0A00202DE9F0475FEA02084F
:103A60008946064626D042F6081000EB4615284641
:103A7000FEF7EAFF074642F6080000EB4614204630
:103A8000FEF7E2FF07EB002087B2380200EB46109A
:103A9000424649461830FEF7F5FF07EB080086B2AC
:103AA000310A2046FFF716F8F1B22846BDE8F04784
:103AB000FFF710B8BDE8F0872DE9F041044642F663
:103AC000081000EB44150E462846FEF7BDFF0746DA
:103AD00042F6080000EB44142046FEF7B5FF07EB62
:103AE0000020304486B2310A2046FEF7F3FFF1B2DF
:103AF0002846BDE8F041FEF7EDBF2DE9F0475FEA4B
:103B000002088946064626D042F2085000EB4615C8
:103B10002846FEF799FF074642F2084000EB46149C
:103B20002046FEF791FF07EB002087B2380200EB3A
:103B30004610424649461030FEF7ECFF07EB0800FE
:103B400086B2310A2046FEF7C5FFF1B22846BDE82D
:103B5000F047FEF7BFBFBDE8F087007870470170FF
:103B6000704710B5040A00F0F0014FF4A850FEF7BA
:103B7000B1FF2146BDE810404FF4B850FEF7AABF90
:103B8000704770477047704710B54FF4A850FEF764
:103B90005BFF00F0F0044FF4B850FEF755FF04EB64
:103BA000002080B210BD10B54FF4B050FEF74CFFAE
:103BB00004464FF4C050FEF747FF04EB002080B2EC
:103BC00010BD000010B50446014606224FF41060F7
:103BD000FEF758FF042204F10E019001FEF752FF98
:103BE000042204F10A014FF4A060FEF74BFF042207
:103BF000A11D4FF47060FEF745FF07480178A174DE
:103C00004178E17481782175C07860750248401E62
:103C10000078A07510BD00005D0000200020FEF7B8
:103C200013BF70B504464FF4D850FEF70DFF207057
:103C30004FF4D050FEF708FF05464FF4C850FEF78A
:103C400003FF05EB0020608070BD2DE9F0410D46BB
:103C50000646002400F099F84FF0FF38AEB100227C
:103C6000B05C521C204452B244B2082AF8DB102C3B
:103C700017DC002441F60877315D07EB4410FEF7AE
:103C800029FF641C64B2082CF6DBCDB10021084684
:103C90002A5C401C114440B249B20828F8DB1029C4
:103CA00002DD4046BDE8F081002441F60866295D4A
:103CB00006EB4410FEF70EFF641C64B2082CF6DB22
:103CC0000020EFE710B5C1B2040A4FF4B050FEF780
:103CD00001FF2146BDE810404FF4C050FEF7FABE88
:103CE00010B50446014606224FF41060FEF712FF9D
:103CF000042204F10E019001FEF70CFF042204F1EE
:103D00000A014FF4A060FEF705FF0422A11D4FF445
:103D10007060FEF7FFFE0748A17C0170E17C4170F6
:103D2000217D8170617DC1700249A07D491E0870AE
:103D300010BD00005D00002010B5044630F03A00D0
:103D400002D04FF0FF3010BD0020FEF77DFE40EAAC
:103D500004010020FEF7BEFE002010BD10B5044691
:103D600001784FF4D850FEF7B5FE6088010A4FF491
:103D7000C850FEF7AFFEA178BDE810404FF4D05018
:103D8000FEF7A8BE002070477047F0B585B04FF42D
:103D90001064062269462046FEF774FE042295014F
:103DA00002A92846FEF76EFE4FF4A066042203A97E
:103DB0003046FEF767FE4FF47067042204A93846C8
:103DC000FEF760FE80210020FEF784FE0020FEF753
:103DD0003BFE062269462046FEF79CFE042202A90D
:103DE0002846FEF797FE042203A93046FEF792FE0E
:103DF000042204A93846FEF78DFE05B0F0BD10B5CB
:103E000004464FF43850FEF71FFEC0F380112170B6
:103E100000F0380001220021202811D038280FD0CE
:103E2000617010280ED018280CD020280AD0A1705C
:103E3000082809D0182807D0202805D0E17010BD27
:103E40006270EEE7A270F3E7E27010BD10B54FF4B8
:103E50003850FEF7F9FDC00700D0012010BD10B5A5
:103E600000244FF43850FEF7EFFD10F0300F00D073
:103E70000124204610BD10B54FF438542046FEF7FB
:103E8000E3FD20F080012046FEF724FE2046FEF7E9
:103E9000DBFD40F080012046BDE81040FEF71ABE71
:103EA00010B502780021012A00D140214278012A70
:103EB00006D0C2788078012A05D001280BD00CE00A
:103EC00041F0380109E0012802D041F0080104E086
:103ED00041F0180101E041F010014FF43850FEF7B5
:103EE000F9FDBDE81040FFF7C6BF70B504464FF4BA
:103EF00038563046FEF7A8FD41064FF0FF351AD57B
:103F000020F03800012C10D040F038013046FEF788
:103F1000E1FDFFF7B0FF3046FEF796FD012C07D01C
:103F200000F0380038B1002070BD40F03001EDE7FE
:103F300000F03000F6E7284670BD4FF04070E1EE2B
:103F4000100A704702020202020202020202020288
:103F5000020202020000000000000000010203044F
:103F60000607080900000000010203043031323363
:103F7000343536373839414243444546403058009D
:103F800030313233343536373839616263646566CF
:103F9000403078000400000800000000000000022B
:103FA0000001000010000000C83F000800000020D1
:103FB00088000000E8010008504000088800002048
:103FC000C81000000402000800000000000000000B
:103FD0000008DC111111C0A80101FFFFFF00C0A8FB
:103FE000010108080808010001000000100000009D
:103FF000000000000024F4000000000000000000A9
:1040000000000000000000000000000000000000B0
:10401000000000007F0000C0000000000000000061
:104020000000000000000000000000000102573501
:1040300035303000813B0008833B0008873B000897
:10404000853B00085B3B00085F3B00080000000068
:04000005080001AD41
:00000001FF
